:020000040000FA
:06000000020A950201C78F
:03002B000208D0F8
:0300330002063F83
:030043000207852C
:030053000200F8B0
:03006B0002061971
:1000830002015C0101FF0503015B105B105B105B68
:1000930010170F110F5B101E1E00000000E21E0060
:1000A3000000000C0000000C000100002F120000F3
:1000B30000000000E9120000000000000000000042
:1000C300FFFF0101010015050000006605E8036458
:1000D300006400B801020200080000050207051EC3
:1000E30002051E0A03B80B020102FFFF0296511814
:1000F3000002020612C0E074F21203E0A2AFE4337E
:10010300FED2AFE5A7FFE5A1F5085F541060061224
:10011300194375A1EFE5085F540860081219497582
:10012300A1F7802BEFA2E0C0D0E508A2E092F01285
:1001330009D2158182F05017906198E0F890084138
:10014300E0C398A2D265D0335002E8F075A1FEEE69
:10015300A2E092AF7F0102043FC0E074F21203E019
:10016300A2AFE433FED2AF9061A4E0F8759B00E543
:100173009158540860087591F7121991802AE591F6
:1001830058541060087591EF121997801BE8A2E08C
:10019300C0D0E591A2E092F01209D2158182F0500D
:1001A30007E0C2E0F0121ADB9061A3E0F8E5E9583A
:1001B3005404600E121AB175E9FB906193E0A2E654
:1001C30040F2808BC0E074F21203E0A2AFE433FE8E
:1001D300D2AF9061A5E0F8E5BF585404600675BF3F
:1001E300FB121AF3020152C3E498F8E499F91202DC
:1001F3002B8026C3E49AFAE49BFBE920E7E9120289
:100203002BE498F8E499F922C3E498F8E499F912F5
:10021300022BE498F8E499F9C3E49AFAE49BFB22ED
:10022300EB20E7CFE920E7E0B90010BB0008E88A3C
:10023300F084F8AAF022E4FBC8FA22EB70227B10C8
:10024300C833C8C933C9335007C39AC3DBF2800626
:100253009A50012ADBEAC833F4C8C933F4C9FA2235
:1002630075F008E4C833C8C933C933C99AC99B5068
:1002730004C92AC93BD5F0ECFBC833F4C8E4C9FA76
:1002830022080808EAC0E0EBC0E086F0E7A4FA1809
:100293000986F0E7A42AFA180986F0E7A42AFA18CF
:1002A3000986F0E7A42AFA1986F0E7A4FBE5F02A09
:1002B300FA190886F0E7A42BFBE5F03AFA19088649
:1002C300F0E7A42BFBE5F03AFA18180986F0E7A447
:1002D300C5F02BFBE43AFA1908E7C5F0C6A426F6E5
:1002E300E5F03BFBE43AFA1886F0E7A4F6E5F008FC
:1002F30026F6E43B08F6E43A08F6D0E0FBD0E0FA51
:1003030022E4CFC0E0E4CEC0E0E4CDC0E0E4CCC062
:10031300E075F020C3E633F608E633F608E633F675
:1003230008E633F6181818EC33FCED33FDEE33FE14
:10033300EF33FFC3EC9709ED9709EE9709EF971990
:100343001919400FFFEC97FC09ED97FD09EE97FE95
:10035300191906D5F0BEECF709EDF709EEF709EF29
:10036300F7191919D0E0FCD0E0FDD0E0FED0E0FF92
:10037300222518C582C0E0E51934FFC583C0E0E536
:1003830018C3958224F810AF0885831985821880D5
:1003930008858319858218D2AFCEF0A3E520F0A398
:1003A3007808E608F0A3DEFAEFF0A3E58124FAF873
:1003B300E608F0A3E608F0A3E608F0A30808E608B9
:1003C300F0A3E608F0A315811581D0E0FED0E0F894
:1003D300158115811581E8C0E0EEC0E022C0D0256B
:1003E30018C582C0E0E51934FFC583C0E0E518C332
:1003F300958224F310AF08858319858218800885B8
:100403008319858218D2AFC8F0A3E9F0A3EAF0A359
:10041300EBF0A37908E709F0A3D8FAECF0A3EDF029
:10042300A3EEF0A3EFF0A3D0E0F0A3D0E0F0A3D0CD
:10043300E0F0A3E520F0A3E5F0F0A322851983857E
:100443001882E0C0E0A3E0F9A3E0FAA3E0FBA378FD
:1004530008E0F608A3DFFAE0FCA3E0FDA3E0FEA3B7
:10046300E0FFA3E0C0E0A3E0C0E0A3E0F5D0A3E099
:10047300F520A3E0A3F5F010AF0885831985821852
:100483008008858319858218D2AFD082D083D0E0CB
:10049300F8D0E032120AF7B900030204D9E490035A
:1004A300017898790A8002F0A3D8FCD9FA900C98C5
:1004B300AA82AB83900086787379018015E493A3B5
:1004C300AC82AD838A828B83F0A3AA82AB838C82B6
:1004D3008D83D8E9D9E7758226758386740312085C
:1004E3004875828775831D74001208480875F010DB
:1004F3008E1A8F1B85821F85831E8518828519831B
:10050300E0CEA3E0CF851F82851E83EBC9EAC8ED49
:10051300CBECCAC3E833C8E933C9EA33CAEB33CBFC
:10052300C3EA9EF51DEB9FF51CB35004AB1CAA1D3B
:10053300EC33CCED33CDD5F0DAAE1AAF1B22D0833A
:10054300D082ECC0E0EDC0E0E493A3FCE493A3FD10
:10055300ED4C600D12065DEC24FFFCED34FFFD80D5
:10056300EFE493A3FCE493A3FDED4C600D1207307D
:10057300EC24FFFCED34FFFD80EFD0E0FDD0E0FC88
:10058300E493A3C0E0E493C0E02285198385188235
:10059300E0A3FEE0A3F5207808E0A3F608DFFAE085
:1005A300A3FFE0A3C0E0E0A3C0E0E0A3C0E0E0A3BA
:1005B300C0E0E0A3C0E010AF0885821885831980EE
:1005C30008858218858319D2AFD083D08202084E62
:1005D300D083D082E9C0E0E493A3C386F0C5F0954D
:1005E300F0F908E493A386F0C5F095F0700BE4935B
:1005F300A3C3994005E9048002A3E475F002A4258E
:1006030082F582E5F03583F583D0E0F9E493A3C066
:10061300E0E493C0E022C0E074F21203E0A2AFE48E
:1006230033FED2AFE589A2E1500312181775890092
:10063300C2C5EEA2E092AF7F0102043FC0E074F2B4
:100643001203E0A2AFE433FED2AFE58BA2E0500386
:10065300121817758B00C2E880D8C0E0C3E49396E4
:10066300087401939618400FE493667008087401A8
:1006730093661870007019A3A3C3E49396087401DA
:10068300939618A3A3400DD0E0D0E0D0E002057DFF
:10069300A3A3A3A3A3A3D0E022D083D082C5F0E475
:1006A30093A3C5F0C395F0F5F0E493A3C395F0408D
:1006B30005E5F0048001E475F002A42582F582E5E6
:1006C300F03583F583E493A3C0E0E493C0E02274A0
:1006D30004800474028000CCC0E0EDC0E0E518C3E0
:1006E3009CCCAD1950011D10AF068C188D198006D6
:1006F3008C188D19D2AF1207CAD0E0FDD0E0FC22CE
:1007030074028000CCC0E0EDC0E0E518C39CCCAD22
:100713001950011D10AF068C188D1980068C188D89
:1007230019D2AF1207A8D0E0FDD0E0FC22C0E0C090
:10073300F088F0E4936670080874019366187000FB
:10074300A8F0A3A3700BD0F0D0E0D0E0D0E0020576
:100753007DA3A3D0F0D0E022D083D082CCC0E0E44C
:1007630093A360061208291470FAE493A360061297
:10077300091A1470FAD0E0FCE493A3C0E0E493C038
:10078300E022C0E074F21203E0A2AFE433FED2AF82
:10079300C2C0E5D1A2E450031218B9EEA2E092AFB1
:1007A3007F0102043FCAC0E0E493A3C582CCC582A3
:1007B300C583CDC583F0A3C582CCC582C583CDC512
:1007C30083DAE5D0E0CA22CAC0E0E0A3C582CCC583
:1007D30082C583CDC583F0A3C582CCC582C583CD35
:1007E300C583DAE6D0E0CA22700908080822601639
:1007F300181818C6C333C608C633C608C633C60896
:10080300C633C6D5E0EA22C008C3E096F50808A3BC
:10081300E096420808A3E096420808A3E09645083C
:100823007001D3D00822C0E0E493A3D39C5010E41A
:1008330093A3C39C400AD0E0D0E0D0E0020778A3A2
:10084300A3A3D0E022C09FF59FE473D09F22D0835F
:10085300D082C09FE493C0E0740193C0E07402931C
:10086300F59F227404800A74038006740280027464
:1008730001C0E0F404120881D0E0120AD222251844
:10088300F58210AF08F518400215198008F51840D5
:10089300021519D2AF85198322BB0102E722C08258
:1008A300C08389828A83BB0003E08002E493D08300
:1008B300D08222C0D0251810AF08F51850020519B0
:1008C3008008F51850020519D2AFD0D022C0E0C07D
:1008D300D0E8C0E0E5A8D2AFC2C7A2E792AFD0E0AC
:1008E300F8D0D0D0E0326016080808C6C313C61883
:1008F300C613C618C613C618C613C6D5E0EA22C364
:10090300E0C696F608A3E0C696F608A3E0C696F6F8
:1009130008A3E0C696F622C0E0E493A36C7009D066
:10092300E0D0E0D0E0020778A3A3D0E0222518109E
:10093300AF08F518400215198008F518400215197B
:10094300D2AF22E76670100809E766700A0809E764
:100953006670040809E76622E066701008A3E06683
:10096300700A08A3E066700408A3E06622C3E09659
:1009730008A3E09608A3E09608A3E096A2D265D068
:100983003322C3E096F008A3E096F008A3E096F0C4
:1009930008A3E096F022E026F008A3E036F008A3CF
:1009A300E036F008A3E036F022E627F60809E6373A
:1009B300F60809E637F60809E637F622E026F608D0
:1009C300A3E036F608A3E036F608A3E036F622C025
:1009D300E0E8C0E0E58124FCF8E6A2E7D0E0F8D047
:1009E300E022E647F60809E647F60809E647F6086F
:1009F30009E647F622E657F60809E657F60809E638
:100A030057F60809E657F622E056F608A3E056F62D
:100A130008A3E056F608A3E056F622E056F008A332
:100A2300E056F008A3E056F008A3E056F022700465
:100A330022600D18C6C333C608C633C6D5E0F41802
:100A430022E4C396F608E496F608E496F608E496DC
:100A5300F622600D08C6A2E713C618C613C6D5E072
:100A6300F322C6F4C608C6F4C608C6F4C608C6F41C
:100A7300C622C3E7960809E7960809E7960809E737
:100A83009622C3E09608A3E09608A3E09608A3E0A5
:100A9300962275D0007581407518017519030002FF
:100AA3000497E0F608A3E0F608A3E0F608A3E0F64F
:100AB30022600C08C6C313C618C613C6D5E0F422B9
:100AC300E6F008A3E6F008A3E6F008A3E6F022CADE
:100AD300C0E0E6F0A308DAFAD0E0FA22E0FAA3E0F5
:100AE300FBA3E0FCA3E0FD22EAF0A3EBF0A3ECF010
:100AF300A3EDF022E5C754F84401F5C77901222597
:100B030018F582E43519F58322C2AF75D69F02002A
:100B13000022120851BBAC01120851B2AD011208F8
:100B23005101B00112085154B101120851F7B1013A
:100B330012085142B30112085160B301120851B8AF
:100B43005800120851CA58001208511C59001208C3
:100B5300517D5900120851075A00120851AB5A002F
:100B6300120851FF5A00120851185B001208513E37
:100B73005B00120851795B00120851BD5B0012083B
:100B830051E45B00120851355C00120851E55C002A
:100B93001208519D5D00120851655E001208514212
:100BA3005F00120851C85F00120851D75F00120896
:100BB30051E25F00120851EB6000120851FC600023
:100BC3001208517261001208510462001208515C4C
:100BD3006200120851226300120851536300120885
:100BE30051986300120851A563001208513965003A
:100BF3001208519C6600120851B86700120851226E
:100C03006A001208512D6A00120851376A0012084F
:100C130051426A001208514C6A00120851566A0088
:100C2300120851616A001208516C6A001208519D42
:100C33006A00120851C16A00120851E56A001208DD
:100C4300514A6B001208518E6B00120851AA6B00B7
:100C5300120851216C00120851596C00120851A559
:100C63006C00120851026D00120851E46E00120864
:100C7300516A6F001208513B70001208514B730008
:100C8300120851A07300120851CC730012085118B6
:100C93007500120851687500120851BD75001208DD
:100CA30051BE7600120851567700120851D87700CA
:100CB3001208517878001208510321001208513CA0
:100CC300210012085116230012085155230012085F
:100CD300519F2300120851442400120851A32400F9
:100CE300120851D7240012085144250012085161FB
:100CF3002600120851692700120851FF2700120825
:100D030051462B00120851EF2B00120851CB2C0037
:100D13001208512C2D00120851492E00120851734C
:100D230030001208512A31001208513431001208E0
:100D3300516731001208512E3200120851C9320096
:100D43001208512E330012085157330012085179FB
:100D53003300120851A835001208517F36001208DB
:100D630051C33600120851303700120851EB3700D7
:100D73001208511D380012085161380012085194AD
:100D83003800120851E938001208513E39001208A0
:100D930051D23900120851343A001208519C3A00DA
:100DA300120851453C001208512D3D001208516FA5
:100DB3003E001208519D40001208515D4100120887
:100DC300518C43001208512F44001208516D440006
:100DD3001208511946001208512D460012085137C6
:100DE30046001208516146001208516D4600120870
:100DF300518C4600120851434700120851824700A4
:100E03001208518C47001208514048001208513F04
:100E13004900120851384A00120851D54A001208F5
:100E230051774B001208518E4B00120851C54B00ED
:100E3300120851E34B00120851274C001208514C81
:100E43004C00120851324D001208519E4D001208F9
:100E530051184E00120851274F00120851665000D6
:100E6300120851C85000120851825100120851A5AE
:100E73005100120851795200120851C4520012084D
:100E8300510653001208515D530012085194530048
:100E9300120851C25300120851FB5300120851208B
:100EA3005400120851A85400120851CB56001208DE
:100EB300512A5700120851BE57001208512A5800F0
:100EC3001208517E5800120851A4AC03120851E3D2
:100ED300AC03120851A5B401120851FFB401120862
:100EE300515BB501120851A7B501120851C2B501F2
:100EF300120851F3B50112085110B6011208511C22
:100F0300B60112085190B701120851A9B70112088E
:100F13005110B80112085123B80112085131B80118
:100F2300120851E5B801120851C9B901120851CF8D
:100F3300BA0112085155BB011208515FBB011208D7
:100F430051CCBB01120851E3BB0112085115BC017E
:100F53001208514EBC0112085178BC01120851D934
:100F6300BC01120851F9BC0112085117BD01120846
:100F7300515DBD0112085183BE01120851D0BE015B
:100F8300120851FFBE0112085175BF011208519D8D
:100F9300BF01120851D6BF01120851E4BF01120864
:100FA300513CC0011208518BC001120851CAC00143
:100FB300120851FAC00112085126C1011208513119
:100FC300C1011208514FC10112085111C201120887
:100FD300511BC20112085156C2011208516CC201C1
:100FE30012085175C201120851CAC201120851DE1A
:100FF300C201120851ECC301120851FFC3011208C8
:101003005114C401120851B6C40112085139C50163
:10101300120851F7C50112085102C60112085128DE
:10102300C70112085144C70112085196C70112089B
:1010330051D5C701120851EAC7011208512CC80142
:1010430012085179CA01120851F7CA011208516AEC
:10105300CB011208518CCD01120851A4CD01120805
:1010630051A7CD01120851B3CD01120851C7CD01CB
:10107300120851CFCD0112085102CE01120851B20C
:10108300CE0112085128CF011208519BCF0112083B
:10109300514FD00112085104D10112085123D1013B
:1010A300120851C3D101120851CFD101120851FACC
:1010B300D101120851FDD10112085167D201120862
:1010C300518FD30112085167D401120851F2D40190
:1010D3001208510BD601120851C8D601120851014A
:1010E300D70112085132D701120851D2D701120881
:1010F3005102D801120851DDD80112085176D901E5
:1011030012085101DA01120851B2DA0112085134FE
:10111300DB0112085166DB01120851A7DB0112083B
:1011230051A0C20212085105C30212085142C30260
:1011330012085191C302120851A7C5021208518A1D
:10114300C702120851F4CA021208512FCB02120827
:101153005151CB02120851B4CB02120851E8CB0211
:101163001208510BCC0212085138CC0212085194C8
:10117300CC021208518AAC0212085108AD021208BF
:10118300513EAD02120851AAAD021208511DAF0221
:1011930012085139AF021208517EAF021208510CE6
:1011A300B00212085165B00212085192B10212083E
:1011B30051A4B20212085101B3021208516DB302D5
:1011C300120851CEB3021208510FB402120851BCD7
:1011D300B402120851CEB502120851F9B502120831
:1011E3005144B6021208518BB6021208511DB702C0
:1011F300120851D8B70212085189AB03120851BE25
:10120300A003120851CFA00312085120A103120812
:101213005165A1031208510FA20312085112A8032A
:10122300120851979D03120851EF9E031208514F64
:10123300B802120851F4B80212085114B902120884
:101243005134B90212085148B902120851A0B90227
:10125300120851D0B90212085151BB02120851F7BA
:10126300BB02120851D9BC021208512ABD0212084E
:10127300516DBD02120851B0BD0212085116BE02D3
:1012830012085137BE02120851C3BE02120851F4AC
:10129300BE0212085168BF0212085116C102120899
:1012A30051F0C10212085132C2021208518CC2021B
:1012B3001208510E9A031208512F9A03120851650E
:1012C3009B031208518F9B03120851658303120875
:1012D30051DF8303120851EA83031208510B84037D
:1012E3001208514DA00212085150A0021208510ACF
:1012F300A10212085135A1021208517CA102120861
:1013030051A1A102120851C2A102120851F6A10271
:101313001208512FA20212085158A3021208518F2A
:10132300A302120851AFA3021208514AA4021208E1
:10133300510FA50212085146A502120851BBA6027D
:101343001208515EA70212085157A80212085180D1
:10135300A802120851D4A8021208519AA90212082D
:1013630051C8A9021208515DAB02120851DEAB024B
:1013730012085111AC02120851E0CC02120851EAD2
:10138300CC0212085136CD02120851A4CD02120824
:1013930051C5CD0212085176A3011208518CCE0219
:1013A30012085120D10212085129D1021208517C8E
:1013B300D102120851A5D1021208510CD20212080F
:1013C300519DD202120851DFD20212085129D302D1
:1013D30012085188D30212085119D4021208515825
:1013E300D40212085197D402120851CCD402120825
:1013F30051DED4021208519FAC011208510FD502DD
:1014030012085118D502120851CED5021208510EF6
:10141300D60212085198ED021208516BEE0212081F
:101423005185EE0212085196EE02120851ABF002FA
:10143300120851CAF002120851DC97031208511224
:1014430098031208515B9803120851AB99031208D1
:1014530051DCDB011208511BDD0112085157DD017C
:1014630012085116DF011208513FDF01120851D251
:10147300E10112085116E2011208519FE30112081B
:101483005137E4011208519FE40112085140E5016C
:1014930012085182E501120851C2E5011208514DAB
:1014A300E701120851BDE801120851E2EA011208EE
:1014B3005110EB0112085137EB0112085140EB01B7
:1014C3001208519BEB011208512EEC011208514CEA
:1014D300EF01120851CDEF0112085138AE03120883
:1014E3005159AC03120851008003120851138003B1
:1014F300120851B08003120851EB80031208510601
:1015030081031208512B81031208517081031208C1
:1015130051A18103120851D2810312085158830348
:1015230012085187A303120851BDA303120851D90E
:10153300A3031208511BA4031208512BA40312087E
:1015430051C0A403120851DE88031208517D890398
:10155300120851328A03120851778A03120851CABA
:101563008A031208510F8B03120851BE900212080E
:1015730051169102120851C0910212085168920249
:10158300120851C592021208511E930212085132D9
:101593009302120851FC9402120851779502120823
:1015A30051A195021208515E9702120851799702D0
:1015B300120851C89702120851DE9702120851EB24
:1015C30097021208511F9802120851359802120807
:1015D30051BB9802120851CA98021208512399026A
:1015E3001208517D9902120851CB9902120851D564
:1015F3009A02120851579D02120851F19D021208D6
:1016030051339E02120851C89E02120851E59E02F0
:10161300120851E89E02120851EB9E021208515E15
:101623009F02120851799F02120851A59F021208C6
:1016330051E09F02120851E39F02120851F69F02E4
:101643001208511DA00212085106AB0312085112D1
:10165300AB031208514CAB031208512AF0011208D4
:101663005155F00112085121F101120851A6F1015F
:101673001208510FF2011208515BF201120851DAFC
:10168300F2011208516CF301120851F8F301120828
:10169300513AF401120851A6F80112085126FA0131
:1016A30012085165FA011208512EFB01120851E28A
:1016B300FB0112085192FD011208511EFE0112088E
:1016C30051008002120851BA80021208512C810283
:1016D3001208513B8102120851B5810212085124AC
:1016E30082021208512E83021208515783021208F4
:1016F30051F78302120851458402120851B584023E
:10170300120851E98502120851C5860212085136A2
:101713008702120851B38802120851758902120810
:1017230051108A021208516B8A02120851D68A029A
:10173300120851DA8B021208519B8D021208513A9A
:101743008E02120851AC8E02120851698F021208E0
:1017530051928B03120851E68B031208513E8C03FE
:10176300120851898C03120851EB8C03120851841F
:101773008D03120851EC8D03120851F88D031208E2
:1017830051869503120851B79503120851719603B8
:10179300120851D79603120851489703120851B102
:1017A30086031208513D880312085105A903120844
:1017B3005116A903120851B6A903120851DF9B035E
:1017C300120851ED9B03120851ED7F00120851706E
:1017D300AA0312085180AA031208519BAA031208F4
:1017E30051FCAA0312085110A70312085195A7032D
:1017F300120851F9A7031208513E9F0312085160C2
:101803009F03120851C69F03120851E69F03120853
:10181300512CA00312085187A00312085123F2028E
:1018230012085138F20212085151F3021208519270
:10183300F302120851ACF3021208514CF4021208DD
:1018430051C0F402120851DAF402120851EDF40205
:10185300120851FBF40212085115F5021208512C1B
:10186300F50212085156F502120851A4F5021208A6
:1018730051D9F502120851E7F50212085161F60237
:1018830012085145F702120851FEF802120851F8E6
:10189300AD031208512B79001208519879001208F0
:1018A30051597A00120851C97A00120851D27B00AB
:1018B3001208514A7D00120851AE7D0012085103EF
:1018C3007E001208510C7E001208511B7E00120884
:1018D300512E7E00120851447E001208514D7E00A5
:1018E30012085173DF02120851C8DF02120851C4F3
:1018F300E102120851F6E10212085118E20212083D
:101903005131E2021208514AE20212085154E30231
:10191300120851EFE30212085126A2031208514A9A
:10192300A20312085163A20312085196A2031208DC
:1019330051C7A203120851F5A20312085157A3037A
:1019430012085166A30312085170A3031208517DB4
:10195300A303120851338E03120851598E03120840
:1019630051968E03120851A58E03120851C48E039B
:101973001208512C8F03120851358F03120851940A
:101983008F03120851B88F0312085177900312087E
:101993005184900312085195900312085131AD03FD
:1019A3001208514EAD0312085166E402120851C4E5
:1019B300E502120851D1E502120851E4E5021208CA
:1019C3005103E60212085119E6021208512DE602EC
:1019D300120851A2E60212085107E702120851B792
:1019E300E7021208518CE8021208519CE80212081F
:1019F30051ABE802120851D7A903120851FBA903FE
:101A030012085123AA031208514BAA03120851C307
:101A13009003120851EA90031208510B9103120824
:101A230051709103120851299303120851429303F1
:101A33001208514E93031208516293031208518006
:101A430093031208518A93031208519493031208C3
:101A530051A79303120851FA9303120851339403C5
:101A6300120851629403120851B09403120851FFF3
:101A730094031208511A950312085124950312086E
:101A8300513595031208517B950312085108AC0395
:101A930012085137D60212085161D6021208517D3D
:101AA300D60212085190D602120851A6D602120885
:101AB3005103D70212085136D70212085172DB02C2
:101AC30012085198DC02120851CBDC02120851179C
:101AD300DD0212085143DE021208516BDE021208C6
:101AE3005180DE0212085190DE02120851D4DE0248
:101AF30012085135DF0212085145DF02120851CA9C
:101B0300A403120851E5A4031208510EA5031208F9
:101B13005128A5031208514DA5031208516CA503C2
:101B230012085184A503120851B2A503120851CC1F
:101B3300A503120851EDAC0312085163F902120810
:101B4300516AF90212085176FA02120851A6FA02F2
:101B5300120851CCFA02120851EFFA02120851117D
:101B6300FB021208514BFB02120851B1FB0212088F
:101B730051EAFB0212085136FC0212085163FC02BF
:101B830012085183FC02120851607E001208517240
:101B93007E001208515D7F00120851EA7F0012088F
:101BA30051FDA5031208516FA603120851ADA603F8
:101BB300120851EEA603120851E3FC02120851FF6A
:101BC300FC021208514EFD021208516AFD0212086E
:101BD300519BFD02120851ABFD0212085197FE0200
:101BE300120851A1FE02120851AEFE02120851BEA4
:101BF300FF02120851D2FF02120851DBFF02120842
:101C030051E4E80212085129ED021208512EED02A7
:101C1300120851A3AD031208516DAD03120851D040
:101C2300AD031208511AAE03120851CAA2011208D9
:101C3300511BA101120851D69E011208515D9E014C
:101C4300120851049E01120851989D011208516F08
:101C53009D01120851629B011208512E9B0112082B
:101C630051FB9A01120851DF9A01120851059A019A
:101C7300120851BD9901120851F2970112085172CD
:101C830097011208516F97011208517696011208B5
:101C930051449601120851819501120851AC9301E8
:101CA3001208513D93011208510F93011208512F4D
:101CB300AC01120851E6AB011208519EAB011208A8
:101CC30051DCAA011208514FAA011208510C9301C9
:101CD300120851F992011208519192011208518090
:101CE300920112085142AA0112085161910112088E
:101CF300512B9101120851EE90011208518F90015E
:101D030012085150A701120851F0D4021208515E73
:101D13009001120851198D011208510A8C01120801
:101D230051998B011208515E8B01120851298B01C5
:101D33001208511D8B011208517D8A01120851C4EA
:101D4300890112085197870112085123850112084E
:101D530051E18401120851AC8301120851618301DE
:101D6300120851938201120851EA81011208518627
:101D73008101120851C08101120851A2A401120865
:101D830051DCCD0200000080FBE473000136360114
:101D9300010001020100010301000104010606051F
:101DA300020000070100340801000F090401010DBE
:101DB3000100FF0E08000017020000190100FF1ABE
:101DC3000100011B0100FE1C0100081D0200001F91
:101DD30001000120010001210200002301000F2462
:101DE3000200002601000127010008280200FF2A43
:101DF3000100072B0102402C0100002D0100012EE0
:101E03000100012F0100FF30010B1C310800003AD3
:101E13000100083B01000F2F010000030071003097
:101E23000160001100700031022003500480001093
:101E3300006100000014006300730072006200433D
:101E43000000001300060000000000040012000060
:101E53000000000000000004000400370037003CCD
:101E6300024400000000000000000065000000358F
:101E730000810000000500000083000000030271E0
:101E830002300160021102700201020202020280AA
:101E930002100261023A004100630273027202629D
:101EA300024302000213023800000200020402127D
:101EB300020002000200020002040204023700379B
:101EC300003C0244020002390000020002650200E5
:101ED300023502810200020502820283020002012E
:101EE300037103010301030103010301032203023D
:101EF30003010310030003000300030003000300B6
:101F03000300034203000324030603000300030446
:101F130003120325032303250323030403040300FC
:101F230003000300034403000300032303000365CA
:101F330003210035038103000305030003000300AD
:101F430003010171010101010111010101310101CC
:101F53000101018001100161013B00140063017361
:101F6300017201620143010001130106013D0135C4
:101F73000004011201000100010001000104010439
:101F830001330133013C01440132013600000100F9
:101F93000165010001350081010001050182018312
:101FA30001000136000100060000000F00000000E0
:101FB30000000000000000000003FFFF0000040316
:101FC300FFFF0000FFFF0FF4010005C4040320001E
:101FD3000100000B000000000000000003010F01DE
:101FE30000FD16020073160300791604007F160520
:101FF300008516060091161100A9161400AF1615D8
:1020030000A316FFFF000003EAF5E5D5D5C5B5A586
:1020130095958585757565655555454535352525ED
:10202300151505710FA10F770F7D0F9B0F8F0F896B
:102033000FA70FAD0FB30FBF0F830F6B0F650F0A02
:102043003D0D02070D05190D070D0D0CE90C0DFBD8
:102053000CFF000000160F00000B150B02000222FC
:102063000F320000065B106D1073103B0F791035B3
:102073000F410FBB10D910DF10C110CD10C7100CCA
:102083000E020B040B0A0708000F30301618192034
:10209300231A1C1E300001191618161615230300E7
:1020A30000034948424D181725050200383C3E36C7
:1020B3003B3B352B432C303017181921301B1D1F88
:1020C30030AF107F10851091108B10950FB90FD37F
:1020D30010C50FCB0F020402010101010902000028
:1020E3000000000000BE040A0E00E803040015000F
:1020F3002800040C05030908FF1E1E0A040F100C18
:1021030074F7120374E99003B0F0900365E4F012DE
:102113001B899003B5E4F0A3F09003B1F0A3F01290
:102123000E75121B8F900334E4F0A3F090210093FB
:10213300FA7902121BEF024D9974F2120374EAFE4C
:10214300EBFF548060699003B0E0F91213BB8A0877
:102153008B09EA4509604F7C0080010CEC75F003A4
:10216300A4F8A9F0744228F582742039F583E49326
:10217300F4602CE493F88508828B83E06870DCAA12
:1021830008EC75F003A4F8744328F582742039F53C
:1021930083E493C0E0740193F583D082121D8CAA6B
:1021A30008AB091213AFEEFAEF6480FB022309EFC9
:1021B3005420601D120D978A088B09EA4509600AAD
:1021C300120CFBAA08AB091213AFEEFAEF642080DE
:1021D300DAEEA2E0501A90036AE0640F700B790004
:1021E300120CC5E9600312230CEE6401FAEF80BB05
:1021F300542070030222D7750C001237DE8B09EAD4
:10220300450970107C027D007A207B009003B0E0CA
:10221300F91215057C0079047A007B00120D738A8C
:10222300088B098018850882850983A3A3A3A3A328
:10223300A3A3A3A37401F0850A08850B09E5084548
:1022430009606D7C007904AA08AB09120D738A0A30
:102253008B0B750C01E5082404F8E509123582247B
:10226300FFF0A3E034FF12587570CC85088285090E
:1022730083A3A3A3A3A3A3A3A3A3A3E0640170A520
:10228300850882850983A3A3A3A3A3A3E0540470B1
:1022930094850882850983A3A3A3A3A3A3A3A3A3CC
:1022A3007406F07AB78508828509831224388087FB
:1022B300120D437C0079017A007B00120D738B09A8
:1022C300EA45097009E50C70057A20124738EE6477
:1022D300200221EFEF5402600B120E6FEEFAEF644F
:1022E300020221AEEF540460191248CF1247EF796E
:1022F30001900363124B53120C0BEEFAEF640402CA
:1023030021AE7A007B0002253F900CE2122BD612FD
:102313000CDD22C082C08374EA12093085188285DD
:102323001983AA82AB83794B121BC57408120B0263
:102333007402F07409120B02AA82AB837950121B48
:10234300C57413120B02E4124D22121BE37416021E
:102353003CFC74F712037474E1120930EAFEEBFFDC
:10236300EE4F6033851882851983AC82AD83120DDD
:10237300BB7406120B02E0601E7417120B02E0FD21
:102383007401120B02E0FCEEFAEFFB7900120B333F
:10239300E9600479A480027900024D9474F6120373
:1023A30074EAFEEBFF8E828F83A3A3A3A3A3A3E010
:1023B3005440601B12521112250660067AFF7BFF00
:1023C300801A8E828F83123988FAA3E0FB8003126E
:1023D3000DDF74FE6A700374FF6B604112521112B9
:1023E300477C120E33E98E828F836006122431E418
:1023F30080051224317401F07CCB7D0C8E828F8397
:10240300124B53121BE9E9F5087015EE4F60097979
:1024130001EEFAEFFB120D4FA9080247AD7508CD87
:10242300AA088E828F83122438E960DF80EAE024D1
:102433000D123E5722E0240C123E57E0F9120CD73E
:102443002274F6120374E9FEEAFF7A0F7B0012137B
:10245300A9EA4B60198A828B83740CF0EEA3A3F074
:10246300EF8A828B83A3F01247D87900802FEEF98D
:10247300120D798A088B09A808A909E849601C8804
:10248300828983A3A3A3A3A3A3A3A3A37406125420
:102493009CE0F9120C8FEEF9120D5579100247AD3D
:1024A300C082C08390036AE0640F7014EA4B60102B
:1024B300900365E064086005E0640470031224C6B9
:1024C300023D26EAFCEBFD7A017B009003B0E0F9C4
:1024D3001214FF22C082C0837900EA241DF582EB27
:1024E30012398524FD600B14600824FD600424FD6B
:1024F300700109023D268E828F83A3A3A3A3A3A306
:10250300A3A3A312250A221239CDFB120E33E9220B
:102513008E828F83A3A3A3A3A3A3A3A3A312250A9A
:102523006402228E828F83A3A3A3A3A3A3A3A3A343
:10253300123D1D900356E068221208B67F0602057D
:102543008D74F412037474FD1209308A088B098A9E
:10255300828B83A3A3E0F9120D798A0A8B0BAE0A4F
:10256300AF0BEE4F700302264B850882850983A3C8
:10257300E064F16030850882850983A3E064CD605F
:1025830024850882850983A3E0641A60188508827C
:10259300850983A3E064E9600C850882850983A328
:1025A300E064E170087900120D4FE9706C850882D0
:1025B300850983A3E0C0E07402120B02D0E0123D50
:1025C30001EEF0A3EF12302C851882851983AA82BD
:1025D300AB837005120BF38003120E1B7402120BF4
:1025E30002E064E970338E828F83122657750A01E5
:1025F300780A120872750AE9780A120872E5082443
:102603000CF582E509122B1E123009FCA3E0FD8AAA
:10261300828B831230231208B68E828F83A3A3A3E7
:10262300A3A3A3A3A3A3E0640270108E828F83A34A
:10263300A3A3A3A3A3A3A3A37406F0850882850978
:1026430083A3A3E0F9120D55120D43900CE6122358
:102653000F022BDBE0F8A3E0F9E8FAE9FB2274F4BC
:10266300120374EAFEEBFF7508008E828F83A3A327
:10267300A3A3A3E060427508088E828F83A3A3A35C
:10268300A3A3A3A3A3123C308B0BEA450B601075E5
:10269300082C8E828F83A3A3A3A3A3E0D2E0F08EA2
:1026A300828F83A3A3A3A3A3E05403640160030263
:1026B300274A43081102274AEE2418122BE86033F5
:1026C300EE241A122BE8700F1225267003A3E0697B
:1026D30070757508228070EE241BF582EF12274F68
:1026E300241AF582EF123034EE2419125245120CDB
:1026F3007D8054122513700375080112252670037B
:10270300A3E0697006E508D2E1F508E50860158ED7
:10271300828F83A3A3E07006E508D2E58004E50871
:10272300D2E6F5081224F964017006E508D2E0F553
:10273300088E828F83A3A3E0600D12275D6401607E
:1027430006E508C2E0F508A908022BE01239731266
:10275300275622E0FCA3E0FDEE2212396D1239A5C3
:10276300F9120E21E922C082C08379018A828B8308
:10277300A3A3E0C394024001198A828B83A3A3A37A
:10278300A3E0C39402400279008A828B83A3A3A3AC
:10279300A3A3A3A3A3A3E064F87003A3E0F4604599
:1027A3008A828B83A3A3A3A3A3A3A3A3A3E064F914
:1027B3007003A3E0F4602E8A828B83A3A3A3A3A355
:1027C300A3A3A3A3E064FA7003A3E0F460178A82CF
:1027D3008B83A3A3A3A3A3A3A3A3A3E064FB70037B
:1027E300A3E0F4700279008A828B83A3A3A3E0F8A9
:1027F300900353E06860027900023D2674F01203EF
:102803007474DE120930EAFEEBFF8E828F83A3A37A
:10281300A3A3E0600E900CE41247A46006900CE4BE
:1028230012230F7403120B02AC82AD838E828F834B
:10283300A3A3A312482612505FE9600F7403120B7F
:1028430002AA82AB83120CF5E970087901121B9B73
:10285300022B13EE241B1239787410120B02124749
:10286300EF7409120B02E06021741A120B02E0FDEF
:102873007404120B02E0FC8E828F83124B51790198
:10288300120B33E96004790280C37403120B02AAAA
:1028930082AB83120CEFE9F50A7409120B02E070A4
:1028A3002A90034DE060247422550A6422601C744C
:1028B30042550A644270CF7420120B02122B31600E
:1028C3000A7420120B02122B2A70BBE9A2E65041B4
:1028D3007403120B02AA82AB83120CE3E9700302A6
:1028E300284E7420120B021239886403700F74206F
:1028F300120B02A3124796A3E0640D601474031233
:102903000B02AA82AB83120E45E964017003022B0A
:1029130013EE242C122B1B122E3F7003A3E06970BD
:102923001C75080078081208727808120872EE24E1
:102933002E125245122B371230231208B674091285
:102943000B02E070030229F0122B37124B53120EC5
:10295300998A088B09EA45097003022A8D740412C7
:102963000B02E0F88E828F83A3A3E028F8A3E03460
:1029730000F9E8240D122B228A828B83A3A3A3E000
:1029830068601CE88A828B83A3A3A3F0908143121F
:102993000ADF850882850983A3A3A3A3120AEB791F
:1029A30004E9120B0212503C2AF8A3E03400888297
:1029B300F583A3AA82AB83121D818A0C8B0D8C0E27
:1029C3008D0F850882850983A3A3A3A3780C12081E
:1029D3000A4003022B1390817B780C1209BF8508F0
:1029E30082850983A3A3A3A3780C120AC39003656A
:1029F300E064046008E064096003022B13E50AA2A3
:102A0300E54003022ACBEE242E122BE8851882859B
:102A13001983F0EE242F122BE8C0E07401120B028D
:102A2300D0E0F0EE2430122BE8C0E07402120B0267
:102A3300D0E0F07414120B02E064017027740E12DC
:102A43000B0212397EEE2412122BE8687003A3E006
:102A5300697011740C120B02122520700774141282
:102A63000B02E4F0EE2424122B1B1206D274041280
:102A73000B02AC82AD837407120B02AA82AB8312E2
:102A83000BF974041208B6022B139003AAE0640135
:102A930060030229F07420120B02122B317009E536
:102AA3000AA2E650030229F07410120B02E0F4703C
:102AB30003A3E0F4605AEEFCEFFD7403120B02AAC9
:102AC30082AB83120D018048A2E650447420120B9E
:102AD30002124B62701A741A120B02E06402703015
:102AE3007403120B02AA82AB837900120E0F8020AB
:102AF3007420120B02122B2A7016741A120B02E0A6
:102B03006404700C7403120B02AA82AB83120E09C5
:102B13007422024F0EEE240BF582EF12397322F565
:102B230082E9124808F822125223E064072212397C
:102B3300A5640622EE242A12397012275624121293
:102B430039702274F4120374EAFEEBFF8C088D09CA
:102B53009005C3E0600F1225267003A3E06970059A
:102B6300120C6B804F7900124B46120C9B8A828B9E
:102B730083E58245836035A3A3A3A3A3A3E05418ED
:102B8300602AE508241BF582E509122B1E1206D6DE
:102B930012321C122B1E1206D6EE241812524512A4
:102BA3002BB9120CAD74041208B680087900122BED
:102BB300B9120C7180278E828F83A3A3A3A3A3A32F
:102BC300A3A3A3122756240BF582EF122BD2223490
:102BD30000F5831239CDFB2274031208B67F040279
:102BE300058DEE2417F582EF1248082274F71203BD
:102BF3007474F7120930EAFEEBFF900365E0640397
:102C0300600DE064016008E064096003022CB98E82
:102C1300828F83A3E0707E7C007D007A027B0012AA
:102C23001B95EE2402FAEF12358912397E90035672
:102C33001247EF7953121BCB7900122CBEE06409C3
:102C4300600312305185188285198374011247C5B8
:102C53009003657404F07401120B02AA82AB8379AA
:102C63004A121BC57401120B02AC82AD837A5B7BE3
:102C730003121BB39003561250557A0312305B9024
:102C83000350E0A2E35004D2F08002C2F01247B234
:102C930012230C801E8E828F83A3AE82AF83FC7DB2
:102CA300007A037B10121B958E828F83E0F9122C1E
:102CB300BEE4F0120D2B7409024D96900363122BA0
:102CC300D6120C0B90036522C082C083900334128A
:102CD30047A4701F900365E014600924FC600A1484
:102CE300600C800F90033C8032900338802D90035A
:102CF3003A8028E8496008900335123003700C8A43
:102D0300828B83A3E0F9120BFF801B9003351232F1
:102D1300B87005120E63800E9003D21247A46006AA
:102D2300124796121D8C023D2674F412037474FB31
:102D33001209308A088B097A0F7B001213A98A0AB9
:102D43008B0BAE0AAF0BEE4F7003022E338E828FC6
:102D530083124D207950121BC5850882850983A3F0
:102D6300E06003022E1B900363E0F47003A3E0F41E
:102D73006034900363E064FE7003A3E0F46027858E
:102D83001882851983122E3F7003A3E069601785AB
:102D93000882850983A374EA1230397A637B037945
:102DA30050121BCB8072851882851983125204122C
:102DB30047EF7A567B037953121BC590035612488B
:102DC300201247EF7A597B03794B121BC57A587B44
:102DD3000379E1121BC590036AE0C3940F5021905D
:102DE3000358E0C0E07402120B02D0E0F074041246
:102DF3000B027401F004120B02AA82AB83121BDDD7
:102E0300750A00780A120872780A120872900D087F
:102E1300E0F912301A1208B6850882850983122E4A
:102E230038A3F09003657403F0EEFAEFFB1247D872
:102E33007405022BDDA3E08E828F8322125208E0F9
:102E43006822123E5E2274F512037474D81209309C
:102E53008A088B098A828B83A3A3A31239AA7415C8
:102E6300120B02AC82AD838A828B83A3A3A3A3A399
:102E7300A3A3A3123009FAA3E0FB120D31741512B8
:102E83000B02E0706B850882850983A3A3A3A3A328
:102E9300A3A3A3E0C3940B40578E828F83A3A3A362
:102EA300A3A3A3A3A3E064027046EE240B122BE8B2
:102EB300F4703D900365E06402603AE064066035B7
:102EC3009003341247A46005123003604F900365EA
:102ED300E064086005E0640470167417120B02E0E6
:102EE300F9741C120B02AC82AD83124B46120D37E0
:102EF30074280257229003341247A4701F750800E8
:102F030078081208727808120872EE2410122B1B2C
:102F130012525D1236711230231208B68E828F83DD
:102F2300124AC212359B12397E7402120B021247E7
:102F3300EFEE240D122BE8C0E07404120B02D0E074
:102F430012302CF508A3E0F509740F7808120AB4BF
:102F53007405120B02E508F07419120B02E0C0E0CD
:102F63007406120B02D0E0F0741B120B02E0C0E0F7
:102F73007407120B02D0E0F07416120B02E0C0E0EB
:102F83007409120B02D0E0F07417120B02E0C0E0D8
:102F93007408120B02D0E0F0EE2410122BE8C0E00C
:102FA300740A120B02D0E0F0741A120B02E0C0E0B4
:102FB300740B120B02D0E0F07427120B02E0C0E096
:102FC300740C120B02D0E0F0741C120B02A982AA3B
:102FD3008389088A09750A00780812086A7C087DC3
:102FE300007410120B02AA82AB831243531208B669
:102FF300851882851983AA82AB83120C05022EF3EE
:103003001232BE640122E0F98A828B83A3A3A3A3B5
:10301300A3A3A3A3A3E022900363125059900359DF
:10302300122BD6120DF1740222F0EE240B12480576
:1030330022124808FA22F07A567B0379531230445D
:1030430022121BCB7A597B03794B121BCB229003A1
:1030530063122BD6120E93227B00121B95900359F9
:103063001250597A047B00121B9522F012526822E7
:1030730074F212037474F8120930EAFEEBFF8C0A3F
:103083008D0B890C851882851983AC82AD8375837A
:103093008175821474081207CAF50DEEFCEFFD85E5
:1030A3001882851983AA82AB83124A237003750D94
:1030B300019003B1803BEEFCEFFDE508240BFAE53C
:1030C300093400124A22601E850882850983A3A35E
:1030D300E0650C7011850882850983E0650A700438
:1030E300A3E0650B6038E5082414F582E509122B8B
:1030F3001E123593E50845096024E50DA2E040B6AC
:10310300850882850983E0650A7004A3E0650B7076
:10311300D5850882850983A3A3E0650C70C8AA0836
:10312300AB09740802253CC082C0839003B1023D01
:103133002374F71203749003B11239CD8012EA2479
:1031430014F582EB122B1E1239AA12144BEEFAEF6E
:10315300FBEA4B70E99003B1E4F0A3F0024D997FD1
:103163000702058D74F1120374EAFEEBFF890A8CE2
:10317300088D098E828F83E08C828D83123C3AAE58
:1031830082AF83E0124413124384C41244131232F5
:1031930025E054038C828D83124382A2E2E4338CB4
:1031A300828D83124381131313541F12441312434A
:1031B30080A2E7E4338C828D83A3A3A3A3123225D9
:1031C3008E0C8F0D750E00780C12086A7C087D003A
:1031D300E5082407124FC81208B61250338E0C8F1D
:1031E3000D780C12086A7C037D00E508240F124F4A
:1031F300C81208B6E50AC3940F40148E828F83A3C6
:10320300A3A3E0C0E012321C122B1ED0E0800612F2
:10321300321C125490F0023162E5082412F582E563
:103223000922A3A3123C3E0EAF832274F41203744B
:1032330074F9120930EAFEEBFF8908900334124750
:10324300A4600E1232B87009EEFAEFFB120E5D8025
:103253005F900363E06E7003A3E06F7053740165C6
:103263000860097A777B03124A2370447A007B0251
:103273001237E28B0BEA450B7036900366120ADFB6
:10328300851882851983120AEB90036CE0C0E07401
:1032930004120B02D0E0F07405120B027401F074F7
:1032A30006120B02124D20120BCFE9609B120BD5B5
:1032B3007407022BDD1232BE640222125224A3A32E
:1032C300A3A3A3A3E02274F51203748A088B098ACB
:1032D300828B83A3AE82AF83E0F9120C238E828F9D
:1032E30083E064EB600C850882850983A3E064E1D5
:1032F3007009850882850983A3E4F012230C750AFB
:1033030001780A120872850882850983A3E0F5080B
:103313007808120872790012301A1208B6120D4397
:10332300025725EAF0A3EBF0023D2674F61203746C
:103333009003B4E0701B7C0079017A007B00120DCE
:1033430073EA4B600C8A828B831247A46003120CCE
:10335300D10247ADC082C0831237CA401079FF1231
:103363000D6DE9F8902102E493C39850047901802C
:10337300027900023D2674F01203748A088B0989CE
:103383000B750C008A828B83A3A3A3A3A3A3A3A37C
:10339300E0F9120D798A0E8B0FAE0EAF0F750A018D
:1033A300EE4F6003023457850882850983A3A3A3E4
:1033B300A3A3A3125055850882850983A3A3A3A3BE
:1033C300A3A3A3124153124B53120D618A0C8B0D0D
:1033D300AE0CAF0DEE4F700302357A8E828F83A34E
:1033E300A3A3A3E4F0A3F0E508240B123586E0C001
:1033F300E0122B18D0E0F0120E39EE240CF582EF18
:10340300124778E508240EF582E50912397BEE248C
:103413000EF582EF1247EC750C01EE2406F8EF125D
:103423003582547FF0A3E054FC1252BAE054046096
:10343300030234DD900CEA12414474077808120A3F
:10344300318E828F83A3A3A3A3A3A3E04508F0A394
:10345300E04509F08E828F83A3A3A3A31235917451
:10346300077808120AB4E5085407F508E50B607AF3
:103473008E828F83A3A3A3A3A3A3A3A3A3740212E4
:103483004385240D123E53E0A2E2500B90035112E8
:103493004820A3A31247EFE508700302354FEE243B
:1034A30006F8EF3400F9E8FAE9FB8A828B83E054EB
:1034B3007FFCA3E054FCFDE50824FFF508E434FF9A
:1034C300F50974077808120A31EC4508F8ED450947
:1034D300F98A828B831247EF80728E828F83A3A334
:1034E300A3A3A3A3E04480023456E5087005750A3C
:1034F3000080598E828F83A3A3A3A3A3A3E05420A8
:1035030060121213A3EA547F245F8E828F83A3A3D6
:10351300A3A380238E828F83A3A3A3A3A3A3E05497
:1035230010600A1213A3EA540F240A80DD8E828FDF
:1035330083A3A3A3A37401F0A3E412359B74041221
:1035430037D98B09EA4509700312476BE50CA2E0F2
:1035530050288E828F83A3A3A3A3124D86F9EEFA7C
:10356300EFFB120D67E9601212479A600312396389
:10357300EEFAEFFB12144B750A00A90A024F11125F
:1035830048E322FAE5093400FB8A828B8322A3A352
:10359300E0F508A3E0F5092212359F22124FE4A3B8
:1035A300A3A3A3A32274F412037474F71209307E45
:1035B30000120D79EA4B700302366A8A828B83A369
:1035C300A3A3A3A3A3A3A3A3E06406600302366A91
:1035D3008A828B83A3A3A3A3A3A3A3E0FF8A828BE3
:1035E30083123E66E0C0E07408120B02D0E0123989
:1035F3009E124A291247EF120D8BEF54086066851D
:1036030018828519831250557A007B00120D5B8B4B
:103613000BEA450B704F900363123A8E121BF57C35
:10362300007D007A007B0080288E828F8312398888
:10363300F47003A3E0F4602D900363123671124B10
:10364300531218E9E9641A601C7C007D00EEFAEF5E
:10365300FB120D5B8A0A8B0BAE0AAF0BEE4F70C9E0
:103663007900121BFB7E01EEF97409022BDD123681
:103673007522E0FCA3E0FD8E828F8322C082C0838B
:10368300EA4B70059003B580068A828B83A3A3124D
:10369300388E60258A828B83A3A3A3A3A3A3A3E06D
:1036A300540860E5EC4D60158A828B831239886C6F
:1036B3007003A3E06D70D280047A007B00023D2684
:1036C30074F2120374EAFEEBFF890A8C088D097AFF
:1036D300107B00121445EA4B603F8A828B83A3A3BD
:1036E300A3A3A3A3A3A3A3E412398CA3E50A1252B1
:1036F3002AA31237268A828B83A3A3A3A3E4F0A36E
:10370300123998A3F01250BEEA240CF582EB123C56
:103713002A12371FA3A3F0A3F002253FA3F08A8246
:103723008B8322A3A3E508F0A3E509F02274F41226
:103733000374EAFEEBFF89088C0A8D0BEE4F60558C
:103743007401650870147901120D6DE9F89020FA7F
:10375300E493C398500F7911806A74046508702F3D
:103763001237CA40F18E828F83A3A3A3A3A3A3A37B
:10377300A3A3E508123C3AA31257AF8E828F83A30B
:10378300A3E4F0A3F09003B51247A46021800D7465
:1037930002650860D079C1802BE0F8A3124819A311
:1037A300A312388E88828983A3A370ED80039003CC
:1037B300B5EEF0A3EF1237D98B0BEA450B7003126A
:1037C300476B7900022BE07904120D6DE9F8902024
:1037D300F7E493C39822F01237DE227A207B00901D
:1037E30003B0E0F912151122C082C083E9F8790011
:1037F3009003B5801D8A828B83A3A3A3A3A3A3A352
:10380300A3A3E068600574FF687001098A828B8353
:10381300A3A312388E70DE023D2674F7120374EAF6
:103823004B70059003B580068A828B83A3A312385D
:103833008E60248A828B83A3A3A3A3A3A3A3A3A39E
:10384300E06970E4EC60148A828B83E0240D1250EB
:1038530046A2E240D380047A007B00024D99C082E5
:10386300C0839003B580068A828B83A3A312388E0C
:1038730060128A828B83A3A3A3A3A3A3A3A3E06958
:1038830070E580047A007B00023D26122BD6EA4BBA
:103893002274F21203748A0A8B0B8C0C8D0D75083B
:1038A30000750900EA450B602E9003B580068E82F1
:1038B3008F83A3A31238E1601EAC0CAD0DEEFAEFBB
:1038C300FB850A82850B83121D8CE9640170DFEE90
:1038D300F8EFF988088909AA08AB0902253FE0FE39
:1038E300A3E0FFEE4F2274F71203749003B512396D
:1038F3007E7C007D00800DE8FCE9FD88828983A33E
:10390300A312397EE8496030EA687002EB6970E718
:103913009003B5124B53E86A7002E96B888289837E
:10392300A3A3700812397E9003B5800912397E8CE7
:10393300828D83A3A31247EF024D9974F712037488
:10394300EAFEEBFFEE4F6015120D851239B01247F8
:103953009A6003123963EEFAEFFB12144B024D998E
:10396300EE240C1239701239C522EE241DF582EFB4
:103973003400F58322F582EF123973123D1D22F5CF
:1039830082EF1239731239A5221239902212523260
:10399300A3A3A3A322123990A3A32212372012397F
:1039A300A52212521DE022E0FEA3E0FF228E828FA9
:1039B30083E0241C123E571239C58E828F8312393D
:1039C300C5221239CDFB12144B22E0FAA3E022C028
:1039D30082C083EAFCEBFDEC4D700479058044EC76
:1039E30024FBF582ED34FF1247A27007123A29E057
:1039F300F460051213AF80E39003B0E0C0E0123A25
:103A030029D0E0F09020FEE493F97AB77B031213F8
:103A1300D9E96401700B7A007B2012476F7900802B
:103A2300027904023D26EC24FFF582ED34FFF58391
:103A33002274F4120374A2AFE433F508C2AF900307
:103A4300B71238E16038EE24FBF582EF34FF1247FA
:103A5300A27A007B209003B060051247728005E0D4
:103A6300F91213E5E4F50AF50B780A12086EEEFC79
:103A7300EFFD7AB77B031213D374021208B6E5087D
:103A8300A2E092AFEEFAEFFB022BE0125059851839
:103A930082851983AA82AB832274F212037474FCA5
:103AA300120930EAFEEBFF750AFE750BFF120D4992
:103AB300E960057911023C1FEE2415122BE86037EB
:103AC300900CFEE0C43354E0F8E0333354FC48C0B8
:103AD300E0EE2415122B1BD0E0123C3A123C308B43
:103AE30009EA45096011750AFFEE240F122BE84419
:103AF300041247FDD2E0F08E828F83122504600604
:103B0300EE2412123C27EE2413122BE8701090209F
:103B1300FDE493C0E0EE2413122B1BD0E0F08E8261
:103B23008F83E0A2E750045403801CEE2414122B6D
:103B3300E87015900342E0C0E0EE2414122B1BD072
:103B4300E0F0900342E004F0EE2411122BE864014C
:103B530070169005BAE0600D90034DE0700A8E82F6
:103B63008F83E07003123C248E828F83E0640170A4
:103B730013EE240B12398264027009EE240F122B08
:103B8300E84440F0851882851983AC82AD83EEFA50
:103B9300EFFB120DAF8A088B0974FE650A7003747C
:103BA300FFF470098E828F83A3A3124FD4EA4509D1
:103BB30060668E828F83E0C0E07401120B02D0E056
:103BC300F07402120B021250C27401120B028582AE
:103BD3000C85830D780C12086EEE240F122B1B122A
:103BE30006D6EE240E122BE8F50C780C1208729010
:103BF30003561206D67407120B02E0F9AC0AAD0B9A
:103C0300120DA974071208B6E9FE74106E700BAAA0
:103C130008AB0912144B80027E10EEF974040225DE
:103C23003CEE2411F582EF123973E4F022A3122B38
:103C3300D679FF121CBB22123C3E22F08E828F8368
:103C4300A322C082C08374DE1209308A828B83A3CD
:103C5300A3A3A312397E740E120B02E8F0A3E91298
:103C63003D14740C120B02123D0D240DF582EB1260
:103C73002BEBC0E0741A120B02D0E0F0124F21EBD1
:103C830012397B7420120B02123D0D2415F582EBC1
:103C9300122BEBC0E07408120B02D0E0F0EA241CF4
:103CA300F582EB12397B7412120B02123D0D2411B3
:103CB300F582EB122BEBC0E07409120B02D0E01279
:103CC3003D0174FFF07401120B0274FFF0740212D1
:103CD3000B0274FFF09081431206D27404120B029C
:103CE300AC82AD837407120B02AA82AB83120BF969
:103CF30074041208B6790074221208B68025123DA6
:103D03000522F085188285198322E8F0A3E9F0EAF9
:103D130022123720A3123D1C22A3E0F8A3E0F922CC
:103D2300124B53D083D08202084E74EC1203747486
:103D3300EE1209308A128B13ECFEEDFF890974260B
:103D4300120B02124FD47428120B02E0F5107429DF
:103D5300120B02123E48742B120B02E0F50EA3E085
:103D6300F50F7508107A1E7B001214457402120BAE
:103D73000212477C7402120B021247A47003023E24
:103D830041851882851983AA82AB837950124657DD
:103D9300124B537402120B02123E66A312477C7439
:103DA30010120B021257B17402120B02E0240B1211
:103DB3003E537402F0120B02123E667402F0120BB1
:103DC300021252151250C27402120B02124B68E512
:103DD30009F07402120B02E0240C123E53E510F0BA
:103DE3007402120B02123E50E512F0A3E513F074B5
:103DF30008120B02E50CF0A3E50DF0740A120B0296
:103E0300E510F0850E82850F83C082C083740D1286
:103E13000B02AC82AD83D083D08274031207CAF93C
:103E23007402120B02AA82AB83120D4FE964017074
:103E33000575080080087402120B02123969A9087B
:103E43007412024FEBE0F50CA3E0F50D22E0241C05
:103E5300123E5722F8A3E0123E5E223400F9888214
:103E6300898322124B5BA3A3A3A3A32274EE1203A1
:103E730074EAFEEBFF8C088D098E828F83A374088E
:103E8300124838E060088E828F83A37410F0122BDF
:103E9300E560098E828F83A3E02408F0EE241512D7
:103EA3002BE860088E828F83A3E004F08E828F83D9
:103EB300A3A3A3A3A3A3E060198E828F83A3A3A3C9
:103EC300A3A3A3A3E0C3332402F88E828F83A3E0CA
:103ED30028F0EE2411122BE86005750B0E80037594
:103EE3000B008E828F83A3C082C083EE240D122B1E
:103EF300E8D083D082F8E028250B8C828D83F0EE06
:103F03002411122BE8600512436328F0850882858B
:103F13000983E0C3947540097508007509000240E0
:103F230051E0FA7B001251707003024051EEFAEF38
:103F3300FB120DB5EA85088285098312477DEE24BD
:103F430002F8EF122E4512414B12408DF0EE24047D
:103F53000808EF122E4512458DA312408DA3A3F03E
:103F6300EE2413124073F0EE2414124073A3F07581
:103F73000A08EE2416122BE86010EE241812505291
:103F8300E5082408125253750A10122BE56016EE49
:103F9300241A125052850A0CE508250C1252537448
:103FA30008250AF50A8E828F83A3A3A3A3A3A3E004
:103FB3006059EE2407F510EF3400F511851082F5F2
:103FC30083E0C0E012405A122B1ED0E012407DE085
:103FD300C0E012405A122B1ED0E012407DA31240C3
:103FE3006612086A851082851183E0C333FCE433CB
:103FF300FD850A0CE508250C124FC81208B685107A
:1040030082851183E0C333250AF50AEE2415122BAA
:10401300E8600BC0E012405A122B1ED0E0F0122BC6
:104023001812406612086AEE240D122BE8FC7D007C
:10403300850B0A8E828F83A3E0F8E50828F8E5094B
:104043003400F9E8250AFAE9124FCB1208B6AA0898
:10405300AB097F0A02058D850A0CE508250CF5825C
:10406300E50922E0F50CA3E0F50D750E00780C22AE
:10407300123970124097A3A3A322F0050A8E828FF0
:1040830083A3A3A3A3A3A3A3A322A3A31252BEA365
:1040930012409722124591A3A32274F61203748A45
:1040A300828B83E0FC90035312414474027808121C
:1040B3000A31EC4508FCAD09EA241212413E7406AC
:1040C3007808120A31EC4508FCED4509FDEA241590
:1040D300F582EB122BEB6004780180027800E4C8D0
:1040E300F9ED49FDEA2411F582EB122BEBF5088873
:1040F3000974097808120A31ED4509FDEA241612FC
:10410300413E740B7808120A31ED4509FDEA241784
:1041130012413E740C7808120A31ED4509FD8A827A
:104123008B83A3A3A3A3A3A3124144740A78081205
:104133000A31ECFAED4509FB0247ADF582EB123982
:1041430073E0F50875090022E0850882850983225A
:10415300A3E0F98508828509832274EE1203748A29
:104163000A8B0BECFEEDFF750F01E9C394085005B4
:1041730079000243508E828F83E9F01245B6E960DD
:1041830003750F0012459A8E828F831245E4EE1257
:104193004F22EF1245D9C0E0EE2411122B1BD0E0C1
:1041A3001245D1C0E0EE2412122B1BD0E0123C3A90
:1041B3007408124FDCA3A3A3E06015124582EE241A
:1041C30013F582EF1247EC8E828F83A3E02408F06D
:1041D3008E828F83A3A3A3A3A3A3A3A3E060218EB3
:1041E300828F83A38582088583091245C5EE241532
:1041F300F582EF1247EC850882850983E02408F0F5
:104203008E828F83A3A3A3A3A3E0601A8E828F83DE
:10421300A38582088583091245A98E828F83A3A370
:10422300A3A3A3124375EE2419123C27EE241B12F9
:104233003C27A3124830E070030242E4EE2419F84D
:10424300EF3400F98E828F83A3858208858309E08A
:10425300FAE50A2AF582E50B122BEB888289831291
:104263004375FAE50A2AF582E50B122BEBC0E0EE63
:10427300241A122B1BD0E012437588828983E060D5
:1042830059F89020F6E493C398500575110C8008F3
:10429300EE2419122BE8F5118E828F83A3E0F8E543
:1042A3000A28F50CE50B12435912086AE511C333CA
:1042B300FCE433FD7A9C7B0B1243531208B6EE24C5
:1042C3001B122B1B749CF0A3740BF0E511C333F882
:1042D300850882850983E0288006EE241812548D10
:1042E300F08E828F83A3E0F88E828F83E0C3985091
:1042F30003024173A3E0FA8A08E50A2508F8E50BEF
:104303003400F9EE241DF582EF1248F8124385C3F9
:104313009AC0E0EE2417122B1BD0E01247F5602B56
:10432300EE2417F8EF3400F9880889098882F583A9
:10433300E024F21248D9240EFAA3E03400FB888269
:10434300898312477C124363C398F0A90F02405537
:1043530012137F7403223400F50D750E00780C22BE
:1043630090034EE0F9120B39E9F885088285098339
:10437300E022F0850882850983E004F022A3A3A349
:10438300A3A3F08E828F83E02274F41203748A084D
:104393008B09EA12441AF0EA1313543F124413A38D
:1043A300A3A3F0EAC4131312441AA3A3F0EB124419
:1043B3000C1244247409780A120AB412440A1244EF
:1043C30023740A780A120AB4E50A5401C0E0EC2403
:1043D30018F582ED122B1ED0E0124429740B780AD3
:1043E300120AB412440AA3124423740C780A120A60
:1043F300B412440AA3A3A3A3A3A3A3A3F0740D78A5
:1044030008120AB402274AE50A54018C828D8322DA
:10441300540F8C828D832254038C828D83A3A32219
:10442300A3A3A3A3A3A3F08A0A8B0B22C082C083F6
:1044330079008A828B83A3A3A3A3A3A3E090034D54
:10444300600FE070228A828B83A3A3E07019098036
:1044530016E060138A828B83124B4A900356E06AFC
:104463007003A3E06B70E7023D2674F01203748AB5
:104473000A8B0B890C8C088D091245B612459A8557
:1044830008828509831245E4E508124F22E50912E3
:1044930045D9C0E0E5082411F582E509122B1ED0A9
:1044A300E01245D1C0E012321C122B1ED0E012499B
:1044B3000074081249196011124582E50824131289
:1044C30048F4124900E02408F0850882850983A393
:1044D300A3A3A3A3A3A3A3E06017850882850983ED
:1044E300A31245C1E50824151248F4124385240894
:1044F300F0850882850983A3A3A3A3A3E06019859C
:104503000882850983A3AE82AF831245A9850882F9
:1045130085098312438004F0AA08AB09120DC7E989
:10452300F50D7056850882850983A3A3A3A3A3A3CE
:1045330012458D7014E0FA8A0EE50A250EF8E50B94
:104543001247E1E50CC39A80211245C1E8240EF815
:10455300E91247E190034EE0F9120B398E828F8303
:10456300E0F8E50CC39824F2C399C0E0E5082417EA
:10457300F582E509122B1ED0E0F0A90D024F11E5DB
:104583000A2408F8E50B3400F92212459122E0854C
:104593000882850983A322850A82850B83A3A3123C
:1045A30045FAE0F9EA22E0F8E50A28F582E50B127C
:1045B3004808228A828B83124F16120DC122AE82C3
:1045C300AF83E0F8E50A28F8E50B3400F922124638
:1045D3000DA3A3A3E022123973E8124606A3A3E0B6
:1045E30022A3A3A3A3A3A3A3A3A31246061245FA3C
:1045F300A3A3E0F9EAF822E0FA850A82850B83A3F4
:10460300A3A322F0A3E912460D22F0850A82850BAB
:1046130083A3A3A3A322C082C0837AC57B0379E2C9
:10462300121BC57AC57B03023D26C082C08390035B
:1046330056023D23C082C08374FE1209308518825E
:10464300851983AA82AB83794B124657124B537455
:1046530002023CFC121BC585188285198322C08285
:10466300C083794A121BC5023D2674F61203749067
:1046730003CDE0FE04F0EEF9120D798B09EA45094A
:1046830070EDEE60EAF90247AD74F0120374EAFECE
:10469300EBFF8C088D09890A7410120B02E0F50BED
:1046A3007411120B02E0F50C120E99EA4B7013E52C
:1046B3000C7042A90AAC08AD09EEFAEFFB120EB179
:1046C300806EE50A6021EA2402F582EB122BEB856A
:1046D3000A082508F8E4340013E813F070098A8205
:1046E3008B83A3A37401F0E50C6045E50B70068A88
:1046F300828B83E4F07401650C7035E50B9003D471
:104703007004E4F0802AE004F0900CEBE0F89003EE
:10471300D4E0C398401AE4F0900359E06E7003A309
:10472300E06F700CEEFAEFFB7901120C1D124736A5
:10473300024F117A017B009003B0E0F912150B22AE
:10474300C082C08374016A7001EB70077A0112475B
:104753006D8012900CE212477CEA4B60051224C66E
:104763008003124736023D267A207B009003B0E097
:10477300F91213DF223400F583EAF0A3EBF022C031
:1047830082C083900CE4023326C082C083900CE67F
:1047930002332612522422EE240CF582EF3400F564
:1047A30083123D1DE849221208B67F0202058DA23D
:1047B300F0E4338518828519831247CE7952121B90
:1047C300CB221247CE7942121BCB22F0AA82AB83B3
:1047D30022AA08AB099003B0E0F91213B522340002
:1047E300F9E508241DF582E509123973E8F0A3E918
:1047F300F022124FE0A3A3E022A3F0EE2415124807
:104803000522F582EF3400F583E0221248122234A8
:1048130000F583E0F8A3E0F98882898322E0F812A7
:10482300482622A3E0F98E828F83A3A322F0EE24ED
:104833001812397022F0EE24161239702274F41211
:104843000374EAFEEBFF7A007B0412473A1248CF67
:104853001247EF9003657409F0120DD38A088B0990
:10486300AC08AD09EE2413122B1B124B53124A232F
:10487300640170487A0F1248C260418A828B837444
:10488300021248D9FAA3E0FB8A828B83A3E0FC8A55
:10489300828B83A3A3E0FBEC850882850983A3A312
:1048A30012477D88828983124B5712414B1247FC72
:1048B300FAA3E0FB794A121BCB1247D4022BE07B0D
:1048C300001213A98A088B09EA45092290033612BC
:1048D3003D1D900CE622F0EE241DF8EF1248E32272
:1048E300123E5EE0221248EC223400F5837401F09C
:1048F30022F582E509123973E8F0A3E9221249048B
:104903002212490822F0850882850983A3221249CD
:1049130008A3A3A3A322124911A3A3E022124D2AA1
:10492300120E2722EE2417F582EF1248EC120DD354
:10493300EE241A123970EAF0A3EBF02274F4120396
:104943007474F31209308908EAFEEBFF7C0D7D00D5
:104953007900851882851983AA82AB8312138BEEA3
:10496300241D122B1B125215A3E0F8741F58600A62
:104973007901121B9B7900024A1AE8A2E5500874D8
:104983000C120B027401F0E8A2E75008740B120B2F
:10499300027401F0E8A2E6740A5008120B027401D3
:1049A300F08008120B02E064017005EE241380030B
:1049B300EE24151250527402120B02AA82AB831218
:1049C3001BB3122B18124A281247EF740A120B0258
:1049D300E0640170331224F9703B120DDF8A0A8BF5
:1049E3000BA80AA90BEE240B122BE8687003A3E0B3
:1049F300697022120DD3EAFCEBFD7402120B02AABA
:104A030082AB83124A23600D851882851983AA829B
:104A1300AB83120C17A908740D022BDDEEFAEFFB22
:104A2300121BADE922E0124A2D22F8A3E0F9851802
:104A3300828519832274F612037474F31209308A7F
:104A4300088B09ECFEEDFF7C0D7D00790085188253
:104A5300851983AA82AB831253BAA3A3A3A3A3A3E7
:104A6300A3A3A3124AC2124ACBF8A2E55008740BBF
:104A7300120B027401F0E8A2E75008740A120B0249
:104A83007401F0E8A2E6EE50042413800224151208
:104A930050527402120B02124AB4A3A3E0C0E07492
:104AA3000C120B02D0E0124D22120C11740D0247AE
:104AB300AAAA82AB83121BB385088285098322E0ED
:104AC300124A2DE8F0A3E922F012396D125219A30C
:104AD300E02274F712037474E1120930EAFEEBFF6B
:104AE3008E828F83124B57A3A3A3E0A2E050518E73
:104AF300828F831226598A828B83A3A3A3A3A3A3A2
:104B0300E054FE124B6F8A828B83124B68E0F98A62
:104B1300828B83E0241CFAA3E0123589124B5312D3
:104B23000DCDE9701B741D120B02124B62701185BF
:104B33001882851983AC82AD83EEFAEFFB120E1552
:104B4300024D948E828F83A3A3A3A3A3A3A3A3A3A2
:104B5300122BD622124B5B2212521DA3A3A32212A5
:104B630039A5640422E0241B123E5722123D05ACF2
:104B730082AD8322E9F87900740468600A740A68D4
:104B8300600574036870010902084E74F612037419
:104B93008A828B837420F0A3A37401F0120BC38A5F
:104BA300088B09AE08AF09EE4F60108E828F8374B5
:104BB30001F09003A3E07003124927EEFAEFFB0222
:104BC30047ADC082C0839003B97401F0E9A2E350FA
:104BD300037403F0E9A2E15004E0D2E2F0023D26BF
:104BE30074F612037479007C008A088B0978081222
:104BF30005D3F8FF07164C144C144C144C144C0DED
:104C03004C114C164C0A4C0C80097C0480050C801A
:104C1300F67C089003B9E05C6003098003EC600153
:104C2300090247AD74F61203748A828B83E0701213
:104C3300A31247A4600C8A828B83124B52121CEB83
:104C430080047A007B000247AD74F512037474F399
:104C53001209308A088B09ECFEEDFF750A12EA454A
:104C63000970057900024D1B900356E06508700436
:104C7300A3E065097014120DD3EAFCEBFD124A1F81
:104C83007005750A018003750A00851882851983EA
:104C9300E4F004120B02E508F0A3E509124D221219
:104CA3000B87E960277403120B02AA82AB83120BF2
:104CB30069E964017016750A017403120B02AC8270
:104CC300AD83124A1F6021750A00801C7412650AA5
:104CD30070169003A2E06402700EEEFCEFFDAA08CA
:104CE300AB09120B9FE970DFEEFCEFFDAA08AB09DD
:104CF300120E9FE9F8740A687005750A018017742B
:104D0300A0687012EEFCEFFDAA08AB09120EABAA65
:104D130008AB09120EBDA90A740D025722740212C0
:104D23004D2622124D2A22123D05AA82AB832274FC
:104D3300F7120374EAFEEBFF8E828F83A3A3A3A370
:104D4300A3A3A3A3E06015EE2415122B1B122BC6FD
:104D5300120E3FE964017004790180258E828F83EE
:104D6300A3A3A3A3A3A3A3E06015EE2413122B1BF9
:104D7300124D86FAA3E0FB120E3FE9640160D97974
:104D8300008013123675A3A3A3A3A3A3A3A3A3E035
:104D930022741F1208B67F0102058D74F01203748A
:104DA30074FD1209308A088B09ECFEEDFF890B7440
:104DB30013120B02E0F50C750A017401120B027455
:104DC3000412524D6048E50C601DEA2417F582EB8E
:104DD30012549012523B8A828B83E0D2E7F0EA248A
:104DE30014F582EB123C2A124F21EB12480E740386
:104DF3001257B3EE88828983A3A3F0EF8882898355
:104E0300A3A312371F123726120BBDE9F50AA90A0D
:104E13007403024F0E74EC12037474F51209308A92
:104E23000A8B0B890C8C0E8D0F741F120B02E0F58D
:104E33000D7420120B02E0F510A3E0F5117E01EED4
:104E4300120B02740AF0E97007E50DC333240AF06C
:104E5300124FF37003024EF51250087409F0A3E5E4
:104E63000CC43354E0450D12501AE50C702D7C0030
:104E73008023ECC333F8E433F9E51028F8E511395E
:104E8300F988828983124F0288828983122E38F02F
:104E9300A30EAF830CECC3950D40D7E5082417F59B
:104EA30082E5091248E8120DD3E508241AF582E5D4
:104EB300091247787403120B02AC82AD83AA0AABC2
:104EC3000B120B6FE96019E5082416F582E5091248
:104ED3004EFC120B02A882A983E50824181247E8A6
:104EE3008508828509831257AFAA08AB09120BBD47
:104EF300E9FEEEF9740B024FEB1248EC740322E067
:104F03008E828F83F0A3AE82AF83221208B67F080E
:104F130002058D1239CDF9EA2400E439FB22EA2493
:104F23000BF5822274EE1203748A0C8B0D890E8C9E
:104F3300088D097412120B02E0F50F7413120B02A1
:104F4300124FD49005291247A46077E50FC333F8B5
:104F5300E433F9E8240EFAE93400FB1213A98A10AA
:104F63008B11AE10AF11EE4F60588E828F8374D4C5
:104F7300F0A3A3E50CF0A3E50D124FDCE50EF0ACB6
:104F830008AD09EE2405FAEF125256EE240D122B4A
:104F93001BE50FF0850A08850B09750A00780812CE
:104FA300086AE50FC333FCE433FDEE240EFAEF1277
:104FB3004FCB1208B6EEFAEFFB90052912521512E9
:104FC3001D8C024055FAE5093400FB12137F74036C
:104FD30022E0F50AA3E0F50B22124FE022124FE480
:104FE30022123C3EA3A3A3221208B67F0C02058D16
:104FF300851882851983AA82AB83120E278A088BB0
:1050030009EA450922EA240BF582EB124808FEA3BC
:10501300E0FF8E828F8322F0A3AE82AF83AC0EAD0E
:105023000FEEFAEFFB12502C22121BB31250332255
:10503300EE2408FEEF3400FF22E0FA8E828F83A372
:10504300A3E022FEA3E03400FF8E828F83E02212CE
:10505300397012505922E0FCA3E0FD22122BD61224
:105063000DBB2274F6120374EAFEEBFF9003BA80C1
:105073001388828983E06E7003A3E06F603A8882AD
:105083008983A3A31247A470E87A047B0012144512
:105093008A088B09A808A909E849601C88828983C2
:1050A3001250C29003BA124B5388828983A3A3126E
:1050B300477C9003BA1247EF0247AD8A828B83EE97
:1050C300F0A3EFF02274F41203747E009003BA800D
:1050D300070E88828983A3A31247A470F4EEC33317
:1050E300FAE433FB125170607E7F009003BA802490
:1050F30088828983125055EFC333FAE433FBE50802
:105103002AF582E5093BF583ECF0A3EDF00F8882E5
:105113008983A3A31247A470D79003AB12253370DE
:1051230003A3E0697808701912086EEEF50A780A8D
:105133001208727C777D0379009003AB12517B8058
:105143001A12086EEEF50A780A1208727C777D034C
:1051530079009003AB124B53120E5174031208B62D
:10516300AA08AB0912144B120BD5022BE0121445FB
:105173008A088B09EA450922122BD6120E5722C040
:1051830082C08380128A828B83A3A312397E900309
:10519300BA1247EF12144B9003BA12388E70E6021C
:1051A3003D2674F61203749003631239AA9003CE5A
:1051B3001252041247EF7ACE7B037950121BCB9025
:1051C30003CE122752FAEFFB120EB79003CE123919
:1051D300AA90052B1247A460257A067B001213A917
:1051E300EA4B601A8A828B8374D5F0A3A3E412522C
:1051F3002A0412523B90052B125215121D8C0247A2
:10520300AD12520822E0F8A3E0F9900363228E82E4
:105213008F831252192212521D22E0F812522322B6
:10522300A3E0F58388822212522E2212523222F0F8
:105233008A828B83A3A3A32212522EA3EEF0A3EFA1
:10524300F022F582EF124808F922124920EA4B2294
:10525300FAE5093400FB121BB322124827A3A3A3C8
:10526300A3A3A3A3229020F8E4932401F8E4340039
:10527300F97A027B002274F71203747E0080041211
:1052830058660E12538A40F77E00EE1252A574FE42
:10529300F0A3041252BAE4F00EEEC3940340EB02FF
:1052A3004D9975F003A4F8A9F074BC28F874033978
:1052B300F988828983A3221252BE22F088828983CD
:1052C3002274F71203747F0080010F9020F5E4939A
:1052D300F8EFC3985026EF1254766A7003A3E06B7D
:1052E30070E81258136C7003A3E06D600A74FF6CCE
:1052F300700374FF6D70D312538180047A007B00B6
:10530300024D9974F61203747CFF7DFF7AFE7BFFD6
:10531300120E7BEA4B70407508008036E50875F085
:1053230017A4F8A9F0743728F582740A1254886018
:105333000C743628F582740A125488701374282862
:10534300FE740A39FF8E828F83125495EEFAEFFBB7
:1053530005081253F040C50247AD74F41203748A72
:10536300088B09ECFEEDFF800B120E8DEEFCEFFDBA
:10537300AA08AB09120E7BEA4B70EE022BE07428ED
:1053830028FA740A39FB229020F5E493F8EEC398C7
:105393002274F7120374EAFEEBFFEE4F6010125310
:1053A300B474FEF0A3041257B914F0A304F0024D31
:1053B300997C177D00790012138B8E828F83227460
:1053C300F7120374EAFEEBFF7508008018E5087511
:1053D300F017A4F8A9F012581E7003A3E06F60033E
:1053E30012586E05081253F040E3024D999020F5D0
:1053F300E493F8E508C3982274F6120374120E7B43
:105403008A088B09A808A909E849600AE8240DFA63
:10541300E93400FB80047A007B000247AD74F41288
:1054230003748A0A8B0BECFEEDFF75080075090007
:10543300802EE50975F017A4F8A9F0125859601EDB
:10544300E509125476650A7004A3E0650B700375D1
:10545300080AEEFCEFFD12571560034308A0050987
:105463009020F5E493F8E509C3985004E50860C279
:1054730002274A75F017A4F8A9F012548122742860
:1054830028F582740A39F583E022F582EF12397325
:10549300E422122BD6120CB3221252BEA3A3A3A34F
:1054A300A3A3A3A32274F21203748A088B09ECFE4C
:1054B300EDFF740E120B02124FD4750C007C007DAD
:1054C3000180101213A3E50CF5F0EA84ACF0750C1F
:1054D300007D007800790080031256521256AE40C8
:1054E30003025574E8FAE9FBEA75F017A4FA85F0AC
:1054F3000D75F017EBA4250D12568A7003A3E0F483
:1055030060D712566865087004A3E0650960CA1283
:1055130056686E7003A3E06F60BF125668650A7029
:1055230004A3E0650B60B2E8FAE9FBEA75F017A49F
:10553300FA75F017EBA4250DFB74362AF582740A6D
:10554300125649509474016D050C608DE50CC39C93
:105553004087E875F017A4F8AAF075F017E9A42AB4
:10556300F9742828F582740A39F583124B530256CD
:10557300467800790080031256521256BB4003024C
:10558300562DE8FAE9FBEA75F012A4FA85F00D123C
:10559300569A64FE7003A3E0F460DC12569065082B
:1055A3007004A3E0650960CF1256906E7003A3E008
:1055B3006F60C4125690650A7004A3E0650B60B770
:1055C300E8FAE9FBEA75F012A4FA75F012EBA425E8
:1055D3000DFB74B72AF58274081256495099E8FAFC
:1055E300E9FBEA75F012A4FA75F012EBA4250D128B
:1055F300565B64016081E06402700302557A7401B2
:105603006D050C700302557AE50CC39C50030255DB
:105613007AE875F012A4F8AAF075F012E9A42AF951
:1056230074AE28F582740802556BE50C6011EC70BA
:105633000E7401650C60030254C67C010254D17AD6
:10564300FE7BFF02253F3BF583E014C3940622E86B
:10565300240108E93400F922FB74B22AF5827408A4
:105663003BF583E022E8FAE9FBEA75F017A4FA7543
:10567300F017EBA4250D12567D22FB74282AF58220
:10568300740A3BF583E02212567D64FE22E8FAE9B0
:10569300FBEA75F012A4FA75F012EBA4250DFB7466
:1056A300AE2AF58274083BF583E0229020F5E4935B
:1056B300FAC3E89AE99400229020F1E493FA740182
:1056C30093FBC3E89AE99B2274F51203748A088B4F
:1056D30009ECFEEDFF750A008002050A9020F5E44F
:1056E30093F8E50AC3985028EEFCEFFDE50A75F040
:1056F30017A4F8A9F012571560E0E50A75F017A48E
:10570300F8A9F0742828F582740A39F5831237282A
:105713008010742A28FA740A39FB121BADE922128D
:1057230008B67F0302058D74F01203748A088B098F
:105733008C0A8D0B890C120E818A0E8B0FAE0EAF65
:105743000FEE4F60551253B4E508F0A3E509125765
:10575300B91257B1E50C600AEE240F122B1BE50CAE
:105763008006EE240F1257A9F09003D01247A460CD
:105773001A9003AAE064017008EE240E12548D807F
:1057830010EE240E122B1B74078006EE240E125704
:10579300A912306E1202231257A0024F11EE240DEC
:1057A300123970E8F022123970740122A3A3E50ABA
:1057B300F0A3E50BF02212359FA32274F5120374B4
:1057C3008A088B09ECFEEDFF750A00800F12581E44
:1057D3007003A3E06F600312586E050A9020F5E48E
:1057E30093F8E50AC3985025E50A75F017A4F8A9BC
:1057F300F012581365087004A3E0650970CF743282
:1058030028F582740A39F5831250C280CD025725D8
:10581300743228F582740A12548822743228F5826D
:10582300740A1254886E2274F7120374EAFEEBFFB3
:105833007508008019E5081254766E7003A3E06FB3
:10584300700A1258597005E5081258670508125373
:10585300F040E2024D99742A28FA740A39FB120BBC
:1058630069E922EE75F017A4F8A9F0125381120E1C
:105873008D221252BE123D1DE84922C082C083749C
:10588300F8120930851882851983AC82AD8375833C
:105893008175822474081207CA851882851983AC1E
:1058A30082AD83124A236401700479008002790176
:1058B3007408023CFCC082C0838A828B83E0D2E7F7
:1058C300F012161302634CC082C0837900125D8408
:1058D300127325C082C083900330126F47D083D0E8
:1058E30082C3E09CA3E09D500C1274F4FAA3E0126F
:1058F30058FB60010902634CFBEA75F00BA4FAA89C
:10590300F075F00BEBA428FB900332E02AF8A3E038
:105913003B8882F583E0540F2274F71203748908DD
:10592300125D84125E2AACF075F00BE9A42CF99099
:105933000332E028FEA3E039FF74016508600674B2
:1059430002650870208A828B83125E161269FA74CC
:10595300026508701B125CD5125E5D70138E828F18
:1059630083E4F0800BEA2403FCEB125DF8125E047F
:10597300EEFAEFFB120B3F02667F74F4120374120C
:1059830078E879008E828F83E06076890A890B80BC
:1059930065E50A75F00BA4FAA8F075F00BE50B1298
:1059A30059087046E50A75F00BA4F8AAF075F00BD8
:1059B300E50B125E3C8E828F83E085088285098326
:1059C300125F1E850882850983A31269FAEE2403F8
:1059D300FCEF125E0112652312729FAA08AB091233
:1059E3000B3F7901900330126F62E50A2401F50A37
:1059F300E50B3400F50B125CDDE50A9AE50B9B40E1
:105A0300900267B374F5120374EAFEEBFF740B1292
:105A13000B02126528750A01EC4D602BEC12790418
:105A2300ED1273251269F27901120B4BE508450952
:105A3300606F850882850983A31278F27902AA0828
:105A4300AB09120B4B805AE5084509602B127329E9
:105A5300126C1C126524125E47700CEEFAEFFB12F7
:105A63000B51E9F50A80CBEE2403FA125D7F703106
:105A73007903EEFAEFFB80CA8E828F83A3E064FE84
:105A83007003A3E0F4700BEE24030A0A0A125D7F8D
:105A9300700CEEFAEFFB120B51E9F50A8003750A5D
:105AA30000A90A7F0302058D74F712037490033073
:105AB300126684EA4B602FEA75F00BA4FAA8F0751E
:105AC300F00BEBA428FBEAFEEBFF12144590033224
:105AD300126684900332126F4E6012EEFCEFFD7972
:105AE3000012138B8007900332E4F0A3F002667F69
:105AF300900330126ED2C3EE98EF9922C082C08316
:105B0300EC4D6005121BB380097C087D00790012FF
:105B1300138B02634C74F61203747900EA4B60181A
:105B2300780088081274ABEB1274F0600479017882
