:020000040000FA
:06000000020AA10201D179
:03002B000208DCEC
:0300330002064B77
:0300430002079120
:03005300020102A5
:03006B0002062565
:100083000201660101FF01010503010F10FEFF4993
:1000930013491349134913FF11F91149132222007C
:1000A300000000E622000000000C0000000C00012C
:1000B30000001D15000000000000D715000000001F
:1000C300000000000000FFFF0101010062050000C5
:1000D30000D705E80364006400B8010202000800C9
:1000E30000050207051E02051E020A0A03B80B02D9
:1000F300803E0102FFFF011496511800020206C060
:10010300E074F21203EAA2AFE433FED2AFE5A7FF35
:10011300E5A1F5085F54106006121CCD75A1EFE54B
:10012300085F54086008121CD375A1F7802BEFA257
:10013300E0C0D0E508A2E092F01209DE158182F05A
:100143005017906198E0F89008B3E0C398A2D26585
:10015300D0335002E8F075A1FEEEA2E092AF7F012A
:10016300020449C0E074F21203EAA2AFE433FED200
:10017300AF9061A4E0F8759B00E5915854086008BE
:100183007591F7121D1B802AE5915854106008756C
:1001930091EF121D21801BE8A2E0C0D0E591A2E0FF
:1001A30092F01209DE158182F05007E0C2E0F012EE
:1001B3001E659061A3E0F8E5E9585404600E121E31
:1001C3003B75E9FB906193E0A2E640F2808BC0E0CF
:1001D30074F21203EAA2AFE433FED2AF9061A5E05A
:1001E300F8E5BF585404600675BFFB121E7D02017B
:1001F3005CC3E498F8E499F91202358026C3E49AC3
:10020300FAE49BFBE920E7E9120235E498F8E49964
:10021300F922C3E498F8E499F9120235E498F8E472
:1002230099F9C3E49AFAE49BFB22EB20E7CFE92098
:10023300E7E0B90010BB0008E88AF084F8AAF022CE
:10024300E4FBC8FA22EB70227B10C833C8C933C958
:10025300335007C39AC3DBF280069A50012ADBEAC4
:10026300C833F4C8C933F4C9FA2275F008E4C833B3
:10027300C8C933C933C99AC99B5004C92AC93BD5D4
:10028300F0ECFBC833F4C8E4C9FA22080808EAC052
:10029300E0EBC0E086F0E7A4FA180986F0E7A42AA9
:1002A300FA180986F0E7A42AFA180986F0E7A42ABF
:1002B300FA1986F0E7A4FBE5F02AFA190886F0E7B5
:1002C300A42BFBE5F03AFA190886F0E7A42BFBE52B
:1002D300F03AFA18180986F0E7A4C5F02BFBE43AC4
:1002E300FA1908E7C5F0C6A426F6E5F03BFBE43AA5
:1002F300FA1886F0E7A4F6E5F00826F6E43B08F6DC
:10030300E43A08F6D0E0FBD0E0FA22E4CFC0E0E420
:10031300CEC0E0E4CDC0E0E4CCC0E075F020C3E69D
:1003230033F608E633F608E633F608E633F618182C
:1003330018EC33FCED33FDEE33FEEF33FFC3EC97E4
:1003430009ED9709EE9709EF97191919400FFFEC7B
:1003530097FC09ED97FD09EE97FE191906D5F0BE36
:10036300ECF709EDF709EEF709EFF7191919D0E0E2
:10037300FCD0E0FDD0E0FED0E0FF222518C582C00E
:10038300E0E51934FFC583C0E0E518C3958224F87E
:1003930010AF0885831985821880088583198582A3
:1003A30018D2AFCEF0A3E520F0A37808E608F0A3B7
:1003B300DEFAEFF0A3E58124FAF8E608F0A3E608F5
:1003C300F0A3E608F0A30808E608F0A3E608F0A304
:1003D30015811581D0E0FED0E0F8158115811581D6
:1003E300E8C0E0EEC0E022C0D02518C582C0E0E539
:1003F3001934FFC583C0E0E518C3958224F310AF19
:10040300088583198582188008858319858218D207
:10041300AFC8F0A3E9F0A3EAF0A3EBF0A37908E7F0
:1004230009F0A3D8FAECF0A3EDF0A3EEF0A3EFF0FC
:10043300A3D0E0F0A3D0E0F0A3D0E0F0A3E520F058
:10044300A3E5F0F0A322851983851882E0C0E0A319
:10045300E0F9A3E0FAA3E0FBA37808E0F608A3DF42
:10046300FAE0FCA3E0FDA3E0FEA3E0FFA3E0C0E00D
:10047300A3E0C0E0A3E0F5D0A3E0F520A3E0A3F55B
:10048300F010AF0885831985821880088583198544
:100493008218D2AFD082D083D0E0F8D0E032120BF2
:1004A30003B900030204E3E4900301787A790C8032
:1004B30002F0A3D8FCD9FA900E7AAA82AB839000FB
:1004C30086787D79018015E493A3AC82AD838A821B
:1004D3008B83F0A3AA82AB838C828D83D8E9D9E77F
:1004E3007582A07583F77403120854758229758386
:1004F3002174001208540E000975F0108E1A8F1B18
:1005030085821F85831E851882851983E0CEA3E02B
:10051300CF851F82851E83EBC9EAC8EDCBECCAC326
:10052300E833C8E933C9EA33CAEB33CBC3EA9EF5F0
:100533001DEB9FF51CB35004AB1CAA1DEC33CCED93
:1005430033CDD5F0DAAE1AAF1B22D083D082ECC004
:10055300E0EDC0E0E493A3FCE493A3FDED4C600D58
:10056300120669EC24FFFCED34FFFD80EFE493A356
:10057300FCE493A3FDED4C600D12073CEC24FFFC5F
:10058300ED34FFFD80EFD0E0FDD0E0FCE493A3C0A9
:10059300E0E493C0E022851983851882E0A3FEE09E
:1005A300A3F5207808E0A3F608DFFAE0A3FFE0A3B1
:1005B300C0E0E0A3C0E0E0A3C0E0E0A3C0E0E0A3AC
:1005C300C0E010AF088582188583198008858218DA
:1005D300858319D2AFD083D08202085AD083D082C8
:1005E300E9C0E0E493A3C386F0C5F095F0F908E40D
:1005F30093A386F0C5F095F0700BE493A3C39940E1
:1006030005E9048002A3E475F002A42582F582E5DE
:10061300F03583F583D0E0F9E493A3C0E0E493C01D
:10062300E022C0E074F21203EAA2AFE433FED2AFD9
:10063300E589A2E15003121B9B758900C2C5EEA296
:10064300E092AF7F01020449C0E074F21203EAA210
:10065300AFE433FED2AFE58BA2E05003121B9B75D0
:100663008B00C2E880D8C0E0C3E49396087401937A
:100673009618400FE4936670080874019366187027
:10068300007019A3A3C3E49396087401939618A367
:10069300A3400DD0E0D0E0D0E0020589A3A3A3A33B
:1006A300A3A3D0E022D083D082C5F0E493A3C5F006
:1006B300C395F0F5F0E493A3C395F04005E5F0048A
:1006C3008001E475F002A42582F582E5F03583F517
:1006D30083E493A3C0E0E493C0E022740480047431
:1006E300028000CCC0E0EDC0E0E518C39CCCAD199E
:1006F30050011D10AF068C188D1980068C188D19AA
:10070300D2AF1207D6D0E0FDD0E0FC227402800005
:10071300CCC0E0EDC0E0E518C39CCCAD1950011D81
:1007230010AF068C188D1980068C188D19D2AF1254
:1007330007B4D0E0FDD0E0FC22C0E0C0F088F0E4D4
:10074300936670080874019366187000A8F0A3A359
:10075300700BD0F0D0E0D0E0D0E0020589A3A3D0A5
:10076300F0D0E022D083D082CCC0E0E493A3600633
:100773001208351470FAE493A36006120926147064
:10078300FAD0E0FCE493A3C0E0E493C0E022C0E02D
:1007930074F21203EAA2AFE433FED2AFC2C0E5D1D2
:1007A300A2E45003121C43EEA2E092AF7F010204C5
:1007B30049CAC0E0E493A3C582CCC582C583CDC535
:1007C30083F0A3C582CCC582C583CDC583DAE5D0CA
:1007D300E0CA22CAC0E0E0A3C582CCC582C583CDEE
:1007E300C583F0A3C582CCC582C583CDC583DAE6B4
:1007F300D0E0CA227009080808226016181818C623
:10080300C333C608C633C608C633C608C633C6D5FF
:10081300E0EA22C008C3E096F50808A3E096420880
:1008230008A3E096420808A3E09645087001D3D0D8
:100833000822C0E0E493A3D39C5010E493A3C39C89
:10084300400AD0E0D0E0D0E0020784A3A3A3D0E025
:1008530022C09FF59FE473D09F22D083D082C09F94
:10086300E493C0E0740193C0E0740293F59F227493
:1008730004800A74038006740280027401C0E0F4E9
:100883000412088DD0E0120ADE222518F58210AF7B
:1008930008F518400215198008F51840021519D2F9
:1008A300AF85198322BB0102E722C082C0838982FC
:1008B3008A83BB0003E08002E493D083D08222C00A
:1008C300D0251810AF08F518500205198008F5183F
:1008D30050020519D2AFD0D022C0E0C0D0E8C0E0AA
:1008E300E5A8D2AFC2C7A2E792AFD0E0F8D0D0D08C
:1008F300E0326016080808C6C313C618C613C61824
:10090300C613C618C613C6D5E0EA22C3E0C696F6D8
:1009130008A3E0C696F608A3E0C696F608A3E0C6C9
:1009230096F622C0E0E493A36C7009D0E0D0E0D047
:10093300E0020784A3A3D0E022251810AF08F5181E
:10094300400215198008F51840021519D2AF22E7A5
:100953006670100809E766700A0809E766700408FC
:1009630009E76622E066701008A3E066700A08A330
:10097300E066700408A3E06622C3E09608A3E0964D
:1009830008A3E09608A3E096A2D265D03322C3E081
:1009930096F008A3E096F008A3E096F008A3E0968B
:1009A300F022E026F008A3E036F008A3E036F008D2
:1009B300A3E036F022E627F60809E637F60809E64B
:1009C30037F60809E637F622E026F608A3E036F6FE
:1009D30008A3E036F608A3E036F622C0E0E8C0E05C
:1009E300E58124FCF8E6A2E7D0E0F8D0E022E64770
:1009F300F60809E647F60809E647F60809E647F662
:100A030022E657F60809E657F60809E657F60809F5
:100A1300E657F622E056F608A3E056F608A3E0569A
:100A2300F608A3E056F622E056F008A3E056F008D5
:100A3300A3E056F008A3E056F022700422600D18DC
:100A4300C6C333C608C633C6D5E0F41822E4C3963A
:100A5300F608E496F608E496F608E496F622600DA6
:100A630008C6A2E713C618C613C6D5E0F322C6F418
:100A7300C608C6F4C608C6F4C608C6F4C622C3E749
:100A8300960809E7960809E7960809E79622C3E05E
:100A93009608A3E09608A3E09608A3E0962275D0F3
:100AA30000758140751801751903000204A1E0F671
:100AB30008A3E0F608A3E0F608A3E0F622600C081A
:100AC300C6C313C618C613C6D5E0F422E6F008A3BE
:100AD300E6F008A3E6F008A3E6F022CAC0E0E6F0D9
:100AE300A308DAFAD0E0FA22E0FAA3E0FBA3E0FCE1
:100AF300A3E0FD22EAF0A3EBF0A3ECF0A3EDF022D8
:100B0300E5C754F84401F5C77901222518F582E4B5
:100B13003519F58322C2AF75D69F02000022120851
:100B23005D44E40212085DE7E40212085D2EE6026A
:100B330012085D4CE60212085D40250012085D5262
:100B4300250012085DA4250012085D052600120881
:100B53005D8F260012085D33270012085D8727008A
:100B630012085DA0270012085DC6270012085D0168
:100B7300280012085D45280012085D6C2800120841
:100B83005DBD280012085D6D290012085D252A004D
:100B930012085DED2A0012085DAD2B0012085DF10D
:100BA3002B0012085D162C0012085D592C00120848
:100BB3005DA62C0012085DFE2D0012085D842E0038
:100BC30012085DA22E0012085DCC2E0012085DE60D
:100BD3002E0012085DF52E0012085D002F0012088A
:100BE3005DC02F0012085D19300012085DDB300074
:100BF30012085DE3300012085DA7310012085D138F
:100C0300320012085D3E330012085D4F33001208B4
:100C13005DC5330012085D57340012085DAF340020
:100C230012085D6F350012085D96350012085DA845
:100C3300350012085DFB350012085D3836001208D6
:100C43005D45360012085DC8370012085D1D390086
:100C530012085D4F390012085DE2390012085D1B6E
:100C63003A0012085D673A0012085D833B001208E0
:100C73005DCC3D0012085DD73D0012085DE23D00EA
:100C830012085DEC3D0012085DF73D0012085D118E
:100C93003E0012085D1B3E0012085D253E0012084F
:100CA3005D303E0012085D583E0012085DB33E0001
:100CB30012085DD73E0012085DFB3E0012085D5925
:100CC3003F0012085D9D3F0012085DB93F00120806
:100CD3005D30400012085D68400012085DB44000BA
:100CE30012085D11410012085DCB410012085DAF8F
:100CF300430012085D08440012085D3845001208DD
:100D03005D5E450012085DE7460012085D634A0018
:100D130012085D354C0012085DFE4D0012085DABF4
:100D23004E0012085D16500012085DB550001208FF
:100D33005DFA500012085D64510012085D735100A2
:100D430012085DFA530012085DAC550012085D19D4
:100D5300560012085DF8560012085D11580012087B
:100D63005D8E590012085DAD590012085D025A00EC
:100D730012085D075B0012085D2F5B0012085D8798
:100D83005B0012085D665C0012085DAA5C00120835
:100D93005DF55C0012085D605D0012085DA15E00F8
:100DA30012085D055F0012085D53600012085DB311
:100DB300620012085DE4620012085D9C6400120880
:100DC3005DF1640012085DF5650012085D9266002E
:100DD30012085DEB660012085D9E670012085D4015
:100DE300680012085DE0680012085D85690012085A
:100DF3005DDD810112085D1C820112085D638401BF
:100E030012085DAD840112085DC8850112085D38C2
:100E1300860112085D6D860112085DE187011208E3
:100E23005D648A0112085D8D8B0112085D238C01BC
:100E330012085D2B950112085DC0950112085DA78C
:100E4300980112085D9A990112085DFB9901120835
:100E53005D179B0112085DFC9C0112085D0D9F014B
:100E630012085D779F0112085D49A00112085D0019
:100E7300A10112085D0AA10112085D38A10112083F
:100E83005DF5A10112085DCCA20112085D93A301D7
:100E930012085D45A40112085D6EA40112085D905D
:100EA300A40112085DE6A60112085DBEA70112089F
:100EB3005D02A80112085D6AA80112085D22A9015A
:100EC30012085D54A90112085D98A90112085DCEAC
:100ED300A90112085D1AAA0112085D6FAA0112087E
:100EE3005D74AA0112085DC7AA0112085DECAA018C
:100EF30012085DFBAB0112085D5FAC0112085DCF08
:100F0300AC0112085D5BAD0112085D28B001120847
:100F13005D0CB10112085D8FB20112085DC5B40109
:100F230012085D73B50112085D23B60112085D64F2
:100F3300B80112085D07B90112085D4EB901120824
:100F43005DFABA0112085D0EBB0112085D18BB0100
:100F530012085D40BB0112085D4CBB0112085D6BBA
:100F6300BB0112085D50BD0112085D87BD01120867
:100F73005D91BD0112085DC7BD0112085D16BF0179
:100F830012085D5ABF0112085D02C00112085DE537
:100F9300C00112085D90C10112085DDCC201120894
:100FA3005DDAC30112085D80C40112085D10C5013A
:100FB30012085D27C50112085D5EC50112085D6850
:100FC300C50112085D73C50112085D91C5011208C0
:100FD3005DD5C50112085D32C60112085D57C60111
:100FE30012085D71C60112085DFDC60112085D1A83
:100FF300C80112085D87C80112085D6EC901120895
:101003005D95C90112085D09CA0112085D84CA0110
:1010130012085D88CB0112085D7ECC0112085D2D9C
:10102300CD0112085D40CE0112085DDCCE0112082D
:101033005D69CF0112085D47D00112085D7FD001C1
:1010430012085DD7D00112085DA0D10112085DC15D
:10105300D10112085D48D20112085D6CD201120859
:101063005D8ED20112085DD7D20112085DEDD40165
:1010730012085DD4D50112085D85D60112085DBB47
:10108300D80112085D0BD90112085D4BD901120872
:101093005D8DD90112085DE9D90112085D17DA01E6
:1010A30012085D3BDA0112085D8EDA0112085DBC9D
:1010B300DA0112085DF5DA0112085D4ADB01120854
:1010C3005DB0DB0112085D04DD0112085D27DF015D
:1010D30012085D94DF0112085DBDDF0112085D484F
:1010E300E00112085DAFE00112085DFAE0011208A9
:1010F3005D1EE10112085D42E10112085D9DE101FF
:1011030012085DB8E10112085D71E20112085DB1D8
:101113009C0412085DF09C0412085D78800212089A
:101123005DBE800212085D9E810212085DA08202EC
:1011330012085DA3830212085D2F850212085D8DDC
:10114300850212085D4A860212085D68870212084A
:101153005DD9870212085D15880212085D63880253
:1011630012085D6D880212085DB1880212085D0DD8
:10117300890212085DA8890212085D258A021208F5
:101183005DF48A0212085D8D8B0212085DAD8B023D
:1011930012085DE38B0212085D148C0212085DD500
:1011A3008C0212085DE58C0212085D398D0212086B
:1011B3005D548D0212085D668D0212085D6F8D020B
:1011C30012085DC98D0212085D258E0212085D7139
:1011D3008E0212085D8C8E0212085DBD8E0212080B
:1011E3005DDA8E0212085DE68E0212085D5A9002E5
:1011F30012085D73900212085DDA900212085DED29
:10120300900212085DFB900212085DAF9102120872
:101213005D93920212085D99930212085D23940272
:1012230012085D2D940212085D9A940212085DB1B2
:10123300940212085DE3940212085D1C95021208E1
:101243005D46950212085DA7950212085DC79502D7
:1012530012085DE5950212085D2B960212085D5196
:10126300970212085D9E970212085DCD970212083D
:101273005D43980212085D6B980212085DA4980200
:1012830012085DB2980212085D0A990212085D59AC
:10129300990212085D98990212085DC89902120812
:1012A3005DF4990212085DFF990212085D1D9A020E
:1012B30012085DDF9A0212085DE99A0212085D24A2
:1012C3009B0212085D3A9B0212085D8F9B02120873
:1012D3005DA39B0212085DB19C0212085DC49C02CF
:1012E30012085DD99C0212085D7B9D0212085DFE07
:1012F3009D0212085DBC9E0212085DC79E02120881
:101303005DF39F0212085D0FA00212085D61A00247
:1013130012085DA0A00212085DB5A00212085D17B5
:10132300A10212085DA6A10212085DF1A102120832
:101333005D42A40212085DC0A40212085D35A50235
:1013430012085D57A70212085D6FA70212085D72AB
:10135300A70212085D7EA70212085D92A702120877
:101363005D9AA70212085DCDA70212085D7DA8024F
:1013730012085DF3A80212085D66A90212085D1A3D
:10138300AA0212085DCFAA0212085DEEAA02120891
:101393005D8EAB0212085D9AAB0212085DC5AB020B
:1013A30012085DC8AB0212085D32AC0212085D5A26
:1013B300AD0212085D32AE0212085DBDAE02120824
:1013C3005DD6AF0212085D93B00212085DCCB00285
:1013D30012085DFDB00212085DBBB10212085DEB9D
:1013E300B10212085DC6B20212085D5FB3021208B1
:1013F3005DEAB30212085D9BB40212085D1EB502DA
:1014030012085D50B50212085D91B50212085D40E5
:10141300B40312085DA5B40312085DE2B403120815
:101423005D31B50312085D47B70312085D2AB9039E
:1014330012085D94BC0312085DCFBC0312085DF172
:10144300BC0312085D54BD0312085D88BD03120876
:101453005DABBD0312085DD8BD0312085D34BE0346
:1014630012085D2A9E0312085DA89E0312085DDE22
:101473009E0312085D4A9F0312085DBDA003120874
:101483005DD9A00312085D1EA10312085DACA10380
:1014930012085D05A20312085D32A30312085D441E
:1014A300A40312085DA1A40312085D0DA50312088D
:1014B3005D6EA50312085DAFA50312085D5CA6036C
:1014C30012085D6EA70312085D99A70312085DE475
:1014D300A70312085D2BA80312085DBDA803120819
:1014E3005D78A90312085DE49B0412085DAC9204C5
:1014F30012085DBD920412085D0E930412085D5339
:10150300930412085DFD930412085DF09804120819
:101513005D858F0412085DDD900412085DEFA90359
:1015230012085D94AA0312085DB4AA0312085DD4DD
:10153300AA0312085DE8AA0312085D40AB03120870
:101543005D70AB0312085DF1AC0312085D97AD0348
:1015530012085D79AE0312085DCAAE0312085D0D71
:10156300AF0312085D50AF0312085DB6AF03120854
:101573005D4ADD0212085D63B00312085D94B00397
:1015830012085D08B10312085DB6B20312085D903C
:10159300B30312085DD2B30312085D2CB40312081F
:1015A3005D1F7E0012085D407E0012085D767F009D
:1015B30012085DA07F0012085DDFF40312085D5975
:1015C300F50312085D64F50312085DF7E2021208E1
:1015D3005DED910312085DF0910312085DAA920379
:1015E30012085DD5920312085D1C930312085D4136
:1015F300930312085D62930312085D969303120826
:101603005DCF930312085DF8940312085D2F9503D1
:1016130012085D4F950312085DEA950312085DAF4A
:10162300960312085DE6960312085D5B98031208A1
:101633005DFE980312085DF7990312085D209A0373
:1016430012085D749A0312085D3A9B0312085D68E1
:101653009B0312085DFD9C0312085D7E9D03120827
:101663005DB19D0312085D11F60112085D1BF601C1
:1016730012085D67F60112085DD5F60112085DF6E2
:10168300F60112085D0DF70112085DBDF70112089E
:101693005D51FA0112085D5AFA0112085DADFA01B3
:1016A30012085DD6FA0112085D3DFB0112085DCEFA
:1016B300FB0112085D10FC0112085D5AFC011208BF
:1016C3005DB9FC0112085DE5FC0112085D76FD01C0
:1016D30012085DB5FD0112085DF4FD0112085D29D4
:1016E300FE0112085D3BFE0112085D4DFE0112086A
:1016F3005D6CFE0112085D75FE0112085D2BFF0192
:1017030012085D6BFF0112085D17E20312085DEA20
:10171300E20312085D04E30312085D15E3031208F4
:101723005D2AE50312085D49E50312085DB38904E8
:1017330012085DE9890412085D328A0412085D8289
:101743008B0412085DD1690012085D106B0012084A
:101753005D4C6B0012085D0B6D0012085D346D006B
:1017630012085DC76F0012085D0B700012085D94CC
:10177300710012085D2C720012085D947200120849
:101783005D35730012085D77730012085DB773004F
:1017930012085D42750012085DB2760012085DD72B
:1017A300780012085D05790012085D2C7900120893
:1017B3005D35790012085D90790012085D237A0087
:1017C30012085D417D0012085DC27D0012085D278D
:1017D3009E0412085D3D9E0412085DA3FF031208D8
:1017E3005D7AF10312085D8DF10312085D2AF2039D
:1017F30012085D65F20312085D80F20312085DA50D
:10180300F20312085DEAF20312085D1BF3031208E8
:101813005D4CF30312085DD2F40312085D75950461
:1018230012085DAB950412085DC7950412085D09A3
:10183300960412085D19960412085DAE9604120808
:101843005DB8960412085D58FA0312085DF7FA03AF
:1018530012085DACFB0312085DF1FB0312085D4443
:10186300FC0312085D89FC0312085D008003120863
:101873005D58800312085D41810312085DDA81031C
:1018830012085D24820312085D86820312085DDF5D
:10189300820312085DF3820312085DD584031208E4
:1018A3005D50850312085D7A850312085D73870313
:1018B30012085D8E870312085DDD870312085DF34E
:1018C300870312085D00880312085D348803120839
:1018D3005D4D880312085DDE880312085DED880301
:1018E30012085D4B890312085DA5890312085DF395
:1018F300890312085D068B0312085D778D031208B6
:101903005DAC8D0312085D3A8E0312085D9B8E0356
:1019130012085DA08E0312085DDC8E0312085D3E83
:101923008F0312085D0E900312085D3390031208B3
:101933005D3D900312085D40900312085DAF900374
:1019430012085DCA900312085DDD900312085D0959
:10195300910312085D44910312085D479103120835
:101963005D83910312085D96910312085DBD910397
:1019730012085D639C0412085D7B9C0412085DBC25
:10198300C70312085D0BC80312085DADC903120833
:101993005D6BCB0312085DB3CB0312085DD5CC039B
:1019A30012085D06CE0312085D28CE0312085D847B
:1019B300CE0312085D06CF0312085D73E602120818
:1019C3005D9EE60212085D8BE70212085D10E802D5
:1019D30012085D79E80212085DC5E80212085D4449
:1019E300E90212085DD6E90212085D62EA021208F2
:1019F3005DA4EA0212085D10EF0212085D90F00286
:101A030012085DCFF00212085DB0F10212085DB357
:101A1300F10212085D67F20212085D9CF3021208DC
:101A23005DFDF50212085D89F60212085DAEF7024C
:101A330012085D8DF80212085D0FF90212085DAB02
:101A4300E20112085D65E30112085DD7E3011208A4
:101A53005DE6E30112085D60E40112085DCFE40175
:101A630012085DD6E50112085DFFE50112085D9FCE
:101A7300E60112085DEDE60112085D5DE70112085B
:101A83005D16EA0112085DEDEA0112085D5AEB01E9
:101A930012085DD7EC0112085D8BED0112085D3968
:101AA300EE0112085D94EE0112085DFFEE011208CB
:101AB3005DFFEF0112085DD9F10112085DECF2013F
:101AC30012085D85F30112085DF7F30112085DBD8D
:101AD300F40112085D0CFD0312085D60FD0312089A
:101AE3005DB8FD0312085D03FE0312085D65FE0386
:101AF30012085DFEFE0312085D66FF0312085D72A5
:101B0300FF0312085D5D870412085D8E87041208C7
:101B13005D48880412085DAE880412085D1F8904BD
:101B230012085D2BF80312085DB7F90312085DE391
:101B3300990412085DF4990412085D949A0412083A
:101B43005DCD8D0412085DDB8D0412085DE5FF0198
:101B530012085D4E9B0412085D5E9B0412085D79BA
:101B63009B0412085DDA9B0412085DEE97041208C9
:101B73005D73980412085DD7980412085D2C9104D4
:101B830012085D4E910412085DB4910412085DD4ED
:101B9300910412085D1A920412085D7592041208EA
:101BA3005D68DD0312085D7DDD0312085D96DE03CB
:101BB30012085DD7DE0312085DF1DE0312085D71C2
:101BC300DF0312085D8AE00312085DFEE0031208DA
:101BD3005D18E10312085D2BE10312085D39E1038F
:101BE30012085D53E10312085D6AE10312085D9474
:101BF300E10312085DE2E10312085D70EA031208D3
:101C03005D7EEA0312085DF8EA0312085DDCEB036C
:101C130012085D95ED0312085D059E0412085DA789
:101C2300F90212085D14FA0212085DD5FA021208CD
:101C33005D45FB0212085D4EFC0212085DC6FD0203
:101C430012085D2AFE0212085D7FFE0212085D88FB
:101C5300FE0212085D97FE0212085DAAFE02120838
:101C63005DC0FE0212085DC9FE0212085DF7D303D0
:101C730012085D4CD40312085D48D60312085D7A3E
:101C8300D60312085D9CD60312085DB5D60312086D
:101C93005DCED60312085DD8D70312085D73D8034F
:101CA30012085D14940412085D38940412085D51FF
:101CB300940412085D84940412085DB59404120818
:101CC3005DE3940412085D45950412085D54950480
:101CD30012085D5E950412085D6B950412085D0A97
:101CE300800412085D30800412085D6D80041208C0
:101CF3005D7C800412085D9B800412085D038104EF
:101D030012085D0C810412085D6B810412085D8F5B
:101D1300810412085D4E820412085D5B820412087E
:101D23005D6C820412085D3E9D0412085D5B9D0498
:101D330012085DEAD80312085D48DA0312085D55FC
:101D4300DA0312085D68DA0312085D87DA03120802
:101D53005D9DDA0312085DB1DA0312085D26DB0329
:101D630012085D8BDB0312085D3BDC0312085D1078
:101D7300DD0312085D20DD0312085D2FDD03120869
:101D83005DB59A0412085DD99A0412085D019B049B
:101D930012085D299B0412085D9A820412085DC132
:101DA300820412085DE2820412085D47830412086C
:101DB3005D00850412085D19850412085D258504FC
:101DC30012085D39850412085D57850412085D61A8
:101DD300850412085D6B850412085D7E8504120874
:101DE3005DD1850412085D0A860412085D398604F4
:101DF30012085D87860412085DD6860412085DF119
:101E0300860412085DFB860412085D0C8704120821
:101E13005D52870412085D94FF0112085D80BE03C2
:101E230012085DAABE0312085DC6BE0312085DD97F
:101E3300BE0312085DEFBE0312085D4CBF03120818
:101E43005D7FBF0312085DBBC30312085DE1C403DA
:101E530012085D14C50312085D60C50312085D8C8A
:101E6300C60312085DB4C60312085DC9C60312088F
:101E73005DD9C60312085D1DC70312085D7EC70343
:101E830012085D8EC70312085DBB960412085DD667
:101E9300960412085DFF960412085D199704120850
:101EA3005D3E970412085D5D970412085D75970403
:101EB30012085DA3970412085DBD970412085DFA2A
:101EC3009C0412085DFAED0312085D01EE0312088B
:101ED3005D0DEF0312085D3DEF0312085D63EF0331
:101EE30012085D86EF0312085DA8EF0312085DE296
:101EF300EF0312085D48F00312085D81F003120836
:101F03005DCDF00312085DFAF00312085D1AF103C8
:101F130012085DE58B0412085DFD8B0412085DEB6E
:101F23008C0412085DCA8D0412085DDCFE021208DF
:101F33005D4EFF0212085D8CFF0212085DCDFF02A9
:101F430012085DA2E60312085DC1E60312085D10E4
:101F5300E70312085D2CE70312085D5DE70312082F
:101F63005D6DE70312085D7AE70312085D87E703F7
:101F730012085D73E80312085DB1E80312085DBB44
:101F8300E80312085DCBE90312085DD6E9031208E2
:101F93005DE8E90312085DF1E90312085DFBE9035B
:101FA30012085D3ACF0312085D7FD30312085D8DDB
:101FB300D30312085DB09D0412085D7A9D041208D4
:101FC3005DDD9D0412085D479E0412085D44DA023C
:101FD30012085DA6D70212085D6FD60212085DC310
:101FE300D50212085D09D40212085DB9D1021208A4
:101FF3005D40D10212085DE7D00212085D77D0027E
:1020030012085D4ED00212085D2ECE0212085DFA50
:10201300CD0212085DC7CD0212085DABCD021208D6
:102023005DC4CC0212085D7CCC0212085DC7CA02F3
:1020330012085D47CA0212085D44CA0212085D41D4
:10204300C90212085D0FC90212085D4CC8021208CA
:102053005DA2E00212085DC0DF0212085DA4DF0288
:1020630012085D28DF0212085DDFDE0212085D77C9
:10207300C60212085D08C60212085DDAC50212081C
:102083005DD7C50212085D97DE0212085DC4C50262
:1020930012085D6FC50212085D5EC50212085D502D
:1020A300C40212085DE5DD0212085D85F50312081E
:1020B3005D1AC40212085DC8C30212085D69C30237
:1020C30012085D38C30212085D00C00212085DC029
:1020D300BF0212085DB4BF0212085D14BF021208EA
:1020E3005D54BE0212085DD6BB0212085D67B902D9
:1020F30012085D25B90212085DF9B70212085DAE38
:10210300B70212085DEDB60212085D30B60212087E
:102113005DC6B50212085D00B60212085D57DD0206
:1021230012085DD7AF0300000080FBE473000136A3
:10213300360101000102010001030100010401064F
:102143000605020000070100340801000F0904011D
:10215300010D0100FF0E0800001702000019010025
:10216300FF1A0100011B0100FE1C0100081D0200F3
:10217300001F0100012001000121020000230100D2
:102183000F24020000260100012701000828020095
:10219300FF2A0100072B0102402C0100002D010042
:1021A300012E0100012F0100FF30010B1C3108003B
:1021B300003A0100083B01000F2F010000030271E8
:1021C3000230016002110270020102020202028067
:1021D30002100261023A004100630273027202625A
:1021E300024302000213023800000200020402123A
:1021F3000200020002000200020402040237003758
:10220300003C0244020002390000020002650200A1
:1022130002350281020002050282028302000203E8
:102223000071003001600011007000310220035082
:10223300048000100061000000140063007300724A
:1022430000620043000000130006000000000004C9
:10225300001200000000000000000004000400372A
:102263000037003C0244000000000000000000654D
:10227300000000350081000000050000008300001D
:1022830000030471040204600411047004020402D4
:1022930004010402041004610400041404630473BD
:1022A30004720462044304000413040604000400DB
:1022B3000404041204000400040004000451046430
:1022C30000000400040004440400040004000400AB
:1022D30004650400043504810464000504000483D8
:1022E300040004010371030103010301030103015A
:1022F300032203020301031003000300030003008E
:102303000300030003000342030003240306030046
:1023130003000304031203250323032503230304F8
:102323000304030003000300034403000300032327
:102333000300036503210035038103000305030044
:1023430003000300030101710101010101110101F6
:10235300013101010101018001100161013B001400
:10236300006301730172016201430100011301065D
:10237300013D0135000401120100010001000100CB
:102383000104010401330133013C014401320136EC
:102393000000010001650100013500810100010514
:1023A3000182018301000136000100060000000FD5
:1023B3000000000000000000000000000003FFFF19
:1023C30000000403FFFF0000FFFF0FF4010005C43A
:1023D300040320000100000B0000000000000000C7
:1023E30003010F00007B1A13001B1A01007B1A0262
:1023F30000D3190300D9190400DF190500E51906F4
:1024030000F11911000F1A1400151A1500031AFF11
:10241300FF000001390E06630E085D0E0B7B0E10E4
:10242300B50D023F0E05510E07450E0C1B0E0D2D6B
:102433000EFF000003EAF5E5D5D5C5B5A59595854D
:102443008575756565555545453535252515150539
:10245300591289125F1265128312771271128F1249
:1024630095129B12A7126B1253124D1200160F00F6
:10247300000B150B020002220F3200000649135B0A
:10248300136113231267131D1229125D1157119340
:102493001199118D114511A913C713CD13AF13BB97
:1024A30013B513303016181920231A1C1E300C0EC6
:1024B300020B040B0A0708000F00383C3E363B3B77
:1024C300352B432C303017181921301B1D1F3000BA
:1024D3000119161816161523030000034948424D27
:1024E30018172505029D136D1373137F1379137D3D
:1024F30012A112C113AD12B31202040201010101B0
:10250300090269116F1163119F110000000000009F
:102513007511871100BE040A150004007F00E8034B
:102523000C002800000000000308100C0A0308092F
:1025330000040001FF1E1E0C05040F1008C082C01A
:10254300838A828B83E0D2E7F01219310235F4C01B
:1025530082C0837900122A0C12595DC082C0839015
:1025630003341246E3D083D082C3E09CA3E09D50A2
:102573000C126031FAA3E01225836001090235F4DD
:10258300FBEA75F00BA4FAA8F075F00BEBA428FB9B
:10259300900336E02AF8A3E03B8882F583E0540FEA
:1025A3002274F712037E8908122A0C122AB2ACF0A5
:1025B30075F00BE9A42CF9900336E028FEA3E0396B
:1025C300FF7401650860067402650870208A828BB7
:1025D30083122A9E1239D474026508701B12295D76
:1025E300122AE570138E828F83E4F0800BEA2403B2
:1025F300FCEB122A80122A8CEEFAEFFB120B390243
:10260300393174F412037E12695879008E828F83F4
:10261300E06076890A890B8065E50A75F00BA4FAF8
:10262300A8F075F00BE50B1225907046E50A75F0DE
:102633000BA4F8AAF075F00BE50B122AC48E828F57
:1026430083E0850882850983122BA6850882850984
:1026530083A31239D4EE2403FCEF122A891237B272
:102663001253D7AA08AB09120B397901900334121C
:102673004DECE50A2401F50AE50B3400F50B1229AC
:1026830065E50A9AE50B9B4090023B7E74F51203C5
:102693007EEAFEEBFF740B120B0E1237B7750A01BD
:1026A300EC4D602BEC126974ED12595D1239CC7943
:1026B30001120B45E5084509606F8508828509838A
:1026C300A31269627902AA08AB09120B45805AE585
:1026D300084509602B12596112402B1237B3122A95
:1026E300CF700CEEFAEFFB120B4BE9F50A80CBEE41
:1026F3002403FA122A0770317903EEFAEFFB80CA3A
:102703008E828F83A3E064FE7003A3E0F4700BEE6C
:1027130024030A0A0A122A07700CEEFAEFFB120BC3
:102723004BE9F50A8003750A00A90A7F030205999C
:1027330074F712037E900334123941EA4B602FEA97
:1027430075F00BA4FAA8F075F00BEBA428FBEAFED6
:10275300EBFF121739900336123941900336124CAE
:10276300316012EEFCEFFD790012167980079003B9
:1027730036E4F0A3F002393190033412439BC3EEE5
:1027830098EF9922C082C083EC4D6005121F3D80F3
:10279300097C087D0079001216790235F474F6126B
:1027A300037E7900EA4B601878008808125CA4EB7A
:1027B30012602D60047901780808E8C3940840EAA0
:1027C3000239DD74F712037E74F312093CECFEED5B
:1027D300FF851882851983E4F004120B0EEAF0A337
:1027E300EB12515D7403120B0EAC82AD83EEFAEF64
:1027F300FB120B5DEEFAEFFB120B6302392C74F73D
:1028030012037E74F312093CECFEEDFF85188285FA
:102813001983E4F0EAFCEBFD7403120B0E122B9FF9
:102823007401120B0E1239C88E828F831239D4743D
:10283300FE68700374FF6960047901800279000205
:10284300392C74F712037EEAFEEBFF1228A37014EF
:102853001228AE8E828F83E0F4F88A828B83E0584D
:10286300F0120B39A90802393174F712037EEAFE1C
:10287300EBFF7508008E828F83E060221228A3701D
:102883001D1228AE8A828B83E08F838E82F8E058F4
:10289300700CE0F88A828B83E048F0120B3980C415
:1028A300120B3FE9F508740165082212696D122ABB
:1028B300B61229F8FAA3E039FB2274F412037E8AD4
:1028C300088B097C007D0012295D122A8C122A1DB7
:1028D30012695F7900850882850983A3E064FE702D
:1028E30003A3E0F460717E007F008062EEFAEF12D2
:1028F30025836057EEFAEFFBEA75F00BA4FAA8F014
:1029030075F00BEBA428FB900336E02AF50AA3E04D
:102913003BF50B850882850983A31250AB850A8298
:10292300850B83A3E06A7003A3E06B701EE50A24A2
:1029330003FAE50B122A08700AE50A2403FCE50BE7
:10294300122A89122A1179011259731232FC12299F
:1029530065EE9AEF9B4095023B7EEA24030A0A0A3E
:10296300EB2290033412554AC32274F312037E8A76
:10297300088B098A828B83A3126962122A0C12695B
:102983005F750C0012295D122A0870547E007F00C7
:1029930080491229EAFAA3E0398A82F583E0540FC9
:1029A30060361229EAF50AA3E039F50BE50A240398
:1029B300FCE50B122A933400FB121F37E964017004
:1029C30017850A82850B83A312560BA31239D412DF
:1029D3002A11750C011259731232FC12277B40B273
:1029E300A90C7F05020599EEF8EFF9E875F00BA441
:1029F300F81229F822AAF075F00BE9A42AF990033A
:102A030036E02822EF122ADF22126973EB22122A00
:102A13001D12596EEEF0A3EFF022E508126974E57A
:102A2300092274F512037EEAFEEBFF8E828F83A3E5
:102A33001269627C007D00EE24030A0A0AEF122A5F
:102A43008CEEFAEFFB120B3FE9F50A7401650A708D
:102A53002912696D122AB2AAF075F00BE9122AC481
:102A6300850882F583122A9E122ACF700DE5082469
:102A730003FCE509122A80122A8C02272C3400FD5C
:102A8300EE2403FAEF22122A933400FB120B5D2289
:102A93003400FDE5082403FAE50922A3122AA32240
:102AA300122AA722E0F8A3E0F98E828F83A32212D1
:102AB3002AB6223400F58312439FE875F00BA4F87D
:102AC300221229FEF508A3E039F50922E8F0A3E96B
:102AD300F0E5082403FAE509122ADF22122AE56445
:102AE30001223400FB120B63E92274F312037E7498
:102AF300E612093C126958750C0175080075090046
:102B0300750A00750B00851882851983E4F0EE249D
:102B130003FCEF3400FD7403120B0E122B9FE964C8
:102B2300017023740B120B0E1239CC7401120B0EAD
:102B33001250AF7003A3E069605185188285198331
:102B4300858208858309740D120B0EE4122BA6747B
:102B53000E120B0E1239D4740D120B0EAA82AB8314
:102B6300120B81E96401700B740D120B0E85820A3E
:102B730085830B780A12087AAC08AD09EEFAEFFBED
:102B8300120B5174021208C2E9F50CEEFAEFFB12B4
:102B93000B7BA90C741A1208C20229E5122E7212B9
:102BA3000B872212393C12439B22C082C0837800D8
:102BB30079008003122C9D122965E89AE99B50291C
:102BC300E8FAE9FBEA75F00BA4FAACF075F00BEB4D
:102BD300A42CFB900336E02AFCA3E03B8C82F58314
:102BE300E0540F70CF7900800279010235F4C0827E
:102BF300C08390251B1243F1EC75F012A4FCA8F0DE
:102C030075F012EDA428FD79FF7A227B091216795B
:102C13000235F474F712037EE9FEEAFF7A007B00C3
:102C2300780079008028E8FCE9FDEC75F012A4FC3B
:102C330085F00875F012EDA425081230B2C39E404A
:102C43000AE0FCEFC39C40031231D1122C9D1230D9
:102C5300A640D3023931C082C08378007900800353
:102C6300122C9D122C91501F1230B6F470F2E8759D
:102C7300F012A4F8AAF075F012E9A42AF974222834
:102C8300FA740939FB80047A007B000235F490253D
:102C93001B123167C3E89AE99B22E8240108E9344F
:102CA30000F92274F012037E74F312093C8A0A8B32
:102CB3000B8C0C8D0D8908EC450D6016AA0CAB0D21
:102CC300120BD58A0E8B0FAE0EAF0FEE4F600302C1
:102CD3002D64120BAB8A0E8B0FA80EA90FE8FEE929
:102CE300FFE849607C902529122DC6602274036594
:102CF3000860067404650870167A047903120BA53C
:102D0300902529122DDD40077A007B00022DC39008
:102D13002527122DC6601B740165086006740265C1
:102D230008700F7A027901120BA5902527122DDD69
:102D330050D68518828519837401F0120B0E125335
:102D4300D7AC0CAD0D7403120B0E122E6B740B1259
:102D53000B0E1237BF123DB4E41253BF12109D8005
:102D630004EE4F604A780074FF2508C394045002B0
:102D730078048E828F831253D78E828F83A3A3A36B
:102D8300A3E508F0E88E828F83A3A3A3A3A3125322
:102D9300DF12022D12317E8E828F83A3A3A3A3A3FE
:102DA300A3A3F0123175120AEB125957120AF71244
:102DB3002DCB4005900E7EE4F0120F77EEFAEFFB79
:102DC3000243A51254F949227A047900120BA59003
:102DD300251B126013EA98EB9922122DF6758325B1
:102DE30075821BE493C398F8A3E49399F9C3EA9813
:102DF300EB9922E493F8740193F92274F212037E9F
:102E030074F312093C8A088B09ECFEEDFF750A0086
:102E1300EEFAEFFB120BD58A0C8B0DA80CA90DE86B
:102E230049603E88828983E065087004A3E06509F0
:102E3300602F88828983A3A3A3A3E0C394055021B1
:102E43001258058518828519837401F0120B0E122E
:102E53005809EEFCEFFD7403120B0E122E6B750A6C
:102E630001A90A740D024EA3122E72120B9322AA09
:102E730082AB83120B5D851882851983AA82AB838B
:102E83002274F612037E122EC0600FA3A3A3A3E045
:102E930014C3940450047901800279000239DD746B
:102EA300F612037E122EC0600FA3A3A3A3E014C3E4
:102EB300940250047901800279000239DD120BCFAC
:102EC3008A828B83E58245832274F612037E122E57
:102ED300C0600BA3A3A3A3E070047901800279006F
:102EE3000239DDC082C083EAFCEBFD7A007B00027D
:102EF30035F1C082C0837C007D000235F174F41289
:102F0300037E74F312093CEAFEEBFF8C0A8D0BC3BC
:102F1300EC94F8ED94FF4007EE4F7003022FB97560
:102F23000800750900802E8518828519837401F0C5
:102F3300123324120B0E12333260137403120B0E6E
:102F4300AC82AD83EEFAEFFB121F37E97049E50857
:102F5300240112315290251BE4125501E50898E52E
:102F630009995052E50875F012A4F8AAF075F01209
:102F7300E509A42AF912604660D4EE4F70A974FFE4
:102F8300650A700474FF650B60C4123314650A701C
:102F930004A3E0650B70B7E50875F012A4F508A863
:102FA300F075F012E509A428F50974222508FA74CE
:102FB300093509FB80047A007B00023B7974F41223
:102FC300037E74F312093C750800120BD58A0A8B31
:102FD3000BAE0AAF0BEE4F602A85188285198374F6
:102FE30001123936F8A3E0F9740B120B0E123A579B
:102FF300120B757C127D0079FFEEFAEFFB12167946
:10300300750801122DCB5009900E7E7401F0120F3A
:1030130077A908023B7974F712037EE9FE74FE6A0E
:10302300700374FF6B7800790070058052122C9D39
:103033001230A6504AE8FCE9FDEC75F012A4FCAF8F
:10304300F075F012EDA42F1230B2F460E0E8FCE961
:10305300FDEC75F012A4FC75F012EDA42FFD7422A3
:103063002CF58274093DF583E06A7003A3E06B706D
:10307300BC80091230B614C394044017122C9D125D
:103083002C915018EE70EC1230B664016005E064C8
:103093000370E9123305FAA3E0FB80047AFE7BFF99
:1030A30002393190251B1243F5C3E89CE99D221296
:1030B300320622E8FAE9FBEA75F012A4FAACF075DD
:1030C300F012EBA42CFB74262AF58274093BF583DA
:1030D300E022120BE70235F4C082C083790180F24B
:1030E30074F012037E8A0A8B0B7A047901120BA502
:1030F3008A0C8B0DEA450D603EEAC333FAEB33FBD2
:103103001217398A088B09AE08AF09EE4F60237A8C
:10311300FE7BFF120BED74FE6A700374FF6B601B82
:10312300850882850983123941E508240212315248
:1031330080E1750C0080047E007F00850A82850B88
:1031430083E50CF0EEFAEFFB0243AAE5082407F54A
:1031530008E5093400F5092290251B1243F5C3EA5B
:103163009CEB9D22E493FA740193FB2212166D7477
:103173000322125968E4F09081C322E88E828F8380
:10318300A3A3A3A3A3A3A3A31231A074011231A0E9
:10319300A3F0EE241012596BE4F0A3F022123DC009
:1031A300A3A3A322C082C0837A007B0080041912E8
:1031B30031D112315B50101231F0C3940550F0E954
:1031C30070EC1231DA80047A007B000235F4EA24D1
:1031D300010AEB3400FB22EA75F012A4FA75F0122F
:1031E300EBA428FB74222AFA74093BFB22EAFCEBCA
:1031F300FDEC75F012A4FCA8F075F012EDA42812F2
:10320300320622FD74262CF58274093DF583E022F3
:1032130074F712037E74F312093C7E007F000232BE
:10322300B8E50875F017A4F8A9F01262A7FAA3E0AD
:10323300FBEEF8EFF9E875F012A4F8ACF075F012B4
:10324300E9A42C1233136A7003A3E06B603FE50813
:1032530075F017A4F8AAF0EA1262A6F8A3E0F974CD
:1032630001120B0EE0687003A3E0696020E50875A6
:10327300F017A4F8EAF9749E28FC740A39FD740364
:10328300120B0EAA82AB83121F37E96014E508758F
:10329300F017A4F8A9F0749C28FA740A39FB1210E9
:1032A300A9050890252DE493F8E508C39850030277
:1032B30032241232FC90251B1265ED5039EEF8EFE3
:1032C300F9123305F47003A3E0F460E685188285F0
:1032D30019837401F0EEF8EFF9E875F012A4F875AC
:1032E300F012E9A42AF9123324120B0E12333260BE
:1032F300C175080080AD02392CEE24010EEF3400B5
:10330300FF22E875F012A4F8AAF075F012E9A42AD6
:10331300F912331822742228F582740939F583E0EF
:1033230022742428F582740939124399740B22E814
:10333300F0A3E9123A5F120B8DE922C082C0839099
:103343000341744BF0A3740EF00235F474F71203C7
:103353007EEAFEEBFF900377E06408601BE0640401
:1033630060168E828F83E05403640170481237B273
:10337300123EAAE06406703D8E828F83A3A3E064AD
:10338300FE7003A3E0F4602D8E828F83A3A3123912
:10339300C8900368E0687003A3E069700BEE24151E
:1033A300F582EF12602D6008120F05E9F508800819
:1033B300120F0B80F67508C2EEFAEFFB12173F02ED
:1033C300286774F412037E8A088B098A828B83E050
:1033D300F8A3E0FAE82AFAE43400FB1217398A0A60
:1033E3008B0BAE0AAF0BEE4F6063850882850983B2
:1033F300E0FC7D0079001216798E828F83A3A312DD
:103403006962120F478E828F83A3A3A3A31239414C
:10341300850882850983E0F8EE28F8EF3400123935
:10342300D0850882850983A3E0C0E0EE240D1259FC
:103433005AD0E0F0120F59EE240E12595AE91250E5
:103443000CE0C0E0EE241112595AD0E0F0EEFAEF8E
:10345300FB023B7E74F412037E74EB12093C8A0870
:103463008B098C0A8D0BE9FE900377E064046005F9
:10347300E06408700479C2802EA37808120ACFEEA4
:1034830090037E123632120ACF7405120B0EE9F046
:103493007404120B0E7401F07407120B0EE4F09017
:1034A3000377740212358F7415023B7B74F6120393
:1034B3007E74EB12093CEAFEEBFF124C2E60030212
:1034C30035537A077B0012173990033912394112A9
:1034D3004C2E60788E828F83120AEB90033A123E51
:1034E300AD120AF7126826C0E012355FD0E0F0EEA5
:1034F3002405FAEF3400FB8A088B098A82F583E0FE
:10350300C0E012355AD0E0123B75E0C0E012355AE4
:10351300A3D0E01239B5120AEB85188285198312FC
:103523000AF788828983E0C0E07405120B0ED0E0AD
:10353300F0850882850983E0C0E07404120B0ED085
:10354300E0F07407120B0E12358E8006791080029C
:10355300790174150239DA12355FA322900339E039
:10356300FAA3E0F5838A82A3A3A3A322C082C08324
:10357300124C2E600D900339125538900339E4F044
:10358300A3F0120E751210490235F4E4123A5F12D9
:103593001F6D22C082C083900338E07003121A09A2
:1035A300120C2F804CC082C083900338E0900E7DB4
:1035B3007004E4F0802D7401F0900338E0F460238C
:1035C3007C41E0C394415002E0FCECF8E0C398F086
:1035D300EC75F0E8A4CCA8F075F003A428FD7A807C
:1035E3001243FD7A7D7B0E7941121F558003120B26
:1035F300DBD083D08202085A74F412037E74EB1278
:10360300093C8A088B098C0A8D0B9003777401128D
:103613003632120ACF7405120B0EE9F07404120B42
:103623000E7403F07407120B0E12358E0234AA12B5
:1036330039C078082274F712037E7C01120C410210
:10364300393174F212037E74FC12093CE985188245
:10365300851983F0EAFEEBFF8C0A9003751246E3AB
:10366300120E698A088B09EA4509700579CA02377F
:10367300AD8A828B83A3A3A3A3A3A3A3E064FE7059
:1036830003A3E0F4700579C30237AD9003751250BC
:10369300AB1210AF850882850983A3A3A3A3A3A3B9
:1036A300A3A3A3A3E0049003881239107402120B9E
:1036B3000E7402F014120B0EAA82AB83120FB38A9C
:1036C3000C8B0DAE0CAF0DEE4F70030237A4123707
:1036D300B212401F7406F0A3A882A983900362125A
:1036E3005575124378F0EE241312595A740112538C
:1036F300B77440F0A3E4125005A3A31237BF1239E5
:10370300D4EE241112595AE50AF0EEFAEFFB120C2B
:103713000BE9FE60030237A69003777409F01231B8
:103723004EAA08FB794B121F55850882850983121F
:1037330039021239D490036AE0F885188285198317
:10374300E068600CE090036A123A5B79E1121F555E
:10375300900ECE1239C8900ED0E0687003A3E069D2
:10376300601A90033B1239D4900ED01250AB120F53
:1037730071900ED01246E37A011243FD7A007B0466
:103783009003C2E0F9121805900ED01237B77402F5
:103793007808120A3DAC08AD09FA7B041243FF8096
:1037A300027E1090054BE4F0EEF97404024EA3EE92
:1037B30012596922E0F508A3E0F509221237C32262
:1037C300122AA7A32274F512037E74E212093C8520
:1037D3001882851983ECF0A3EDF0EAFEEBFF89086C
:1037E3007429120B0EE0F509742C120B0EE0F50A86
:1037F300900377E064046005E06408700579C20211
:1038030038FA742A120B0EE064FE7003A3E0F4701E
:103813000579C30238FA9003777403123A5B79503F
:10382300121F55742A120B0EAA82AB83794B121FF7
:10383300558518828519831239091239D4E5089000
:10384300036AF0742A120B0E1239021239D4E509F5
:1038530090036212391074CE55094480C0E074128B
:10386300120B0ED0E0F07401250A900388F0740F58
:10387300120B0E7402F0742A120B0E1239C874075D
:10388300120B0EE8F0A3E91239477410120B0E1253
:1038930039D47405120B0EE508F0741B120B0EE4F9
:1038A300F090037D740FF07A7D7B037954121F55DA
:1038B30090037C740FF07A7C7B037947121F559039
:1038C300037CE0C3940F50237405120B0EE0C0E099
:1038D3007402120B0ED0E0F07404120B0E7401F09C
:1038E30004120B0EAA82AB83121F797405120B0EFE
:1038F300AA82AB83121F5B741E1208C202272E1208
:10390300439B90036B2212439B90037522F0EEFCC2
:10391300EFFD7A897B03121F3D2274F712037EEBBE
:1039230090037FF0120E578005740D1208C27F01B9
:1039330002059912393CA3E0221239B5A322EAF019
:10394300A3EBF0221239BBF8A3E0F92274F71203B8
:103953007E74F812093CEAFEEBFF7900900377E0EE
:103963006408704485188285198374FDF0A374FF7D
:10397300F0120F417402120B0E1239417405120B2F
:103983000EE412393CE0C0E07404120B0ED0E012D6
:1039930039B0C0E07406120B0ED0E0F07407120BBE
:1039A3000EE4123A5B120F95740802392E1239B5E0
:1039B300E022F08E828F83221239C0E022F0851834
:1039C300828519832212439B22E0F8A3E0F912595E
:1039D30068E8F0A3E9F0221208C27F02020599C049
:1039E30082C08390034974FBF0A3740CF09003EF3F
:1039F30074EFF0A3740FF090034D7431F0A3740DC2
:103A0300F090034F74FBF0A3740CF09003517437E0
:103A1300F0A3740DF00235F474F412037E74F912FA
:103A2300093C8A088B098C0A8D0B851882851983BA
:103A33007808120ACF7404120B0EE9F07405120B06
:103A43000EE4F07406120B0EE4123A5B120C1D74B2
:103A530007023B7BE8F0A3E9123A5F221239C0AABE
:103A630082AB832274F412037E8A088B098A828BC9
:103A730083125976EE4F7003023B73900312124C7C
:103A83003160158A828B83A3A3E0F9EEFAEFFB90F2
:103A93000313123EAD12212E8E828F83A3A3A3A301
:103AA300A3A3A3A3A3E0640270748E828F83A3A352
:103AB300A3A3A3A3E054027003023B4585088285B8
:103AC3000983A3A3E064E960798E828F83A3A3A310
:103AD300A3A3A3A3A3A3A3E07014900EE3E0048E17
:103AE300828F83A3A3A3A3A3A3A3A3A3A3F08E82E1
:103AF3008F83A3A3A3A3A3A3A3A3A3A3E014123B12
:103B030075A3A3A37404F0900EE41253B1E8F0A3D9
:103B1300E912648A8B0BEA450B7003125E688E828E
:103B23008F83A3A3A3A3A3A3A3A3A3E0640260120D
:103B33008E828F83A3A3A3A3A3A3A3A3A3E064065B
:103B4300702E8E828F83A3A3A3A3A3A3E0A2E0502E
:103B53001F850882850983A3A3E0F9EEFAEFFB1220
:103B630020158E828F83A3A3A3A3A3A3E054FEF007
:103B73008009123DBC22740D1208C27F040205990C
:103B830074EC12037E74DD12093CEAFEEBFF8C0831
:103B93008D097437120B0E780C120AB1750A007472
:103BA30005120B0EAC82AD831220517412120B0E50
:103BB300E070087415120B0EE060207405120B0EF2
:103BC300E0A2E6501E8E828F83A3A3A3A3A3A3A385
:103BD300A3A31250AB120FCBE960087903121F2580
:103BE300023DA27405120B0EE0540C6404700575BB
:103BF3000B018003750B00E0A2E55035750A01E562
:103C03000BA2E0402C120F478A108B11A810A911A8
:103C13001237B2E0687003A3E06960157405120BF4
:103C23000E1269691250A7122021E96004790480F9
:103C3300AC7405120B0EE0A2E650227406120B0EB2
:103C4300E0540370187405120B0EE0540C640C60FE
:103C53000CE0540C640860057510018003751000B6
:103C63007405120B0EE05403F8740268700C1269A9
:103C7300691250A7120B27023DA2740168703AE53E
:103C830010A2E05003123DAA7405120B0EA882A9DC
:103C9300837403120B0EE8F0A3E912438F85188295
:103CA300851983123DB4E0C0E07402120B0ED0E01C
:103CB300123A5B122105023DA2E86003023DA29085
:103CC300035FE0640170108E828F83A3A3A3A3A379
:103CD300A3E07003023C307422120B0E74021243F1
:103CE3008F741A120B0E1239D4E510A2E050087427
:103CF30005120B0E123DAAE50BA2E0506AEE240F4B
:103D0300F582EF12602DC0E07417120B0ED0E0F0B5
:103D1300900314124C317003023DA2120F478A1212
:103D23008B13A812A913741A120B0EE0687003A365
:103D3300E069706B780C120872780A12087E7808B2
:103D430012087AA910740C120B0EAC82AD83742185
:103D5300120B0EAA82AB83900314123EAA12212ED9
:103D630074071208C28038780C120872780A120895
:103D73007E780812087A9003751206E2EE2412F593
:103D830082EF125D5B7423120B0EAC82AD83740E53
:103D9300120B0EAA82AB8312200974091208C27493
:103DA300231208C20264551269691255461215CBD3
:103DB30022E8F0A3E9123DBC22123DC022F08E821C
:103DC3008F83A3A3A3A3A3A32274F712037E1218C2
:103DD300E902393174F712037E1218FB023931C03C
:103DE30082C0831218F50235F474F712037E121998
:103DF3000102393174F712037E7409120B0EE0F5D8
:103E030008780812087E12190D740102392EC08237
:103E1300C0831219190235F4C082C08312191F021C
:103E230035F474F712037E12192502393174F7122F
:103E3300037EEAFEEBFF89087401650870147900BC
:103E4300120D73902538E493FC7900EEFAEFFB1220
:103E53000CE902393174F412037E74F912093CE956
:103E6300FE8A088B098C0A8D0B7413120B0E1250E9
:103E7300AB900597124C316027EE85188285198324
:103E8300F07401120B0E7808120ACFEAF8EBF974FA
:103E930005120B0E123A57900597123EAA12212EC5
:103EA300023A52FB90034BE0F8A3E0F583888222A9
:103EB30074F712037E900E80E0F97E00800B12608F
:103EC30019540D64017001190E1240AD5003E970CD
:103ED300ED02393174F712037E900E81E0F97E0012
:103EE300800B126019548D64817001190E1240AD5C
:103EF3005003E970ED02393174F212037E890BE944
:103F030075F006A4240CF508E5F01231568A0CE589
:103F130008250CFAE5093400FB1217398A0C8B0DBE
:103F2300AE0CAF0DEE4F6027AC08AD097900121649
:103F3300791237B2E50BF0EE2508F8EF3509F98E63
:103F4300828F83A3A3A3A3A3A3A3A3A31239D4EE12
:103F5300FAEFFB024EA674F612037EEAFEEBFF12A3
:103F63000CC5900E7FE0F8E9C39840099003451211
:103F730050AB120CCBEE2402F8EF1256BB90034762
:103F8300125575900347E004F0EEFAEFFB120CD1E3
:103F9300850882850983E0025B71C082C083790052
:103FA3009003458001091250AB8A828B83E58245D9
:103FB3008370F20235F474F712037EEAFEEBFFEE30
:103FC3004F6056900345124C31604E888289837A44
:103FD300007B00EE65827003EF6583600FAA82ABFE
:103FE3008312401FE5824583602F80E790034512CB
:103FF300402B687002EF698E828F8370081239C874
:1040030090034580031264671239D4EEFAEFFB1272
:1040130020D5EEFAEFFB12173F023931124023226B
:1040230012439F888289832212439BEE22C082C05F
:1040330083900345800488828983124C31600B8806
:104043008289831246E3EC4D70EC8A828B83E4F021
:10405300A3F0E849600688828983800390034512B0
:1040630039410235F474F712037E90034580048AC4
:10407300828B831240A84B60257E0080010E124084
:10408300AD50ECEE75F006A4FCADF0EA2CFCEB3D74
:10409300FDEC2410F582ED1240FD70E180047A00FE
:1040A3007B0002393112554AEA22124106EEC398C7
:1040B3002274F712037E7D0080010D124102EDC3CD
:1040C300985034ED75F006A4FEA8F0E8FFEA2EFE42
:1040D300EB3FFFEE2410F582EF1240FD70DCED752F
:1040E300F006A4FEE8FFEA2EFAEB3FFBEA2411F503
:1040F30082EB12602D4CF0023931126039692212C1
:10410300410622126973EB3400F583E0F82274F65A
:1041130012037E120DEB7A007B008025EAF8EBF99F
:10412300E875F006A4F8ACF075F006E9A42C125576
:104133001F126834A3E4125615F0A312683A1269E9
:10414300B1902523122DD540D37A007B00801C8AA1
:10415300088B0974037808120A3D124FD3A374FE27
:10416300F0A3041253F5A3E41269B190252C124174
:10417300B040DC7A007B00801D8A088B09740378C9
:1041830008120A3D74C4125CA5740D1264EC74FE2B
:10419300F0A3041269B19025321241B040DB90259F
:1041A30036E493900353F01241BA0239DDE493F8F5
:1041B300C3EA98EB9400227CE87D037A107B00909D
:1041C30003C2E0F91217FF2274F012037E74F51292
:1041D300093C8A088B09890A8C0BE9A2E050147503
:1041E30008FC7509FFA2E15005D2E402428DD2E337
:1041F30002428D124E927003A3E0697005790002AA
:10420300435AAC0A7902AA08AB09120DC7E960ED5B
:10421300E50AF50C780C12087E79027CFE7DFFAA74
:1042230008AB09124C0D1208C2E96003024358E5BA
:104233000AC2E5F50A9003B5E07051E50AA2E6402B
:104243004B7403120B0EAC82AD83AA08AB09120B9D
:1042530069E9703212452E8A0C8B0DA80CA90DE862
:10426300FEE9FFE8496025EE24020A0AEF122AE577
:10427300601AEE2402FCEF3400FD7403120B0EAA45
:1042830082AB83121F3DE50AD2E5F50A900348E0AD
:10429300F50C900368E0F50EA3E0F50F780E120815
:1042A3007A7D017C00900348E0F9AA0EAB0F120D52
:1042B3007F74021208C2E9F8900348E004F0E86052
:1042C30003024358E50AA2E55004740E8002740603
:1042D300C0E07401120B0ED0E01259878A0E8B0FC7
:1042E300AE0EAF0FEE4F606912437812438F888290
:1042F30089837401F07478550AA3126979E50C1265
:104303006979A3E508F0E509124367E4F0E50AA239
:10431300E5500F7403120B0EAC82AD83E824061232
:10432300435E8E828F83A3A374FDF0A374FFF0E535
:104333000B6015902539E493F8E50BC3985009EE0B
:10434300241312595AE50BF0EEFAEFFB120C0B8013
:10435300067910800279C7740B8049FAE93400FBAF
:10436300121F3D2288828983A3A3A3A3124373222E
:104373001256EEA322EE241712596B7401F0120F9A
:1043830041EE241A12596BEAF0A3EB22F012696D85
:10439300340012439922F58312439F22E0F8A3E0ED
:1043A300F922740D1208C27F0802059974F61203EC
:1043B3007E7A007B10125E7560089003D47401F05E
:1043C3008029900636E06401900EE17006E0FC79E6
:1043D300018004E0FC79037A007B00120CE990254C
:1043E300211243F17A007B101243FF0239DD12439D
:1043F300F522E493FC740193FD227B009003C2E059
:10440300F91217F92274EC12037E8A088B098C0CBB
:104413008D0D890E7414120B0E124DEC7416120BC3
:104423000EE0F510A3E0F511120FCBE960077AFF58
:104433007BFF02452B900EE0E06402600302451E01
:104443007900AA08AB09120DCDA90E120DC18A126B
:104453008B13AE12AF13EE4F70030245068E828F9D
:1044630083A3A3A3A3A3E064018E828F83A3A3707A
:10447300691250AB8E828F83A3A3A3A3A3A3E0549B
:10448300186043902537E4938E828F83A3A3A3A35D
:10449300F0EA650C7003EB650D6014EA650A7003BE
:1044A300EB650B600AEA65107003EB6511701F780A
:1044B3001012087AAC0AAD0BAA0CAB0D1210C7741C
:1044C300021208C28008900367125E5FA3F074FEB5
:1044D3006A700374FF6B601D804EA3A3A3E06403A3
:1044E30060298E828F83A3A3A3A3A3E06404700532
:1044F3007AFE0244338E828F83A3A3A3A3A3E06433
:104503000270089003B4E06402701012452E8B0B06
:10451300EA450B6006AA08AB09800DAA08AB09900F
:104523000349123EAA12212E026455900375124CC0
:104533001312108B2274F712037EEAFEEBFF120BA9
:10454300BDE9700AEEFAEFFB120BC9E96006EEFA59
:10455300EFFB80047AFE7BFF02393174F012037E95
:104563008A0A8B0B8C0E8D0F8909750800120FCBED
:10457300E9790060030246D5AA0AAB0B120DCDA957
:1045830009120DC18A0C8B0DAE0CAF0DEE4F6019E5
:104593008E828F83A3A3A3A3A3E064027055900329
:1045A300B4E0640270030246D3AA0AAB0B90034F34
:1045B300123EAA12212E120BCF8A0C8B0DA80CA926
:1045C3000DE84970030246D388828983A3A3A3A37A
:1045D300A3E0A2E040030246D3750C01A2E15068B8
:1045E3007901AC0AAD0BAA0EAB0F120D19E9706479
:1045F3000246D38E828F83A3A3A3A3A3E064037095
:1046030005750C0280528E828F83A3A3A3A3A3E01C
:10461300640160030246D39003751246E38E828FD2
:1046230083124A388A0C8B0DA80CA90DE84960D176
:10463300902530E493FA88828983E0C39A50C2A319
:10464300E060030246D380B988828983A3A3A3A32E
:10465300A3D2E1F0EE4F603A8E828F83A3A3A3A38C
:10466300A3A3E05418602B7508018E828F83A3A344
:104673001206E2750CFE750DFF780C12087A7900AC
:10468300AC0AAD0BAA0EAB0F120DDF74041208C2F5
:10469300803E900368E0650E7004A3E0650F70141C
:1046A300902538E493FCA909AA0AAB0B120CE9750F
:1046B3000801801CA90CAC0AAD0BAA0EAB0F120D9E
:1046C30019E9700C750801A909AA0AAB0B120D733D
:1046D300A9080243AAE50C2415F582E50D12596ECB
:1046E3001253CB2274EA12037E74F012093C8A0C33
:1046F3008B0D8C088D097426120B0EE0F514A3E0C4
:10470300F5157512069003F5124C3160239003756D
:104713001246E3AA08AB091210B58A108B11EA45B9
:1047230011600D8A828B83A3E070057900024A2011
:10473300E50C241DF50EE50D3400F50F850E8212F0
:104743004C1DF51388828983A3A3A3E0FA88828989
:1047530083A3A3A3A3E0F9EA2400FEE439FFAA0894
:10476300AB09120D79850E82850F83124A5BE0290E
:10477300F50BE50AA2E5500375120E7487550A700E
:10478300177418550A6418600FE50C2417F582E5B1
:104793000D12602D651260077901121F25808C535D
:1047A3000A78C3EE94F8EF94FF501D7900EEFAEF08
:1047B300FB124A2A601288828983A3A3A3A3A3A31B
:1047C300E05418600302472E780812087A7D00121D
:1047D3004A4E1208C2E9F8740368700302472EE8D0
:1047E30060030248997418550A700302494EE50A9A
:1047F300D2E0F50AA2E45004D2E1F50AA90A125064
:10480300A4124A2A605388828983A3A3A3A3A3A3E0
:10481300E05418604488828983A3A3A3A3A3E0641C
:10482300017036E510451160309003751246E38838
:10483300828983124A388A0E8B0FA80EA90FE84982
:10484300601788828983A3E0600F851082851183B6
:10485300A3125B7C500302472EE50AF50E780E1275
:10486300087E124A411208C2E9702B7C007D008544
:10487300148285158374FFF0A3F0850C82850D8364
:10488300A3A3A3A3A3A3A3A3E060031246D8A90BE6
:104893001250A4121913851482851583E0F4700352
:1048A300A3E0F460399003B4E06402700302472E7E
:1048B300124DDDE0FAA3E0123EA612212EEA6508AE
:1048C3007003EB6509600302472EEEFAEF123EA672
:1048D30012212E851482851583EAF0A3EBF0780864
:1048E30012087A7D01124A4E1208C2A90AEEFAEFA3
:1048F300FB120DCD8A088B09A808A909900368E06B
:10490300687003A3E0696003024A11EEFAEFFB1239
:104913000BCF8A088B09A808A909E849606E888229
:104923008983A3A3A3A3E06401600D88828983A381
:10493300A3A3A3E064027054851882851983AC8213
:10494300AD83EEFAEFFB120B698055900361E060D3
:104953000FE50AF50E780E12087E124A411208C2BC
:10496300E50AF50E780E12087E79027CFE7DFFEED5
:10497300FAEFFB124C0D1208C2E960030248998555
:10498300148285158374FFF0A30248E0120F41EAF5
:10499300FCEBFD851882851983AA82AB83121F3D28
:1049A300850C82850D83A3A3A3A3A3A3A3A3E06480
:1049B30001700F1246D87408120B0EAA82AB831231
:1049C3001F3D124BE71257F34430F50878081208DD
:1049D3007E7401120B0E85820885830978081208FC
:1049E3007A740B120B0E85820885830978081208E6
:1049F3007AE513F508780812087E7900EEFCEFFDDE
:104A03001250A4120D1374061208C202472E124B41
:104A1300E712595D124A5BE50BF0120F597410123D
:104A230008C27F0E020599120DC18A0E8B0FA80EC4
:104A3300A90FE84922A3A312554A1210B5227901FE
:104A4300AC08AD0912553F124C0D22AC0BA9131241
:104A5300553F120D7F7402221257FBA3A3A3A32277
:104A630074F012037E74F012093C8A0C8B0DECFA7D
:104A7300EDFB750F089003F5124C316014125B7552
:104A83008A828B83E58245836007A3E07003024B30
:104A9300E2124BE73400124C1DF50B888289831216
:104AA3004BF0E0FBEC2400FEE43BFF88828983A308
:104AB300A3124BF0A3A3E0FBECF508E43BF5098854
:104AC300828983A3A3A3A3A3A3A3E0F50EE50AA26C
:104AD300E45003750F10A2E550067408250FF50F77
:104AE300748F550A700FE50C2417F582E50D1260DB
:104AF3002D650F60087901121F25024BE2530A70DE
:104B03007800E50AA2E45022124BE712602D240834
:104B1300FCA3E03400FD7408120B0EAA82AB8312CF
:104B23001F3D7808E50AC2E4F50AE50AA2E5502824
:104B3300124BE712602D28F8A3E03400F9E82408AB
:104B4300FCE93400FD851882851983AA82AB8312A0
:104B53001F3DE50AC2E5F50AAC0EA90BEEFAEFFB21
:104B6300120D85E9F87403686075900368E06E7050
:104B730003A3E06F605EE87054E50AF50F780F1247
:104B8300087E124BFE1208C2E97054780A12087E9E
:104B93007401120B0E85820C85830D780C12087A32
:104BA300740B120B0E85820C85830D780C12087A18
:104BB300E50BF50A780A12087EA90EAC08AD09EEDA
:104BC300FAEFFB120D1374061208C2801274046804
:104BD300700D80B7780A12087E124BFE1208C27459
:104BE300100243A7E50C241DF582E50D22A3A3A320
:104BF300E0FC88828983A3A3A3A3227901124DE455
:104C030012596E124C13124C0D22120D3D740122D7
:104C1300E0FCA3E0FDAA08AB0922F583124023A31D
:104C2300E0F50A88828983A3A3E022900339125511
:104C3300A62274E812037E74F512093CEAFEEBFF28
:104C43008C088D0989147423120B0EE0F50F74245C
:104C5300120B0EE0F512A3E0F5137426120B0EE00F
:104C6300F516A3E0F5177428120B0EE0F50EA90F45
:104C7300120D8B8A108B117401120B0E7408F0E560
:104C83000EA2E450037410F0E50EA2E55004E024F4
:104C930008F0851882851983AA82AB83120FB38A21
:104CA3000C8B0DEA450D7003024DC4EA2417F582FF
:104CB300EB124DD6120F41E50C241AF582E50D12C5
:104CC300595D1239417403120B0EAC82AD83AA10E5
:104CD300AB11120B69E9601D124DCE7403120B0E5A
:104CE300A882A983E50C2418F582E50D12595DE825
:104CF300F0A3E98024E50EA2E4501FE5106E7003D3
:104D0300E5116F7015124DCEE50C2418F582E50DF3
:104D130012595DE512F0A3E513F0124DDD124DECCF
:104D2300850A82F5837402F0A3E50E124DF4E50FB4
:104D3300F0EE850A82850B83A3A3A3F0EF850A8295
:104D4300850B83A3A3A3A3124DF4A3A3A3E508F0A8
:104D5300E509850A82850B83A3A3A3A3A3A3F0AAD2
:104D630010AB11120D79E92514850A82850B83A3F3
:104D7300A3A3A3A3A3A3F0750800E50EA2E4501117
:104D8300AC12AD13E50A2408FAE50B12436075086B
:104D930008E50EA2E55014AC16AD17E50A2508F890
:104DA300E50B3400F9E8240812435E850C82850D77
:104DB30083A3A3E510F0A3E511F0AA0CAB0D120C2D
:104DC3000B740B1208C27F10020599E50C2416F52B
:104DD30082E50D12596E7401F022124DE412596EE0
:104DE30022E50C126974E50D22E0F50AA3E0F50B48
:104DF30022F0850A82850B83A3A32274F212037E19
:104E03008A088B09ECFEEDFF890A7900124E927035
:104E130003A3E069700479018073750B0190036843
:104E2300E065087004A3E06509601F750B00780B4B
:104E330012087EA90AEEFCEFFDAA08AB09121007BF
:104E430074011208C2E9F50B80417900EEFAEFFB19
:104E5300120DC1EA4B602B8A828B83A3A3A3A3A366
:104E6300A3E05418601C7508FE7509FF7808120842
:104E73007A8A828B83A3A31206E21267891208C27D
:104E830080097901EEFAEFFB120CA1A90B80141231
:104E93000DCD8A0C8B0DA80CA90D900368E0682238
:104EA3001208C27F0602059974F412037E75080C7A
:104EB30075090C7A101264918B0BEA450B7003127F
:104EC30041BA900353E014F0700C902536E49390AC
:104ED3000353F0120DD97E007F00806C8508828514
:104EE3000983A3A3A3A3E06059F46056E50824044F
:104EF300F582E509125E597049850882850983A305
:104F0300A3A3A3A3E064037019790285088285092A
:104F1300831246E3850882850983A3A31250AB124B
:104F23000D19850882850983A3A3A3A3A3E06401C4
:104F3300601085088285098374FEF0A3041250056E
:104F4300E4F01232FC12314E9025251265ED408CAF
:104F53007E007F008039120EE78E088F0974037874
:104F630008120A3D74842508FC740D3509FD7A2561
:104F73007B0D120ED5EA4B70DD8E088F0974037812
:104F830008120A3D124FD3126834E4F01232FC9037
:104F9300252CE493F8C3EE98EF9400501B8E088FF2
:104FA3000974037808120A3D124FDBE82407F582DF
:104FB300E9125E5970D680A17E007F00800A124FED
:104FC300E6600214F01232FC1265EA40F1023B7E05
:104FD300124FDB888289832274842508F8740D3587
:104FE30009F922EEF8EFF9E875F006A4F8AAF075CE
:104FF300F006E9A42AF9742428F582740D39F5839F
:10500300E02212500CA3A3A322F085088285098312
:10501300A3A32274F712037E74E112093CECFEEDA4
:10502300FF750800EE4F60728A828B83E0241C12A6
:105033005E8A124C3160638A828B831250AB85186F
:1050430082851983AC82AD83EA241BF582EB125D62
:105053005BEA241CF582EB1250A7120F29740B1282
:105063000B0E1250AF7003A3E069702E7402120B83
:105073000EE064017024741D120B0E123EAAE0644C
:10508300017017741D120B0E123EACA3A3E0F88E31
:10509300828F83E0687003750801A908741F0239C1
:1050A3002E124DE43400F58312554A22122AA3E04E
:1050B300682274F412037EE97024790090034D1280
:1050C3003EAA12212E8A0A8B0BAE0AAF0B74FE6E18
:1050D300700374FF6F701A902533E49360137901A2
:1050E30090034D123EAA12212E8A0A8B0BAE0AAFF1
:1050F3000B120F7702345074F612037E74F3120905
:105103003C1216918A088B09AE08AF09900368E038
:105113006E7003A3E06F60E9120F4DEA6E7002EB4D
:105123006F60DEEEFAEFFB120FCBE970D4EE4F6047
:10513300D0851882851983E4F004120B0EEEF0A3D8
:10514300EF12515DE970BA74FE6E700374FF6F6005
:10515300B0EEFAEFFB740D0239DA123A5F120B81EB
:1051630022C082C083120F770235F47F0A020599A9
:1051730074F212037EEAFEEBFF8C0A8D0B8908742E
:105183000E120B0EE0F50974FC6E700374FF6F7062
:10519300057900024EA67900120DCD8A0C8B0DAE57
:1051A3000CAF0D900368E06E7003A3E06F7006E52B
:1051B30009A2E650DCA909126677706179007AFECC
:1051C3007BFF12667770567418550970030252AA52
:1051D300780079008003122C9D902525122C944091
:1051E300030252AAE8FAE9FBEA75F007A4FAACF065
:1051F30075F007EBA42CFB74122AF582740C3BF5B3
:1052030083E0541870D0E875F007A4F8AAF075F09D
:1052130007E9A42AF9740C28F8740C39F9888289EF
:1052230083A3A3A3A3A3A3E0541860097418550987
:10523300700302519488828983EEF0A3EFF074FE29
:10524300650A700474FF650B60031253D188828969
:1052530083A3A3A3A3A3A3E509F0A2E0500D88822F
:105263008983A3A3A3A3A3A3D2E2F074016508884F
:10527300828983A3A3A3A3A3703874011253F5E017
:1052830054186028902537E49388828983A3A3A3C5
:10529300A31253BF1210B58B0DEA450D60030251E3
:1052A300947800790080397902025196900367E07F
:1052B30080D7E06401700302519488828983A3A399
:1052C300A3A3A3A3E054186007902537E4938004B5
:1052D300900366E0124367E508F0025194122C9D97
:1052E30090252DE493FAC3E89AE994004003025110
:1052F300947A007B00804BEAFCEBFDEC75F007A48D
:10530300FCAEF075F007EDA42EFD740E2CF582743F
:105313000C3DF583125976E8FCE9FDEC75F017A412
:10532300FC85F00975F017EDA42509FD749C2CF597
:1053330082740A3DF583E06E7003A3E06F609E12F2
:1053430031D190252512315E40AD1243F1EC6A70E4
:1053530002ED6B7088E875F017A4F8AAF075F017E2
:10536300E9A42AF9749C28FE740A39FF7C177D008E
:105373007900EEFAEFFB1216798E828F831253D7E0
:105383009003751253B1A3A3A3A3A3A3E8F0A3E9C6
:105393001253B77401F0EE240E12595A74011253CA
:1053A300DF12022DEE240D12595AE80252DC123795
:1053B300C3A3A322F0EE240F12596B22F01253C899
:1053C300AA0AAB0B22900375E0FCA3E0FD228882BE
:1053D3008983A3A3E50AF0A3E50BF022F01253E4BB
:1053E30022902530E4932401F8E43400F97A027B17
:1053F3000022124373A32274ED12037E8A088B09E1
:10540300890E125528400579050254F612195BAA34
:1054130008AB091255FA9025231254F9650A700353
:10542300E9650B70077AFE7BFF1255FA902523E49A
:10543300125501E50A98E50B9940030254F41255FD
:10544300056012E50A75F006A4F875F006E50B127F
:10545300555012173FE50E6018E50A75F006A4F8DB
:10546300AAF075F006E50B12557C701A7901025407
:10547300F6E50A75F006A4F8AAF075F006E50B1236
:10548300555DE4F0A3F0E50A75F006A4F8AAF075FB
:10549300F006E50B12551DA312580988828983A3D0
:1054A300AA82AB8312556B8A828B83E0603F1255CD
:1054B30005603A8E108F117512007810120876E588
:1054C3000EC333FCE433FDE50A75F006A4F50AA820
:1054D300F075F006E50BA428F50B7428250AF58270
:1054E300740D350B1250A912316F1208C279008066
:1054F30002790702668D122DF6E82290251B1260B1
:105503001422E50A75F006A4F8AAF075F006E50B77
:10551300125558F8A3E0F9E84922A42A1256B18893
:10552300828983A322ECFEEDFF90252EE493F8E914
:10553300C39822F58312554A12173F22E50C1269CC
:1055430074E50D3400F583E0FAA3E0FB221255580D
:10555300FAA3E0FB2212555DE022A42AF97428285D
:10556300F582740D39F58322E50EF0900EE21255A3
:105573007522E088828983F0221256D5F50CE9342E
:1055830000F50DE50EC333FAE433FB121739850C2E
:1055930082850D83EAF0A3EBF0850C82850D8312DF
:1055A30055A62212439FE8492274F412037EECFEAF
:1055B300EDFF740C120B0E1239C8880889091255B5
:1055C300FAAC0AAD0BECF8EDF99025231256025014
:1055D30021E875F006A4F8AAF075F006E912551D46
:1055E300E08E828F8312561512560B1239D479002E
:1055F30080027904023B7E120D4F8A0A8B0B221222
:105603003167C3EC9AED9B2212439B85088285097F
:1056130083221256EA2274F612037E7E007F0080F4
:1056230028EEF8EFF9E875F006A4F8ACF075F0068B
:10563300E9A42CF9742628F582740D1262986A7015
:1056430003A3E06B60571232FC1265EA40D3126584
:10565300E57002E96F704674FE6A700374FF6B7045
:105663003C7E007F0080031232FC1265EA502E124A
:105673004FE670F3EEF8EFF9E875F006A4F812566A
:10568300A71256DC60171256C3F8E91256BB88827C
:10569300125536850882850983E4F0A3F0EEFAEF0C
:1056A300FB0239DD75F006E91256AF22A42AF9741C
:1056B3002428F8740D39F9223400F988088909225D
:1056C300EEF8EFF9E875F006A4F875F006E912565E
:1056D300D5221256AFE8240422A3A374FE1256E780
:1056E3001255A622F0A3041256EE22F08882898373
:1056F300A3A3A3A32274F612037EEA241DF582EB6F
:105703001257F3F9604BEA241DF582EB12602D2446
:1057130002FCA3E03400FD12552C40030257E67847
:105723000080298C828D83E0F508A3E0FFE508243F
:1057330000E43FF509E833FEE433FF746C2EF58291
:10574300740D3FF5831258091257E908E8C39940CD
:10575300D28A828B83A3A3A3A3A3A3A3A3A3124647
:10576300E3900368E06C7003A3E06D700F7C6C7DC5
:105773000D122A0C1250A7120D438067EA2411F56B
:1057830082EB12602D605CFC74FF2CF075080178CD
:105793000812087E75086C75090D780812087AE9F5
:1057A300F508780812087EEA2412F582EB12602DC0
:1057B300F508780812087EEA2415F582EB12595D84
:1057C3001206E2ECF9122A0C1246E08A828B83A3BA
:1057D300A3A3A3A3A3A3A3A31250AB120D5B7407AC
:1057E3001208C20239DDEC24020C0CED3400FD2258
:1057F30012596E1257FBE022E0F8A3E0F58388828A
:10580300A32288828983E508F0A3E509F02274EADC
:1058130012037E74FD12093C8A148B158C0E8D0FB6
:10582300890D7419120B0E125976741B120B0EE0AC
:10583300F511741C120B0EE0F50C741D120B0E12F5
:105843004DEC741F120B0EE0F5106008E50CC3332A
:10585300240480027402C0E07401120B0ED0E01223
:1058630059878A088B09EA450970030259528A82CB
:105873008B83A3A3E514F0A3E515126480E50EF072
:10588300A3E50FF0EA2413F582EB12595DE50DF061
:10589300EA2414F582EB12595DE511F0EA2417F5B9
:1058A30082EB12602D64017040120F478A0E8B0F3A
:1058B300A80EA90F850882850983A3A3A3A3E06883
:1058C3007003A3E0696022EE4F6011E508241AF526
:1058D30082E50912595DEEF0A3EF800CE508241769
:1058E300F582E50912595DE4F01259611259768E79
:1058F300828F837405F0A3E5107004E50C8048746F
:1059030001250C1259807A008028850A82850B8331
:10591300E012597C850A82850B83A3E08E828F83F4
:10592300F0E50A2402F50AE50B3400F50BA30EAFEC
:10593300830AEAC3950C40D2120F47EA12597C122C
:105943000F47EB8E828F83F0AA08AB09120C0B74FE
:1059530003024A22EE240CF582EF12596E22122A18
:105963001D12596E22EE240BF582EF3400F58322CB
:10597300900334E0FEA3E0FF228E828F83F0A3AE78
:1059830082AF8322123A5F120FB322C082C083E92F
:10599300C333FCE433FDEA2CFAEB3DFBEA24FEF5CA
:1059A30082EB34FF1250A90235F474F212037E899C
:1059B300098A0A125528400479008040750800803E
:1059C300020508E508C39509502AE508C333F8E43E
:1059D30033F9EE28F582EF39F583C082C083120FC5
:1059E300478A0C8B0DD083D082E0650C7004A3E052
:1059F300650D70CDE50A650870BE7901024EA67487
:105A0300F012037E74F312093C8A088B098C0A8D09
:105A13000B890C750D00120FCBE979006003025B53
:105A230004AA08AB09120DCDA90C120DC18A0E8B65
:105A33000FAE0EAF0FEE4F7003025B028E828F83A9
:105A4300A3A3A3A3A3A3E0A2E24003025B02120F5A
:105A530047EA650A7003EB650B7011780D12087E37
:105A6300E4F50EF50F780E12087A8044AA0AAB0B00
:105A7300120BC3E964017068851882851983740465
:105A8300F07401120B0E1253D7851882851983AA5D
:105A930082AB83120B81E964017045750D01780DAA
:105AA30012087EE4F50EF50F780E12087A750D00D4
:105AB300780D12087E780D12087E7408120B0E857D
:105AC300820E85830F780E12087A902539E493F9B4
:105AD300AC0AAD0BAA08AB09120D5B74071208C21E
:105AE3008E828F83A3A3A3A3A3A3E0A2E1400D8E81
:105AF300828F83A3A3A3A3A3A3C2E2F0750D01A97D
:105B03000D0243A574F612037EE9FE7900120DCD52
:105B1300EEF9120DC18A088B09A808A909E84960A2
:105B2300061269BBF9800279040239DD74F61203A7
