:020000040000FA
:06000000020A990201C989
:03002B000208D4F4
:030033000206437F
:0300430002078928
:030053000200FAAE
:03006B0002061D6D
:1000830002015E0101FF01010503010F10FEFF2FB5
:10009300132F132F132F13E511DF112F13442200F6
:1000A3000000000823000000000C0000000C000109
:1000B30000000315000000000000BD150000000053
:1000C300000000000000FFFF0102006205000000C5
:1000D300D5056400020200080000050207051E02A0
:1000E300051E020A0A03B80B02803E0102FFFF1439
:1000F30096511800020206C0E074F21203E2A2AFA6
:10010300E433FED2AFE5A7FFE5A1F5085F54106025
:1001130006121CEF75A1EFE5085F54086008121C76
:10012300F575A1F7802BEFA2E0C0D0E508A2E0921D
:10013300F01209D6158182F05017906198E0F8907B
:1001430008B4E0C398A2D265D0335002E8F075A199
:10015300FEEEA2E092AF7F01020441C0E074F2120E
:1001630003E2A2AFE433FED2AF9061A4E0F8759B43
:1001730000E59158540860087591F7121D3D802AD7
:10018300E59158541060087591EF121D43801BE8E8
:10019300A2E0C0D0E591A2E092F01209D6158182C7
:1001A300F05007E0C2E0F0121E879061A3E0F8E58B
:1001B300E9585404600E121E5D75E9FB906193E0EB
:1001C300A2E640F2808BC0E074F21203E2A2AFE435
:1001D30033FED2AF9061A5E0F8E5BF585404600642
:1001E30075BFFB121E9F020154C3E498F8E499F90A
:1001F30012022D8026C3E49AFAE49BFBE920E7E987
:1002030012022DE498F8E499F922C3E498F8E499EA
:10021300F912022DE498F8E499F9C3E49AFAE49BFD
:10022300FB22EB20E7CFE920E7E0B90010BB000891
:10023300E88AF084F8AAF022E4FBC8FA22EB7022E1
:100243007B10C833C8C933C9335007C39AC3DBF221
:1002530080069A50012ADBEAC833F4C8C933F4C9CB
:10026300FA2275F008E4C833C8C933C933C99AC937
:100273009B5004C92AC93BD5F0ECFBC833F4C8E44E
:10028300C9FA22080808EAC0E0EBC0E086F0E7A458
:10029300FA180986F0E7A42AFA180986F0E7A42ACF
:1002A300FA180986F0E7A42AFA1986F0E7A4FBE511
:1002B300F02AFA190886F0E7A42BFBE5F03AFA19BD
:1002C3000886F0E7A42BFBE5F03AFA18180986F044
:1002D300E7A4C5F02BFBE43AFA1908E7C5F0C6A476
:1002E30026F6E5F03BFBE43AFA1886F0E7A4F6E5D8
:1002F300F00826F6E43B08F6E43A08F6D0E0FBD033
:10030300E0FA22E4CFC0E0E4CEC0E0E4CDC0E0E414
:10031300CCC0E075F020C3E633F608E633F608E612
:1003230033F608E633F6181818EC33FCED33FDEE1C
:1003330033FEEF33FFC3EC9709ED9709EE9709EF0F
:1003430097191919400FFFEC97FC09ED97FD09EE7A
:1003530097FE191906D5F0BEECF709EDF709EEF78C
:1003630009EFF7191919D0E0FCD0E0FDD0E0FED079
:10037300E0FF222518C582C0E0E51934FFC583C01C
:10038300E0E518C3958224F810AF088583198582A8
:10039300188008858319858218D2AFCEF0A3E52093
:1003A300F0A37808E608F0A3DEFAEFF0A3E58124D2
:1003B300FAF8E608F0A3E608F0A3E608F0A30808B5
:1003C300E608F0A3E608F0A315811581D0E0FED07E
:1003D300E0F8158115811581E8C0E0EEC0E022C088
:1003E300D02518C582C0E0E51934FFC583C0E0E518
:1003F30018C3958224F310AF08858319858218806A
:1004030008858319858218D2AFC8F0A3E9F0A3EA5F
:10041300F0A3EBF0A37908E709F0A3D8FAECF0A373
:10042300EDF0A3EEF0A3EFF0A3D0E0F0A3D0E0F063
:10043300A3D0E0F0A3E520F0A3E5F0F0A322851913
:1004430083851882E0C0E0A3E0F9A3E0FAA3E0FB10
:10045300A37808E0F608A3DFFAE0FCA3E0FDA3E03D
:10046300FEA3E0FFA3E0C0E0A3E0C0E0A3E0F5D07B
:10047300A3E0F520A3E0A3F5F010AF088583198569
:1004830082188008858319858218D2AFD082D083E1
:10049300D0E0F8D0E032120AFBB900030204DBE437
:1004A300900301787B790C8002F0A3D8FCD9FA90F1
:1004B3000E7BAA82AB83900086787579018015E460
:1004C30093A3AC82AD838A828B83F0A3AA82AB838E
:1004D3008C828D83D8E9D9E77582C17583827404D0
:1004E30012084C75824B758321740012084C0E0060
:1004F3000975F0108E1A8F1B85821F85831E851840
:1005030082851983E0CEA3E0CF851F82851E83EB0E
:10051300C9EAC8EDCBECCAC3E833C8E933C9EA3347
:10052300CAEB33CBC3EA9EF51DEB9FF51CB3500416
:10053300AB1CAA1DEC33CCED33CDD5F0DAAE1AAF3C
:100543001B22D083D082ECC0E0EDC0E0E493A3FC97
:10055300E493A3FDED4C600D120661EC24FFFCED6A
:1005630034FFFD80EFE493A3FCE493A3FDED4C6023
:100573000D120734EC24FFFCED34FFFD80EFD0E0D7
:10058300FDD0E0FCE493A3C0E0E493C0E02285192E
:1005930083851882E0A3FEE0A3F5207808E0A3F6A4
:1005A30008DFFAE0A3FFE0A3C0E0E0A3C0E0E0A31C
:1005B300C0E0E0A3C0E0E0A3C0E010AF088582186C
:1005C3008583198008858218858319D2AFD083D09B
:1005D30082020852D083D082E9C0E0E493A3C386A9
:1005E300F0C5F095F0F908E493A386F0C5F095F013
:1005F300700BE493A3C3994005E9048002A3E47557
:10060300F002A42582F582E5F03583F583D0E0F985
:10061300E493A3C0E0E493C0E022C0E074F21203C9
:10062300E2A2AFE433FED2AFE589A2E15003121B8D
:10063300BD758900C2C5EEA2E092AF7F01020441FD
:10064300C0E074F21203E2A2AFE433FED2AFE58B53
:10065300A2E05003121BBD758B00C2E880D8C0E036
:10066300C3E49396087401939618400FE49366705D
:100673000808740193661870007019A3A3C3E49368
:1006830096087401939618A3A3400DD0E0D0E0D050
:10069300E0020581A3A3A3A3A3A3D0E022D083D028
:1006A30082C5F0E493A3C5F0C395F0F5F0E493A3FA
:1006B300C395F04005E5F0048001E475F002A4253C
:1006C30082F582E5F03583F583E493A3C0E0E493F8
:1006D300C0E0227404800474028000CCC0E0EDC04A
:1006E300E0E518C39CCCAD1950011D10AF068C1862
:1006F3008D1980068C188D19D2AF1207CED0E0FD6C
:10070300D0E0FC2274028000CCC0E0EDC0E0E5182C
:10071300C39CCCAD1950011D10AF068C188D1980E8
:10072300068C188D19D2AF1207ACD0E0FDD0E0FCD7
:1007330022C0E0C0F088F0E4936670080874019367
:1007430066187000A8F0A3A3700BD0F0D0E0D0E03F
:10075300D0E0020581A3A3D0F0D0E022D083D082E1
:10076300CCC0E0E493A3600612082D1470FAE4935E
:10077300A3600612091E1470FAD0E0FCE493A3C030
:10078300E0E493C0E022C0E074F21203E2A2AFE41B
:1007930033FED2AFC2C0E5D1A2E45003121C65EE12
:1007A300A2E092AF7F01020441CAC0E0E493A3C573
:1007B30082CCC582C583CDC583F0A3C582CCC58257
:1007C300C583CDC583DAE5D0E0CA22CAC0E0E0A381
:1007D300C582CCC582C583CDC583F0A3C582CCC5F4
:1007E30082C583CDC583DAE6D0E0CA227009080842
:1007F30008226016181818C6C333C608C633C608BD
:10080300C633C608C633C6D5E0EA22C008C3E0969D
:10081300F50808A3E096420808A3E096420808A357
:10082300E09645087001D3D00822C0E0E493A3D337
:100833009C5010E493A3C39C400AD0E0D0E0D0E0E6
:1008430002077CA3A3A3D0E022C09FF59FE473D04B
:100853009F22D083D082C09FE493C0E0740193C0F1
:10086300E0740293F59F227404800A740380067473
:100873000280027401C0E0F404120885D0E0120A79
:10088300D6222518F58210AF08F5184002151980F5
:1008930008F51840021519D2AF85198322BB01024E
:1008A300E722C082C08389828A83BB0003E080027F
:1008B300E493D083D08222C0D0251810AF08F51856
:1008C300500205198008F51850020519D2AFD0D08F
:1008D30022C0E0C0D0E8C0E0E5A8D2AFC2C7A2E71B
:1008E30092AFD0E0F8D0D0D0E0326016080808C646
:1008F300C313C618C613C618C613C618C613C6D55F
:10090300E0EA22C3E0C696F608A3E0C696F608A37B
:10091300E0C696F608A3E0C696F622C0E0E493A3E9
:100923006C7009D0E0D0E0D0E002077CA3A3D0E054
:1009330022251810AF08F518400215198008F5187C
:1009430040021519D2AF22E76670100809E76670F6
:100953000A0809E76670040809E76622E066701072
:1009630008A3E066700A08A3E066700408A3E066C3
:1009730022C3E09608A3E09608A3E09608A3E096B6
:10098300A2D265D03322C3E096F008A3E096F00824
:10099300A3E096F008A3E096F022E026F008A3E097
:1009A30036F008A3E036F008A3E036F022E627F697
:1009B3000809E637F60809E637F60809E637F622A6
:1009C300E026F608A3E036F608A3E036F608A3E02F
:1009D30036F622C0E0E8C0E0E58124FCF8E6A2E7B1
:1009E300D0E0F8D0E022E647F60809E647F6080922
:1009F300E647F60809E647F622E657F60809E657FA
:100A0300F60809E657F60809E657F622E056F6080F
:100A1300A3E056F608A3E056F608A3E056F622E054
:100A230056F008A3E056F008A3E056F008A3E056FA
:100A3300F022700422600D18C6C333C608C633C63D
:100A4300D5E0F41822E4C396F608E496F608E49693
:100A5300F608E496F622600D08C6A2E713C618C688
:100A630013C6D5E0F322C6F4C608C6F4C608C6F416
:100A7300C608C6F4C622C3E7960809E7960809E73D
:100A8300960809E79622C3E09608A3E09608A3E038
:100A93009608A3E0962275D00075814075180175FC
:100AA300190300020499E0F608A3E0F608A3E0F6B0
:100AB30008A3E0F622600C08C6C313C618C613C603
:100AC300D5E0F422E6F008A3E6F008A3E6F008A3D5
:100AD300E6F022CAC0E0E6F0A308DAFAD0E0FA2290
:100AE300E0FAA3E0FBA3E0FCA3E0FD22EAF0A3EB22
:100AF300F0A3ECF0A3EDF022E5C754F84401F5C7E9
:100B03007901222518F582E43519F58322C2AF75E0
:100B1300D69F0200002212085524E30212085571E1
:100B2300E40212085514E5021208555BE6021208A6
:100B33005579E602120855622500120855742500FE
:100B4300120855C62500120855272600120855B16C
:100B53002600120855552700120855A92700120828
:100B630055C22700120855E827001208552328000C
:100B73001208556728001208558E2800120855DF01
:100B830028001208558F2900120855472A00120819
:100B9300550F2B00120855CF2B00120855132C00AC
:100BA300120855382C001208557B2C00120855C822
:100BB3002C00120855202E00120855A62E001208EC
:100BC30055C42E00120855EE2E00120855082F00AA
:100BD300120855172F00120855222F00120855E24C
:100BE3002F001208553B3000120855FD3000120843
:100BF30055053100120855C9310012085535320028
:100C0300120855603300120855853300120855FB4E
:100C130033001208558D3400120855E534001208CC
:100C230055A53500120855C43500120855D33600B2
:100C3300120855E53600120855543700120855A915
:100C43003800120855DB38001208556E39001208B7
:100C530055A73900120855F339001208550F3B0008
:100C6300120855583D00120855633D001208556E91
:100C73003D00120855793D00120855833D001208C6
:100C8300558E3D00120855A83D00120855B23D008F
:100C9300120855BC3D00120855C73D00120855EF18
:100CA3003D001208554A3E00120855543E001208F2
:100CB30055783E001208559C3E00120855FA3E0036
:100CC3001208553E3F001208555A3F00120855D1ED
:100CD3003F001208550940001208555540001208FC
:100CE30055B240001208556C41001208555043009C
:100CF300120855A94300120855D94400120855FF9C
:100D03004400120855884600120855044A00120888
:100D130055D64B001208559F4D001208554C4E00F6
:100D2300120855B74F001208555650001208559B2C
:100D330050001208550551001208551451001208AD
:100D4300559B53001208554D5500120855BA5500CE
:100D5300120855995600120855B257001208552F1C
:100D630059001208554E5900120855A3590012088C
:100D730055A85A00120855D05A00120855285B008E
:100D8300120855075C001208554B5C001208559673
:100D93005C00120855015D00120855425E001208FE
:100DA30055A65E00120855F45F0012085554620000
:100DB3001208558562001208553D640012085592C9
:100DC3006400120855966500120855336600120830
:100DD300558C66001208553F6700120855E16700FD
:100DE300120855816800120855266900120855D566
:100DF30081011208551482011208555B84011208FF
:100E030055A58401120855C085011208552886018D
:100E13001208555D8601120855D1870112085554F1
:100E23008A011208557D8B01120855138C01120893
:100E3300551B9501120855B0950112085597980155
:100E43001208558A9901120855F899011208553E5E
:100E53009B01120855209C01120855059E0112089A
:100E63005516A00112085580A00112085552A10180
:100E730012085580A1011208553DA201120855140C
:100E8300A301120855DBA3011208557FA401120820
:100E930055A8A401120855CAA40112085520A70198
:100EA300120855F8A7011208553CA801120855A4C9
:100EB300A8011208555CA9011208558EA901120850
:100EC30055D2A90112085508AA0112085554AA01BE
:100ED300120855A9AA01120855AEAA011208550114
:100EE300AB0112085526AB0112085535AC011208A7
:100EF3005599AC0112085509AD0112085595AD017C
:100F030012085562B00112085546B101120855C9BD
:100F1300B201120855FFB401120855ADB50112080C
:100F2300555DB6011208559EB80112085541B90125
:100F330012085588B90112085534BB0112085548E7
:100F4300BB0112085552BB011208557ABB011208A6
:100F53005586BB01120855A5BB01120855C5BD0135
:100F630012085514BF0112085558BF011208550045
:100F7300C001120855E3C0011208558EC1011208C1
:100F830055DAC201120855D8C3011208557EC401AF
:100F93001208550EC50112085525C5011208555CE6
:100FA300C50112085566C50112085571C50112081D
:100FB300558FC501120855D3C50112085530C60116
:100FC30012085555C6011208556FC601120855FB84
:100FD300C60112085518C80112085585C801120820
:100FE300556CC90112085593C90112085507CA0166
:100FF30012085582CA0112085586CB011208557C86
:10100300CC011208552BCD011208553ECE01120812
:1010130055DACE0112085567CF0112085545D001A4
:101023001208557DD001120855D5D0011208559EDE
:10103300D101120855BFD10112085546D201120839
:10104300556AD2011208558CD201120855D5D20126
:10105300120855EBD401120855D2D5011208558355
:10106300D601120855B9D80112085509D901120839
:101073005549D9011208558BD901120855E7D901F1
:1010830012085515DA0112085539DA011208558C80
:10109300DA01120855BADA01120855F3DA01120817
:1010A3005548DB01120855AEDB0112085502DD017C
:1010B30012085525DF0112085592DF01120855BBAE
:1010C300DF0112085546E001120855ADE001120890
:1010D30055F8E0011208551CE10112085540E101E1
:1010E3001208559BE101120855B6E1011208556F2C
:1010F300E201120855D0A2041208550FA3041208E6
:1011030055788002120855BE80021208559E81024E
:10111300120855A08202120855A383021208552F04
:1011230085021208558D85021208554A8602120857
:1011330055688702120855D9870212085515880287
:101143001208556388021208556D8802120855B1BA
:1011530088021208550D8902120855A8890212083F
:1011630055258A02120855F48A021208558D8B02FE
:10117300120855AD8B02120855E38B021208551461
:101183008C02120855D58C02120855E58C02120800
:1011930055398D02120855548D02120855668D0279
:1011A3001208556F8D02120855C98D021208552574
:1011B3008E02120855718E021208558C8E02120887
:1011C30055BD8E02120855DA8E02120855E68E02BC
:1011D3001208555A9002120855739002120855DAF4
:1011E3009002120855ED9002120855FB9002120866
:1011F30055AF910212085593920212085599930222
:101203001208552394021208552D94021208559A78
:101213009402120855B19402120855E3940212087D
:10122300551C9502120855469502120855A79502BA
:10123300120855C79502120855E595021208552B59
:1012430096021208555197021208559E97021208EA
:1012530055CD97021208554398021208556B980210
:10126300120855A49802120855B298021208550A9A
:1012730099021208555999021208559899021208B1
:1012830055C89902120855F49902120855FF99029C
:101293001208551D9A02120855DF9A02120855E9E1
:1012A3009A02120855249B021208553A9B0212080F
:1012B300558F9B02120855A39B02120855B19C023D
:1012C300120855C49C02120855D99C021208557B7A
:1012D3009D02120855FE9D02120855BC9E0212087B
:1012E30055C79E02120855F39F021208550FA0021C
:1012F30012085561A002120855A0A002120855B5A4
:10130300A00212085517A102120855A6A10212083D
:1013130055F1A10212085542A402120855C0A402B5
:1013230012085535A50212085557A7021208556F22
:10133300A70212085572A7021208557EA7021208C7
:101343005592A7021208559AA702120855CDA70273
:101353001208557DA802120855F3A8021208556613
:10136300A9021208551AAA02120855CFAA02120896
:1013730055EEAA021208558EAB021208559AAB021B
:10138300120855C5AB02120855C8AB0212085532F4
:10139300AC021208555AAD0212085532AE021208B9
:1013A30055BDAE02120855D6AF0212085593B002CE
:1013B300120855CCB002120855FDB002120855BBF5
:1013C300B102120855EBB102120855C6B202120857
:1013D300555FB302120855EAB3021208559BB402D3
:1013E3001208551EB50212085550B5021208559140
:1013F300B502120855B1B00312085516B10312080D
:101403005553B103120855A2B103120855B8B303DB
:101413001208559BB50312085505B9031208554028
:10142300B90312085562B903120855C5B903120866
:1014330055F9B9031208551CBA0312085549BA03E2
:10144300120855A5BA031208559B9A031208551999
:101453009B031208554F9B03120855BB9B031208AD
:10146300552E9D031208554A9D031208558F9D035F
:101473001208551D9E03120855769E03120855A3A4
:101483009F03120855B5A00312085512A1031208B1
:10149300557EA103120855DFA10312085520A203AC
:1014A300120855CDA203120855DFA3031208550AEB
:1014B300A40312085555A4031208559CA40312084B
:1014C300552EA503120855E9A50312085563A10477
:1014D300120855EB9804120855FC98041208554D50
:1014E30099041208559299041208553C9A0412085B
:1014F300550F9F041208554497041208559C9804ED
:1015030012085560A60312085505A70312085525AE
:10151300A70312085545A70312085559A703120834
:1015230055B1A703120855E1A70312085562A90391
:1015330012085508AA03120855EAAA031208553BD4
:10154300AB031208557EAB03120855C1AB03120857
:101553005527AC0312085548AC03120855D4AC0305
:1015630012085505AD0312085579AD031208552726
:10157300AF0312085501B00312085571DA021208BD
:10158300559DB003120855BB9304120855DC930410
:101593001208551295041208553C9504120855007B
:1015A30080041208557A80041208558580041208B5
:1015B30055A680041208555E8E03120855618E03EA
:1015C3001208551B8F03120855468F031208558DB9
:1015D3008F03120855B28F03120855CFE002120889
:1015E300550790031208554090031208556991035B
:1015F300120855A09103120855C091031208555BB8
:1016030092031208552093031208555793031208A7
:1016130055CC94031208556F950312085568960329
:10162300120855919603120855E59603120855AB17
:101633009703120855D997031208556E9903120898
:1016430055EF9903120855229A03120855F1BA036C
:10165300120855FBBA0312085547BB03120855B5C8
:10166300BB03120855D6BB03120855EDBB03120882
:10167300559DBC0312085531BF031208553ABF03E9
:101683001208558DBF03120855B6BF031208551D26
:10169300C003120855AEC003120855F0C003120868
:1016A300553AC10312085599C103120855C5C10320
:1016B30012085556C20312085595C203120855D491
:1016C300C20312085509C3031208551BC3031208AA
:1016D300552DC3031208554CC30312085555C303B4
:1016E3001208550BC4031208554BC4031208550BBB
:1016F300E803120855DEE803120855F8E803120858
:101703005509E9031208551EEB031208553DEB0377
:10171300120855C07D00120855F67D001208553F8A
:101723007E001208558F7F00120855726900120857
:1017330055B16A00120855ED6A00120855AC6C00E9
:10174300120855D56C00120855686F00120855AC85
:101753006F00120855357100120855CD710012083B
:1017630055357200120855D67200120855187300C9
:10177300120855587300120855E3740012085553A4
:101783007600120855787800120855A678001208DA
:1017930055CD7800120855D67800120855317900D6
:1017A300120855C47900120855E27C0012085563EB
:1017B3007D0012085524A4041208553AA404120803
:1017C3005533A20412085515FB0312085528FB03D1
:1017D300120855C5FB0312085500FC031208551BDC
:1017E300FC0312085540FC0312085585FC0312083C
:1017F30055B6FC03120855E7FC031208556DFE03AA
:10180300120855B49B04120855EA9B0412085506A6
:101813009C04120855489C04120855589C0412084D
:1018230055ED9C04120855F79C041208557985045C
:10183300120855188604120855CD8604120855124D
:101843008704120855658704120855AA87041208ED
:10185300550080031208555880031208554181032F
:10186300120855DA810312085524820312085581A0
:101873008203120855DA8203120855EE8203120816
:10188300552083031208551E8403120855828403CE
:101893001208559D8403120855EC8403120855025F
:1018A30085031208550F8503120855438503120853
:1018B300555C8503120855ED8503120855FC850315
:1018C300120855848603120855DE86031208552C28
:1018D30087031208554E8703120855C5890312085A
:1018E30055FA89031208558A8A03120855FF8A0399
:1018F300120855048B03120855408B0312085596A2
:101903008B031208555A8C031208557F8C03120857
:1019130055898C031208558C8C03120855158D03B9
:10192300120855308D03120855438D031208556F65
:101933008D03120855AA8D03120855AD8D031208A5
:1019430055B88D03120855F48D03120855078E03FD
:101953001208552E8E0312085583A2041208559BB4
:10196300A204120855B0CD03120855FFCD03120887
:1019730055A1CF031208555FD103120855A7D10310
:10198300120855C9D203120855FAD3031208551C7D
:10199300D40312085578D403120855FAD403120855
:1019A30055A9E201120855CAE20112085554E30190
:1019B300120855D9E30112085555E401120855BE22
:1019C300E4011208550AE50112085589E5011208D8
:1019D300551BE601120855A7E601120855E9E60171
:1019E30012085555EB01120855D5EC011208551490
:1019F300ED01120855FBED01120855FEED01120829
:101A030055B2EE01120855E7EF01120855D2F10164
:101A130012085552F4011208550BF5011208552806
:101A2300F6011208557FF9011208558FF9011208C2
:101A330055F0FA011208557CFB01120855B0FC0160
:101A4300120855A1FD0112085523FE01120855A0E5
:101A5300E6021208555AE702120855CCE7021208AB
:101A630055DBE70212085555E802120855C4E8028F
:101A7300120855CBE902120855F4E90212085594ED
:101A8300EA02120855E2EA0212085552EB02120862
:101A9300550BEE02120855E2EE021208554FEF0203
:101AA300120855CCF00212085580F1021208552E87
:101AB300F20212085589F202120855F4F2021208D2
:101AC30055F4F302120855CEF502120855E1F60259
:101AD3001208557AF702120855ECF702120855B2AC
:101AE300F80212085571F003120855C5F0031208E5
:101AF300551DF10312085568F103120855CAF10385
:101B030012085536F203120855E9F2031208552A52
:101B1300F30312085540F3031208559CF30312080C
:101B230055DAF3031208557D8F04120855AE8F045E
:101B3300120855689004120855CE90041208553FB8
:101B430091041208554C8304120855D884041208D2
:101B53005502A00412085513A004120855B3A0049B
:101B63001208558C95041208559A9504120855626B
:101B7300A404120855CDA004120855DDA0041208D0
:101B830055F8A00412085559A1041208550D9E04D6
:101B9300120855929E04120855F69E041208557AAF
:101BA300FE031208559CFE0312085502FF03120898
:101BB3005522FF0312085568FF03120855C3FF039C
:101BC3001208555CE30312085571E3031208558AA2
:101BD300E403120855CBE403120855E5E4031208A5
:101BE3005565E5031208557EE603120855F2E60330
:101BF3001208550CE7031208551FE7031208552D69
:101C0300E70312085547E7031208555EE703120876
:101C13005588E703120855D6E7031208550BF4035A
:101C230012085519F40312085593F4031208557753
:101C3300F50312085530F703120855DBFF021208AB
:101C43005506FA0212085573FA0212085534FB02BC
:101C5300120855A4FB02120855ADFC0212085525C3
:101C6300FE0212085589FE02120855DEFE02120812
:101C730055E7FE02120855F6FE0212085509FF0247
:101C83001208551FFF0212085528FF02120855EBD0
:101C9300D90312085540DA031208553CDC03120835
:101CA300556EDC0312085590DC03120855A9DC03BA
:101CB300120855C2DC03120855CCDD031208556720
:101CC300DE03120855539A04120855779A04120832
:101CD30055909A04120855C39A04120855F49A04AD
:101CE300120855229B04120855849B04120855932D
:101CF3009B041208559D9B04120855AA9B041208C5
:101D0300552A88041208555088041208558D8804F2
:101D13001208559C8804120855BB880412085523E1
:101D230089041208552C89041208558B890412085A
:101D330055AF89041208556E8A041208557B8A042C
:101D43001208558C8A041208555DA3041208557AAB
:101D5300A304120855DEDE031208553CE003120803
:101D63005549E0031208555CE0031208557BE00374
:101D730012085591E003120855A5E0031208551AFD
:101D8300E1031208557FE1031208552FE2031208FD
:101D93005504E30312085514E30312085523E30320
:101DA30012085542FF0212085566FF021208558EAB
:101DB300FF02120855B6FF02120855BA8A04120828
:101DC30055E18A04120855028B04120855678B04E7
:101DD300120855208D04120855398D0412085545F3
:101DE3008D04120855598D04120855778D04120875
:101DF30055818D041208558B8D041208559E8D0450
:101E0300120855F18D041208552A8E0412085559EB
:101E13008E04120855A78E04120855F68E04120874
:101E230055118F041208551B8F041208552C8F046B
:101E3300120855728F04120855E2A1041208557452
:101E4300C4031208559EC403120855BAC4031208EA
:101E530055CDC403120855E3C40312085540C50306
:101E630012085573C503120855AFC903120855D597
:101E7300CA0312085508CB0312085554CB031208A2
:101E83005580CC03120855A8CC03120855BDCC03CA
:101E9300120855CDCC0312085511CD031208557203
:101EA300CD0312085582CD03120855BBFE0112085B
:101EB30055D6FE01120855FFFE0112085519FF0100
:101EC3001208553EFF011208555DFF0112085575B2
:101ED300FF01120855A3FF01120855BDFF011208A7
:101EE3005519A30412085595F7031208559CF703D7
:101EF300120855A8F803120855D8F803120855FE1E
:101F0300F80312085521F90312085543F90312087F
:101F1300557DF903120855E3F9031208551CFA031A
:101F230012085568FA0312085595FA03120855B5B5
:101F3300FA03120855D39104120855EB91041208C1
:101F430055D99204120855B89304120855FA9C0403
:101F53001208556C9D04120855AA9D04120855EBEE
:101F63009D0412085596EC03120855B5EC031208AC
:101F73005504ED0312085520ED0312085551ED03E6
:101F830012085561ED031208556EED031208557BD7
:101F9300ED0312085567EE03120855A5EE03120868
:101FA30055AFEE03120855BFEF03120855CAEF03EE
:101FB300120855DCEF03120855E5EF03120855EF3D
:101FC300EF031208552ED50312085573D9031208CF
:101FD3005581D903120855CFA30412085599A304B8
:101FE300120855FCA30412085544A404120855D33F
:101FF300D7021208559CD602120855F0D5021208D2
:102003005536D402120855E6D1021208556DD10295
:1020130012085514D102120855A4D0021208557B98
:10202300D0021208555BCE0212085527CE021208C1
:1020330055F4CD02120855D8CD02120855F1CC0241
:10204300120855A9CC02120855F4CA021208557495
:10205300CA0212085571CA021208556EC902120843
:10206300553CC90212085579C802120855A4C60284
:10207300120855EDDF02120855D1DF02120855553B
:10208300DF021208550CDF02120855C4DE021208E3
:102093005535C60212085507C60212085504C60272
:1020A300120855F1C50212085512DE021208559C9A
:1020B300C5021208558BC5021208557DC4021208C9
:1020C3005547C40212085584DD02120855D38F0305
:1020D300120855F5C30212085596C3021208556536
:1020E300C3021208552DC002120855EDBF02120893
:1020F30055E1BF0212085541BF0212085581BE02C5
:1021030012085503BC0212085594B902120855521D
:10211300B90212085526B802120855DBB702120895
:10212300551AB702120855EDB60212085530B60219
:10213300120855C6B50212085500B60212085577A3
:10214300DD0212085543B00300000080FBE4730076
:1021530001363601010001020100010301000104FF
:1021630001060605020000070100340801000F09FB
:102173000401010D0100FF0E080000170200001901
:102183000100FF1A0100011B0100FE1C0100081DD4
:102193000200001F010001200100012102000023B1
:1021A30001000F2402000026010001270100082876
:1021B3000200FF2A0100072B0102402C0100002D21
:1021C3000100012E0100012F0100FF30010B1C3122
:1021D3000800003A0100083B01000F2F0100000333
:1021E3000271023001600211027002010202020256
:1021F300028002100261023A00410063027302721C
:1022030002620243020002130238000002000204C9
:10221300021202000200020002000204020402375A
:102223000037003C0244020002390000020002654C
:1022330002000235028102000205028202830200CB
:1022430002030071003001600011007000310220B0
:102253000350048000100061000000140063007349
:10226300007200620043000000130006000000003B
:10227300000400120000000000000000000400043D
:1022830000370037003C024400000000000000005B
:102293000065000000350081000000050000008398
:1022A30000000003047104020460041104700402BA
:1022B300040204010402041004610400041404630E
:1022C3000473047204620443040004130406040048
:1022D3000400040404120400040004000400045174
:1022E3000464000004000400044404000400040027
:1022F300040004650400043504810464000504003B
:1023030004830400040103710301030103010301B6
:10231300030103220302030103100300030003006C
:102323000300030003000300034203000324030626
:1023330003000300030403120325032303250323DC
:102343000304030403000300030003440300030026
:102353000323030003650321003503810300030501
:1023630003000300030003010171010101010111D5
:102373000101013101010101018001100161013BF2
:102383000014006301730172016201430100011330
:102393000106013D013500040112010001000100A5
:1023A30001000104010401330133013C0144013202
:1023B30001360000010001650100013500810100C3
:1023C30001050182018301000136000100060000BE
:1023D300000F0000000000000000000000000003E8
:1023E300FFFF00000403FFFF0000FFFF0FF40100E5
:1023F30005C4040320000100000B000000000000DE
:10240300000003010F00008B1A1300071A01008B51
:102413001A0200BF190300C5190400CB190500D126
:10242300190600DD191100FB191400011A1500EF3C
:1024330019FFFF000001370E06670E08610E0B73CC
:102443000E10B30D023D0E05550E07430E0C190E6B
:102453000D2B0EFF000003EAF5E5D5D5C5B5A5950F
:102463009585857575656555554545353525251519
:1024730015053F126F1245124B1269125D12571266
:1024830075127B1281128D125112391233120016FA
:102493000F00000B150B020002220F320000062F63
:1024A300134113471309124D1303120F1243113D26
:1024B3001179117F1173112B118F13AD13B3139571
:1024C30013A1139B13303016181920231A1C1E3026
:1024D3000C0E020B040B0A0708000F00383C3E36B3
:1024E3003B3B352B432C303017181921301B1D1F54
:1024F3003000011916181616152303000003494866
:10250300424D181725050283135313591365135F9F
:102513001363128712A71393129912020402010183
:10252300010109024F1155114911851100000000E5
:1025330000005B116D1100BE040A150004007F004A
:10254300E8030C002800000000000308100C0A0335
:10255300080900040001FF1E1E0C05040F1008C02B
:1025630082C0838A828B83E0D2E7F012191102378B
:1025730031C082C0837900122A2E1258FEC082C055
:1025830083900334124684D083D082C3E09CA3E0BB
:102593009D500C125FD2FAA3E01225A56001090237
:1025A3003731FBEA75F00BA4FAA8F075F00BEBA436
:1025B30028FB900336E02AF8A3E03B8882F583E00A
:1025C300540F2274F71203768908122A2E122AD482
:1025D300ACF075F00BE9A42CF9900336E028FEA3C8
:1025E300E039FF7401650860067402650870208A8B
:1025F300828B83122AC012396074026508701B1221
:10260300297F122B0770138E828F83E4F0800BEAED
:102613002403FCEB122AA2122AAEEEFAEFFB120BF2
:10262300370238BD74F41203761268F979008E828A
:102633008F83E06076890A890B8065E50A75F00B64
:10264300A4FAA8F075F00BE50B1225B27046E50A63
:1026530075F00BA4F8AAF075F00BE50B122AE68EC1
:10266300828F83E0850882850983122BC8850882BF
:10267300850983A3123960EE2403FCEF122AAB12FF
:10268300373E125378AA08AB09120B37790190032E
:1026930034124D8DE50A2401F50AE50B3400F50BE0
:1026A300122987E50A9AE50B9B4090023B0A74F5D1
:1026B300120376EAFEEBFF740B120B061237437517
:1026C3000A01EC4D602BEC126915ED1258FE12391C
:1026D300587901120B43E5084509606F8508828527
:1026E3000983A31269037902AA08AB09120B438079
:1026F3005AE5084509602B125902123FCC12373FA5
:10270300122AF1700CEEFAEFFB120B49E9F50A807D
:10271300CBEE2403FA122A2970317903EEFAEFFB88
:1027230080CA8E828F83A3E064FE7003A3E0F470FB
:102733000BEE24030A0A0A122A29700CEEFAEFFBA5
:10274300120B49E9F50A8003750A00A90A7F0302FF
:10275300059174F71203769003341238CDEA4B6077
:102763002FEA75F00BA4FAA8F075F00BEBA428FB85
:10277300EAFEEBFF12171F9003361238CD90033693
:10278300124BD26012EEFCEFFD790012165F800748
:10279300900336E4F0A3F00238BD90033412433CB7
:1027A300C3EE98EF9922C082C083EC4D6005121FDF
:1027B3005F80097C087D00790012165F023731744F
:1027C300F61203767900EA4B601878008808125CE9
:1027D30045EB125FCE60047901780808E8C39408DA
:1027E30040EA02396974F712037674F3120934EC80
:1027F300FEEDFF851882851983E4F004120B06EAC7
:10280300F0A3EB1250FE7403120B06AC82AD83EE01
:10281300FAEFFB120B5BEEFAEFFB120B610238B817
:1028230074F712037674F3120934ECFEEDFF851886
:1028330082851983E4F0EAFCEBFD7403120B0612A4
:102843002BC17401120B061239548E828F831239F5
:102853006074FE68700374FF696004790180027913
:10286300000238B874F7120376EAFEEBFF1228C5AC
:1028730070141228D08E828F83E0F4F88A828B83BF
:10288300E058F0120B37A9080238BD74F71203762B
:10289300EAFEEBFF7508008E828F83E06022122828
:1028A300C5701D1228D08A828B83E08F838E82F8B5
:1028B300E058700CE0F88A828B83E048F0120B3703
:1028C30080C4120B3DE9F508740165082212690EF4
:1028D300122AD8122A1AFAA3E039FB2274F412033B
:1028E300768A088B097C007D0012297F122AAE129A
:1028F3002A3F1269007900850882850983A3E06471
:10290300FE7003A3E0F460717E007F008062EEFA44
:10291300EF1225A56057EEFAEFFBEA75F00BA4FA68
:10292300A8F075F00BEBA428FB900336E02AF50A18
:10293300A3E03BF50B850882850983A312504C85E0
:102943000A82850B83A3E06A7003A3E06B701EE524
:102953000A2403FAE50B122A2A700AE50A2403FC67
:10296300E50B122AAB122A33790112591412331EC2
:10297300122987EE9AEF9B4095023B0AEA24030A49
:102983000A0AEB229003341254EBC32274F31203AA
:10299300768A088B098A828B83A3126903122A2EF3
:1029A300126900750C0012297F122A2A70547E00C6
:1029B3007F008049122A0CFAA3E0398A82F583E06A
:1029C300540F6036122A0CF50AA3E039F50BE50A19
:1029D3002403FCE50B122AB53400FB121F59E964EA
:1029E300017017850A82850B83A31255ACA3123994
:1029F30060122A33750C0112591412331E12279DCB
:102A030040B2A90C7F05020591EEF8EFF9E875F0E5
:102A13000BA4F8122A1A22AAF075F00BE9A42AF9DA
:102A2300900336E02822EF122B0122126914EB22C5
:102A3300122A3F12590FEEF0A3EFF022E5081269B4
:102A430015E5092274F5120376EAFEEBFF8E828FF9
:102A530083A31269037C007D00EE24030A0A0AEFB4
:102A6300122AAEEEFAEFFB120B3DE9F50A7401658B
:102A73000A702912690E122AD4AAF075F00BE91212
:102A83002AE6850882F583122AC0122AF1700DE521
:102A9300082403FCE509122AA2122AAE02274E34A7
:102AA30000FDEE2403FAEF22122AB53400FB120BC9
:102AB3005B223400FDE5082403FAE50922A3122A68
:102AC300C522122AC922E0F8A3E0F98E828F83A3DC
:102AD30022122AD8223400F583124340E875F00B02
:102AE300A4F822122A20F508A3E039F50922E8F018
:102AF300A3E9F0E5082403FAE509122B0122122BBE
:102B0300076401223400FB120B61E92274F3120300
:102B13007674E61209341268F9750C0175080075AC
:102B23000900750A00750B00851882851983E4F086
:102B3300EE2403FCEF3400FD7403120B06122BC1C9
:102B4300E964017023740B120B06123958740112D5
:102B53000B061250507003A3E069605185188285FB
:102B63001983858208858309740D120B06E4122BE1
:102B7300C8740E120B06123960740D120B06AA826A
:102B8300AB83120B7FE96401700B740D120B068586
:102B9300820A85830B780A120872AC08AD09EEFA33
:102BA300EFFB120B4F74021208BAE9F50CEEFAEFC1
:102BB300FB120B79A90C741A1208BA022A07122EF7
:102BC30094120B85221238C812433C22C082C08360
:102BD300780079008003122CBF122987E89AE99BB9
:102BE3005029E8FAE9FBEA75F00BA4FAACF075F0AA
:102BF3000BEBA42CFB900336E02AFCA3E03B8C8276
:102C0300F583E0540F70CF790080027901023731E8
:102C1300C082C08390253D124392EC75F012A4FC50
:102C2300A8F075F012EDA428FD79FF7A237B091231
:102C3300165F02373174F7120376E9FEEAFF7A0072
:102C43007B00780079008028E8FCE9FDEC75F01240
:102C5300A4FC85F00875F012EDA425081230D4C346
:102C63009E400AE0FCEFC39C40031231F3122CBFD9
:102C73001230C840D30238BDC082C08378007900C7
:102C83008003122CBF122CB3501F1230D8F470F2F1
:102C9300E875F012A4F8AAF075F012E9A42AF97401
:102CA3002328FA740939FB80047A007B0002373148
:102CB30090253D123189C3E89AE99B22E824010853
:102CC300E93400F92274F012037674F31209348A9A
:102CD3000A8B0B8C0C8D0D8908EC450D6016AA0C24
:102CE300AB0D120BD38A0E8B0FAE0EAF0FEE4F60F0
:102CF30003022D86120BA98A0E8B0FA80EA90FE8CB
:102D0300FEE9FFE849607C90254B122DE8602274B0
:102D130003650860067404650870167A0479031263
:102D23000BA390254B122DFF40077A007B00022D49
:102D3300E5902549122DE8601B740165086006744F
:102D4300026508700F7A027901120BA390254912CC
:102D53002DFF50D68518828519837401F0120B0656
:102D6300125378AC0CAD0D7403120B06122E8D7436
:102D73000B120B0612374B123D40E4125360121034
:102D8300838004EE4F604A780074FF2508C39404DF
:102D9300500278048E828F831253788E828F83A39E
:102DA300A3A3A3E508F0E88E828F83A3A3A3A3A321
:102DB3001253801202251231A08E828F83A3A3A304
:102DC300A3A3A3A3F0123197120AE31258F8120A2D
:102DD300EF122DED4005900E7FE4F0120F5DEEFA39
:102DE300EFFB02434612549A49227A047900120BEC
:102DF300A390253D125FB4EA98EB9922122E187521
:102E0300832575823DE493C398F8A3E49399F9C3AA
:102E1300EA98EB9922E493F8740193F92274F2127D
:102E2300037674F31209348A088B09ECFEEDFF75FF
:102E33000A00EEFAEFFB120BD38A0C8B0DA80CA938
:102E43000DE849603E88828983E065087004A3E049
:102E53006509602F88828983A3A3A3A3E0C3940594
:102E630050211257A68518828519837401F0120B1D
:102E7300061257AAEEFCEFFD7403120B06122E8DF9
:102E8300750A01A90A740D024E44122E94120B9175
:102E930022AA82AB83120B5B851882851983AA82CF
:102EA300AB832274F6120376122EE2600FA3A3A360
:102EB300A3E014C394045004790180027900023919
:102EC3006974F6120376122EE2600FA3A3A3A3E0A4
:102ED30014C3940250047901800279000239691203
:102EE3000BCD8A828B83E58245832274F6120376A7
:102EF300122EE2600BA3A3A3A3E070047901800266
:102F03007900023969C082C083EAFCEBFD7A007B59
:102F13000002372EC082C0837C007D0002372E74EE
:102F2300F412037674F3120934EAFEEBFF8C0A8D74
:102F33000BC3EC94F8ED94FF4007EE4F7003022FA0
:102F4300DB750800750900802E8518828519837446
:102F530001F0123346120B0612335460137403123A
:102F63000B06AC82AD83EEFAEFFB121F59E97049F1
:102F7300E508240112317490253DE41254A2E508BA
:102F830098E509995052E50875F012A4F8AAF0756E
:102F9300F012E509A42AF9125FE760D4EE4F70A995
:102FA30074FF650A700474FF650B60C412333665E1
:102FB3000A7004A3E0650B70B7E50875F012A4F579
:102FC30008A8F075F012E509A428F509742325086B
:102FD300FA74093509FB80047A007B00023B05740F
:102FE300F412037674F3120934750800120BD38AB2
:102FF3000A8B0BAE0AAF0BEE4F602A851882851938
:103003008374011238C2F8A3E0F9740B120B061291
:1030130039E3120B737C127D0079FFEEFAEFFB129A
:10302300165F750801122DED5009900E7F7401F0A3
:10303300120F5DA908023B0574F7120376E9FE74CB
:10304300FE6A700374FF6B7800790070058052127A
:103053002CBF1230C8504AE8FCE9FDEC75F012A40D
:10306300FCAFF075F012EDA42F1230D4F460E0E859
:10307300FCE9FDEC75F012A4FC75F012EDA42FFD34
:1030830074232CF58274093DF583E06A7003A3E091
:103093006B70BC80091230D814C394044017122CEF
:1030A300BF122CB35018EE70EC1230D864016005D7
:1030B300E0640370E9123327FAA3E0FB80047AFE8D
:1030C3007BFF0238BD90253D124396C3E89CE99DE2
:1030D3002212322822E8FAE9FBEA75F012A4FAACCC
:1030E300F075F012EBA42CFB74272AF58274093BCC
:1030F300F583E022120BE5023731C082C0837901E8
:1031030080F274F01203768A0A8B0B7A0479011227
:103113000BA38A0C8B0DEA450D603EEAC333FAEB31
:1031230033FB12171F8A088B09AE08AF09EE4F60F5
:10313300237AFE7BFF120BEB74FE6A700374FF6B42
:10314300601B8508828509831238CDE508240212A5
:10315300317480E1750C0080047E007F00850A8253
:10316300850B83E50CF0EEFAEFFB02434BE50824F5
:1031730007F508E5093400F5092290253D12439629
:10318300C3EA9CEB9D22E493FA740193FB2212168B
:1031930053740322125909E4F09081C322E88E820A
:1031A3008F83A3A3A3A3A3A3A3A31231C274011266
:1031B30031C2A3F0EE241012590CE4F0A3F0221252
:1031C3003D4CA3A3A322C082C0837A007B0080046A
:1031D300191231F312317D5010123212C39405507B
:1031E300F0E970EC1231FC80047A007B0002373185
:1031F300EA24010AEB3400FB22EA75F012A4FA7503
:10320300F012EBA428FB74232AFA74093BFB22EA8D
:10321300FCEBFDEC75F012A4FCA8F075F012EDA424
:103223002812322822FD74272CF58274093DF58378
:10323300E02274F712037674F31209347E007F00E0
:103243000232DAE50875F017A4F8A9F0126248FA19
:10325300A3E0FBEEF8EFF9E875F012A4F8ACF07513
:10326300F012E9A42C1233356A7003A3E06B603FBC
:10327300E50875F017A4F8AAF0EA126247F8A3E08C
:10328300F97401120B06E0687003A3E0696020E59E
:103293000875F017A4F8EAF9749F28FC740A39FD3D
:1032A3007403120B06AA82AB83121F59E96014E55B
:1032B3000875F017A4F8A9F0749D28FA740A39FB6D
:1032C30012108F050890254FE493F8E508C3985032
:1032D3000302324612331E90253D12658E5039EE9D
:1032E300F8EFF9123327F47003A3E0F460E68518CE
:1032F300828519837401F0EEF8EFF9E875F012A4F2
:10330300F875F012E9A42AF9123346120B061233A8
:103313005460C175080080AD0238B8EE24010EEF89
:103323003400FF22E875F012A4F8AAF075F012E950
:10333300A42AF912333A22742328F582740939F541
:1033430083E022742528F58274093912433A740BF9
:1033530022E8F0A3E91239EB120B8BE922C082C0F9
:103363008390033D744FF0A3740EF090033F7449B0
:10337300F0A3740EF09003437469F0A3740CF0028D
:10338300373174F7120376EAFEEBFF900377E064BC
:1033930008601BE0640460168E828F83E05403642C
:1033A30001704812373E123E41E06406703D8E8242
:1033B3008F83A3A3E064FE7003A3E0F4602D8E82E9
:1033C3008F83A3A3123954900368E0687003A3E0CA
:1033D30069700BEE2415F582EF125FCE6008120EB2
:1033E300FDE9F5088008120F0380F67508C2EEFAAE
:1033F300EFFB12172502288974F41203768A088BCF
:10340300098A828B83E0F8A3E0FAE82AFAE434001D
:10341300FB12171F8A0A8B0BAE0AAF0BEE4F6063CA
:10342300850882850983E0FC7D00790012165F8E92
:10343300828F83A3A3126903120F3F8E828F83A30C
:10344300A3A3A31238CD850882850983E0F8EE286B
:10345300F8EF340012395C850882850983A3E0C044
:10346300E0EE240D1258FBD0E0F0120F51EE240EC3
:103473001258FBE9124FADE0C0E0EE24111258FBE5
:10348300D0E0F0EEFAEFFB023B0A74F41203767419
:10349300EB1209348A088B098C0A8D0BE9FE900321
:1034A30077E064046005E06408700479C2802EA3A9
:1034B3007808120AC7EE90037E123738120AC774CF
:1034C30005120B06E9F07404120B067401F074077D
:1034D300120B06E4F090037774021236CC741502D3
:1034E3003B0774F612037674EB120934EAFEEBFF22
:1034F300124BCF60030235897A077B0012171F90A6
:1035030003391238CD124BCF60788E828F83120A23
:10351300E390033A123E44120AEF1267C7C0E01267
:103523003595D0E0F0EE2405FAEF3400FB8A088BE2
:10353300098A82F583E0C0E0123590D0E0123B01A6
:10354300E0C0E0123590A3D0E0123941120AE385BE
:103553001882851983120AEF88828983E0C0E07498
:1035630005120B06D0E0F0850882850983E0C0E0F0
:103573007404120B06D0E0F07407120B061236CB5C
:103583008006791080027901741502396612359527
:10359300A322900339E0FAA3E0F5838A82A3A3A3CD
:1035A300A322C082C083124BCF600D900339125403
:1035B300D9900339E4F0A3F0120E6D12102F0237E5
:1035C3003174F012037674EB120934ECFEEDFF89CB
:1035D300087425120B06780C120AA97429120B061B
:1035E300E0F9742A120B06E0FC742B120B06E0FDC3
:1035F300740F697005740F6C6012900EDAE0640248
:10360300700579C10236C6E9C39C40F69003787809
:103613000C120AC7E50890037EF0E990037CF0ECF6
:10362300A3F0ED90037FF074FF6A700374FF6B7077
:103633001D900EE5E0F47003A3E0F4700512167715
:10364300800C900EE5123895E8F0A3E9800790030B
:1036530075EAF0A3EBF0EE4F6017EEFAEFFB1210F2
:10366300EFE96401700BEEFCEFFD7A897B03121F17
:103673005F900368E4F0A3F090036BF0A3F0900372
:1036830088F0900EDAE06402700890037C740FF007
:10369300A3F09003777405F014120B06E4F0900383
:1036A30078120AE3851882851983120AEF90037E44
:1036B300E0C0E07405120B06D0E0F07407120B06AD
:1036C3001236CB7415024348E41239EB121F8F22D2
:1036D300C082C083900338E070031219F5120C33D3
:1036E300804CC082C083900338E0900E7E7004E467
:1036F300F0802D7401F0900338E0F460237C41E006
:10370300C394415002E0FCECF8E0C398F0EC75F090
:10371300E8A4CCA8F075F003A428FD7A8012439E98
:103723007A7E7B0E7941121F778003120BD9D083E7
:10373300D08202085212394C780822EE12590A221A
:10374300E0F508A3E0F5092212374F22122AC9A394
:103753002274F512037674E21209348518828519EE
:1037630083ECF0A3EDF0EAFEEBFF89087429120B5A
:1037730006E0F509742C120B06E0F50A900377E0D6
:1037830064046005E06408700579C2023886742A0F
:10379300120B06E064FE7003A3E0F4700579C30224
:1037A300388690037774031239E77950121F7774C0
:1037B3002A120B06AA82AB83794B121F77851882D4
:1037C300851983123895123960E50890036AF074FD
:1037D3002A120B0612388E123960E5099003621221
:1037E300389C74CE55094480C0E07412120B06D085
:1037F300E0F07401250A900388F0740F120B06742D
:1038030002F0742A120B061239547407120B06E8DD
:10381300F0A3E91238D37410120B06123960740541
:10382300120B06E508F0741B120B06E4F090037DFF
:10383300740FF07A7D7B037954121F7790037C74A5
:103843000FF07A7C7B037947121F7790037CE0C3E8
:10385300940F50237405120B06E0C0E07402120BA0
:1038630006D0E0F07404120B067401F004120B0688
:10387300AA82AB83121F9B7405120B06AA82AB8329
:10388300121F7D741E1208BA02275012433C900384
:103893006B2212433C90037522F0EEFCEFFD7A8914
:1038A3007B03121F5F2274F7120376EB90037FF002
:1038B300120E5B8005740D1208BA7F010205911286
:1038C30038C8A3E022123941A322EAF0A3EBF02285
:1038D300123947F8A3E0F92274F712037674F81249
:1038E3000934EAFEEBFF7900900377E06408704443
:1038F30085188285198374FDF0A374FFF0120F39C4
:103903007402120B061238CD7405120B06E412383A
:10391300C8E0C0E07404120B06D0E012393CC0E0EA
:103923007406120B06D0E0F07407120B06E412398A
:10393300E7120F7B74080238BA123941E022F08E85
:10394300828F832212394CE022F0851882851983F5
:103953002212433C22E0F8A3E0F9125909E8F0A34C
:10396300E9F0221208BA7F02020591C082C0839057
:10397300034974F9F0A3740CF09003EF74D5F0A32A
:10398300740FF090034D742FF0A3740DF090034F58
:1039930074F9F0A3740CF09003517435F0A3740D13
:1039A300F002373174F412037674F91209348A0879
:1039B3008B098C0A8D0B8518828519837808120A66
:1039C300C77404120B06E9F07405120B06E4F074D5
:1039D30006120B06E41239E7120C1B7407023B07AD
:1039E300E8F0A3E91239EB2212394CAA82AB832205
:1039F30074F41203768A088B098A828B831259170F
:103A0300EE4F7003023AFF900312124BD260158AF5
:103A1300828B83A3A3E0F9EEFAEFFB900313123E2C
:103A2300441221508E828F83A3A3A3A3A3A3A3A392
:103A3300A3E0640270748E828F83A3A3A3A3A3A3C2
:103A4300E054027003023AD1850882850983A3A357
:103A5300E064E960798E828F83A3A3A3A3A3A3A3C6
:103A6300A3A3A3E07014900EDDE0048E828F83A3E2
:103A7300A3A3A3A3A3A3A3A3A3F08E828F83A3A330
:103A8300A3A3A3A3A3A3A3A3E014123B01A3A3A3F0
:103A93007404F0900EDE125352E8F0A3E912642B83
:103AA3008B0BEA450B7003125E098E828F83A3A3EF
:103AB300A3A3A3A3A3A3A3E0640260128E828F83B4
:103AC300A3A3A3A3A3A3A3A3A3E06406702E8E8240
:103AD3008F83A3A3A3A3A3A3E0A2E0501F8508821F
:103AE300850983A3A3E0F9EEFAEFFB1220318E825E
:103AF3008F83A3A3A3A3A3A3E054FEF08009123DE5
:103B03004822740D1208BA7F0402059174EC120363
:103B13007674DD120934EAFEEBFF8C088D097437E5
:103B2300120B06780C120AA9750A007405120B060B
:103B3300AC82AD831215DB7412120B06E0700874AD
:103B430015120B06E060207405120B06E0A2E65086
:103B53001E8E828F83A3A3A3A3A3A3A3A3A3125005
:103B63004C120FB1E960087903121F47023D2E740E
:103B730005120B06E0540C64047005750B018003F9
:103B8300750B00E0A2E55035750A01E50BA2E04094
:103B93002C120F3F8A108B11A810A91112373EE087
:103BA300687003A3E06960157405120B0612690AB5
:103BB30012504812203DE96004790480AC74051268
:103BC3000B06E0A2E650227406120B06E0540370C3
:103BD300187405120B06E0540C640C600CE0540CD2
:103BE3006408600575100180037510007405120BDD
:103BF30006E05403F8740268700C12690A12504804
:103C0300120B25023D2E740168703AE510A2E050B4
:103C130003123D367405120B06A882A9837403129E
:103C23000B06E8F0A3E91243308518828519831245
:103C33003D40E0C0E07402120B06D0E01239E712F7
:103C43002121023D2EE86003023D2E90035FE064D4
:103C53000170108E828F83A3A3A3A3A3A3E0700399
:103C6300023BBC7422120B067402124330741A1204
:103C73000B06123960E510A2E050087405120B061A
:103C8300123D36E50BA2E0506AEE240FF582EF12E7
:103C93005FCEC0E07417120B06D0E0F0900314124D
:103CA3004BD27003023D2E120F3F8A128B13A812C0
:103CB300A913741A120B06E0687003A3E069706B12
:103CC300780C12086A780A1208767808120872A922
:103CD30010740C120B06AC82AD837421120B06AA6E
:103CE30082AB83900314123E4112215074071208D1
:103CF300BA8038780C12086A780A120876780812A3
:103D030008729003751206DAEE2412F582EF125C44
:103D1300FC7423120B06AC82AD83740E120B06AA3D
:103D230082AB8312202574091208BA74231208BACD
:103D33000263F612690A1254E7120B1922E8F0A380
:103D4300E9123D4822123D4C22F08E828F83A3A3B9
:103D5300A3A3A3A32274F71203761218C90238BDD2
:103D630074F71203761218CF0238BD74F712037674
:103D73001218DB0238BDC082C0831218D502373156
:103D830074F71203761218E10238BD74F712037642
:103D93007409120B06E0F50878081208761218ED7C
:103DA30074010238BAC082C0831218F9023731C0D5
:103DB30082C0831218FF02373174F7120376121987
:103DC300050238BD74F7120376EAFEEBFF89087427
:103DD30001650870147900120D7190255AE493FC63
:103DE3007900EEFAEFFB120CE70238BD74F412030C
:103DF3007674F9120934E9FE8A088B098C0A8D0B53
:103E03007413120B0612504C900595124BD2602777
:103E1300EE851882851983F07401120B0678081257
:103E23000AC7EAF8EBF97405120B061239E3900599
:103E330095123E411221500239DEFB90034BE0F80C
:103E4300A3E0F583888222C082C08312193B023724
:103E53003174F7120376900E81E0F97E00800B1225
:103E63005FBA540D64017001190E12404E5003E9FC
:103E730070ED0238BD74F7120376900E82E0F97E7E
:103E830000800B125FBA548D64817001190E1240C9
:103E93004E5003E970ED0238BD74F2120376890BBC
:103EA300E975F006A4240CF508E5F01231788A0CC4
:103EB300E508250CFAE5093400FB12171F8A0C8B61
:103EC3000DAE0CAF0DEE4F6027AC08AD09790012B3
:103ED300165F12373EE50BF0EE2508F8EF3509F9CA
:103EE3008E828F83A3A3A3A3A3A3A3A3A312396047
:103EF300EEFAEFFB024E4774F6120376EAFEEBFF8F
:103F0300120CC3900E80E0F8E9C398400990034572
:103F130012504C120CC9EE2402F8EF12565C9003B7
:103F230047125516900347E004F0EEFAEFFB120C2C
:103F3300CF850882850983E0025B12C082C0837942
:103F43000090034580010912504C8A828B83E582DD
:103F5300458370F202373174F7120376EAFEEBFF02
:103F6300EE4F6056900345124BD2604E8882898390
:103F73007A007B00EE65827003EF6583600FAA828F
:103F8300AB83123FC0E5824583602F80E7900345F2
:103F9300123FCC687002EF698E828F8370081239EA
:103FA300549003458003126408123960EEFAEFFB64
:103FB3001220F1EEFAEFFB1217250238BD123FC4AF
:103FC30022124340888289832212433CEE22C0821C
:103FD300C083900345800488828983124BD2600B8F
:103FE30088828983124684EC4D70EC8A828B83E449
:103FF300F0A3F0E849600688828983800390034533
:104003001238CD02373174F71203769003458004DA
:104013008A828B831240494B60257E0080010E12F9
:10402300404E50ECEE75F006A4FCADF0EA2CFCEB30
:104033003DFDEC2410F582ED12409E70E180047A80
:10404300007B000238BD1254EBEA221240A7EEC3F4
:10405300982274F71203767D0080010D1240A3EDC0
:10406300C3985034ED75F006A4FEA8F0E8FFEA2EDD
:10407300FEEB3FFFEE2410F582EF12409E70DCED65
:1040830075F006A4FEE8FFEA2EFAEB3FFBEA2411E3
:10409300F582EB125FCE4CF00238BD125FDA692273
:1040A3001240A722126914EB3400F583E0F822745E
:1040B300F6120376120DE97A007B008025EAF8EB0D
:1040C300F9E875F006A4F8ACF075F006E9A42C1233
:1040D30054C01267D5A3E41255B6F0A31267DB12DE
:1040E3006952902545122DF740D37A007B00801C3E
:1040F3008A088B0974037808120A35124F74A37463
:10410300FEF0A304125396A3E412695290254E12B3
:10411300415140DC7A007B00801D8A088B097403BF
:104123007808120A3574C5125C46740D12648D74D6
:10413300FEF0A30412695290255412415140DB90C2
:104143002558E493900353F012415B023969E493D9
:10415300F8C3EA98EB9400227CE87D037A107B0095
:104163009003C2E0F91217E52274F012037674F596
:104173001209348A088B09890A8C0BE9A2E05014CE
:104183007508FC7509FFA2E15005D2E402422ED264
:10419300E302422E124E337003A3E06970057900E7
:1041A3000242FBAC0A7902AA08AB09120DC5E96009
:1041B300EDE50AF50C780C12087679027CFE7DFF9A
:1041C300AA08AB09124BAE1208BAE960030242F91E
:1041D300E50AC2E5F50A9003B5E07051E50AA2E6E7
:1041E300404B7403120B06AC82AD83AA08AB0912D1
:1041F3000B67E970321244CF8A0C8B0DA80CA90D02
:10420300E8FEE9FFE8496025EE24020A0AEF122BD3
:1042130007601AEE2402FCEF3400FD7403120B0650
:10422300AA82AB83121F5FE50AD2E5F50A90034821
:10423300E0F50C900368E0F50EA3E0F50F780E129D
:1042430008727D017C00900348E0F9AA0EAB0F12BF
:104253000D7D74021208BAE9F8900348E004F0E80F
:1042630060030242F9E50AA2E55004740E80027469
:1042730006C0E07401120B06D0E01259288A0E8B97
:104283000FAE0EAF0FEE4F60691243191243308821
:104293008289837401F07478550AA312691AE50CB4
:1042A30012691AA3E508F0E509124308E4F0E50AE8
:1042B300A2E5500F7403120B06AC82AD83E824060B
:1042C3001242FF8E828F83A3A374FDF0A374FFF0C9
:1042D300E50B601590255BE493F8E50BC398500953
:1042E300EE24131258FBE50BF0EEFAEFFB120C0968
:1042F30080067910800279C7740B8049FAE934008B
:10430300FB121F5F2288828983A3A3A3A3124314F2
:104313002212568FA322EE241712590C7401F012A5
:104323000F39EE241A12590CEAF0A3EB22F01269AA
:104333000E340012433A22F58312434022E0F8A3DD
:10434300E0F922740D1208BA7F0802059174F6127F
:1043530003767A007B10125E1660089003D4740112
:10436300F08029900636E06401900EDB7006E0FCD5
:1043730079018004E0FC79037A007B00120CE7905A
:1043830025431243927A007B101243A0023969122B
:10439300439622E493FC740193FD227B009003C2B5
:1043A300E0F91217DF2274EC1203768A088B098C6A
:1043B3000C8D0D890E7414120B06124D8D7416128A
:1043C3000B06E0F510A3E0F511120FB1E960077ACF
:1043D300FF7BFF0244CC900EDAE0640260030244E8
:1043E300BF7900AA08AB09120DCBA90E120DBF8A23
:1043F300128B13AE12AF13EE4F70030244A78E82DB
:104403008F83A3A3A3A3A3E064018E828F83A3A3BB
:10441300706912504C8E828F83A3A3A3A3A3A3E03E
:1044230054186043902559E4938E828F83A3A3A3EA
:10443300A3F0EA650C7003EB650D6014EA650A707E
:1044430003EB650B600AEA65107003EB6511701FDF
:104453007810120872AC0AAD0BAA0CAB0D1210AD9A
:1044630074021208BA8008900367125E00A3F07406
:10447300FE6A700374FF6B601D804EA3A3A3E06408
:104483000360298E828F83A3A3A3A3A3E064047094
:10449300057AFE0243D48E828F83A3A3A3A3A3E052
:1044A300640270089003B4E0640270101244CF8B6E
:1044B3000BEA450B6006AA08AB09800DAA08AB09F5
:1044C300900349123E411221500263F69003751284
:1044D3004BB41210712274F7120376EAFEEBFF124B
:1044E3000BBBE9700AEEFAEFFB120BC7E96006EEAD
:1044F300FAEFFB80047AFE7BFF0238BD74F01203EF
:10450300768A0A8B0B8C0E8D0F8909750800120FA2
:10451300B1E979006003024676AA0AAB0B120DCB10
:10452300A909120DBF8A0C8B0DAE0CAF0DEE4F60B7
:10453300198E828F83A3A3A3A3A3E0640270559073
:1045430003B4E064027003024674AA0AAB0B90033F
:104553004F123E41122150120BCD8A0C8B0DA80C29
:10456300A90DE849700302467488828983A3A3A333
:10457300A3A3E0A2E04003024674750C01A2E1503C
:10458300687901AC0AAD0BAA0EAB0F120D17E970D7
:10459300640246748E828F83A3A3A3A3A3E0640360
:1045A3007005750C0280528E828F83A3A3A3A3A3ED
:1045B300E0640160030246749003751246848E82A0
:1045C3008F831249D98A0C8B0DA80CA90DE8496079
:1045D300D1902552E493FA88828983E0C39A50C22A
:1045E300A3E0600302467480B988828983A3A3A3EE
:1045F300A3A3D2E1F0EE4F603A8E828F83A3A3A3ED
:10460300A3A3A3E05418602B7508018E828F83A3A4
:10461300A31206DA750CFE750DFF780C1208727979
:1046230000AC0AAD0BAA0EAB0F120DDD7404120819
:10463300BA803E900368E0650E7004A3E0650F70D6
:104643001490255AE493FCA909AA0AAB0B120CE7B0
:10465300750801801CA90CAC0AAD0BAA0EAB0F1296
:104663000D17E9700C750801A909AA0AAB0B120D05
:1046730071A90802434BE50C2415F582E50D125987
:104683000F12536C2274EA12037674F01209348AFF
:104693000C8B0D8C088D097426120B06E0F514A300
:1046A300E0F5157512069003F5124BD260239003C3
:1046B30075124684AA08AB0912109B8A108B11EA63
:1046C3004511600D8A828B83A3E07005790002494E
:1046D300C1E50C241DF50EE50D3400F50F850E82A2
:1046E300124BBEF51388828983A3A3A3E0FA8882C1
:1046F3008983A3A3A3A3E0F9EA2400FEE439FFAA74
:1047030008AB09120D77850E82850F831249FCE0F1
:1047130029F50BE50AA2E5500375120E7487550AB5
:1047230070177418550A6418600FE50C2417F58286
:10473300E50D125FCE651260077901121F47808C69
:10474300530A78C3EE94F8EF94FF501D7900EEFA04
:10475300EFFB1249CB601288828983A3A3A3A3A38F
:10476300A3E0541860030246CF78081208727D0054
:104773001249EF1208BAE9F874036870030246CFCE
:10478300E8600302483A7418550A70030248EFE5DB
:104793000AD2E0F50AA2E45004D2E1F50AA90A120A
:1047A30050451249CB605388828983A3A3A3A3A353
:1047B300A3E05418604488828983A3A3A3A3A3E03E
:1047C30064017036E510451160309003751246841C
:1047D300888289831249D98A0E8B0FA80EA90FE804
:1047E30049601788828983A3E0600F851082851151
:1047F30083A3125B1D50030246CFE50AF50E780E24
:104803001208761249E21208BAE9702B7C007D0087
:1048130085148285158374FFF0A3F0850C82850DC2
:1048230083A3A3A3A3A3A3A3A3E06003124679A92D
:104833000B1250451218F3851482851583E0F4702A
:1048430003A3E0F460399003B4E06402700302460A
:10485300CF124D7EE0FAA3E0123E3D122150EA65ED
:10486300087003EB650960030246CFEEFAEF123ED0
:104873003D122150851482851583EAF0A3EBF0786D
:10488300081208727D011249EF1208BAA90AEEFA5A
:10489300EFFB120DCB8A088B09A808A909900368BE
:1048A300E0687003A3E06960030249B2EEFAEFFB2C
:1048B300120BCD8A088B09A808A909E849606E88FC
:1048C300828983A3A3A3A3E06401600D8882898303
:1048D300A3A3A3A3E064027054851882851983AC53
:1048E30082AD83EEFAEFFB120B678055900361E014
:1048F300600FE50AF50E780E1208761249E21208E7
:10490300BAE50AF50E780E12087679027CFE7DFF71
:10491300EEFAEFFB124BAE1208BAE9600302483A13
:1049230085148285158374FFF0A3024881120F3921
:10493300EAFCEBFD851882851983AA82AB83121FDB
:104943005F850C82850D83A3A3A3A3A3A3A3A3E0E5
:104953006401700F1246797408120B06AA82AB83A6
:10496300121F5F124B881257944430F508780812CF
:1049730008767401120B068582088583097808126C
:104983000872740B120B0685820885830978081256
:104993000872E513F50878081208767900EEFCEF43
:1049A300FD125045120D1174061208BA0246CF12B9
:1049B3004B881258FE1249FCE50BF0120F5174108C
:1049C3001208BA7F0E020591120DBF8A0E8B0FA833
:1049D3000EA90FE84922A3A31254EB12109B2279CC
:1049E30001AC08AD091254E0124BAE22AC0BA91373
:1049F3001254E0120D7D74022212579CA3A3A3A3A9
:104A03002274F012037674F01209348A0C8B0DECC5
:104A1300FAEDFB750F089003F5124BD26014125B8D
:104A2300168A828B83E58245836007A3E0700302C5
:104A33004B83124B883400124BBEF50B888289835B
:104A4300124B91E0FBEC2400FEE43BFF8882898358
:104A5300A3A3124B91A3A3E0FBECF508E43BF509F8
:104A630088828983A3A3A3A3A3A3A3E0F50EE50AE6
:104A7300A2E45003750F10A2E550067408250FF544
:104A83000F748F550A700FE50C2417F582E50D128C
:104A93005FCE650F60087901121F47024B83530AEB
:104AA300707800E50AA2E45022124B88125FCE24EC
:104AB30008FCA3E03400FD7408120B06AA82AB8342
:104AC300121F5F7808E50AC2E4F50AE50AA2E55079
:104AD30028124B88125FCE28F8A3E03400F9E824AB
:104AE30008FCE93400FD851882851983AA82AB830B
:104AF300121F5FE50AC2E5F50AAC0EA90BEEFAEF49
:104B0300FB120D83E9F87403686075900368E06E27
:104B13007003A3E06F605EE87054E50AF50F780F49
:104B2300120876124B9F1208BAE97054780A1208D9
:104B3300767401120B0685820C85830D780C12089E
:104B430072740B120B0685820C85830D780C120888
:104B530072E50BF50A780A120876A90EAC08AD09BE
:104B6300EEFAEFFB120D1174061208BA80127404E8
:104B730068700D80B7780A120876124B9F1208BA34
:104B83007410024348E50C241DF582E50D22A3A30E
:104B9300A3E0FC88828983A3A3A3A3227901124DF6
:104BA3008512590F124BB4124BAE22120D3B7401F6
:104BB30022E0FCA3E0FDAA08AB0922F583123FC45F
:104BC300A3E0F50A88828983A3A3E0229003391224
:104BD30055472274E812037674F5120934EAFEEBA2
:104BE300FF8C088D0989147423120B06E0F50F74EA
:104BF30024120B06E0F512A3E0F5137426120B063C
:104C0300E0F516A3E0F5177428120B06E0F50EA9DC
:104C13000F120D898A108B117401120B067408F0A0
:104C2300E50EA2E450037410F0E50EA2E55004E093
:104C33002408F0851882851983AA82AB83120F9901
:104C43008A0C8B0DEA450D7003024D65EA2417F5B6
:104C530082EB124D77120F39E50C241AF582E50D1C
:104C63001258FE1238CD7403120B06AC82AD83AA20
:104C730010AB11120B67E9601D124D6F7403120B19
:104C830006A882A983E50C2418F582E50D1258FEC7
:104C9300E8F0A3E98024E50EA2E4501FE5106E704E
:104CA30003E5116F7015124D6FE50C2418F582E5BD
:104CB3000D1258FEE512F0A3E513F0124D7E124DCE
:104CC3008D850A82F5837402F0A3E50E124D95E5F6
:104CD3000FF0EE850A82850B83A3A3A3F0EF850A69
:104CE30082850B83A3A3A3A3124D95A3A3A3E508D6
:104CF300F0E509850A82850B83A3A3A3A3A3A3F0ED
:104D0300AA10AB11120D77E92514850A82850B834E
:104D1300A3A3A3A3A3A3A3F0750800E50EA2E450E5
:104D230011AC12AD13E50A2408FAE50B1243017521
:104D33000808E50EA2E55014AC16AD17E50A2508E0
:104D4300F8E50B3400F9E824081242FF850C82854C
:104D53000D83A3A3E510F0A3E511F0AA0CAB0D128C
:104D63000C09740B1208BA7F10020591E50C241686
:104D7300F582E50D12590F7401F022124D85125977
:104D83000F22E50C126915E50D22E0F50AA3E0F503
:104D93000B22F0850A82850B83A3A32274F21203EC
:104DA300768A088B09ECFEEDFF890A7900124E33EF
:104DB3007003A3E069700479018073750B0190039C
:104DC30068E065087004A3E06509601F750B00784F
:104DD3000B120876A90AEEFCEFFDAA08AB09120F25
:104DE300ED74011208BAE9F50B80417900EEFAEF90
:104DF300FB120DBFEA4B602B8A828B83A3A3A3A371
:104E0300A3A3E05418601C7508FE7509FF78081207
:104E130008728A828B83A3A31206DA12672A120806
:104E2300BA80097901EEFAEFFB120C99A90B8014F1
:104E3300120DCB8A0C8B0DA80CA90D900368E068AA
:104E4300221208BA7F0602059174F41203767508DC
:104E53000D75090C7A101264328B0BEA450B700343
:104E630012415B900353E014F0700C902558E493C7
:104E7300900353F0120DD77E007F00806C8508826B
:104E8300850983A3A3A3A3E06059F46056E508242E
:104E930004F582E509125DFA704985088285098364
:104EA300A3A3A3A3A3E064037019790285088285F1
:104EB3000983124684850882850983A3A312504C73
:104EC300120D17850882850983A3A3A3A3A3E06416
:104ED30001601085088285098374FEF0A304124FD4
:104EE300A6E4F012331E12317090254712658E40EE
:104EF3008C7E007F008039120EDF8E088F097403C9
:104F03007808120A3574852508FC740D3509FD7A75
:104F1300237B0D120ECDEA4B70DD8E088F097403CF
:104F23007808120A35124F741267D5E4F012331E53
:104F330090254EE493F8C3EE98EF9400501B8E082F
:104F43008F0974037808120A35124F7CE82407F599
:104F530082E9125DFA70D680A17E007F00800A127A
:104F63004F87600214F012331E12658B40F1023B2F
:104F73000A124F7C888289832274852508F8740D70
:104F83003509F922EEF8EFF9E875F006A4F8AAF06E
:104F930075F006E9A42AF9742528F582740D39F50C
:104FA30083E022124FADA3A3A322F08508828509D3
:104FB30083A3A32274F712037674E1120934ECFE7F
:104FC300EDFF750800EE4F60728A828B83E0241C2C
:104FD300125E2B124BD260638A828B8312504C85F4
:104FE3001882851983AC82AD83EA241BF582EB1208
:104FF3005CFCEA241CF582EB125048120F21740B5F
:10500300120B061250507003A3E069702E74021243
:105013000B06E064017024741D120B06123E41E07E
:1050230064017017741D120B06123E43A3A3E0F82C
:105033008E828F83E0687003750801A908741F02CC
:1050430038BA124D853400F5831254EB22122AC567
:10505300E0682274F4120376E97024790090034D1A
:10506300123E411221508A0A8B0BAE0AAF0B74FE1B
:105073006E700374FF6F701A902555E49360137973
:105083000190034D123E411221508A0A8B0BAE0A46
:10509300AF0B120F5D02348674F612037674F312AB
:1050A30009341216778A088B09AE08AF0990036892
:1050B300E06E7003A3E06F60E9120F45EA6E7002C1
:1050C300EB6F60DEEEFAEFFB120FB1E970D4EE4F37
:1050D30060D0851882851983E4F004120B06EEF084
:1050E300A3EF1250FEE970BA74FE6E700374FF6F83
:1050F30060B0EEFAEFFB740D0239661239EB120B56
:105103007F22C082C083120F5D0237317F0A0205FE
:105113009174F2120376EAFEEBFF8C0A8D0B890879
:10512300740E120B06E0F50974FC6E700374FF6FC6
:1051330070057900024E477900120DCB8A0C8B0D56
:10514300AE0CAF0D900368E06E7003A3E06F7006C2
:10515300E509A2E650DCA909126618706179007AA4
:10516300FE7BFF12661870567418550970030252BD
:105173004B780079008003122CBF902547122CB680
:10518300400302524BE8FAE9FBEA75F007A4FAACD4
:10519300F075F007EBA42CFB74132AF582740C3B17
:1051A300F583E0541870D0E875F007A4F8AAF075F9
:1051B300F007E9A42AF9740D28F8740C39F98882E8
:1051C3008983A3A3A3A3A3A3E05418600974185568
:1051D30009700302513588828983EEF0A3EFF074DE
:1051E300FE650A700474FF650B60031253728882B4
:1051F3008983A3A3A3A3A3A3E509F0A2E0500D8889
:10520300828983A3A3A3A3A3A3D2E2F074016508B5
:1052130088828983A3A3A3A3A3703874011253962E
:10522300E054186028902559E49388828983A3A3C6
:10523300A3A312536012109B8B0DEA450D6003026A
:10524300513578007900803979020251379003672C
:10525300E080D7E06401700302513588828983A31B
:10526300A3A3A3A3A3E054186007902559E4938054
:1052730004900366E0124308E508F0025135122C4E
:10528300BF90254FE493FAC3E89AE99400400302E0
:1052930051357A007B00804BEAFCEBFDEC75F0079F
:1052A300A4FCAEF075F007EDA42EFD740F2CF5826F
:1052B300740C3DF583125917E8FCE9FDEC75F01702
:1052C300A4FC85F00975F017EDA42509FD749D2C48
:1052D300F582740A3DF583E06E7003A3E06F609E70
:1052E3001231F390254712318040AD124392EC6A9C
:1052F3007002ED6B7088E875F017A4F8AAF075F0EA
:1053030017E9A42AF9749D28FE740A39FF7C177DD6
:10531300007900EEFAEFFB12165F8E828F83125331
:1053230078900375125352A3A3A3A3A3A3E8F0A3F6
:10533300E91253587401F0EE240E1258FB74011253
:105343005380120225EE240D1258FBE802527D12FF
:10535300374FA3A322F0EE240F12590C22F012535D
:1053630069AA0AAB0B22900375E0FCA3E0FD228837
:10537300828983A3A3E50AF0A3E50BF022F012537D
:105383008522902552E4932401F8E43400F97A024B
:105393007B0022124314A32274ED1203768A088B36
:1053A30009890E1254C9400579050254971219410F
:1053B300AA08AB0912559B90254512549A650A70A9
:1053C30003E9650B70077AFE7BFF12559B90254519
:1053D300E41254A2E50A98E50B994003025495128E
:1053E30054A66012E50A75F006A4F875F006E50BFD
:1053F3001254F1121725E50E6018E50A75F006A49C
:10540300F8AAF075F006E50B12551D701A79010222
:105413005497E50A75F006A4F8AAF075F006E50BB3
:105423001254FEE4F0A3F0E50A75F006A4F8AAF01E
:1054330075F006E50B1254BEA31257AA888289831E
:10544300A3AA82AB8312550C8A828B83E0603F123E
:1054530054A6603A8E108F11751200781012086EE0
:10546300E50EC333FCE433FDE50A75F006A4F50A43
:10547300A8F075F006E50BA428F50B7429250AF5A9
:1054830082740D350B12504A1231911208BA790009
:105493008002790702662E122E18E82290253D120B
:1054A3005FB522E50A75F006A4F8AAF075F006E5E3
:1054B3000B1254F9F8A3E0F9E84922A42A12565230
:1054C30088828983A322ECFEEDFF902550E493F8B4
:1054D300E9C39822F5831254EB12172522E50C1227
:1054E3006915E50D3400F583E0FAA3E0FB221254BD
:1054F300F9FAA3E0FB221254FEE022A42AF974294C
:1055030028F582740D39F58322E50EF0900EDC1236
:10551300551622E088828983F022125676F50CE92B
:105523003400F50DE50EC333FAE433FB12171F8580
:105533000C82850D83EAF0A3EBF0850C82850D8345
:1055430012554722124340E8492274F4120376ECC1
:10555300FEEDFF740C120B061239548808890912E8
:10556300559BAC0AAD0BECF8EDF99025451255A30C
:105573005021E875F006A4F8AAF075F006E9125474
:10558300BEE08E828F831255B61255AC1239607904
:105593000080027904023B0A120D4D8A0A8B0B220A
:1055A300123189C3EC9AED9B2212433C8508828514
:1055B30009832212568B2274F61203767E007F0033
:1055C3008028EEF8EFF9E875F006A4F8ACF075F072
:1055D30006E9A42CF9742728F582740D1262396A3E
:1055E3007003A3E06B605712331E12658B40D31216
:1055F30065867002E96F704674FE6A700374FF6B10
:10560300703C7E007F00800312331E12658B502E88
:10561300124F8770F3EEF8EFF9E875F006A4F8126D
:10562300564812567D6017125664F8E912565C8884
:10563300821254D7850882850983E4F0A3F0EEFA39
:10564300EFFB02396975F006E912565022A42AF9D4
:10565300742528F8740D39F9223400F9880889096A
:1056630022EEF8EFF9E875F006A4F875F006E912F2
:10567300567622125650E8240422A3A374FE12562F
:105683008812554722F0A30412568F22F08882898C
:1056930083A3A3A3A32274F6120376EA241DF5823F
:1056A300EB125794F9604BEA241DF582EB125FCE9F
:1056B3002402FCA3E03400FD1254CD4003025787BB
:1056C300780080298C828D83E0F508A3E0FFE5084C
:1056D3002400E43FF509E833FEE433FF746D2EF54F
:1056E30082740D3FF5831257AA12578A08E8C399AB
:1056F30040D28A828B83A3A3A3A3A3A3A3A3A312AE
:105703004684900368E06C7003A3E06D700F7C6DBA
:105713007D0D122A2E125048120D418067EA241182
:10572300F582EB125FCE605CFC74FF2CF075080110
:10573300780812087675086D75090D7808120872D5
:10574300E9F5087808120876EA2412F582EB125F6D
:10575300CEF5087808120876EA2415F582EB12587C
:10576300FE1206DAECF9122A2E1246818A828B8304
:10577300A3A3A3A3A3A3A3A3A312504C120D5974D1
:10578300071208BA023969EC24020C0CED3400FD4F
:105793002212590F12579CE022E0F8A3E0F5838808
:1057A30082A32288828983E508F0A3E509F02274A5
:1057B300EA12037674FD1209348A148B158C0E8D4C
:1057C3000F890D7419120B06125917741B120B064D
:1057D300E0F511741C120B06E0F50C741D120B0698
:1057E300124D8D741F120B06E0F5106008E50CC313
:1057F30033240480027402C0E07401120B06D0E06B
:105803001259288A088B09EA450970030258F38A5A
:10581300828B83A3A3E514F0A3E515126421E50E9F
:10582300F0A3E50FF0EA2413F582EB1258FEE50D21
:10583300F0EA2414F582EB1258FEE511F0EA24177E
:10584300F582EB125FCE64017040120F3F8A0E8B1C
:105853000FA80EA90F850882850983A3A3A3A3E03C
:10586300687003A3E0696022EE4F6011E508241A13
:10587300F582E5091258FEEEF0A3EF800CE508244B
:1058830017F582E5091258FEE4F01259021259176E
:105893008E828F837405F0A3E5107004E50C8048B5
:1058A3007401250C1259217A008028850A82850B00
:1058B30083E012591D850A82850B83A3E08E828FB4
:1058C30083F0E50A2402F50AE50B3400F50BA30E79
:1058D300AF830AEAC3950C40D2120F3FEA12591D57
:1058E300120F3FEB8E828F83F0AA08AB09120C09CB
:1058F30074030249C3EE240CF582EF12590F2212EE
:105903002A3F12590F22EE240BF582EF3400F58360
:1059130022900334E0FEA3E0FF228E828F83F0A364
:10592300AE82AF83221239EB120F9922C082C08359
:10593300E9C333FCE433FDEA2CFAEB3DFBEA24FE36
:10594300F582EB34FF12504A02373174F2120376B8
:1059530089098A0A1254C9400479008040750800F5
:1059630080020508E508C39509502AE508C333F802
:10597300E433F9EE28F582EF39F583C082C0831250
:105983000F3F8A0C8B0DD083D082E0650C7004A38B
:10599300E0650D70CDE50A650870BE7901024E47DA
:1059A30074F012037674F31209348A088B098C0A93
:1059B3008D0B890C750D00120FB1E979006003029C
:1059C3005AA5AA08AB09120DCBA90C120DBF8A0E5A
:1059D3008B0FAE0EAF0FEE4F7003025AA38E828F62
:1059E30083A3A3A3A3A3A3E0A2E24003025AA312A7
:1059F3000F3FEA650A7003EB650B7011780D12080F
:105A030076E4F50EF50F780E1208728044AA0AABFD
:105A13000B120BC1E96401706885188285198374C0
:105A230004F07401120B06125378851882851983CA
:105A3300AA82AB83120B7FE964017045750D01786F
:105A43000D120876E4F50EF50F780E120872750D37
:105A530000780D120876780D1208767408120B067A
:105A630085820E85830F780E12087290255BE4936E
:105A7300F9AC0AAD0BAA08AB09120D597407120849
:105A8300BA8E828F83A3A3A3A3A3A3E0A2E1400DB5
:105A93008E828F83A3A3A3A3A3A3C2E2F0750D01F8
:105AA300A90D02434674F6120376E9FE7900120D3E
:105AB300CBEEF9120DBF8A088B09A808A909E8499A
:105AC300600612695CF98002790402396974F6127E
:105AD30003767E0790035CE07034125B168A088BB2
:105AE30009A808A909E8496025900361E0640188D1
:105AF300828983A3A3700B125B1D88828983500163
:105B0300A3A3E0F91210B9E9FEEE70027E07EEF9E5
:105B130002396912536912109B22E0FA8882898341
:105B2300A3E0C39A2274EE120376EAFEEBFF890A1E
