:020000040000FA
:06000000020A990201C989
:03002B000208D4F4
:030033000206437F
:0300430002078928
:030053000200FAAE
:03006B0002061D6D
:1000830002015E0101FF01010503010F10FEFF2FB5
:10009300132F132F132F13E511DF112F13DE21005D
:1000A300000000A222000000000C0000000C000170
:1000B3000000FD14000000000000B7150000000060
:1000C300000000000000FFFF0102006305000000C4
:1000D300D6056400020200080000050207051E029F
:1000E300051E020A0A03B80B02803E0102FFFF1439
:1000F30096511800020206C0E074F21203E2A2AFA6
:10010300E433FED2AFE5A7FFE5A1F5085F54106025
:1001130006121C9B75A1EFE5085F54086008121CCA
:10012300A175A1F7802BEFA2E0C0D0E508A2E09271
:10013300F01209D6158182F05017906198E0F8907B
:1001430008B3E0C398A2D265D0335002E8F075A19A
:10015300FEEEA2E092AF7F01020441C0E074F2120E
:1001630003E2A2AFE433FED2AF9061A4E0F8759B43
:1001730000E59158540860087591F7121CE9802A2C
:10018300E59158541060087591EF121CEF801BE83D
:10019300A2E0C0D0E591A2E092F01209D6158182C7
:1001A300F05007E0C2E0F0121E339061A3E0F8E5DF
:1001B300E9585404600E121E0975E9FB906193E03F
:1001C300A2E640F2808BC0E074F21203E2A2AFE435
:1001D30033FED2AF9061A5E0F8E5BF585404600642
:1001E30075BFFB121E4B020154C3E498F8E499F95E
:1001F30012022D8026C3E49AFAE49BFBE920E7E987
:1002030012022DE498F8E499F922C3E498F8E499EA
:10021300F912022DE498F8E499F9C3E49AFAE49BFD
:10022300FB22EB20E7CFE920E7E0B90010BB000891
:10023300E88AF084F8AAF022E4FBC8FA22EB7022E1
:100243007B10C833C8C933C9335007C39AC3DBF221
:1002530080069A50012ADBEAC833F4C8C933F4C9CB
:10026300FA2275F008E4C833C8C933C933C99AC937
:100273009B5004C92AC93BD5F0ECFBC833F4C8E44E
:10028300C9FA22080808EAC0E0EBC0E086F0E7A458
:10029300FA180986F0E7A42AFA180986F0E7A42ACF
:1002A300FA180986F0E7A42AFA1986F0E7A4FBE511
:1002B300F02AFA190886F0E7A42BFBE5F03AFA19BD
:1002C3000886F0E7A42BFBE5F03AFA18180986F044
:1002D300E7A4C5F02BFBE43AFA1908E7C5F0C6A476
:1002E30026F6E5F03BFBE43AFA1886F0E7A4F6E5D8
:1002F300F00826F6E43B08F6E43A08F6D0E0FBD033
:10030300E0FA22E4CFC0E0E4CEC0E0E4CDC0E0E414
:10031300CCC0E075F020C3E633F608E633F608E612
:1003230033F608E633F6181818EC33FCED33FDEE1C
:1003330033FEEF33FFC3EC9709ED9709EE9709EF0F
:1003430097191919400FFFEC97FC09ED97FD09EE7A
:1003530097FE191906D5F0BEECF709EDF709EEF78C
:1003630009EFF7191919D0E0FCD0E0FDD0E0FED079
:10037300E0FF222518C582C0E0E51934FFC583C01C
:10038300E0E518C3958224F810AF088583198582A8
:10039300188008858319858218D2AFCEF0A3E52093
:1003A300F0A37808E608F0A3DEFAEFF0A3E58124D2
:1003B300FAF8E608F0A3E608F0A3E608F0A30808B5
:1003C300E608F0A3E608F0A315811581D0E0FED07E
:1003D300E0F8158115811581E8C0E0EEC0E022C088
:1003E300D02518C582C0E0E51934FFC583C0E0E518
:1003F30018C3958224F310AF08858319858218806A
:1004030008858319858218D2AFC8F0A3E9F0A3EA5F
:10041300F0A3EBF0A37908E709F0A3D8FAECF0A373
:10042300EDF0A3EEF0A3EFF0A3D0E0F0A3D0E0F063
:10043300A3D0E0F0A3E520F0A3E5F0F0A322851913
:1004430083851882E0C0E0A3E0F9A3E0FAA3E0FB10
:10045300A37808E0F608A3DFFAE0FCA3E0FDA3E03D
:10046300FEA3E0FFA3E0C0E0A3E0C0E0A3E0F5D07B
:10047300A3E0F520A3E0A3F5F010AF088583198569
:1004830082188008858319858218D2AFD082D083E1
:10049300D0E0F8D0E032120AFBB900030204DBE437
:1004A300900301787A790C8002F0A3D8FCD9FA90F2
:1004B3000E7AAA82AB83900086787579018015E461
:1004C30093A3AC82AD838A828B83F0A3AA82AB838E
:1004D3008C828D83D8E9D9E77582347583FD7403E3
:1004E30012084C7582E5758320740012084C0E00C7
:1004F3000975F0108E1A8F1B85821F85831E851840
:1005030082851983E0CEA3E0CF851F82851E83EB0E
:10051300C9EAC8EDCBECCAC3E833C8E933C9EA3347
:10052300CAEB33CBC3EA9EF51DEB9FF51CB3500416
:10053300AB1CAA1DEC33CCED33CDD5F0DAAE1AAF3C
:100543001B22D083D082ECC0E0EDC0E0E493A3FC97
:10055300E493A3FDED4C600D120661EC24FFFCED6A
:1005630034FFFD80EFE493A3FCE493A3FDED4C6023
:100573000D120734EC24FFFCED34FFFD80EFD0E0D7
:10058300FDD0E0FCE493A3C0E0E493C0E02285192E
:1005930083851882E0A3FEE0A3F5207808E0A3F6A4
:1005A30008DFFAE0A3FFE0A3C0E0E0A3C0E0E0A31C
:1005B300C0E0E0A3C0E0E0A3C0E010AF088582186C
:1005C3008583198008858218858319D2AFD083D09B
:1005D30082020852D083D082E9C0E0E493A3C386A9
:1005E300F0C5F095F0F908E493A386F0C5F095F013
:1005F300700BE493A3C3994005E9048002A3E47557
:10060300F002A42582F582E5F03583F583D0E0F985
:10061300E493A3C0E0E493C0E022C0E074F21203C9
:10062300E2A2AFE433FED2AFE589A2E45003121B8A
:10063300A5758900C2C5EEA2E092AF7F0102044115
:10064300C0E074F21203E2A2AFE433FED2AFE58B53
:10065300A2E05003121BA5758B00C2E880D8C0E04E
:10066300C3E49396087401939618400FE49366705D
:100673000808740193661870007019A3A3C3E49368
:1006830096087401939618A3A3400DD0E0D0E0D050
:10069300E0020581A3A3A3A3A3A3D0E022D083D028
:1006A30082C5F0E493A3C5F0C395F0F5F0E493A3FA
:1006B300C395F04005E5F0048001E475F002A4253C
:1006C30082F582E5F03583F583E493A3C0E0E493F8
:1006D300C0E0227404800474028000CCC0E0EDC04A
:1006E300E0E518C39CCCAD1950011D10AF068C1862
:1006F3008D1980068C188D19D2AF1207CED0E0FD6C
:10070300D0E0FC2274028000CCC0E0EDC0E0E5182C
:10071300C39CCCAD1950011D10AF068C188D1980E8
:10072300068C188D19D2AF1207ACD0E0FDD0E0FCD7
:1007330022C0E0C0F088F0E4936670080874019367
:1007430066187000A8F0A3A3700BD0F0D0E0D0E03F
:10075300D0E0020581A3A3D0F0D0E022D083D082E1
:10076300CCC0E0E493A3600612082D1470FAE4935E
:10077300A3600612091E1470FAD0E0FCE493A3C030
:10078300E0E493C0E022C0E074F21203E2A2AFE41B
:1007930033FED2AFC2C0E5D1A2E45003121C11EE66
:1007A300A2E092AF7F01020441CAC0E0E493A3C573
:1007B30082CCC582C583CDC583F0A3C582CCC58257
:1007C300C583CDC583DAE5D0E0CA22CAC0E0E0A381
:1007D300C582CCC582C583CDC583F0A3C582CCC5F4
:1007E30082C583CDC583DAE6D0E0CA227009080842
:1007F30008226016181818C6C333C608C633C608BD
:10080300C633C608C633C6D5E0EA22C008C3E0969D
:10081300F50808A3E096420808A3E096420808A357
:10082300E09645087001D3D00822C0E0E493A3D337
:100833009C5010E493A3C39C400AD0E0D0E0D0E0E6
:1008430002077CA3A3A3D0E022C09FF59FE473D04B
:100853009F22D083D082C09FE493C0E0740193C0F1
:10086300E0740293F59F227404800A740380067473
:100873000280027401C0E0F404120885D0E0120A79
:10088300D6222518F58210AF08F5184002151980F5
:1008930008F51840021519D2AF85198322BB01024E
:1008A300E722C082C08389828A83BB0003E080027F
:1008B300E493D083D08222C0D0251810AF08F51856
:1008C300500205198008F51850020519D2AFD0D08F
:1008D30022C0E0C0D0E8C0E0E5A8D2AFC2C7A2E71B
:1008E30092AFD0E0F8D0D0D0E0326016080808C646
:1008F300C313C618C613C618C613C618C613C6D55F
:10090300E0EA22C3E0C696F608A3E0C696F608A37B
:10091300E0C696F608A3E0C696F622C0E0E493A3E9
:100923006C7009D0E0D0E0D0E002077CA3A3D0E054
:1009330022251810AF08F518400215198008F5187C
:1009430040021519D2AF22E76670100809E76670F6
:100953000A0809E76670040809E76622E066701072
:1009630008A3E066700A08A3E066700408A3E066C3
:1009730022C3E09608A3E09608A3E09608A3E096B6
:10098300A2D265D03322C3E096F008A3E096F00824
:10099300A3E096F008A3E096F022E026F008A3E097
:1009A30036F008A3E036F008A3E036F022E627F697
:1009B3000809E637F60809E637F60809E637F622A6
:1009C300E026F608A3E036F608A3E036F608A3E02F
:1009D30036F622C0E0E8C0E0E58124FCF8E6A2E7B1
:1009E300D0E0F8D0E022E647F60809E647F6080922
:1009F300E647F60809E647F622E657F60809E657FA
:100A0300F60809E657F60809E657F622E056F6080F
:100A1300A3E056F608A3E056F608A3E056F622E054
:100A230056F008A3E056F008A3E056F008A3E056FA
:100A3300F022700422600D18C6C333C608C633C63D
:100A4300D5E0F41822E4C396F608E496F608E49693
:100A5300F608E496F622600D08C6A2E713C618C688
:100A630013C6D5E0F322C6F4C608C6F4C608C6F416
:100A7300C608C6F4C622C3E7960809E7960809E73D
:100A8300960809E79622C3E09608A3E09608A3E038
:100A93009608A3E0962275D00075814075180175FC
:100AA300190300020499E0F608A3E0F608A3E0F6B0
:100AB30008A3E0F622600C08C6C313C618C613C603
:100AC300D5E0F422E6F008A3E6F008A3E6F008A3D5
:100AD300E6F022CAC0E0E6F0A308DAFAD0E0FA2290
:100AE300E0FAA3E0FBA3E0FCA3E0FD22EAF0A3EB22
:100AF300F0A3ECF0A3EDF022E5C754F84401F5C7E9
:100B03007901222518F582E43519F58322C2AF75E0
:100B1300D69F0200002212085524E30212085571E1
:100B2300E40212085514E5021208555BE6021208A6
:100B33005579E602120855FC24001208550E2500CB
:100B4300120855602500120855C125001208554B9F
:100B53002600120855EF26001208554327001208F5
:100B6300555C2700120855822700120855BD27003F
:100B73001208550128001208552828001208557933
:100B83002800120855292900120855E129001208E6
:100B930055A92A00120855692B00120855AD2B00E0
:100BA300120855D22B00120855152C001208556255
:100BB3002C00120855BA2D00120855402E001208B9
:100BC300555E2E00120855882E00120855A22E00DD
:100BD300120855B12E00120855BC2E001208557C80
:100BE3002F00120855D52F00120855973000120810
:100BF300559F3000120855633100120855CF31005C
:100C0300120855FA32001208551F33001208559581
:100C130033001208552734001208557F3400120898
:100C2300553F35001208555E35001208556D3600E4
:100C33001208557F3600120855EE36001208554348
:100C43003800120855753800120855083900120883
:100C5300554139001208558D3900120855A93A003B
:100C6300120855F23C00120855FD3C0012085508C5
:100C73003D00120855133D001208551D3D00120892
:100C830055283D00120855423D001208554C3D00C1
:100C9300120855563D00120855613D00120855894A
:100CA3003D00120855E43D00120855EE3D001208C0
:100CB30055123E00120855363E00120855943E0068
:100CC300120855D83E00120855F43E001208556B21
:100CD3003F00120855A33F00120855EF3F001208CA
:100CE300554C4000120855064100120855EA4200CF
:100CF30012085543430012085573440012085599CE
:100D030044001208552246001208559E4900120855
:100D130055704B00120855394D00120855E64D0029
:100D2300120855514F00120855F04F00120855355F
:100D330050001208559F5000120855AE500012087B
:100D430055355300120855E7540012085554550001
:100D53001208553356001208554C5700120855C94E
:100D63005800120855E858001208553D590012085A
:100D730055425A001208556A5A00120855C25A00C1
:100D8300120855A15B00120855E55B0012085530A7
:100D93005C001208559B5C00120855DC5D001208CC
:100DA30055405E001208558E5F00120855EE610033
:100DB3001208551F6200120855D763001208552CFC
:100DC3006400120855306500120855CD65001208FD
:100DD30055266600120855D966001208557B670030
:100DE3001208551B6800120855C06800120855AC5C
:100DF3008101120855EB8101120855328401120852
:100E0300557C8401120855978501120855FF850109
:100E1300120855348601120855A887011208552B6C
:100E23008A01120855548B01120855EA8B011208E6
:100E330055F294011208558795011208556E9801D1
:100E4300120855619901120855CF990112085515D9
:100E53009B01120855F79B01120855DC9D011208EE
:100E630055ED9F0112085557A00112085529A101FC
:100E730012085557A10112085514A201120855EB87
:100E8300A201120855B2A30112085556A401120873
:100E9300557FA401120855A1A401120855F7A60114
:100EA300120855CFA70112085513A8011208557B44
:100EB300A80112085533A90112085565A9011208A2
:100EC30055A9A901120855DFA9011208552BAA013A
:100ED30012085580AA0112085585AA01120855D88F
:100EE300AA01120855FDAA011208550CAC011208FB
:100EF3005570AC01120855E0AC011208556CAD01F8
:100F030012085539B0011208551DB101120855A038
:100F1300B201120855D6B40112085584B50112085E
:100F23005534B60112085575B80112085518B901A0
:100F33001208555FB9011208550BBB011208551F62
:100F4300BB0112085529BB0112085551BB011208F8
:100F5300555DBB011208557CBB011208559CBD01B0
:100F6300120855EBBE011208552FBF01120855D7C1
:100F7300BF01120855BAC00112085565C101120814
:100F830055B1C201120855AFC30112085555C4012A
:100F9300120855E5C401120855FCC4011208553363
:100FA300C5011208553DC50112085548C50112086F
:100FB3005566C501120855AAC50112085507C60191
:100FC3001208552CC60112085546C601120855D2FF
:100FD300C601120855EFC7011208555CC801120873
:100FE3005543C9011208556AC901120855DEC901E2
:100FF30012085559CA011208555DCB011208555301
:10100300CC0112085502CD0112085515CE01120864
:1010130055B1CE011208553ECF011208551CD0011F
:1010230012085554D001120855ACD0011208557559
:10103300D10112085596D1011208551DD20112088B
:101043005541D20112085563D201120855ACD201A1
:10105300120855C2D401120855A9D5011208555AD0
:10106300D60112085590D801120855E0D80112088C
:101073005520D90112085562D901120855BED9016C
:10108300120855ECD90112085510DA0112085563FC
:10109300DA0112085591DA01120855CADA01120869
:1010A300551FDB0112085585DB01120855D9DC01F8
:1010B300120855FCDE0112085569DF01120855922A
:1010C300DF011208551DE00112085584E0011208E2
:1010D30055CFE001120855F3E00112085517E1015D
:1010E30012085572E1011208558DE10112085546A7
:1010F300E201120855489A04120855879A04120807
:1011030055788002120855BE80021208559E81024E
:10111300120855A08202120855A383021208552F04
:1011230085021208558D85021208554A8602120857
:1011330055688702120855D9870212085515880287
:101143001208556388021208556D8802120855B1BA
:1011530088021208550D8902120855A8890212083F
:1011630055258A02120855F48A021208558D8B02FE
:10117300120855AD8B02120855E38B021208551461
:101183008C02120855D58C02120855E58C02120800
:1011930055398D02120855548D02120855668D0279
:1011A3001208556F8D02120855C98D021208552574
:1011B3008E02120855718E021208558C8E02120887
:1011C30055BD8E02120855DA8E02120855E68E02BC
:1011D3001208555A9002120855739002120855DAF4
:1011E3009002120855ED9002120855FB9002120866
:1011F30055AF910212085593920212085599930222
:101203001208552394021208552D94021208559A78
:101213009402120855B19402120855E3940212087D
:10122300551C9502120855469502120855A79502BA
:10123300120855C79502120855E595021208552B59
:1012430096021208555197021208559E97021208EA
:1012530055CD97021208554398021208556B980210
:10126300120855A49802120855B298021208550A9A
:1012730099021208555999021208559899021208B1
:1012830055C89902120855F49902120855FF99029C
:101293001208551D9A02120855DF9A02120855E9E1
:1012A3009A02120855249B021208553A9B0212080F
:1012B300558F9B02120855A39B02120855B19C023D
:1012C300120855C49C02120855D99C021208557B7A
:1012D3009D02120855FE9D02120855BC9E0212087B
:1012E30055C79E02120855F39F021208550FA0021C
:1012F30012085561A002120855A0A002120855B5A4
:10130300A00212085517A102120855A6A10212083D
:1013130055F1A10212085542A402120855C0A402B5
:1013230012085535A50212085557A7021208556F22
:10133300A70212085572A7021208557EA7021208C7
:101343005592A7021208559AA702120855CDA70273
:101353001208557DA802120855F3A8021208556613
:10136300A9021208551AAA02120855CFAA02120896
:1013730055EEAA021208558EAB021208559AAB021B
:10138300120855C5AB02120855C8AB0212085532F4
:10139300AC021208555AAD0212085532AE021208B9
:1013A30055BDAE02120855D6AF0212085593B002CE
:1013B300120855CCB002120855FDB002120855BBF5
:1013C300B102120855EBB102120855C6B202120857
:1013D300555FB302120855EAB3021208559BB402D3
:1013E3001208551EB50212085550B5021208559140
:1013F300B502120855B1B00312085516B10312080D
:101403005553B103120855A2B103120855B8B303DB
:101413001208559BB50312085505B9031208554028
:10142300B90312085562B903120855C5B903120866
:1014330055F9B9031208551CBA0312085549BA03E2
:10144300120855A5BA031208559B9A031208551999
:101453009B031208554F9B03120855BB9B031208AD
:10146300552E9D031208554A9D031208558F9D035F
:101473001208551D9E03120855769E03120855A3A4
:101483009F03120855B5A00312085512A1031208B1
:10149300557EA103120855DFA10312085520A203AC
:1014A300120855CDA203120855DFA3031208550AEB
:1014B300A40312085555A4031208559CA40312084B
:1014C300552EA503120855E9A50312085592FE01EE
:1014D300120855A3FE01120855F4FE0112085539EE
:1014E300FF01120855E3FF0112085569960412081B
:1014F30055B78E041208550F900412085560A603C1
:1015030012085505A70312085525A70312085545C8
:10151300A70312085559A703120855B1A7031208C8
:1015230055E1A70312085562A90312085508AA0337
:10153300120855EAAA031208553BAB031208557E5D
:10154300AB03120855C1AB0312085571DA02120836
:101553005548AC03120855D4AC0312085505AD0326
:1015630012085579AD0312085527AF031208550128
:10157300B00312085543B0031208559DB003120877
:1015830055338B04120855548B041208558A8C0466
:10159300120855B48C0412085573FA03120855ED5A
:1015A300FA03120855CFE00212085519FB0312087B
:1015B300555E8E03120855618E031208551B8F0367
:1015C300120855468F031208558D8F03120855B222
:1015D3008F03120855D38F0312085507900312087F
:1015E30055409003120855699103120855A09103C1
:1015F300120855C091031208555B92031208552037
:101603009303120855579303120855CC94031208F9
:10161300556F950312085568960312085591960362
:10162300120855E59603120855AB9703120855D9CE
:1016330097031208556E9903120855EF9903120880
:1016430055229A03120855ABCB03120855F7CB0367
:1016530012085565CC0312085586CC031208559D14
:10166300CC031208554DCD0312085556CD0312086D
:1016730055A9CD03120855D2CD0312085539CE030F
:10168300120855CACE031208550CCF03120855563B
:10169300CF03120855B5CF03120855E1CF03120843
:1016A3005572D003120855B1D003120855F0D00378
:1016B30012085525D10312085537D103120855498D
:1016C300D10312085568D10312085571D1031208CA
:1016D3005527D20312085567D203120855BEE003FB
:1016E30012085591E103120855ABE103120855BCEA
:1016F300E103120855D1E303120855F0E30312087E
:10170300551987041208554F870412085598870402
:10171300120855E888041208550C69001208554B45
:101723006A00120855876A00120855466C001208B1
:10173300556F6C00120855026F00120855466F0072
:10174300120855CF7000120855677100120855CF63
:101753007100120855707200120855B27200120817
:1017630055F272001208557D7400120855ED75008C
:101773001208551278001208554078001208556770
:101783007800120855707800120855CB78001208BB
:10179300555E79001208557C7C00120855FD7C00CB
:1017A300120855609B04120855769B04120855AB2A
:1017B3009904120855C8F303120855DBF303120802
:1017C3005578F403120855B3F403120855CEF40305
:1017D300120855F3F40312085538F5031208556936
:1017E300F5031208559AF50312085520F70312085A
:1017F300553BFF0212085571FF021208558DFF0277
:10180300120855CFFF02120855DFFF02120855E9EF
:10181300FF021208552DF703120855CCF7031208DF
:1018230055A0F80312085560F903120855B4F903DB
:10183300120855F8F9031208550080031208555889
:101843008003120855418103120855DA81031208F7
:1018530055248203120855818203120855DA820344
:10186300120855EE82031208552083031208551EF1
:1018730084031208558284031208559D84031208B9
:1018830055EC84031208550285031208550F85038E
:101893001208554385031208555C8503120855ED5C
:1018A3008503120855FC8503120855848603120824
:1018B30055DE86031208552C87031208554E8703FD
:1018C300120855C58903120855FA89031208558A67
:1018D3008A03120855FF8A03120855048B03120862
:1018E30055408B03120855968B031208555A8C03E7
:1018F3001208557F8C03120855898C031208558CE6
:101903008C03120855158D03120855308D031208E8
:1019130055438D031208556F8D03120855AA8D0385
:10192300120855AD8D03120855B88D03120855F4EE
:101933008D03120855078E031208552E8E031208C5
:1019430055FB9904120855139A041208552DC40324
:101953001208557CC4031208551EC603120855DC31
:10196300C70312085524C80312085546C9031208B1
:101973005577CA0312085599CA03120855F5CA03C5
:1019830012085577CB0312085580E201120855A1BE
:10199300E2011208552BE301120855B0E3011208C6
:1019A300552CE40112085595E401120855E1E401B0
:1019B30012085560E501120855F2E5011208557E3B
:1019C300E601120855C0E6011208552CEB01120876
:1019D30055ACEC01120855EBEC01120855D2ED01A0
:1019E300120855D5ED0112085589EE01120855BEAE
:1019F300EF01120855A9F10112085529F401120843
:101A030055E2F401120855FFF50112085556F90184
:101A130012085566F901120855C7FA011208555301
:101A2300FB0112085587FC0112085578FD011208C5
:101A330055FAFD01120855A0E6021208555AE702AD
:101A4300120855CCE702120855DBE7021208555578
:101A5300E802120855C4E802120855CBE90212083D
:101A630055F4E90212085594EA02120855E2EA0213
:101A730012085552EB021208550BEE02120855E2FA
:101A8300EE021208554FEF02120855CCF00212086D
:101A93005580F1021208552EF20212085589F202FE
:101AA300120855F4F202120855F4F302120855CE47
:101AB300F502120855E1F6021208557AF7021208E8
:101AC30055ECF702120855B2F80212085524E9033F
:101AD30012085578E903120855D0E9031208551B7B
:101AE300EA031208557DEA03120855E9EA031208CE
:101AF300559CEB03120855DDEB03120855F3EB037A
:101B03001208554FEC031208558DEC03120855C308
:101B13008404120855F48404120855AE850412088F
:101B230055148604120855858604120855BAFD0318
:101B330012085546FF031208555C97041208556DA9
:101B430097041208550D9804120855048D041208C1
:101B530055128D04120855ECFF02120855C798045C
:101B6300120855D79804120855EF980412085550D7
:101B73009904120855679504120855EC9504120848
:101B8300555096041208555E90041208557A900435
:101B9300120855D19004120855F190041208552EDD
:101BA3009104120855899104120855E7FF0312089E
:101BB30055EAFF03120855EDFF03120855F0FF0322
:101BC300120855F3FF03120855BEEC03120855CC57
:101BD300EC0312085546ED031208552AEE031208CA
:101BE30055E3EF031208553E9B0412085506FA020B
:101BF30012085573FA0212085534FB02120855A451
:101C0300FB02120855ADFC0212085525FE0212080C
:101C13005589FE02120855DEFE02120855E7FE0240
:101C2300120855F6FE0212085509FF021208551F45
:101C3300FF0212085528FF021208554DD703120858
:101C430055A2D7031208559ED903120855D0D903BC
:101C5300120855F2D9031208550BDA03120855245A
:101C6300DA031208552EDB03120855C9DB031208E9
:101C730055C09104120855E49104120855FD9104CE
:101C83001208553092041208556192041208558FB8
:101C93009204120855F19204120855009304120895
:101CA300550A9304120855179304120855647D00CE
:101CB3001208558A7D00120855C77D00120855D6B3
:101CC3007D00120855F57D001208555D7E0012084F
:101CD30055667E00120855C57E00120855E97E0040
:101CE300120855A87F00120855B57F00120855C683
:101CF3007F00120855D59A04120855F29A04120867
:101D03005540DC031208559EDD03120855ABDD0375
:101D1300120855BEDD03120855DDDD03120855F325
:101D2300DD0312085507DE031208557CDE03120893
:101D330055E1DE0312085591DF0312085566E003EF
:101D430012085576E00312085585E0031208552E54
:101D530098041208555298041208557A98041208E8
:101D630055A29804120855008004120855278004D0
:101D7300120855488004120855AD800412085566B0
:101D830082041208557F82041208558B82041208BC
:101D9300559F8204120855BD8204120855C7820458
:101DA300120855D18204120855E4820412085537EB
:101DB30083041208557083041208559F8304120884
:101DC30055ED83041208553C8404120855578404C6
:101DD300120855618404120855728404120855B818
:101DE30084041208555A9904120855F1BA031208CB
:101DF300551BBB0312085537BB031208554ABB03D7
:101E030012085560BB03120855BDBB03120855F0F9
:101E1300BB031208552CC00312085552C103120804
:101E23005585C103120855D1C103120855FDC203DC
:101E330012085525C3031208553AC3031208554A1D
:101E4300C3031208558EC303120855EFC3031208C8
:101E530055FFC3031208552193041208553C9304FC
:101E63001208556593041208557F9304120855A46C
:101E73009304120855C39304120855DB9304120804
:101E830055099404120855239404120855919A0491
:101E930012085548F0031208554FF0031208555B1A
:101EA300F1031208558BF103120855B1F10312081F
:101EB30055D4F103120855F6F10312085530F20315
:101EC30012085596F203120855CFF2031208551B58
:101ED300F30312085548F30312085568F303120875
:101EE300554B8904120855638904120855518A0415
:101EF300120855308B04120855549404120855C621
:101F030094041208550495041208554595041208C3
:101F13005549E50312085568E503120855B7E5036B
:101F2300120855D3E50312085504E60312085514A5
:101F3300E60312085521E6031208552EE60312089C
:101F4300551AE70312085558E70312085562E703C9
:101F530012085572E8031208557DE8031208558FDD
:101F6300E80312085598E803120855A2E80312087B
:101F73005590D203120855D5D603120855E3D6035C
:101F8300120855119B04120855D3D7021208559C09
:101F9300D602120855F0D50212085536D40212089B
:101FA30055E6D1021208556DD10212085514D1021B
:101FB300120855A4D0021208557BD0021208555BB3
:101FC300CE0212085527CE02120855F4CD0212088C
:101FD30055D8CD02120855F1CC02120855A9CC02EE
:101FE300120855F4CA0212085574CA021208557130
:101FF300CA021208556EC9021208553CC9021208DA
:102003005579C802120855A4C602120855EDDF021D
:10201300120855D1DF0212085555DF021208550C7C
:10202300DF02120855C4DE0212085535C602120833
:102033005507C60212085504C602120855F1C50217
:1020430012085512DE021208559CC5021208558B60
:10205300C5021208557DC40212085547C40212086E
:102063005584DD02120855F8FA03120855F5C30228
:1020730012085596C30212085565C3021208552D5E
:10208300C002120855EDBF02120855E1BF02120843
:102093005541BF0212085581BE0212085503BC0206
:1020A30012085594B90212085552B902120855265E
:1020B300B802120855DBB7021208551AB702120804
:1020C30055EDB60212085530B602120855C6B502D0
:1020D30012085500B60212085577DD02120855277B
:1020E300AC0300000080FBE47300013636010100FD
:1020F30001020100010301000104010606050200BB
:1021030000070100340801000F090401010D01005B
:10211300FF0E08000017020000190100FF1A01005A
:10212300011B0100FE1C0100081D0200001F01002D
:102133000120010001210200002301000F240200FD
:10214300002601000127010008280200FF2A0100E0
:10215300072B0102402C0100002D0100012E01007C
:10216300012F0100FF30010B1C310800003A010070
:10217300083B01000F2F01000003027102300160D0
:1021830002110270020102020202028002100261C5
:10219300023A0041006302730272026202430200C8
:1021A30002130238000002000204021202000200BD
:1021B300020002000204020402370037003C02441A
:1021C30002000239000002000265020002350281AA
:1021D3000200020502820283020002030071003042
:1021E30001600011007000310220035004800010D0
:1021F300006100000014006300730072006200437A
:10220300000000130006000000000004001200009C
:102213000000000000000004000400370037003C09
:1022230002440000000000000000006500000035CB
:10223300008100000005000000830000000304711A
:102243000402046004110470040204020401040281
:10225300041004610400041404630473047204622C
:1022630004430400041304060400040004040412D9
:10227300040004000400040004510464000004008A
:102283000400044404000400040004000465040082
:10229300043504810464000504000483040004017C
:1022A3000371030103010301030103010322030279
:1022B30003010310030003000300030003000300F2
:1022C3000300034203000324030603000300030483
:1022D3000312032503230325032303040304030039
:1022E3000300030003440300030003230300036507
:1022F30003210035038103000305030003000300EA
:102303000301017101010101011101010131010108
:102313000101018001100161013B0014006301739D
:10232300017201620143010001130106013D013500
:102333000004011201000100010001000104010475
:1023430001330133013C0144013201360000010035
:10235300016501000135008101000105018201834E
:1023630001000136000100060000000F000000001C
:1023730000000000000000000003FFFF0000040352
:10238300FFFF0000FFFF0FF4010005C4040320005A
:102393000100000B000000000000000003010F001B
:1023A30000731A1300EF190100731A0200A719032F
:1023B30000AD190400B3190500B9190600C51911B8
:1023C30000E3191400E9191500D719FFFF000001F4
:1023D300370E06670E08610E0B730E10B30D023D28
:1023E3000E05550E07430E0C190E0D2B0EFF0000A4
:1023F30003EAF5E5D5D5C5B5A595958585757565C7
:102403006555554545353525251515053F126F127B
:1024130045124B1269125D12571275127B1281120B
:102423008D1251123912331200160F00000B150BC7
:10243300020002220F320000062F13411347130933
:10244300124D1303120F1243113D1179117F1173B2
:10245300112B118F13AD13B3139513A1139B1330CA
:102463003016181920231A1C1E300C0E020B040BF5
:102473000A0708000F00383C3E363B3B352B432C04
:10248300303017181921301B1D1F30000119161881
:1024930016161523030000034948424D1817250556
:1024A3000283135313591365135F1363128712A720
:1024B30013931299120204020101010109024F113F
:1024C3005511491185110000000000005B116D11C9
:1024D30000BE040A150004007F00E8030C00280076
:1024E300000000000308100C0A030809000400019F
:1024F300FF1E1E0C05040F1008C082C0838A828B46
:1025030083E0D2E7F01218F90236CBC082C0837998
:10251300001229C8125898C082C08390033412460F
:102523001ED083D082C3E09CA3E09D500C125F6C4D
:10253300FAA3E012253F6001090236CBFBEA75F0EE
:102543000BA4FAA8F075F00BEBA428FB900336E07C
:102553002AF8A3E03B8882F583E0540F2274F71234
:10256300037689081229C8122A6EACF075F00BE9BC
:10257300A42CF9900336E028FEA3E039FF7401652B
:102583000860067402650870208A828B83122A5AB7
:102593001238FA74026508701B122919122AA170E5
:1025A300138E828F83E4F0800BEA2403FCEB122A60
:1025B3003C122A48EEFAEFFB120B3702385774F439
:1025C30012037612689379008E828F83E060768996
:1025D3000A890B8065E50A75F00BA4FAA8F075F07B
:1025E3000BE50B12254C7046E50A75F00BA4F8AA0F
:1025F300F075F00BE50B122A808E828F83E085083D
:1026030082850983122B62850882850983A3123888
:10261300FAEE2403FCEF122A451236D8125312AAFB
:1026230008AB09120B377901900334124D27E50AE1
:102633002401F50AE50B3400F50B122921E50A9A6A
:10264300E50B9B4090023AA474F5120376EAFEEB85
:10265300FF740B120B061236DD750A01EC4D602B6D
:10266300EC1268AFED1258981238F27901120B434D
:10267300E5084509606F850882850983A312689D73
:102683007902AA08AB09120B43805AE50845096091
:102693002B12589C123F661236D9122A8B700CEEFD
:1026A300FAEFFB120B49E9F50A80CBEE2403FA1289
:1026B30029C370317903EEFAEFFB80CA8E828F83D0
:1026C300A3E064FE7003A3E0F4700BEE24030A0A94
:1026D3000A1229C3700CEEFAEFFB120B49E9F50A53
:1026E3008003750A00A90A7F0302059174F7120398
:1026F30076900334123867EA4B602FEA75F00BA427
:10270300FAA8F075F00BEBA428FBEAFEEBFF121717
:102713000D900336123867900336124B6C6012EE3D
:10272300FCEFFD79001216538007900336E4F0A303
:10273300F00238579003341242D6C3EE98EF992231
:10274300C082C083EC4D6005121F0B80097C087D9D
:102753000079001216530236CB74F6120376790011
:10276300EA4B601878008808125BDFEB125F686041
:10277300047901780808E8C3940840EA023903742D
:10278300F712037674F3120934ECFEEDFF85188219
:10279300851983E4F004120B06EAF0A3EB125098B8
:1027A3007403120B06AC82AD83EEFAEFFB120B5BE4
:1027B300EEFAEFFB120B6102385274F712037674D0
:1027C300F3120934ECFEEDFF851882851983E4F0DA
:1027D300EAFCEBFD7403120B06122B5B7401120B64
:1027E300061238EE8E828F831238FA74FE687003F5
:1027F30074FF69600479018002790002385274F72A
:10280300120376EAFEEBFF12285F701412286A8E19
:10281300828F83E0F4F88A828B83E058F0120B37BF
:10282300A90802385774F7120376EAFEEBFF75081E
:10283300008E828F83E0602212285F701D12286A47
:102843008A828B83E08F838E82F8E058700CE0F8E5
:102853008A828B83E048F0120B3780C4120B3DE968
:10286300F50874016508221268A8122A721229B4A5
:10287300FAA3E039FB2274F41203768A088B097CED
:10288300007D00122919122A481229D912689A794F
:1028930000850882850983A3E064FE7003A3E0F446
:1028A30060717E007F008062EEFAEF12253F605771
:1028B300EEFAEFFBEA75F00BA4FAA8F075F00BEB58
:1028C300A428FB900336E02AF50AA3E03BF50B8529
:1028D3000882850983A3124FE6850A82850B83A3A9
:1028E300E06A7003A3E06B701EE50A2403FAE50BAC
:1028F3001229C4700AE50A2403FCE50B122A4512C7
:1029030029CD79011258AE1232B8122921EE9AEF6D
:102913009B4095023AA4EA24030A0A0AEB22900395
:1029230034125485C32274F31203768A088B098AFE
:10293300828B83A312689D1229C812689A750C00B2
:102943001229191229C470547E007F00804912296C
:10295300A6FAA3E0398A82F583E0540F6036122980
:10296300A6F50AA3E039F50BE50A2403FCE50B12EF
:102973002A4F3400FB121F05E964017017850A8290
:10298300850B83A3125546A31238FA1229CD750C71
:10299300011258AE1232B812273740B2A90C7F0584
:1029A300020591EEF8EFF9E875F00BA4F81229B4DB
:1029B30022AAF075F00BE9A42AF9900336E0282245
:1029C300EF122A9B221268AEEB221229D91258A9C0
:1029D300EEF0A3EFF022E5081268AFE5092274F5E3
:1029E300120376EAFEEBFF8E828F83A312689D7C2F
:1029F300007D00EE24030A0A0AEF122A48EEFAEFDA
:102A0300FB120B3DE9F50A7401650A70291268A8E7
:102A1300122A6EAAF075F00BE9122A80850882F556
:102A230083122A5A122A8B700DE5082403FCE50948
:102A3300122A3C122A480226E83400FDEE2403FA47
:102A4300EF22122A4F3400FB120B5B223400FDE508
:102A5300082403FAE50922A3122A5F22122A632219
:102A6300E0F8A3E0F98E828F83A322122A72223424
:102A730000F5831242DAE875F00BA4F8221229BAA2
:102A8300F508A3E039F50922E8F0A3E9F0E5082405
:102A930003FAE509122A9B22122AA16401223400B7
:102AA300FB120B61E92274F312037674E612093404
:102AB300126893750C01750800750900750A007595
:102AC3000B00851882851983E4F0EE2403FCEF34B0
:102AD30000FD7403120B06122B5BE964017023746F
:102AE3000B120B061238F27401120B06124FEA7026
:102AF30003A3E0696051851882851983858208855F
:102B03008309740D120B06E4122B62740E120B066A
:102B13001238FA740D120B06AA82AB83120B7FE9EB
:102B23006401700B740D120B0685820A85830B7882
:102B33000A120872AC08AD09EEFAEFFB120B4F74E0
:102B4300021208BAE9F50CEEFAEFFB120B79A90CA5
:102B5300741A1208BA0229A1122E2E120B85221200
:102B630038621242D622C082C08378007900800383
:102B7300122C59122921E89AE99B5029E8FAE9FB1A
:102B8300EA75F00BA4FAACF075F00BEBA42CFB90F8
:102B93000336E02AFCA3E03B8C82F583E0540F70FC
:102BA300CF7900800279010236CBC082C0839024A2
:102BB300D712432CEC75F012A4FCA8F075F012EDBB
:102BC300A428FD79FF7A227B091216530236CB74AF
:102BD300F7120376E9FEEAFF7A007B0078007900BA
:102BE3008028E8FCE9FDEC75F012A4FC85F008757B
:102BF300F012EDA4250812306EC39E400AE0FCEFEC
:102C0300C39C400312318D122C5912306240D302FF
:102C13003857C082C083780079008003122C591280
:102C23002C4D501F123072F470F2E875F012A4F8B4
:102C3300AAF075F012E9A42AF9742228FA74093962
:102C4300FB80047A007B000236CB9024D712312319
:102C5300C3E89AE99B22E8240108E93400F92274C5
:102C6300F012037674F31209348A0A8B0B8C0C8DE1
:102C73000D8908EC450D6016AA0CAB0D120BD38A17
:102C83000E8B0FAE0EAF0FEE4F6003022D20120B13
:102C9300A98A0E8B0FA80EA90FE8FEE9FFE8496089
:102CA3007C9024E5122D826022740365086006740B
:102CB30004650870167A047903120BA39024E512B5
:102CC3002D9940077A007B00022D7F9024E3122D7B
:102CD30082601B74016508600674026508700F7AD0
:102CE300027901120BA39024E3122D9950D6851873
:102CF300828519837401F0120B06125312AC0CADCA
:102D03000D7403120B06122E27740B120B061236C8
:102D1300E5123CDAE41252FA1210838004EE4F609B
:102D23004A780074FF2508C39404500278048E8205
:102D33008F831253128E828F83A3A3A3A3E508F07C
:102D4300E88E828F83A3A3A3A3A312531A1202258F
:102D530012313A8E828F83A3A3A3A3A3A3A3F0125A
:102D63003131120AE3125892120AEF122D874005ED
:102D7300900E7EE4F0120F5DEEFAEFFB0242E012DA
:102D8300543449227A047900120BA39024D7125F9A
:102D93004EEA98EB9922122DB27583247582D7E4FB
:102DA30093C398F8A3E49399F9C3EA98EB9922E4BF
:102DB30093F8740193F92274F212037674F31209EF
:102DC300348A088B09ECFEEDFF750A00EEFAEFFB7F
:102DD300120BD38A0C8B0DA80CA90DE849603E8811
:102DE300828983E065087004A3E06509602F888207
:102DF3008983A3A3A3A3E0C394055021125740855D
:102E030018828519837401F0120B06125744EEFCE5
:102E1300EFFD7403120B06122E27750A01A90A741B
:102E23000D024DDE122E2E120B9122AA82AB8312BB
:102E33000B5B851882851983AA82AB832274F612F1
:102E43000376122E7C600FA3A3A3A3E014C3940400
:102E5300500479018002790002390374F612037673
:102E6300122E7C600FA3A3A3A3E014C39402500407
:102E7300790180027900023903120BCD8A828B8398
:102E8300E58245832274F6120376122E7C600BA32F
:102E9300A3A3A3E07004790180027900023903C07F
:102EA30082C083EAFCEBFD7A007B000236C8C08255
:102EB300C0837C007D000236C874F412037674F379
:102EC300120934EAFEEBFF8C0A8D0BC3EC94F8ED88
:102ED30094FF4007EE4F7003022F757508007509C4
:102EE30000802E8518828519837401F01232E01256
:102EF3000B061232EE60137403120B06AC82AD8321
:102F0300EEFAEFFB121F05E97049E50824011231BF
:102F13000E9024D7E412543CE50898E509995052E1
:102F2300E50875F012A4F8AAF075F012E509A42AD1
:102F3300F9125F8160D4EE4F70A974FF650A7004C3
:102F430074FF650B60C41232D0650A7004A3E06598
:102F53000B70B7E50875F012A4F508A8F075F01228
:102F6300E509A428F50974222508FA74093509FB33
:102F730080047A007B00023A9F74F412037674F3A0
:102F8300120934750800120BD38A0A8B0BAE0AAFF1
:102F93000BEE4F602A851882851983740112385C01
:102FA300F8A3E0F9740B120B0612397D120B737C34
:102FB300127D0079FFEEFAEFFB121653750801122A
:102FC3002D875009900E7E7401F0120F5DA908023F
:102FD3003A9F74F7120376E9FE74FE6A700374FF76
:102FE3006B7800790070058052122C5912306250B0
:102FF3004AE8FCE9FDEC75F012A4FCAFF075F012A1
:10300300EDA42F12306EF460E0E8FCE9FDEC75F0FE
:1030130012A4FC75F012EDA42FFD74222CF582741A
:10302300093DF583E06A7003A3E06B70BC8009126D
:10303300307214C394044017122C59122C4D50189B
:10304300EE70EC12307264016005E0640370E91203
:1030530032C1FAA3E0FB80047AFE7BFF023857906B
:1030630024D7124330C3E89CE99D221231C222E8DF
:10307300FAE9FBEA75F012A4FAACF075F012EBA4CE
:103083002CFB74262AF58274093BF583E022120B8C
:10309300E50236CBC082C083790180F274F012035B
:1030A300768A0A8B0B7A047901120BA38A0C8B0D97
:1030B300EA450D603EEAC333FAEB33FB12170D8A80
:1030C300088B09AE08AF09EE4F60237AFE7BFF122F
:1030D3000BEB74FE6A700374FF6B601B85088285BB
:1030E3000983123867E508240212310E80E1750C5A
:1030F3000080047E007F00850A82850B83E50CF047
:10310300EEFAEFFB0242E5E5082407F508E509348A
:1031130000F509229024D7124330C3EA9CEB9D2289
:10312300E493FA740193FB22121647740322125894
:10313300A3E4F090819422E88E828F83A3A3A3A3B8
:10314300A3A3A3A312315C740112315CA3F0EE2498
:10315300101258A6E4F0A3F022123CE6A3A3A32284
:10316300C082C0837A007B0080041912318D123132
:103173001750101231ACC3940550F0E970EC1231C2
:103183009680047A007B000236CBEA24010AEB34F2
:1031930000FB22EA75F012A4FA75F012EBA428FBE7
:1031A30074222AFA74093BFB22EAFCEBFDEC75F06E
:1031B30012A4FCA8F075F012EDA4281231C222FD6E
:1031C30074262CF58274093DF583E02274F712030B
:1031D3007674F31209347E007F00023274E50875B9
:1031E300F017A4F8A9F01261E2FAA3E0FBEEF8EFFE
:1031F300F9E875F012A4F8ACF075F012E9A42C12FA
:1032030032CF6A7003A3E06B603FE50875F017A443
:10321300F8AAF0EA1261E1F8A3E0F97401120B06CF
:10322300E0687003A3E0696020E50875F017A4F86F
:10323300EAF9749E28FC740A39FD7403120B06AA7A
:1032430082AB83121F05E96014E50875F017A4F833
:10325300A9F0749C28FA740A39FB12108F050890A0
:1032630024E9E493F8E508C39850030231E01232ED
:10327300B89024D71265285039EEF8EFF91232C10D
:10328300F47003A3E0F460E6851882851983740162
:10329300F0EEF8EFF9E875F012A4F875F012E9A46E
:1032A3002AF91232E0120B061232EE60C1750800E1
:1032B30080AD023852EE24010EEF3400FF22E87590
:1032C300F012A4F8AAF075F012E9A42AF91232D484
:1032D30022742228F582740939F583E022742428A4
:1032E300F5827409391242D4740B22E8F0A3E9126F
:1032F3003985120B8BE922C082C08390033D744F42
:10330300F0A3740EF090033F7449F0A3740EF09091
:1033130003437469F0A3740CF00236CB74F7120301
:1033230076EAFEEBFF900377E06408601BE0640439
:1033330060168E828F83E05403640170481236D87E
:10334300123DDBE06406703D8E828F83A3A3E064AD
:10335300FE7003A3E0F4602D8E828F83A3A3123843
:10336300EE900368E0687003A3E069700BEE241528
:10337300F582EF125F686008120EFDE9F508800818
:10338300120F0380F67508C2EEFAEFFB1217130251
:10339300282374F41203768A088B098A828B83E0CC
:1033A300F8A3E0FAE82AFAE43400FB12170D8A0ABC
:1033B3008B0BAE0AAF0BEE4F6063850882850983E2
:1033C300E0FC7D0079001216538E828F83A3A31233
:1033D300689D120F3F8E828F83A3A3A3A312386726
:1033E300850882850983E0F8EE28F8EF3400123867
:1033F300F6850882850983A3E0C0E0EE240D125808
:1034030095D0E0F0120F51EE240E125895E9124FA9
:1034130047E0C0E0EE2411125895D0E0F0EEFAEF49
:10342300FB023AA474F412037674EB1209348A088B
:103433008B098C0A8D0BE9FE900377E06404600529
:10344300E06408700479C2802EA37808120AC7EEDC
:1034530090037E1236D2120AC77405120B06E9F0E6
:103463007404120B067401F07407120B06E4F09057
:10347300037774021236667415023AA174F61203C6
:103483007674EB120934EAFEEBFF124B6960030218
:1034930035237A077B0012170D9003391238671210
:1034A3004B6960788E828F83120AE390033A123D50
:1034B300DE120AEF126761C0E012352FD0E0F0EEA2
:1034C3002405FAEF3400FB8A088B098A82F583E02E
:1034D300C0E012352AD0E0123A9BE0C0E012352A50
:1034E300A3D0E01238DB120AE38518828519831210
:1034F3000AEF88828983E0C0E07405120B06D0E0EE
:10350300F0850882850983E0C0E07404120B06D0BD
:10351300E0F07407120B06123665800679108002FC
:103523007901741502390012352FA322900339E073
:10353300FAA3E0F5838A82A3A3A3A322C082C08354
:10354300124B69600D900339125473900339E4F000
:10355300A3F0120E6D12102F0236CB74F012037605
:1035630074EB120934ECFEEDFF89087425120B0687
:10357300780C120AA97429120B06E0F9742A120BAB
:1035830006E0FC742B120B06E0FD740F69700574E2
:103593000F6C6012900ED9E06402700579C1023697
:1035A30060E9C39C40F6900378780C120AC7E508DB
:1035B30090037EF0E990037CF0ECA3F0ED90037FA1
:1035C300F074FF6A700374FF6B701D900EE4E0F4F7
:1035D3007003A3E0F47005121665800C900EE412DC
:1035E300382FE8F0A3E98007900375EAF0A3EBF026
:1035F300EE4F6017EEFAEFFB1210EFE96401700B68
:10360300EEFCEFFD7A897B03121F0B900368E4F055
:10361300A3F090036BF0A3F0900388F0900ED9E031
:103623006402700890037C740FF0A3F09003777426
:1036330005F014120B06E4F0900378120AE38518E0
:1036430082851983120AEF90037EE0C0E0740512AD
:103653000B06D0E0F07407120B06123665741502E0
:1036630042E2E4123985121F3B22C082C0839003D9
:1036730038E070031219DD120C33804CC082C08312
:10368300900338E0900E7D7004E4F0802D7401F017
:10369300900338E0F460237C41E0C394415002E09E
:1036A300FCECF8E0C398F0EC75F0E8A4CCA8F07556
:1036B300F003A428FD7A801243387A7D7B0E79418A
:1036C300121F238003120BD9D083D0820208521217
:1036D30038E6780822EE1258A422E0F508A3E0F5B4
:1036E30009221236E922122A63A32274F512037601
:1036F30074E2120934851882851983ECF0A3EDF086
:10370300EAFEEBFF89087429120B06E0F509742C15
:10371300120B06E0F50A900377E064046005E064A9
:1037230008700579C2023820742A120B06E064FE81
:103733007003A3E0F4700579C30238209003777413
:10374300031239817950121F23742A120B06AA829D
:10375300AB83794B121F2385188285198312382F67
:103763001238FAE50890036AF0742A120B0612382D
:10377300281238FAE50990036212383674CE5509D7
:103783004480C0E07412120B06D0E0F07401250AE5
:10379300900388F0740F120B067402F0742A120B54
:1037A300061238EE7407120B06E8F0A3E912386D1F
:1037B3007410120B061238FA7405120B06E508F0A2
:1037C300741B120B06E4F090037D740FF07A7D7B7B
:1037D300037954121F2390037C740FF07A7C7B03CC
:1037E3007947121F2390037CE0C3940F5023740581
:1037F300120B06E0C0E07402120B06D0E0F0740472
:10380300120B067401F004120B06AA82AB83121F7B
:10381300477405120B06AA82AB83121F29741E126A
:1038230008BA0226EA1242D690036B221242D690BD
:10383300037522F0EEFCEFFD7A897B03121F0B2246
:1038430074F7120376EB90037FF0120E5B8005741E
:103853000D1208BA7F01020591123862A3E0221209
:1038630038DBA322EAF0A3EBF0221238E1F8A3E05D
:10387300F92274F712037674F8120934EAFEEBFFA7
:103883007900900377E06408704485188285198372
:1038930074FDF0A374FFF0120F397402120B0612B9
:1038A30038677405120B06E4123862E0C0E0740452
:1038B300120B06D0E01238D6C0E07406120B06D005
:1038C300E0F07407120B06E4123981120F7B7408BF
:1038D3000238541238DBE022F08E828F83221238B2
:1038E300E6E022F0851882851983221242D622E06F
:1038F300F8A3E0F91258A3E8F0A3E9F0221208BAFA
:103903007F02020591C082C08390034974F9F0A33A
:10391300740CF09003EF74D5F0A3740FF090034D83
:10392300742FF0A3740DF090034F74F9F0A3740C8B
:10393300F09003517435F0A3740DF00236CB74F498
:1039430012037674F91209348A088B098C0A8D0BD9
:103953008518828519837808120AC77404120B0626
:10396300E9F07405120B06E4F07406120B06E41278
:103973003981120C1B7407023AA1E8F0A3E912394A
:1039830085221238E6AA82AB832274F41203768A64
:10399300088B098A828B831258B1EE4F7003023A67
:1039A30099900312124B6C60158A828B83A3A3E058
:1039B300F9EEFAEFFB900313123DDE1220EA8E823A
:1039C3008F83A3A3A3A3A3A3A3A3A3E064027074FD
:1039D3008E828F83A3A3A3A3A3A3E0540270030245
:1039E3003A6B850882850983A3A3E064E960798E35
:1039F300828F83A3A3A3A3A3A3A3A3A3A3E070146E
:103A0300900EDCE0048E828F83A3A3A3A3A3A3A3BE
:103A1300A3A3A3F08E828F83A3A3A3A3A3A3A3A390
:103A2300A3A3E014123A9BA3A3A37404F0900EDDA6
:103A33001252ECE8F0A3E91263C58B0BEA450B7055
:103A430003125DA38E828F83A3A3A3A3A3A3A3A324
:103A5300A3E0640260128E828F83A3A3A3A3A3A314
:103A6300A3A3A3E06406702E8E828F83A3A3A3A3D4
:103A7300A3A3E0A2E0501F850882850983A3A3E0E6
:103A8300F9EEFAEFFB121FCB8E828F83A3A3A3A3BE
:103A9300A3A3E054FEF08009123CE222740D120845
:103AA300BA7F0402059174EC12037674DD120934B3
:103AB300EAFEEBFF8C088D097437120B06780C12A3
:103AC3000AA9750A007405120B06AC82AD831215A0
:103AD300A57412120B06E070087415120B06E06051
:103AE300207405120B06E0A2E6501E8E828F83A37C
:103AF300A3A3A3A3A3A3A3A3124FE6120FB1E96049
:103B0300087903121EF3023CC87405120B06E05435
:103B13000C64047005750B018003750B00E0A2E5CE
:103B23005035750A01E50BA2E0402C120F3F8A10B5
:103B33008B11A810A9111236D8E0687003A3E069AD
:103B430060157405120B061268A4124FE2121FD7F8
:103B5300E96004790480AC7405120B06E0A2E65018
:103B6300227406120B06E0540370187405120B0638
:103B7300E0540C640C600CE0540C64086005751090
:103B83000180037510007405120B06E05403F874EA
:103B93000268700C1268A4124FE2120B25023CC893
:103BA300740168703AE510A2E05003123CD074052A
:103BB300120B06A882A9837403120B06E8F0A3E98B
:103BC3001242CA851882851983123CDAE0C0E07478
:103BD30002120B06D0E01239811220BB023CC8E866
:103BE3006003023CC890035FE0640170108E828F13
:103BF30083A3A3A3A3A3A3E07003023B56742212DF
:103C03000B0674021242CA741A120B061238FAE532
:103C130010A2E050087405120B06123CD0E50BA26B
:103C2300E0506AEE240FF582EF125F68C0E074176C
:103C3300120B06D0E0F0900314124B6C7003023C9D
:103C4300C8120F3F8A128B13A812A913741A120BEE
:103C530006E0687003A3E069706B780C12086A7859
:103C63000A1208767808120872A910740C120B064F
:103C7300AC82AD837421120B06AA82AB839003142A
:103C8300123DDB1220EA74071208BA8038780C124E
:103C9300086A780A12087678081208729003751277
:103CA30006DAEE2412F582EF125C967423120B06E9
:103CB300AC82AD83740E120B06AA82AB83121FBFB4
:103CC30074091208BA74231208BA0263901268A422
:103CD300125481120B1922E8F0A3E9123CE22212DA
:103CE3003CE622F08E828F83A3A3A3A3A3A3227413
:103CF300F71203761218B102385774F712037612CB
:103D030018B702385774F71203761218C3023857DC
:103D1300C082C0831218BD0236CB74F71203761229
:103D230018C902385774F71203767409120B06E0A8
:103D3300F50878081208761218D57401023854C0B1
:103D430082C0831218E10236CBC082C0831218E707
:103D53000236CB74F71203761218ED02385774F754
:103D6300120376EAFEEBFF89087401650870147983
:103D730000120D719024F4E493FC7900EEFAEFFB4A
:103D8300120CE702385774F412037674F9120934EB
:103D9300E9FE8A088B098C0A8D0B7413120B061229
:103DA3004FE6900596124B6C6027EE8518828519B5
:103DB30083F07401120B067808120AC7EAF8EBF9CC
:103DC3007405120B0612397D900596123DDB122005
:103DD300EA023978FB90034BE0F8A3E0F58388828D
:103DE30022C082C0831219230236CB74F7120376E2
:103DF300900E80E0F97E00800B125F54540D640135
:103E03007001190E123FE85003E970ED0238577440
:103E1300F7120376900E81E0F97E00800B125F5457
:103E2300548D64817001190E123FE85003E970ED5F
:103E330002385774F2120376890BE975F006A4244D
:103E43000CF508E5F01231128A0CE508250CFAE5A9
:103E5300093400FB12170D8A0C8B0DAE0CAF0DEE5F
:103E63004F6027AC08AD0979001216531236D8E516
:103E73000BF0EE2508F8EF3509F98E828F83A3A3A3
:103E8300A3A3A3A3A3A3A31238FAEEFAEFFB024D55
:103E9300E174F6120376EAFEEBFF120CC3900E7F79
:103EA300E0F8E9C3984009900345124FE6120CC9A4
:103EB300EE2402F8EF1255F69003471254B0900324
:103EC30047E004F0EEFAEFFB120CCF850882850978
:103ED30083E0025AACC082C083790090034580011D
:103EE30009124FE68A828B83E582458370F202369C
:103EF300CB74F7120376EAFEEBFFEE4F60569003A6
:103F030045124B6C604E888289837A007B00EE6594
:103F1300827003EF6583600FAA82AB83123F5AE579
:103F2300824583602F80E7900345123F66687002E5
:103F3300EF698E828F8370081238EE9003458003F9
:103F43001263A21238FAEEFAEFFB12208BEEFAEFAD
:103F5300FB121713023857123F5E221242DA88828D
:103F63008983221242D6EE22C082C0839003458009
:103F73000488828983124B6C600B88828983124682
:103F83001EEC4D70EC8A828B83E4F0A3F0E8496069
:103F9300068882898380039003451238670236CBF3
:103FA30074F712037690034580048A828B83123F51
:103FB300E34B60257E0080010E123FE850ECEE7566
:103FC300F006A4FCADF0EA2CFCEB3DFDEC2410F56F
:103FD30082ED12403870E180047A007B000238578A
:103FE300125485EA22124041EEC3982274F7120359
:103FF300767D0080010D12403DEDC3985034ED7580
:10400300F006A4FEA8F0E8FFEA2EFEEB3FFFEE2445
:1040130010F582EF12403870DCED75F006A4FEE86F
:10402300FFEA2EFAEB3FFBEA2411F582EB125F68FD
:104033004CF0023857125F74692212404122126811
:10404300AEEB3400F583E0F82274F6120376120D1A
:10405300E97A007B008025EAF8EBF9E875F006A41D
:10406300F8ACF075F006E9A42C12545A12676FA34A
:10407300E4125550F0A31267751268EC9024DF1216
:104083002D9140D37A007B00801C8A088B0974032E
:104093007808120A35124F0EA374FEF0A3041253CC
:1040A30030A3E41268EC9024E81240EB40DC7A0081
:1040B3007B00801D8A088B0974037808120A357403
:1040C300C4125BE0740D12642774FEF0A30412683B
:1040D300EC9024EE1240EB40DB9024F2E493900347
:1040E30053F01240F5023903E493F8C3EA98EB94D2
:1040F30000227CE87D037A107B009003C2E0F91272
:1041030017D32274F012037674F51209348A088BDC
:1041130009890A8C0BE9A2E050147508FC7509FFA4
:10412300A2E15005D2E40241C8D2E30241C8124DD4
:10413300CD7003A3E06970057900024295AC0A795A
:1041430002AA08AB09120DC5E960EDE50AF50C7882
:104153000C12087679027CFE7DFFAA08AB09124B8C
:10416300481208BAE96003024293E50AC2E5F50A78
:104173009003B5E07051E50AA2E6404B7403120BBD
:1041830006AC82AD83AA08AB09120B67E970321241
:1041930044698A0C8B0DA80CA90DE8FEE9FFE849D8
:1041A3006025EE24020A0AEF122AA1601AEE240205
:1041B300FCEF3400FD7403120B06AA82AB83121FBB
:1041C3000BE50AD2E5F50A900348E0F50C90036885
:1041D300E0F50EA3E0F50F780E1208727D017C0066
:1041E300900348E0F9AA0EAB0F120D7D740212087A
:1041F300BAE9F8900348E004F0E86003024293E56B
:104203000AA2E55004740E80027406C0E074011221
:104213000B06D0E01258C28A0E8B0FAE0EAF0FEE14
:104223004F60691242B31242CA888289837401F0D3
:104233007478550AA31268B4E50C1268B4A3E508B0
:10424300F0E5091242A2E4F0E50AA2E5500F740377
:10425300120B06AC82AD83E824061242998E828F3C
:1042630083A3A374FDF0A374FFF0E50B6015902402
:10427300F5E493F8E50BC3985009EE24131258950F
:10428300E50BF0EEFAEFFB120C09800679108002C1
:1042930079C7740B8049FAE93400FB121F0B22889B
:1042A300828983A3A3A3A31242AE22125629A32277
:1042B300EE24171258A67401F0120F39EE241A12C5
:1042C30058A6EAF0A3EB22F01268A834001242D4F5
:1042D30022F5831242DA22E0F8A3E0F922740D12E8
:1042E30008BA7F0802059174F61203767A007B10F0
:1042F300125DB060089003D47401F08029900637F2
:10430300E06401900EDA7006E0FC79018004E0FCC1
:1043130079037A007B00120CE79024DD12432C7A98
:10432300007B1012433A02390312433022E493FC18
:10433300740193FD227B009003C2E0F91217CD2292
:1043430074EC1203768A088B098C0C8D0D890E741C
:1043530014120B06124D277416120B06E0F510A368
:10436300E0F511120FB1E960077AFF7BFF024466A3
:10437300900ED9E0640260030244597900AA08ABA5
:1043830009120DCBA90E120DBF8A128B13AE12AFF9
:1043930013EE4F70030244418E828F83A3A3A3A322
:1043A300A3E064018E828F83A3A37069124FE68E0C
:1043B300828F83A3A3A3A3A3A3E0541860439024F1
:1043C300F3E4938E828F83A3A3A3A3F0EA650C7017
:1043D30003EB650D6014EA650A7003EB650B600A75
:1043E300EA65107003EB6511701F7810120872AC48
:1043F3000AAD0BAA0CAB0D1210AD74021208BA80F1
:1044030008900367125D9AA3F074FE6A700374FF49
:104413006B601D804EA3A3A3E0640360298E828F8B
:1044230083A3A3A3A3A3E0640470057AFE02436EEF
:104433008E828F83A3A3A3A3A3E0640270089003D7
:10444300B4E0640270101244698B0BEA450B6006FA
:10445300AA08AB09800DAA08AB09900349123DDBFA
:104463001220EA026390900375124B4E12107122D0
:1044730074F7120376EAFEEBFF120BBBE9700AEE48
:10448300FAEFFB120BC7E96006EEFAEFFB80047A42
:10449300FE7BFF02385774F01203768A0A8B0B8C6B
:1044A3000E8D0F8909750800120FB1E979006003B9
:1044B300024610AA0AAB0B120DCBA909120DBF8A33
:1044C3000C8B0DAE0CAF0DEE4F60198E828F83A354
:1044D300A3A3A3A3E0640270559003B4E064027045
:1044E3000302460EAA0AAB0B90034F123DDB1220C8
:1044F300EA120BCD8A0C8B0DA80CA90DE8497003A9
:1045030002460E88828983A3A3A3A3A3E0A2E0406B
:104513000302460E750C01A2E150687901AC0AADA5
:104523000BAA0EAB0F120D17E9706402460E8E82B2
:104533008F83A3A3A3A3A3E064037005750C028078
:10454300528E828F83A3A3A3A3A3E064016003021B
:10455300460E90037512461E8E828F831249738A0C
:104563000C8B0DA80CA90DE84960D19024ECE493C1
:10457300FA88828983E0C39A50C2A3E060030246AB
:104583000E80B988828983A3A3A3A3A3D2E1F0EE0B
:104593004F603A8E828F83A3A3A3A3A3A3E05418EF
:1045A300602B7508018E828F83A3A31206DA750C24
:1045B300FE750DFF780C1208727900AC0AAD0BAAD8
:1045C3000EAB0F120DDD74041208BA803E9003681F
:1045D300E0650E7004A3E0650F70149024F4E49377
:1045E300FCA909AA0AAB0B120CE7750801801CA9E8
:1045F3000CAC0AAD0BAA0EAB0F120D17E9700C75BC
:104603000801A909AA0AAB0B120D71A9080242E518
:10461300E50C2415F582E50D1258A91253062274F0
:10462300EA12037674F01209348A0C8B0D8C088D10
:10463300097426120B06E0F514A3E0F515751206AE
:104643009003F5124B6C602390037512461EAA0863
:10465300AB0912109B8A108B11EA4511600D8A82F7
:104663008B83A3E07005790002495BE50C241DF5FB
:104673000EE50D3400F50F850E82124B58F51388A5
:10468300828983A3A3A3E0FA88828983A3A3A3A334
:10469300E0F9EA2400FEE439FFAA08AB09120D771A
:1046A300850E82850F83124996E029F50BE50AA250
:1046B300E5500375120E7487550A70177418550A5E
:1046C3006418600FE50C2417F582E50D125F686529
:1046D3001260077901121EF3808C530A78C3EE949B
:1046E300F8EF94FF501D7900EEFAEFFB1249656075
:1046F3001288828983A3A3A3A3A3A3E0541860030E
:1047030002466978081208727D001249891208BAB4
:10471300E9F87403687003024669E860030247D44A
:104723007418550A7003024889E50AD2E0F50AA213
:10473300E45004D2E1F50AA90A124FDF1249656079
:104743005388828983A3A3A3A3A3A3E0541860443B
:1047530088828983A3A3A3A3A3E064017036E51031
:104763004511603090037512461E88828983124971
:10477300738A0E8B0FA80EA90FE8496017888289E8
:1047830083A3E0600F851082851183A3125AB7506B
:1047930003024669E50AF50E780E12087612497C83
:1047A3001208BAE9702B7C007D008514828515837D
:1047B30074FFF0A3F0850C82850D83A3A3A3A3A3A9
:1047C300A3A3A3E06003124613A90B124FDF121831
:1047D300DB851482851583E0F47003A3E0F460396C
:1047E3009003B4E064027003024669124D18E0FAC4
:1047F300A3E0123DD71220EAEA65087003EB6509CE
:104803006003024669EEFAEF123DD71220EA8514DF
:1048130082851583EAF0A3EBF078081208727D0114
:104823001249891208BAA90AEEFAEFFB120DCB8AD4
:10483300088B09A808A909900368E0687003A3E03E
:1048430069600302494CEEFAEFFB120BCD8A088B29
:1048530009A808A909E849606E88828983A3A3A3EC
:10486300A3E06401600D88828983A3A3A3A3E0640A
:10487300027054851882851983AC82AD83EEFAEFFA
:10488300FB120B678055900361E0600FE50AF50E9C
:10489300780E12087612497C1208BAE50AF50E78EA
:1048A3000E12087679027CFE7DFFEEFAEFFB124BC7
:1048B300481208BAE960030247D485148285158338
:1048C30074FFF0A302481B120F39EAFCEBFD8518B5
:1048D30082851983AA82AB83121F0B850C82850DF7
:1048E30083A3A3A3A3A3A3A3A3E06401700F12460E
:1048F300137408120B06AA82AB83121F0B124B22EE
:1049030012572E4430F50878081208767401120BFA
:10491300068582088583097808120872740B120BC6
:10492300068582088583097808120872E513F5085D
:1049330078081208767900EEFCEFFD124FDF120DB6
:104943001174061208BA024669124B2212589812C1
:104953004996E50BF0120F5174101208BA7F0E023C
:104963000591120DBF8A0E8B0FA80EA90FE84922DD
:10497300A3A312548512109B227901AC08AD09122E
:10498300547A124B4822AC0BA91312547A120D7DA0
:10499300740222125736A3A3A3A32274F012037640
:1049A30074F01209348A0C8B0DECFAEDFB750F08C9
:1049B3009003F5124B6C6014125AB08A828B83E514
:1049C3008245836007A3E07003024B1D124B223420
:1049D30000124B58F50B88828983124B2BE0FBECBA
:1049E3002400FEE43BFF88828983A3A3124B2BA3FD
:1049F300A3E0FBECF508E43BF50988828983A3A3D4
:104A0300A3A3A3A3A3E0F50EE50AA2E45003750F45
:104A130010A2E550067408250FF50F748F550A7020
:104A23000FE50C2417F582E50D125F68650F60082A
:104A33007901121EF3024B1D530A707800E50AA296
:104A4300E45022124B22125F682408FCA3E03400D6
:104A5300FD7408120B06AA82AB83121F0B7808E5BC
:104A63000AC2E4F50AE50AA2E55028124B22125FB6
:104A73006828F8A3E03400F9E82408FCE93400FDD1
:104A8300851882851983AA82AB83121F0BE50AC29C
:104A9300E5F50AAC0EA90BEEFAEFFB120D83E9F86C
:104AA3007403686075900368E06E7003A3E06F6041
:104AB3005EE87054E50AF50F780F120876124B3949
:104AC3001208BAE97054780A1208767401120B06B8
:104AD30085820C85830D780C120872740B120B06F9
:104AE30085820C85830D780C120872E50BF50A7824
:104AF3000A120876A90EAC08AD09EEFAEFFB120D07
:104B03001174061208BA8012740468700D80B778A5
:104B13000A120876124B391208BA74100242E2E5FF
:104B23000C241DF582E50D22A3A3A3E0FC88828952
:104B330083A3A3A3A3227901124D1F1258A9124BD9
:104B43004E124B4822120D3B740122E0FCA3E0FD00
:104B5300AA08AB0922F583123F5EA3E0F50A888217
:104B63008983A3A3E0229003391254E12274E8124B
:104B7300037674F5120934EAFEEBFF8C088D09897C
:104B8300147423120B06E0F50F7424120B06E0F5E0
:104B930012A3E0F5137426120B06E0F516A3E0F555
:104BA300177428120B06E0F50EA90F120D898A104F
:104BB3008B117401120B067408F0E50EA2E4500386
:104BC3007410F0E50EA2E55004E02408F085188285
:104BD300851983AA82AB83120F998A0C8B0DEA4540
:104BE3000D7003024CFFEA2417F582EB124D1112EC
:104BF3000F39E50C241AF582E50D1258981238671F
:104C03007403120B06AC82AD83AA10AB11120B67AF
:104C1300E9601D124D097403120B06A882A983E5EE
:104C23000C2418F582E50D125898E8F0A3E98024C6
:104C3300E50EA2E4501FE5106E7003E5116F7015C9
:104C4300124D09E50C2418F582E50D125898E5126A
:104C5300F0A3E513F0124D18124D27850A82F58350
:104C63007402F0A3E50E124D2FE50FF0EE850A82D4
:104C7300850B83A3A3A3F0EF850A82850B83A3A3EC
:104C8300A3A3124D2FA3A3A3E508F0E509850A8288
:104C9300850B83A3A3A3A3A3A3F0AA10AB11120DA7
:104CA30077E92514850A82850B83A3A3A3A3A3A372
:104CB300A3F0750800E50EA2E45011AC12AD13E5A4
:104CC3000A2408FAE50B12429B750808E50EA2E5D3
:104CD3005014AC16AD17E50A2508F8E50B3400F9B6
:104CE300E82408124299850C82850D83A3A3E5105D
:104CF300F0A3E511F0AA0CAB0D120C09740B12080A
:104D0300BA7F10020591E50C2416F582E50D1258C1
:104D1300A97401F022124D1F1258A922E50C126842
:104D2300AFE50D22E0F50AA3E0F50B22F0850A8238
:104D3300850B83A3A32274F21203768A088B09ECF2
:104D4300FEEDFF890A7900124DCD7003A3E069706F
:104D53000479018073750B01900368E065087004A2
:104D6300A3E06509601F750B00780B120876A90A8A
:104D7300EEFCEFFDAA08AB09120FED74011208BA9D
:104D8300E9F50B80417900EEFAEFFB120DBFEA4B18
:104D9300602B8A828B83A3A3A3A3A3A3E0541860ED
:104DA3001C7508FE7509FF78081208728A828B83C6
:104DB300A3A31206DA1266C41208BA80097901EEB7
:104DC300FAEFFB120C99A90B8014120DCB8A0C8BF2
:104DD3000DA80CA90D900368E068221208BA7F069B
:104DE30002059174F412037675080C75090C7A1098
:104DF3001263CC8B0BEA450B70031240F5900353FF
:104E0300E014F0700C9024F2E493900353F0120D2D
:104E1300D77E007F00806C850882850983A3A3A3C6
:104E2300A3E06059F46056E5082404F582E509120D
:104E33005D947049850882850983A3A3A3A3A3E096
:104E430064037019790285088285098312461E85D9
:104E53000882850983A3A3124FE6120D17850882E2
:104E6300850983A3A3A3A3A3E0640160108508823B
:104E730085098374FEF0A304124F40E4F01232B8A4
:104E830012310A9024E1126528408C7E007F008055
:104E930039120EDF8E088F0974037808120A3574ED
:104EA300842508FC740D3509FD7A237B0D120ECD84
:104EB300EA4B70DD8E088F0974037808120A3512E5
:104EC3004F0E12676FE4F01232B89024E8E493F8BF
:104ED300C3EE98EF9400501B8E088F097403780873
:104EE300120A35124F16E82407F582E9125D947011
:104EF300D680A17E007F00800A124F21600214F049
:104F03001232B812652540F1023AA4124F16888274
:104F130089832274842508F8740D3509F922EEF883
:104F2300EFF9E875F006A4F8AAF075F006E9A42AEB
:104F3300F9742428F582740D39F583E022124F4762
:104F4300A3A3A322F0850882850983A3A32274F770
:104F530012037674E1120934ECFEEDFF750800EEDE
:104F63004F60728A828B83E0241C125DC5124B6CE6
:104F730060638A828B83124FE6851882851983AC1E
:104F830082AD83EA241BF582EB125C96EA241CF5BE
:104F930082EB124FE2120F21740B120B06124FEA2F
:104FA3007003A3E069702E7402120B06E0640170B3
:104FB30024741D120B06123DDBE064017017741D8F
:104FC300120B06123DDDA3A3E0F88E828F83E06807
:104FD3007003750801A908741F023854124D1F3459
:104FE30000F58312548522122A5FE0682274F412BA
:104FF3000376E97024790090034D123DDB1220EA19
:105003008A0A8B0BAE0AAF0B74FE6E700374FF6FCC
:10501300701A9024EFE4936013790190034D123DCD
:10502300DB1220EA8A0A8B0BAE0AAF0B120F5D026A
:10503300342074F612037674F31209341216658A57
:10504300088B09AE08AF09900368E06E7003A3E014
:105053006F60E9120F45EA6E7002EB6F60DEEEFAE5
:10506300EFFB120FB1E970D4EE4F60D08518828543
:105073001983E4F004120B06EEF0A3EF125098E943
:1050830070BA74FE6E700374FF6F60B0EEFAEFFBDC
:10509300740D023900123985120B7F22C082C0833E
:1050A300120F5D0236CB7F0A02059174F21203766A
:1050B300EAFEEBFF8C0A8D0B8908740E120B06E0D7
:1050C300F50974FC6E700374FF6F70057900024D6F
:1050D300E17900120DCB8A0C8B0DAE0CAF0D900352
:1050E30068E06E7003A3E06F7006E509A2E650DC8A
:1050F300A9091265B2706179007AFE7BFF1265B26D
:1051030070567418550970030251E57800790080D0
:1051130003122C599024E1122C5040030251E5E86C
:10512300FAE9FBEA75F007A4FAACF075F007EBA413
:105133002CFB74122AF582740C3BF583E05418702F
:10514300D0E875F007A4F8AAF075F007E9A42AF9E6
:10515300740C28F8740C39F988828983A3A3A3A358
:10516300A3A3E0541860097418550970030250CFC3
:1051730088828983EEF0A3EFF074FE650A700474ED
:10518300FF650B600312530C88828983A3A3A3A337
:10519300A3A3E509F0A2E0500D88828983A3A3A30A
:1051A300A3A3A3D2E2F07401650888828983A3A331
:1051B300A3A3A370387401125330E05418602890ED
:1051C30024F3E49388828983A3A3A3A31252FA123C
:1051D300109B8B0DEA450D60030250CF78007900D8
:1051E300803979020250D1900367E080D7E06401EF
:1051F30070030250CF88828983A3A3A3A3A3A3E050
:10520300541860079024F3E4938004900366E0123B
:1052130042A2E508F00250CF122C599024E9E493FE
:10522300FAC3E89AE9940040030250CF7A007B0066
:10523300804BEAFCEBFDEC75F007A4FCAEF075F0D7
:1052430007EDA42EFD740E2CF582740C3DF583122C
:1052530058B1E8FCE9FDEC75F017A4FC85F009757D
:10526300F017EDA42509FD749C2CF582740A3DF515
:1052730083E06E7003A3E06F609E12318D9024E192
:1052830012311A40AD12432CEC6A7002ED6B708838
:10529300E875F017A4F8AAF075F017E9A42AF974D1
:1052A3009C28FE740A39FF7C177D007900EEFAEF23
:1052B300FB1216538E828F83125312900375125270
:1052C300ECA3A3A3A3A3A3E8F0A3E91252F27401EE
:1052D300F0EE240E125895740112531A120225EEA1
:1052E300240D125895E80252171236E9A3A322F0AF
:1052F300EE240F1258A622F0125303AA0AAB0B2274
:10530300900375E0FCA3E0FD2288828983A3A3E5D3
:105313000AF0A3E50BF022F012531F229024ECE4D1
:10532300932401F8E43400F97A027B00221242AE9E
:10533300A32274ED1203768A088B09890E12546333
:1053430040057905025431121929AA08AB091255EF
:10535300359024DF125434650A7003E9650B700736
:105363007AFE7BFF1255359024DFE412543CE50AA4
:1053730098E50B99400302542F1254406012E50A3A
:1053830075F006A4F875F006E50B12548B1217138B
:10539300E50E6018E50A75F006A4F8AAF075F006A4
:1053A300E50B1254B7701A7901025431E50A75F00E
:1053B30006A4F8AAF075F006E50B125498E4F0A3DE
:1053C300F0E50A75F006A4F8AAF075F006E50B12ED
:1053D3005458A312574488828983A3AA82AB8312A9
:1053E30054A68A828B83E0603F125440603A8E1049
:1053F3008F11751200781012086EE50EC333FCE4AA
:1054030033FDE50A75F006A4F50AA8F075F006E584
:105413000BA428F50B7428250AF582740D350B129D
:105423004FE412312B1208BA790080027907026522
:10543300C8122DB2E8229024D7125F4F22E50A75D5
:10544300F006A4F8AAF075F006E50B125493F8A33E
:10545300E0F9E84922A42A1255EC88828983A32221
:10546300ECFEEDFF9024EAE493F8E9C39822F58378
:1054730012548512171322E50C1268AFE50D3400A0
:10548300F583E0FAA3E0FB22125493FAA3E0FB2294
:10549300125498E022A42AF9742828F582740D394D
:1054A300F58322E50EF0900EDB1254B022E08882E1
:1054B3008983F022125610F50CE93400F50DE50E40
:1054C300C333FAE433FB12170D850C82850D83EA8F
:1054D300F0A3EBF0850C82850D831254E122124276
:1054E300DAE8492274F4120376ECFEEDFF740C1231
:1054F3000B061238EE88088909125535AC0AAD0B34
:10550300ECF8EDF99024DF12553D5021E875F006D3
:10551300A4F8AAF075F006E9125458E08E828F833E
:105523001255501255461238FA7900800279040256
:105533003AA4120D4D8A0A8B0B22123123C3EC9A23
:10554300ED9B221242D685088285098322125625B5
:105553002274F61203767E007F008028EEF8EFF9BE
:10556300E875F006A4F8ACF075F006E9A42CF9741C
:105573002628F582740D1261D36A7003A3E06B6071
:10558300571232B812652540D31265207002E96FB5
:10559300704674FE6A700374FF6B703C7E007F007C
:1055A30080031232B8126525502E124F2170F3EE8C
:1055B300F8EFF9E875F006A4F81255E212561760F1
:1055C300171255FEF8E91255F688821254718508B0
:1055D30082850983E4F0A3F0EEFAEFFB0239037549
:1055E300F006E91255EA22A42AF9742428F8740D66
:1055F30039F9223400F98808890922EEF8EFF9E82D
:1056030075F006A4F875F006E9125610221255EA51
:10561300E8240422A3A374FE1256221254E122F0BA
:10562300A30412562922F088828983A3A3A3A32269
:1056330074F6120376EA241DF582EB12572EF960F5
:105643004BEA241DF582EB125F682402FCA3E034CD
:1056530000FD1254674003025721780080298C8291
:105663008D83E0F508A3E0FFE5082400E43FF50996
:10567300E833FEE433FF746C2EF582740D3FF5833B
:1056830012574412572408E8C39940D28A828B8365
:10569300A3A3A3A3A3A3A3A3A312461E900368E0FB
:1056A3006C7003A3E06D700F7C6C7D0D1229C81222
:1056B3004FE2120D418067EA2411F582EB125F6815
:1056C300605CFC74FF2CF07508017808120876758D
:1056D300086C75090D7808120872E9F50878081244
:1056E3000876EA2412F582EB125F68F5087808124F
:1056F3000876EA2415F582EB1258981206DAECF9CB
:105703001229C812461B8A828B83A3A3A3A3A3A334
:10571300A3A3A3124FE6120D5974071208BA023954
:1057230003EC24020C0CED3400FD221258A912578D
:1057330036E022E0F8A3E0F5838882A322888289F9
:1057430083E508F0A3E509F02274EA12037674FDF9
:105753001209348A148B158C0E8D0F890D7419124E
:105763000B061258B1741B120B06E0F511741C12D0
:105773000B06E0F50C741D120B06124D27741F1255
:105783000B06E0F5106008E50CC3332404800274B3
:1057930002C0E07401120B06D0E01258C28A088BD3
:1057A30009EA4509700302588D8A828B83A3A3E516
:1057B30014F0A3E5151263BBE50EF0A3E50FF0EAC1
:1057C3002413F582EB125898E50DF0EA2414F582C0
:1057D300EB125898E511F0EA2417F582EB125F6893
:1057E30064017040120F3F8A0E8B0FA80EA90F851C
:1057F3000882850983A3A3A3A3E0687003A3E069D8
:105803006022EE4F6011E508241AF582E50912586B
:1058130098EEF0A3EF800CE5082417F582E5091252
:105823005898E4F012589C1258B18E828F837405F5
:10583300F0A3E5107004E50C80487401250C1258A0
:10584300BB7A008028850A82850B83E01258B785CE
:105853000A82850B83A3E08E828F83F0E50A2402FC
:10586300F50AE50B3400F50BA30EAF830AEAC395E3
:105873000C40D2120F3FEA1258B7120F3FEB8E8241
:105883008F83F0AA08AB09120C09740302495DEE79
:10589300240CF582EF1258A9221229D91258A922F1
:1058A300EE240BF582EF3400F58322900334E0FEFF
:1058B300A3E0FF228E828F83F0A3AE82AF832212F6
:1058C3003985120F9922C082C083E9C333FCE433C4
:1058D300FDEA2CFAEB3DFBEA24FEF582EB34FF12E2
:1058E3004FE40236CB74F212037689098A0A125402
:1058F3006340047900804075080080020508E508CC
:10590300C39509502AE508C333F8E433F9EE28F5C3
:1059130082EF39F583C082C083120F3F8A0C8B0D4F
:10592300D083D082E0650C7004A3E0650D70CDE5F3
:105933000A650870BE7901024DE174F012037674B2
:10594300F31209348A088B098C0A8D0B890C750DA7
:1059530000120FB1E979006003025A3FAA08AB09AC
:10596300120DCBA90C120DBF8A0E8B0FAE0EAF0F0B
:10597300EE4F7003025A3D8E828F83A3A3A3A3A38A
:10598300A3E0A2E24003025A3D120F3FEA650A7008
:1059930003EB650B7011780D120876E4F50EF50F25
:1059A300780E1208728044AA0AAB0B120BC1E96489
:1059B3000170688518828519837404F07401120BD1
:1059C30006125312851882851983AA82AB83120BA0
:1059D3007FE964017045750D01780D120876E4F5D1
:1059E3000EF50F780E120872750D00780D120876F9
:1059F300780D1208767408120B0685820E85830FC4
:105A0300780E1208729024F5E493F9AC0AAD0BAA50
:105A130008AB09120D5974071208BA8E828F83A33B
:105A2300A3A3A3A3A3E0A2E1400D8E828F83A3A32C
:105A3300A3A3A3A3C2E2F0750D01A90D0242E07472
:105A4300F6120376E9FE7900120DCBEEF9120DBFC3
:105A53008A088B09A808A909E84960061268F6F9BB
:105A63008002790402390374F61203767E079003E9
:105A73005CE07034125AB08A088B09A808A909E8B7
:105A8300496025900361E0640188828983A3A37040
:105A93000B125AB7888289835001A3A3E0F912102D
:105AA300B9E9FEEE70027E07EEF9023903125303E1
:105AB30012109B22E0FA88828983A3E0C39A22749E
:105AC300EE120376EAFEEBFF890A8C0C8D0B74123F
:105AD300120B061236DD125B8C12546A5051890E7A
:105AE300750F007403780E120A35748A250EF58239
:105AF300740D350FF583E0F8E50CC398502DE50BD5
:105B0300602475110074037810120A35748425100B
:105B1300F8740D3511F988828983A3A3A3A3A3A3E2
:105B2300E50C125B96F079000250A9790380F979AC
