:020000040000FA
:06000000020AD00201B368
:030013000201D611
:03002B00020924A3
:030033000206D3EF
:03003B0002022B93
:030053000200E4C4
:03006B000206ADDD
:100083000201480101FF01010503010F10FEFF5AA0
:10009300135A135A135A13161210125A13A51F0088
:1000A3000000006920000000000C0000000C0001AB
:1000B300FFFF0102005805000000CB0564000202A7
:1000C30000080000050207051E02051E020A0A03B6
:1000D300B80B02803E0102FFFF1496511800020282
:1000E30006C0E074F2120473A2AFE433FED2AFE5AC
:1000F300A7FFE5A1F5085F54106006121A7475A1F5
:10010300EFE5085F54086008121A7A75A1F7802B8F
:10011300EFA2E0C0D0E508A2E092F0120A0D15812B
:1001230082F05017906198E0F89007A3E0C398A27B
:10013300D265D0335002E8F075A1FEEEA2E092AF93
:100143007F0102052AC0E074F2120473A2AFE43304
:10015300FED2AF9061A4E0F8759B00E59158540876
:1001630060087591F7121AC2802AE59158541060FD
:10017300087591EF121AC8801BE8A2E0C0D0E59180
:10018300A2E092F0120A0D158182F05007E0C2E05E
:10019300F0121C0C9061A3E0F8E5E9585404600EDA
:1001A300121BE275E9FB906193E0A2E640F2808BBB
:1001B300C0E074F2120473A2AFE433FED2AF9061D5
:1001C300A5E0F8E5BF585404600675BFFB121C2474
:1001D30002013EC0E0C0D0E8C0E0E9C0E0C082C098
:1001E30083E5C1C0E090070FE0F8748E28F58274B0
:1001F300063400F583D0E0F090070EE0F8A3E06842
:100203007006E595900711F090070FE004F0C39492
:10021300804002E4F0A374C6F0D083D082D0E0F92A
:10022300D0E0F8D0D0D0E032C0E0C0D0E8C0E0C029
:1002330008C009C082C083900792E0F8A3E0687009
:1002430008539AFBA374018026C2E9900792E0F554
:100253000874012508F074122508F5827407340028
:10026300F583E0F5C1900792E0C394804002E4F087
:10027300D083D082D009D00880A6C3E498F8E4994B
:10028300F91202BE8026C3E49AFAE49BFBE920E755
:10029300E91202BEE498F8E499F922C3E498F8E479
:1002A30099F91202BEE498F8E499F9C3E49AFAE4DE
:1002B3009BFB22EB20E7CFE920E7E0B90010BB006E
:1002C30008E88AF084F8AAF022E4FBC8FA22EB706B
:1002D300227B10C833C8C933C9335007C39AC3DB61
:1002E300F280069A50012ADBEAC833F4C8C933F412
:1002F300C9FA2275F008E4C833C8C933C933C99AA7
:10030300C99B5004C92AC93BD5F0ECFBC833F4C8D8
:10031300E4C9FA22080808EAC0E0EBC0E086F0E787
:10032300A4FA180986F0E7A42AFA180986F0E7A4C4
:100333002AFA180986F0E7A42AFA1986F0E7A4FB3B
:10034300E5F02AFA190886F0E7A42BFBE5F03AFA60
:10035300190886F0E7A42BFBE5F03AFA181809868A
:10036300F0E7A4C5F02BFBE43AFA1908E7C5F0C699
:10037300A426F6E5F03BFBE43AFA1886F0E7A4F688
:10038300E5F00826F6E43B08F6E43A08F6D0E0FB8D
:10039300D0E0FA22E4CFC0E0E4CEC0E0E4CDC0E098
:1003A300E4CCC0E075F020C3E633F608E633F60884
:1003B300E633F608E633F6181818EC33FCED33FD94
:1003C300EE33FEEF33FFC3EC9709ED9709EE970980
:1003D300EF97191919400FFFEC97FC09ED97FD09E9
:1003E300EE97FE191906D5F0BEECF709EDF709EE05
:1003F300F709EFF7191919D0E0FCD0E0FDD0E0FEC2
:10040300D0E0FF222518C582C0E0E51934FFC5837B
:10041300C0E0E518C3958224F810AF0885831985D9
:1004230082188008858319858218D2AFCEF0A3E5A0
:1004330020F0A37808E608F0A3DEFAEFF0A3E58145
:1004430024FAF8E608F0A3E608F0A3E608F0A30808
:1004530008E608F0A3E608F0A315811581D0E0FEB5
:10046300D0E0F8158115811581E8C0E0EEC0E022E7
:10047300C0D02518C582C0E0E51934FFC583C0E0AC
:10048300E518C3958224F310AF0885831985821874
:100493008008858319858218D2AFC8F0A3E9F0A339
:1004A300EAF0A3EBF0A37908E709F0A3D8FAECF09C
:1004B300A3EDF0A3EEF0A3EFF0A3D0E0F0A3D0E020
:1004C300F0A3D0E0F0A3E520F0A3E5F0F0A322121F
:1004D3000B32B90003020514E4900301786A790B27
:1004E3008002F0A3D8FCD9FA900D6AAA82AB83905C
:1004F3000086785F79018015E493A3AC82AD838A8B
:10050300828B83F0A3AA82AB838C828D83D8E9D9B3
:10051300E77582967583D774031208837582AC7569
:10052300831E7400120883851983851882E0C0E056
:10053300A3E0F9A3E0FAA3E0FBA37808E0F608A39D
:10054300DFFAE0FCA3E0FDA3E0FEA3E0FFA3E0C02D
:10055300E0A3E0C0E0A3E0F5D0A3E0F520A3E0A38F
:10056300F5F010AF088583198582188008858319F3
:10057300858218D2AFD082D083D0E0F8D0E0320E9B
:100583000075F0108E1A8F1B85821F85831E8518B8
:1005930082851983E0CEA3E0CF851F82851E83EB7E
:1005A300C9EAC8EDCBECCAC3E833C8E933C9EA33B7
:1005B300CAEB33CBC3EA9EF51DEB9FF51CB3500486
:1005C300AB1CAA1DEC33CCED33CDD5F0DAAE1AAFAC
:1005D3001B22D083D082ECC0E0EDC0E0E493A3FC07
:1005E300E493A3FDED4C600D1206F1EC24FFFCED4A
:1005F30034FFFD80EFE493A3FCE493A3FDED4C6093
:100603000D12078EEC24FFFCED34FFFD80EFD0E0EC
:10061300FDD0E0FCE493A3C0E0E493C0E022D083E8
:10062300D082E9C0E0E493A3C386F0C5F095F0F966
:1006330008E493A386F0C5F095F0700BE493A3C38D
:10064300994005E9048002A3E475F002A42582F52C
:1006530082E5F03583F583D0E0F9E493A3C0E0E4C9
:1006630093C0E022851983851882E0A3FEE0A3F5F9
:10067300207808E0A3F608DFFAE0A3FFE0A3C0E0D8
:10068300E0A3C0E0E0A3C0E0E0A3C0E0E0A3C0E0DB
:1006930010AF0885821885831980088582188583A1
:1006A30019D2AFD083D082020889C0E074F2120459
:1006B30073A2AFE433FED2AFE589A2E4500312196B
:1006C300B4758900C2C5EEA2E092AF7F0102052A8C
:1006D300C0E074F2120473A2AFE433FED2AFE58B31
:1006E300A2E050031219B4758B00C2E880D8C0E0B1
:1006F300C3E49396087401939618400FE4936670CD
:100703000808740193661870007019A3A3C3E493D7
:1007130096087401939618A3A3400DD0E0D0E0D0BF
:10072300E0020611A3A3A3A3A3A3D0E02274048031
:100733000474028000CCC0E0EDC0E0E518C39CCC9B
:10074300AD1950011D10AF068C188D1980068C1839
:100753008D19D2AF120805D0E0FDD0E0FC2274025F
:100763008000CCC0E0EDC0E0E518C39CCCAD1950CF
:10077300011D10AF068C188D1980068C188D19D2A7
:10078300AF1207E3D0E0FDD0E0FC22C0E0C0F08868
:10079300F0E4936670080874019366187000A8F07B
:1007A300A3A3700BD0F0D0E0D0E0D0E0020611A3F9
:1007B300A3D0F0D0E022D083D082CCC0E0E493A3D6
:1007C30060061208451470FAE493A3600612096BDD
:1007D3001470FAD0E0FCE493A3C0E0E493C0E022F9
:1007E300CAC0E0E493A3C582CCC582C583CDC583CB
:1007F300F0A3C582CCC582C583CDC583DAE5D0E03D
:10080300CA22CAC0E0E0A3C582CCC582C583CDC5D8
:1008130083F0A3C582CCC582C583CDC583DAE6D078
:10082300E0CA227009080808226016181818C6C3FF
:1008330033C608C633C608C633C608C633C6D5E0B2
:10084300EA22C0E0E493A3D39C5010E493A3C39C97
:10085300400AD0E0D0E0D0E00207D6A3A3A3D0E0C3
:1008630022C008C3E096F50808A3E096420808A34F
:10087300E096420808A3E09645087001D3D0082209
:10088300C09FF59FE473D09F22D083D082C09FE4A2
:1008930093C0E0740193C0E0740293F59F2225187E
:1008A300F58210AF08F518400215198008F51840B5
:1008B300021519D2AF851983227404800A74038048
:1008C30006740280027401C0E0F4041208A1D0E0AF
:1008D300120B0D22C0D0251810AF08F518500205D1
:1008E300198008F51850020519D2AFD0D022BB01E8
:1008F30002E722C082C08389828A83BB0003E0802F
:1009030002E493D083D082226016080808C6C3137A
:10091300C618C613C618C613C618C613C6D5E0EA4A
:1009230022C0E0C0D0E8C0E0E5A8D2AFC2C7A2E7CA
:1009330092AFD0E0F8D0D0D0E032C3E0C696F6084C
:10094300A3E0C696F608A3E0C696F608A3E0C6960B
:10095300F622251810AF08F518400215198008F57E
:100963001840021519D2AF22C0E0E493A36C7009BA
:10097300D0E0D0E0D0E00207D6A3A3D0E022E06627
:10098300701008A3E066700A08A3E066700408A369
:10099300E06622E76670100809E766700A0809E74F
:1009A3006670040809E76622C3E09608A3E0960888
:1009B300A3E09608A3E096A2D265D03322C3E096C3
:1009C300F008A3E096F008A3E096F008A3E096F001
:1009D30022E026F008A3E036F008A3E036F008A3EF
:1009E300E036F022E627F60809E637F60809E63787
:1009F300F60809E637F622E026F608A3E036F608FD
:100A0300A3E036F608A3E036F622C0E0E8C0E0E54E
:100A13008124FCF8E6A2E7D0E0F8D0E022700422BB
:100A2300600D18C6C333C608C633C6D5E0F4182212
:100A3300E657F60809E657F60809E657F60809E601
:100A430057F622E056F608A3E056F608A3E056F65A
:100A530008A3E056F622E056F008A3E056F008A3F8
:100A6300E056F008A3E056F022E647F60809E64709
:100A7300F60809E647F60809E647F622E4C396F6C0
:100A830008E496F608E496F608E496F622C3E79699
:100A93000809E7960809E7960809E79622C6F4C607
:100AA30008C6F4C608C6F4C608C6F4C622600D0814
:100AB300C6A2E713C618C613C6D5E0F322C3E09651
:100AC30008A3E09608A3E09608A3E0962275D00059
:100AD300758140751801751903000204D2E0F60808
:100AE300A3E0F608A3E0F608A3E0F622600C08C62C
:100AF300C313C618C613C6D5E0F422E6F008A3E66E
:100B0300F008A3E6F008A3E6F022CAC0E0E6F0A3EB
:100B130008DAFAD0E0FA22E0FAA3E0FBA3E0FCA3B0
:100B2300E0FD22EAF0A3EBF0A3ECF0A3EDF022E565
:100B3300C754F84401F5C77901222518F582E43535
:100B430019F58322C2AF75D69F0200002212088CCA
:100B5300B9E00212088C0EE30212088C5BE4021265
:100B6300088CFEE40212088C45E60212088C63E648
:100B73000212088CB8220012088CCA220012088CB8
:100B83001C230012088C7D230012088C07240012FA
:100B9300088CAB240012088CFF240012088C182543
:100BA3000012088C3E250012088C79250012088C4F
:100BB300BD250012088CE4250012088C352600128E
:100BC300088CE5260012088C9D270012088C6528E6
:100BD3000012088C25290012088C69290012088C40
:100BE3008E290012088CD1290012088C1E2A0012AB
:100BF300088C762B0012088CFC2B0012088C1A2C04
:100C03000012088C442C0012088C5E2C0012088CF5
:100C13006D2C0012088C782C0012088C382D0012D1
:100C2300088C912D0012088C532E0012088C5B2E19
:100C33000012088C1F2F0012088C8B2F0012088CB7
:100C4300B6300012088CDB300012088C51310012D0
:100C5300088CE3310012088CA3320012088CC232D4
:100C63000012088CD1330012088CE3330012088C75
:100C730053340012088C7D340012088C0B3500129B
:100C8300088C44350012088C90350012088CAC3661
:100C93000012088CF5380012088C00390012088CF9
:100CA3000B390012088C16390012088C20390012F7
:100CB300088C2B390012088C45390012088C4F39E7
:100CC3000012088C59390012088C64390012088C00
:100CD3008C390012088CE7390012088CF1390012A4
:100CE300088C153A0012088C393A0012088C973A8E
:100CF3000012088CDB3A0012088CF73A0012088CB9
:100D03006E3B0012088CA63B0012088CF23B0012CB
:100D1300088C4F3C0012088C093D0012088CED3EF4
:100D23000012088C463F0012088C76400012088C93
:100D33009C400012088C25420012088CA145001229
:100D4300088C73470012088C3C490012088CE9494F
:100D53000012088C544B0012088CF34B0012088CC1
:100D6300384C0012088CA24C0012088CB14C0012B3
:100D7300088C384F0012088CEA500012088C575127
:100D83000012088C36520012088C4F530012088C44
:100D9300CC540012088CEB540012088C40550012FE
:100DA300088C45560012088C6D560012088CC556E7
:100DB3000012088CA4570012088CE8570012088C04
:100DC30033580012088C9E580012088CDF59001209
:100DD300088C435A0012088C915B0012088CF15D59
:100DE3000012088C225E0012088CDA5F0012088C55
:100DF3002F600012088C33610012088CD06100123E
:100E0300088C29620012088CDC620012088C7E6355
:100E13000012088C1E640012088CC3640012088C34
:100E23009D800112088CDC800112088C238301123F
:100E3300088C6D830112088C88840112088CF0845D
:100E43000112088C25850112088C99860112088CE1
:100E53001C890112088C458A0112088CDB8A011255
:100E6300088CE3930112088C78940112088C5F9725
:100E73000112088C52980112088CC0980112088C38
:100E8300069A0112088CE89A0112088CCD9C011273
:100E9300088CDE9E0112088C489F0112088C1AA050
:100EA3000112088C48A00112088C05A10112088CBC
:100EB300DCA10112088CA3A20112088C47A3011222
:100EC300088C70A30112088C92A30112088CE8A568
:100ED3000112088CC0A60112088C04A70112088C09
:100EE3006CA70112088C24A80112088C56A80112C1
:100EF300088C9AA80112088CD0A80112088C1CA98E
:100F03000112088C71A90112088C76A90112088CB0
:100F1300C9A90112088CEEA90112088CFDAA0112BD
:100F2300088C61AB0112088CD1AB0112088C5DAC4B
:100F33000112088C2AAF0112088C0EB00112088C22
:100F430091B10112088CC7B30112088C75B4011258
:100F5300088C25B50112088C66B70112088C09B8F4
:100F63000112088C50B80112088CFCB90112088CCC
:100F730010BA0112088C1ABA0112088C42BA011273
:100F8300088C4EBA0112088C6DBA0112088C8DBC04
:100F93000112088CDCBD0112088C20BE0112088CE2
:100FA300C8BE0112088CABBF0112088C56C00112D7
:100FB300088CA2C10112088CA0C20112088C46C37E
:100FC3000112088CD6C30112088CEDC30112088CE0
:100FD30024C40112088C2EC40112088C39C40112D6
:100FE300088C57C40112088C9BC40112088CF8C4E6
:100FF3000112088C1DC50112088C37C50112088C1B
:10100300C3C50112088CE0C60112088C4DC701123A
:10101300088C34C80112088C5BC80112088CCFC835
:101023000112088C4AC90112088C4ECA0112088C9D
:1010330044CB0112088CF3CB0112088C06CD0112AC
:10104300088CA2CD0112088C2FCE0112088C0DCF73
:101053000112088C45CF0112088C9DCF0112088C18
:1010630066D00112088C87D00112088C0ED10112B0
:10107300088C32D10112088C54D10112088C9DD1F5
:101083000112088CB3D30112088C9AD40112088C74
:101093004BD50112088C81D70112088CD1D70112CC
:1010A300088C11D80112088C53D80112088CAFD8C0
:1010B3000112088CDDD80112088C01D90112088CA9
:1010C30054D90112088C82D90112088CBBD90112A0
:1010D300088C10DA0112088C76DA0112088CCADB4C
:1010E3000112088CEDDD0112088C5ADE0112088C06
:1010F30083DE0112088C0EDF0112088C75DF0112EA
:10110300088CC0DF0112088CE4DF0112088C08E0B0
:101113000112088C63E00112088C7EE00112088C36
:1011230037E10112088CACE60312088CEBE60312DC
:10113300088C78800212088CBE800212088C9E8173
:101143000212088CA0820212088CA3830212088C5C
:101153002F850212088C8D850212088C4A86021292
:10116300088C68870212088CD9870212088C1588AC
:101173000212088C63880212088C6D880212088C94
:10118300B1880212088C0D890212088CA8890212F8
:10119300088C258A0212088CF48A0212088C8D8B23
:1011A3000212088CAD8B0212088CE38B0212088C9E
:1011B300148C0212088CD58C0212088CE58C021256
:1011C300088C398D0212088C548D0212088C668D9E
:1011D3000212088C6F8D0212088CC98D0212088CC2
:1011E300258E0212088C718E0212088C8C8E0212CC
:1011F300088CBD8E0212088CDA8E0212088CE68EE1
:101203000212088C5A900212088C73900212088CF6
:10121300DA900212088CED900212088CFB900212F5
:10122300088CAF910212088C93920212088C999346
:101233000212088C23940212088C2D940212088C3B
:101243009A940212088CB1940212088CE39402124D
:10125300088C1C950212088C46950212088CA795DF
:101263000212088CC7950212088CE5950212088CAD
:101273002B960212088C51970212088C9E97021229
:10128300088CCD970212088C43980212088C6B9835
:101293000212088CA4980212088CB2980212088CCD
:1012A3000A990212088C59990212088C9899021211
:1012B300088CC8990212088CF4990212088CFF99C1
:1012C3000212088C1D9A0212088CDF9A0212088CF3
:1012D300E99A0212088C2A9B0212088C7F9B021245
:1012E300088C939B0212088CA19C0212088CB49C5C
:1012F3000212088CC99C0212088C6B9D0212088C86
:10130300EE9D0212088CAC9E0212088CB79E02124C
:10131300088CE39F0212088CFF9F0212088C51A0D5
:101323000212088C90A00212088CA5A00212088C4D
:1013330007A10212088C96A10212088CE1A10212E5
:10134300088C32A40212088CB0A40212088C25A5C2
:101353000212088C47A70212088C5FA70212088C9E
:1013630062A70212088C6EA70212088C82A70212CF
:10137300088C8AA70212088CBDA70212088C6DA8DC
:101383000212088CE3A80212088C56A90212088CD8
:101393000AAA0212088CBFAA0212088CDEAA021241
:1013A300088C84AB0212088CAFAB0212088CB2AB70
:1013B3000212088C1CAC0212088C44AD0212088C79
:1013C3001CAE0212088CA7AE0212088CC0AF021228
:1013D300088C7DB00212088CB6B00212088CE7B0FC
:1013E3000212088CA5B10212088CD5B10212088C26
:1013F300B0B20212088C49B30212088CD4B30212A1
:10140300088C85B40212088C08B50212088C3AB510
:101413000212088C7BB50212088CFBF40112088CB3
:1014230060F50112088C9DF50112088CECF5011290
:10143300088C02F80112088CE5F90112088C4FFDA3
:101443000112088C8AFD0112088CBDD70212088C88
:101453000FFE0112088C43FE0112088C66FE011276
:10146300088C93FE0112088CEFFE0112088C278D65
:101473000312088CA58D0312088CDB8D0312088CD4
:10148300478E0312088CBA8F0312088CD68F03126F
:10149300088C1B900312088CA9900312088C0291EC
:1014A3000312088C2F920312088CD7DF0212088CC8
:1014B3009E930312088C0A940312088C6B940312F4
:1014C300088CAC940312088C59950312088C6B9604
:1014D3000312088C96960312088CE1960312088C6B
:1014E30028970312088CBA970312088C7598031275
:1014F300088C76DB0312088CF0DB0312088CFBDB11
:101503000312088C30A00312088C7CA00312088CF1
:10151300EAA00312088C0BA10312088CBBA10312CF
:10152300088CC4A10312088C17A20312088C40A2D2
:101533000312088CA7A20312088C38A30312088C89
:101543007AA30312088CC4A30312088C23A40312E6
:10155300088C4FA40312088CE0A40312088C1FA567
:101563000312088C5EA50312088C93A50312088C42
:10157300A5A50312088CB7A50312088CD6A50312E0
:10158300088CDFA50312088C95A60312088CD5A638
:101593000312088CF2E20312088C64D50312088C40
:1015A3009AD50312088CE3D50312088C33D70312A0
:1015B300088C71E10112088CB0E20112088CECE294
:1015C3000112088CABE40112088CD4E40112088CDC
:1015D30067E70112088CABE70112088C34E90112AA
:1015E300088CCCE90112088C34EA0112088CD5EA84
:1015F3000112088C17EB0112088C57EB0112088CAF
:10160300E2EC0112088C52EE0112088C77F0011201
:10161300088CA5F00112088CCCF00112088CD5F0CF
:101623000112088C5CF10112088C7AF40112088C07
:10163300C4E70312088CDAE70312088C61E603128D
:10164300088C07C80312088C1AC80312088CB7C881
:101653000312088CF2C80312088C0DC90312088CFC
:1016630032C90312088C77C90312088CA8C9031264
:10167300088CD9C90312088C5FCB0312088C3BFF7B
:101683000112088C71FF0112088C8DFF0112088C66
:10169300CFFF0112088CDFFF0112088C2CB5031257
:1016A300088CD8B50312088CB8B60312088C66B739
:1016B3000312088CBAB70312088CFEB70312088C06
:1016C30079B80312088C00800312088C558003122A
:1016D300088C3E810312088CD7810312088C218267
:1016E3000312088C7E820312088C92820312088CE8
:1016F300C4820312088CC2830312088C068403126B
:10170300088C21840312088C70840312088C86844D
:101713000312088C93840312088CC7840312088C69
:10172300E0840312088CAA850312088C0486031232
:10173300088C52860312088C74860312088CEB887B
:101743000312088C20890312088CB0890312088CB9
:10175300258A0312088C2A8A0312088C668A0312CC
:10176300088CBC8A0312088C808B0312088CA58B0F
:101773000312088CAF8B0312088CB28B0312088CF4
:101783003B8C0312088C568C0312088C698C031251
:10179300088CA48C0312088CA78C0312088CB28CBF
:1017A3000312088CEE8C0312088C14E60312088CC7
:1017B3002CE60312088CEC980312088C3B99031255
:1017C300088CDD9A0312088C999C0312088CE19C07
:1017D3000312088CC99D0312088CFA9E0312088C0D
:1017E3001C9F0312088C789F0312088CFC9F031222
:1017F300088C0F650012088C30650012088CAD65EB
:101803000012088C32660012088CAE660012088C37
:1018130017670012088C63670012088CE2670012D6
:10182300088C74680012088C00690012088C4269E5
:101833000012088C8B6D0012088C0B6F0012088C41
:10184300E16F0012088C10700012088CFB710012FB
:10185300088C7B740012088C34750012088C517646
:101863000012088CA8790012088CB8790012088C31
:10187300197B0012088CA57B0012088CCE7C001209
:10188300088CBF7D0012088C417E0012088C8AE60A
:101893000212088C44E70212088CB6E70212088C85
:1018A30052E80212088CC2E80212088C7BEB021287
:1018B300088C52EC0212088CBFEC0212088C3CEE2E
:1018C3000212088C06EF0212088C76EF0212088CC3
:1018D3003FF10212088C52F20212088CEBF2021250
:1018E300088CB1F30212088C63BD0312088CB7BDD8
:1018F3000312088C0FBE0312088C5ABE0312088C05
:10190300BCBE0312088C28BF0312088CDBBF031272
:10191300088C1CC00312088C32C00312088C8EC0C2
:101923000312088CCCC00312088C9CD90312088CB8
:10193300CDD90312088C87DA0312088CEDDA03126F
:10194300088C10D80312088CC5E30312088CD6E365
:101953000312088C76E40312088C41FE0212088CF1
:101963004FFE0212088CEC7F0012088C30E5031244
:10197300088C40E50312088C58E50312088CB9E57E
:101983000312088CF0E10312088C75E20312088C31
:10199300D9E20312088CEEDC0312088C0ADD031271
:1019A300088C61DD0312088C81DD0312088CBEDD17
:1019B3000312088C19DE0312088CFDC00312088C75
:1019C3000BC10312088C85C10312088C69C2031270
:1019D300088C22C40312088CA2E70312088C6CCB78
:1019E3000312088CBACB0312088C57CC0312088C51
:1019F30002CD0312088C1ACD0312088C96CD031264
:101A0300088CACCD0312088CBFCD0312088CCDCD4E
:101A13000312088CBBAB0312088C10AC0312088CA6
:101A23000CAE0312088C3EAE0312088C60AE031298
:101A3300088C79AE0312088C92AE0312088C9CAF0B
:101A43000312088C37B00312088C50DE0312088C83
:101A530074DE0312088C8DDE0312088CC0DE0312C1
:101A6300088CF1DE0312088C1FDF0312088C81DF60
:101A73000312088C90DF0312088C9ADF0312088C80
:101A8300A7DF0312088C11CE0312088C37CE031282
:101A9300088C74CE0312088C83CE0312088CA2CE5A
:101AA3000312088C0ACF0312088C13CF0312088C7D
:101AB30072CF0312088C96CF0312088C55D00312F1
:101AC300088C62D00312088C73D00312088C39E798
:101AD3000312088C56E70312088CAEB00312088C6D
:101AE3000CB20312088C19B20312088C2CB2031225
:101AF300088C4BB20312088C61B20312088C75B2C6
:101B03000312088CEAB20312088C4FB30312088C39
:101B1300FFB30312088CD4B40312088CE4B4031289
:101B2300088CF3B40312088C97E40312088CBBE40B
:101B33000312088CE3E40312088C0BE50312088CF0
:101B4300A1D00312088CC8D00312088CE9D0031269
:101B5300088C4ED10312088C07D30312088C20D3B0
:101B63000312088C2CD30312088C40D30312088C65
:101B73005ED30312088C68D30312088C72D303124A
:101B8300088C85D30312088CD8D30312088C11D484
:101B93000312088C40D40312088C8ED40312088CD1
:101BA300DDD40312088CF8D40312088C02D5031277
:101BB300088C13D50312088C59D50312088CC3E57E
:101BC3000312088C05F50212088C2FF50212088CFB
:101BD3004BF50212088C5EF50212088C74F50212A2
:101BE300088CD1F50212088C04F60212088C40FA14
:101BF3000212088C66FB0212088C99FB0212088CF5
:101C0300E5FB0212088C11FD0212088C39FD021249
:101C1300088C4EFD0212088C5EFD0212088CA2FD98
:101C23000212088C03FE0212088C13FE0212088CA7
:101C3300B1DF0312088CCCDF0312088CF5DF03122B
:101C4300088C0FE00312088C34E00312088C53E075
:101C53000312088C6BE00312088C99E00312088CC2
:101C6300B3E00312088CF5E60312088C87C4031251
:101C7300088C8EC40312088C9AC50312088CCAC53B
:101C83000312088CF0C50312088C13C60312088CC8
:101C930035C60312088C6FC60312088CD5C603120F
:101CA300088C0EC70312088C5AC70312088C87C707
:101CB3000312088CA7C70312088CE4E00312088CF4
:101CC300FCE00312088CEAE10312088CEDE1031235
:101CD300088CD97E0012088C4B7F0012088C897FF8
:101CE3000012088CCA7F0012088CA2B90312088C58
:101CF300C1B90312088C10BA0312088C2CBA031250
:101D0300088C5DBA0312088C6ABA0312088C77BA7E
:101D13000312088C63BB0312088CA1BB0312088C4B
:101D2300B1BC0312088CBCBC0312088CCEBC0312DA
:101D3300088CD7BC0312088CE1BC0312088CFEA6E6
:101D43000312088C43AB0312088C51AB0312088CAB
:101D530075E70312088C86D60212088CDAD50212B4
:101D6300088C20D40212088CD0D10212088C57D1CF
:101D73000212088CFED00212088C8ED00212088C3C
:101D830065D00212088C45CE0212088C11CE0212C5
:101D9300088CDECD0212088CC2CD0212088CDBCC7B
:101DA3000212088C93CC0212088CDECA0212088C31
:101DB3005ECA0212088C5BCA0212088C58C902124E
:101DC300088C26C90212088C63C80212088C8EC6BE
:101DD3000212088C1FC60212088CBBDF0212088C89
:101DE3003FDF0212088CF6DE0212088CAEDE02120E
:101DF300088CFCDD0212088CF1C50212088CEEC5BA
:101E03000212088CDBC50212088C86C50212088CEC
:101E13006EDD0212088C75C50212088C67C40212AB
:101E2300088C31C40212088CDFC30212088C61DDF6
:101E33000212088C41930312088C80C30212088C8F
:101E43004FC30212088C17C00212088CD7BF0212AC
:101E5300088CCBBF0212088C2BBF0212088C6BBEFE
:101E63000212088CEDBB0212088C7EB90212088C98
:101E73003CB90212088C10B80212088CC5B70212C2
:101E8300088C04B70212088CD7B60212088C1AB653
:101E93000212088CB0B50212088CEAB50212088C43
:101EA3005BDA0212088CACFD0100000080FBE473D6
:101EB30000013636010100010201000103010001A6
:101EC3000401060605020000070100340801000FA3
:101ED300090401010D0100FF0E08000017020000B4
:101EE300190100FF1A0100011B0100FE1C0100087B
:101EF3001D0200001F01000120010001210200005A
:101F03002301000F2402000026010001270100081D
:101F1300280200FF2A0100072B0102402C010000C8
:101F23002D0100012E0100012F0100FF30010B1CC8
:101F3300310800003A0100083B01000F2F010000A7
:101F430003027102300160021102700201020202F7
:101F530002028002100261023A004100630273022E
:101F630072026202430200021302380000020002FE
:101F73000402120200020002000200020402040230
:101F8300370037003C02440200023900000200021D
:101F93006502000235028102000205028202830209
:101FA3000002030071003001600011007000310273
:101FB300200350048000100061000000140063003F
:101FC300730072006200430000001300060000006B
:101FD30000000400120000000000000000000400E4
:101FE3000400370037003C024400000000000000FA
:101FF30000006500000035008100000005000000BE
:1020030083000000030471040204600411047004DB
:102013000204020401040204100461040004140411
:102023006304730472046204430400041304060487
:102033000004000404041204000400040004000467
:102043005104640000040004000444040004000478
:1020530000040004650400043504810464000504DD
:10206300000483040004010371030103010301035A
:10207300010301032203020301031003000300030E
:1020830000030003000300030003420300032403CF
:10209300060300030003040312032503230325039C
:1020A30023030403040300030003000344030003A6
:1020B30000032303000365032100350381030003A9
:1020C3000503000300030003010171010101010184
:1020D30011010101310101010101800110016101BF
:1020E3003B001400630173017201620143010001AB
:1020F300130106013D013500040112010001000135
:102103000001000104010401330133013C014401D6
:102113003201360000010001650100013500810133
:102123000001050182018301000136000100060060
:1021330000000F000000000000000000000000008D
:1021430003FFFF00000403FFFF0000FFFF0FF40184
:102153000005C4040320000100000B000000000080
:1021630000000003010F0000A61813004618010029
:10217300A618020010180300161804001C18050006
:10218300221806002E18FFFF000001680E06980EA5
:1021930008920E0BA40E10E40D026E0E05860E07B8
:1021A300740E0C4A0E0D5C0EFF000003EAF5E5D534
:1021B300D5C5B5A59595858575756565555545450C
:1021C300353525251515057012A01276127C129A45
:1021D300128E128812A612AC12B212BE1282126AA8
:1021E30012641200160F00000B150B020002220FDF
:1021F300320000065A136C1372133A127813341216
:10220300401274116E11AA11B011A4115C11B41310
:10221300D213D813BA13C613C013303016181920AB
:10222300231A1C1E300C0E020B040B0A0708000FA6
:1022330000383C3E363B3B352B432C3030171819C6
:1022430021301B1D1F300001191618161615230304
:102253000000034948424D1817250502A8137E13B1
:10226300841390138A139412B812CC13C412CA1293
:10227300020402010101010902801186117A11B6DB
:10228300110000000000008C119E1100BE040A150D
:102293000004007F00E8030C002800000000000990
:1022A3000308100C0A03080900040001FF1E1E0C9A
:1022B30005040F1008C082C0838A828B83E0D2E7B3
:1022C300F012177402342FC082C08379001227845E
:1022D30012549BC082C083900334124221D083D016
:1022E30082C3E09CA3E09D500C125B6FFAA3E01243
:1022F30022FB60010902342FFBEA75F00BA4FAA854
:10230300F075F00BEBA428FB900336E02AF8A3E06A
:102313003B8882F583E0540F2274F712040789087F
:1023230012278412282AACF075F00BE9A42CF9903B
:102333000336E028FEA3E039FF74016508600674E4
:1023430002650870208A828B831228161234FD746A
:10235300026508701B1226D512285D70138E828FBA
:1023630083E4F0800BEA2403FCEB1227F812280421
:10237300EEFAEFFB120B7402346774F412040712C3
:10238300649679008E828F83E06076890A890B8058
:1023930065E50A75F00BA4FAA8F075F00BE50B12CE
:1023A30023087046E50A75F00BA4F8AAF075F00B44
:1023B300E50B12283C8E828F83E085088285098392
:1023C30012291E850882850983A31234FDEE240396
:1023D300FCEF122801123436124F15AA08AB09126A
:1023E3000B74790190033412492AE50A2401F50A92
:1023F300E50B3400F50B1226DDE50A9AE50B9B404D
:10240300900236A774F5120407EAFEEBFF740B1271
:102413000B3D12343B750A01EC4D602BEC1264B298
:10242300ED12549B1234F57901120B80E50845092E
:10243300606F850882850983A31264A07902AA08C4
:10244300AB09120B80805AE5084509602B12549F93
:10245300123B69123437122847700CEEFAEFFB1265
:102463000B86E9F50A80CBEE2403FA12277F70313D
:102473007903EEFAEFFB80CA8E828F83A3E064FEBA
:102483007003A3E0F4700BEE24030A0A0A12277FF9
:10249300700CEEFAEFFB120B86E9F50A8003750A5E
:1024A30000A90A7F0302066774F712040790033436
:1024B300123477EA4B602FEA75F00BA4FAA8F07593
:1024C300F00BEBA428FBEAFEEBFF1215A6900336F4
:1024D30012347790033612476F6012EEFCEFFD79EA
:1024E300001215108007900336E4F0A3F00234675E
:1024F300900334123ED9C3EE98EF9922C082C08371
:10250300EC4D6005121CE480097C087D0079001203
:10251300151002342F74F61204077900EA4B601881
:10252300780088081257E2EB125B6B60047901783C
:102533000808E8C3940840EA02350674F712040752
:1025430074F3120955ECFEEDFF851882851983E4B7
:10255300F004120B3DEAF0A3EB124C9B7403120B35
:102563003DAC82AD83EEFAEFFB120B98EEFAEFFB74
:10257300120B9E02346274F712040774F3120955A6
:10258300ECFEEDFF851882851983E4F0EAFCEBFD90
:102593007403120B3D1229177401120B3D1234F10F
:1025A3008E828F831234FD74FE68700374FF69603A
:1025B3000479018002790002346274F7120407EA95
:1025C300FEEBFF12261B70141226268E828F83E0E9
:1025D300F4F88A828B83E058F0120B74A908023452
:1025E3006774F7120407EAFEEBFF7508008E828F0B
:1025F30083E0602212261B701D1226268A828B839B
:10260300E08F838E82F8E058700CE0F88A828B8327
:10261300E048F0120B7480C4120B7AE9F5087401D8
:102623006508221264AB12282E122770FAA3E03930
:10263300FB2274F41204078A088B097C007D0012C4
:1026430026D512280412279512649D7900850882E5
:10265300850983A3E064FE7003A3E0F460717E0048
:102663007F008062EEFAEF1222FB6057EEFAEFFB77
:10267300EA75F00BA4FAA8F075F00BEBA428FB9015
:102683000336E02AF50AA3E03BF50B8508828509AA
:1026930083A3124BE9850A82850B83A3E06A700347
:1026A300A3E06B701EE50A2403FAE50B1227807082
:1026B3000AE50A2403FCE50B122801122789790194
:1026C3001254B11230741226DDEE9AEF9B4095023C
:1026D30036A7EA24030A0A0AEB229003341250882D
:1026E300C32274F31204078A088B098A828B83A39B
:1026F3001264A012278412649D750C001226D51251
:10270300278070547E007F008049122762FAA3E07D
:10271300398A82F583E0540F6036122762F50AA3E3
:10272300E039F50BE50A2403FCE50B12280B340012
:10273300FB121CDEE964017017850A82850B83A3F3
:10274300125149A31234FD122789750C011254B199
:102753001230741224F340B2A90C7F05020667EE0F
:10276300F8EFF9E875F00BA4F812277022AAF075B8
:10277300F00BE9A42AF9900336E02822EF12285738
:10278300221264B1EB221227951254ACEEF0A3EFA0
:10279300F022E5081264B2E5092274F5120407EA8F
:1027A300FEEBFF8E828F83A31264A07C007D00EE7C
:1027B30024030A0A0AEF122804EEFAEFFB120B7A3B
:1027C300E9F50A7401650A70291264AB12282AAA72
:1027D300F075F00BE912283C850882F58312281660
:1027E300122847700DE5082403FCE5091227F812A7
:1027F30028040224A43400FDEE2403FAEF22122855
:102803000B3400FB120B98223400FDE5082403FA75
:10281300E50922A312281B2212281F22E0F8A3E0B5
:10282300F98E828F83A32212282E223400F583127D
:102833003EDDE875F00BA4F822122776F508A3E035
:1028430039F50922E8F0A3E9F0E5082403FAE509DC
:102853001228572212285D6401223400FB120B9EBA
:10286300E92274F312040774E6120955126496758B
:102873000C01750800750900750A00750B008518B1
:1028830082851983E4F0EE2403FCEF3400FD740326
:10289300120B3D122917E964017023740B120B3DCF
:1028A3001234F57401120B3D124BED7003A3E06972
:1028B3006051851882851983858208858309740D83
:1028C300120B3DE412291E740E120B3D1234FD74DB
:1028D3000D120B3DAA82AB83120BBCE96401700B92
:1028E300740D120B3D85820A85830B780A1208C486
:1028F300AC08AD09EEFAEFFB120B8C74021208D789
:10290300E9F50CEEFAEFFB120BB6A90C741A1208D8
:10291300D702275D122BEA120BC222123472123E27
:10292300D922C082C083780079008003122A15124D
:1029330026DDE89AE99B5029E8FAE9FBEA75F00BF2
:10294300A4FAACF075F00BEBA42CFB900336E02A51
:10295300FCA3E03B8C82F583E0540F70CF790080B9
:1029630002790102342FC082C083902292123F2F3A
:10297300EC75F012A4FCA8F075F012EDA428FD7913
:10298300FF7A127B0812151002342F74F712040712
:10299300E9FEEAFF7A007B00780079008028E8FCF2
:1029A300E9FDEC75F012A4FC85F00875F012EDA4B6
:1029B3002508122E2AC39E400AE0FCEFC39C400365
:1029C300122F49122A15122E1E40D3023467C082D9
:1029D300C083780079008003122A15122A09501F38
:1029E300122E2EF470F2E875F012A4F8AAF075F026
:1029F30012E9A42AF9741228FA740839FB80047ABC
:102A0300007B0002342F902292122EDFC3E89AE952
:102A13009B22E8240108E93400F92274F012040728
:102A230074F31209558A0A8B0B8C0C8D0D8908ECF3
:102A3300450D6016AA0CAB0D120C108A0E8B0FAE4F
:102A43000EAF0FEE4F6003022ADC120BE68A0E8BE9
:102A53000FA80EA90FE8FEE9FFE849607C9022A0C9
:102A6300122B3E60227403650860067404650870C7
:102A7300167A047903120BE09022A0122B5540071B
:102A83007A007B00022B3B90229E122B3E601B742C
:102A9300016508600674026508700F7A02790112F5
:102AA3000BE090229E122B5550D6851882851983F0
:102AB3007401F0120B3D124F15AC0CAD0D740312E3
:102AC3000B3D122BE3740B120B3D1234431238DD12
:102AD300E4124EFD1210B48004EE4F604A78007485
:102AE300FF2508C39404500278048E828F83124F0B
:102AF300158E828F83A3A3A3A3E508F0E88E828FAC
:102B030083A3A3A3A3A3124F1D1202B6122EF68E04
:102B1300828F83A3A3A3A3A3A3A3F0122EED120B6F
:102B23001A125495120B26122B434005900D6EE496
:102B3300F0120F8EEEFAEFFB023EE31250374922FA
:102B43007A047900120BE0902292125B51EA98EB1F
:102B53009922122B6E758322758292E493C398F89F
:102B6300A3E49399F9C3EA98EB9922E493F87401E7
:102B730093F92274F212040774F31209558A088B2D
:102B830009ECFEEDFF750A00EEFAEFFB120C108A5A
:102B93000C8B0DA80CA90DE849603E88828983E05F
:102BA30065087004A3E06509602F88828983A3A365
:102BB300A3A3E0C3940550211253438518828519BA
:102BC300837401F0120B3D125347EEFCEFFD7403C7
:102BD300120B3D122BE3750A01A90A740D0249E198
:102BE300122BEA120BCE22AA82AB83120B98851802
:102BF30082851983AA82AB832274F6120407122CEE
:102C030038600FA3A3A3A3E014C394045004790171
:102C13008002790002350674F6120407122C38601C
:102C23000FA3A3A3A3E014C3940250047901800269
:102C33007900023506120C0A8A828B83E58245836A
:102C43002274F6120407122C38600BA3A3A3A3E08B
:102C53007004790180027900023506C082C083EADC
:102C6300FCEBFD7A007B0002342CC082C0837C0025
:102C73007D0002342C74F412040774F3120955EA2C
:102C8300FEEBFF8C0A8D0BC3EC94F8ED94FF400729
:102C9300EE4F7003022D31750800750900802E85F3
:102CA30018828519837401F012309C120B3D123087
:102CB300AA60137403120B3DAC82AD83EEFAEFFBF3
:102CC300121CDEE97049E5082401122ECA902292F3
:102CD300E412503FE50898E509995052E50875F06C
:102CE30012A4F8AAF075F012E509A42AF9125B847C
:102CF30060D4EE4F70A974FF650A700474FF650B0E
:102D030060C412308C650A7004A3E0650B70B7E5EC
:102D13000875F012A4F508A8F075F012E509A428C7
:102D2300F50974122508FA74083509FB80047A0042
:102D33007B000236A274F412040774F3120955756A
:102D43000800120C108A0A8B0BAE0AAF0BEE4F6011
:102D53002A851882851983740112346CF8A3E0F96B
:102D6300740B120B3D123580120BB07C127D00796F
:102D7300FFEEFAEFFB121510750801122B435009F1
:102D8300900D6E7401F0120F8EA9080236A274F72B
:102D9300120407E9FE74FE6A700374FF6B7800790E
:102DA3000070058052122A15122E1E504AE8FCE9C3
:102DB300FDEC75F012A4FCAFF075F012EDA42F1228
:102DC3002E2AF460E0E8FCE9FDEC75F012A4FC7532
:102DD300F012EDA42FFD74122CF58274083DF583D7
:102DE300E06A7003A3E06B70BC8009122E2E14C33B
:102DF30094044017122A15122A095018EE70EC1287
:102E03002E2E64016005E0640370E912307DFAA39D
:102E1300E0FB80047AFE7BFF023467902292123F2C
:102E230033C3E89CE99D22122F7E22E8FAE9FBEAEC
:102E330075F012A4FAACF075F012EBA42CFB741627
:102E43002AF58274083BF583E022120C2202342F08
:102E5300C082C083790180F274F01204078A0A8B5E
:102E63000B7A047901120BE08A0C8B0DEA450D6095
:102E73003EEAC333FAEB33FB1215A68A088B09AE7D
:102E830008AF09EE4F60237AFE7BFF120C2874FE15
:102E93006A700374FF6B601B850882850983123493
:102EA30077E5082402122ECA80E1750C0080047EA7
:102EB300007F00850A82850B83E50CF0EEFAEFFBB9
:102EC300023EE8E5082407F508E5093400F5092280
:102ED300902292123F33C3EA9CEB9D22E493FA744F
:102EE3000193FB221215047403221254A6E4F090FA
:102EF300807222E88E828F83A3A3A3A3A3A3A3A399
:102F0300122F187401122F18A3F0EE24101254A9D3
:102F1300E4F0A3F0221238E9A3A3A322C082C08362
:102F23007A007B00800419122F49122ED3501012FD
:102F33002F68C3940550F0E970EC122F5280047A85
:102F4300007B0002342FEA24010AEB3400FB22EA5F
:102F530075F012A4FA75F012EBA428FB74122AFA86
:102F630074083BFB22EAFCEBFDEC75F012A4FCA811
:102F7300F075F012EDA428122F7E22FD74162CF5A5
:102F83008274083DF583E02274F712040774F31288
:102F930009557E007F00023030E50875F017A4F86C
:102FA300A9F0125DE5FAA3E0FBEEF8EFF9E875F09E
:102FB30012A4F8ACF075F012E9A42C12308B6A70ED
:102FC30003A3E06B603FE50875F017A4F8AAF0EAE5
:102FD300125DE4F8A3E0F97401120B3DE06870039D
:102FE300A3E0696020E50875F017A4F8EAF9748E88
:102FF30028FC740939FD7403120B3DAA82AB8312BA
:103003001CDEE96014E50875F017A4F8A9F0748CC8
:1030130028FA740939FB1210C005089022A5E4931D
:10302300F8E508C3985003022F9C12307490229243
:1030330012612B5039EEF8EFF912307DF47003A3CF
:10304300E0F460E68518828519837401F0EEF8EFE9
:10305300F9E875F012A4F875F012E9A42AF9123010
:103063009C120B3D1230AA60C175080080AD02347A
:1030730062EE24010EEF3400FF22E875F012A4F88B
:10308300AAF075F012E9A42AF912309022741228DA
:10309300F582740839F583E022741428F5827408E4
:1030A30039123ED7740B22E8F0A3E9123588120BCC
:1030B300C8E922C082C08390033D7480F0A3740EDC
:1030C300F090033F747AF0A3740EF0900343749A64
:1030D300F0A3740CF002342F74F7120407EAFEEB2A
:1030E300FF900377E06408601BE0640460168E823F
:1030F3008F83E05403640170481234361239DEE0E2
:103103006406703D8E828F83A3A3E064FE7003A3E5
:10311300E0F4602D8E828F83A3A31234F1900368B1
:10312300E0687003A3E069700BEE2415F582EF12DB
:103133005B6B6008120F2EE9F5088008120F3480CC
:10314300F67508C2EEFAEFFB1215AC0225DF74F434
:103153001204078A088B098A828B83E0F8A3E0FABA
:10316300E82AFAE43400FB1215A68A0A8B0BAE0A8E
:10317300AF0BEE4F6063850882850983E0FC7D0019
:1031830079001215108E828F83A3A31264A0120FED
:10319300708E828F83A3A3A3A312347785088285BD
:1031A3000983E0F8EE28F8EF34001234F985088239
:1031B300850983A3E0C0E0EE240D125498D0E0F01B
:1031C300120F82EE240E125498E9124B4AE0C0E02B
:1031D300EE2411125498D0E0F0EEFAEFFB0236A77A
:1031E30074F612040774EB120955EAFEEBFF12475B
:1031F3006C60030232877A077B001215A6900339AD
:1032030012347712476C60788E828F83120B1A9078
:10321300033A1239E1120B26126364C0E0123293AF
:10322300D0E0F0EE2405FAEF3400FB8A088B098A1C
:1032330082F583E0C0E012328ED0E012369EE0C009
:10324300E012328EA3D0E01234E3120B1A851882F7
:10325300851983120B2688828983E0C0E0740512E6
:103263000B3DD0E0F0850882850983E0C0E074045B
:10327300120B3DD0E0F07407120B3D1233C98006E8
:103283007910800279017415023503123293A32257
:10329300900339E0FAA3E0F5838A82A3A3A3A322D0
:1032A300C082C08312476C600D9003391250769030
:1032B3000339E4F0A3F0120E9E12106002342F744F
:1032C300F012040774EB120955ECFEEDFF89087444
:1032D30025120B3D780C120AE07429120B3DE0F91C
:1032E300742A120B3DE0FC742B120B3DE0FD740FAE
:1032F300697005740F6C6012900DB3E06402700581
:1033030079C10233C4E9C39C40F6900378780C1268
:103313000AFEE50890037EF0E990037CF0ECA3F04D
:10332300ED90037FF074FF6A700374FF6B701D9060
:103333000DBEE0F47003A3E0F4700512151C800CBD
:10334300900DBE12344CE8F0A3E98007900375EAB0
:10335300F0A3EBF0EE4F6017EEFAEFFB121120E94A
:103363006401700BEEFCEFFD7A897B03121CE49081
:103373000368E4F0A3F090036BF0A3F0900388F0EC
:10338300900DB3E06402700890037C740FF0A3F017
:103393009003777405F014120B3DE4F09003781258
:1033A3000B1A851882851983120B2690037EE0C0C1
:1033B300E07405120B3DD0E0F07407120B3D12339D
:1033C300C97415023EE5E4123588121D0E22C0822F
:1033D300C083900338E07003121840120C6A804CCB
:1033E300C082C083900338E0900D6D7004E4F080D8
:1033F3002D7401F0900338E0F460237C41E0C39422
:10340300415002E0FCECF8E0C398F0EC75F0E8A45E
:10341300CCA8F075F003A428FD7A80123F3B7A6DA7
:103423007B0D7941121CFC8003120C16D083D082D1
:10343300020889EE1254A722E0F508A3E0F5092259
:103443001234472212281FA322123ED99003752259
:1034530074F7120407EB90037FF0120E8C8005744F
:103463000D1208D77F01020667123472A3E02212FD
:1034730034E3A322EAF0A3EBF02274F712040774F7
:10348300F8120955EAFEEBFF7900900377E0640830
:10349300704485188285198374FDF0A374FFF012BC
:1034A3000F6A7402120B3D1234777405120B3DE45C
:1034B300123472E0C0E07404120B3DD0E01234DE2B
:1034C300C0E07406120B3DD0E0F07407120B3DE42C
:1034D300123584120FAC74080234641234E3E02210
:1034E300F08E828F8322F085188285198322123E03
:1034F300D922E0F8A3E0F91254A6E8F0A3E9F022F8
:103503001208D77F02020667C082C0839003497402
:103513002AF0A3740DF09003EF7406F0A37410F077
:1035230090034D7460F0A3740DF090034F742AF070
:10353300A3740DF09003517466F0A3740DF002347C
:103543002F74F412040774F91209558A088B098C35
:103553000A8D0B8518828519837808120AFE740474
:10356300120B3DE9F07405120B3DE4F07406120BE7
:103573003DE4123584120C5274070236A4E8F0A31A
:10358300E9123588221234E9AA82AB832274F41239
:1035930004078A088B098A828B831254B4EE4F7016
:1035A3000302369C90031212476F60158A828B8345
:1035B300A3A3E0F9EEFAEFFB9003131239E1121E15
:1035C300B18E828F83A3A3A3A3A3A3A3A3A3E06426
:1035D3000270748E828F83A3A3A3A3A3A3E05402D8
:1035E300700302366E850882850983A3A3E064E92C
:1035F30060798E828F83A3A3A3A3A3A3A3A3A3A36F
:10360300E07014900DB6E0048E828F83A3A3A3A36E
:10361300A3A3A3A3A3A3F08E828F83A3A3A3A3A394
:10362300A3A3A3A3A3E01412369EA3A3A37404F03D
:10363300900DB7124EEFE8F0A3E9125FC88B0BEAC7
:10364300450B70031259A68E828F83A3A3A3A3A352
:10365300A3A3A3A3E0640260128E828F83A3A3A318
:10366300A3A3A3A3A3A3E06406702E8E828F83A3D8
:10367300A3A3A3A3A3E0A2E0501F85088285098327
:10368300A3A3E0F9EEFAEFFB121D928E828F83A3C0
:10369300A3A3A3A3A3E054FEF080091238E5227488
:1036A3000D1208D77F0402066774EC12040774DD59
:1036B300120955EAFEEBFF8C088D097437120B3D96
:1036C300780C120AE0750A007405120B3DAC82AD4A
:1036D30083120B507412120B3DE070087415120B19
:1036E3003DE060207405120B3DE0A2E6501E8E8281
:1036F3008F83A3A3A3A3A3A3A3A3A3124BE9120F93
:10370300E2E960087903121CCC0238CB7405120B72
:103713003DE0540C64047005750B018003750B00C8
:10372300E0A2E55035750A01E50BA2E0402C120F2B
:10373300708A108B11A810A911123436E068700337
:10374300A3E06960157405120B3D1264A7124BE5E3
:10375300121D9EE96004790480AC7405120B3DE0F0
:10376300A2E650227406120B3DE054037018740550
:10377300120B3DE0540C640C600CE0540C640860C4
:103783000575100180037510007405120B3DE0549C
:1037930003F8740268700C1264A7124BE5120B62F3
:1037A3000238CB740168703AE510A2E05003123876
:1037B300D37405120B3DA882A9837403120B3DE851
:1037C300F0A3E9123ECD8518828519831238DDE016
:1037D300C0E07402120B3DD0E0123584121E820247
:1037E30038CBE860030238CB90035FE064017010CC
:1037F3008E828F83A3A3A3A3A3A3E07003023759ED
:103803007422120B3D7402123ECD741A120B3D1238
:1038130034FDE510A2E050087405120B3D1238D3B5
:10382300E50BA2E0506AEE240FF582EF125B6BC04A
:10383300E07417120B3DD0E0F090031412476F7041
:10384300030238CB120F708A128B13A812A91374B8
:103853001A120B3DE0687003A3E069706B780C12D9
:1038630008BC780A1208C878081208C4A910740C96
:10387300120B3DAC82AD837421120B3DAA82AB8344
:103883009003141239DE121EB174071208D7803860
:10389300780C1208BC780A1208C878081208C49079
:1038A3000375120734EE2412F582EF12589974232C
:1038B300120B3DAC82AD83740E120B3DAA82AB8317
:1038C300121D8674091208D774231208D7025F9356
:1038D3001264A7125084120B5622E8F0A3E912389F
:1038E300E5221238E922F08E828F83A3A3A3A3A338
:1038F300A32274F712040712172C02346774F71209
:10390300040712173202346774F712040712173EC2
:10391300023467C082C08312173802342F74F7123F
:10392300040712174402346774F712040774091268
:103933000B3DE0F50878081208C81217507401020D
:103943003464C082C08312175C02342FC082C083E8
:1039530012176202342F74F7120407121768023425
:103963006774F7120407EAFEEBFF89087401650820
:1039730070147900120DA29022B0E493FC7900EE4A
:10398300FAEFFB120D1802346774F412040774F98A
:10399300120955E9FE8A088B098C0A8D0B741312E0
:1039A3000B3D124BE990058B12476F6027EE85188C
:1039B30082851983F07401120B3D7808120AFEEA1E
:1039C300F8EBF97405120B3D12358090058B123913
:1039D300DE121EB102357BFB90034BE0F8A3E0F54A
:1039E30083888222C082C08312179802342F74F70F
:1039F300120407900D70E0F97E00800B125B5754A0
:103A03000D64017001190E123BEB5003E970ED02D6
:103A1300346774F7120407900D71E0F97E00800B90
:103A2300125B57548D64817001190E123BEB5003E6
:103A3300E970ED02346774F2120407890BE975F03B
:103A430006A4240CF508E5F0122ECE8A0CE5082511
:103A53000CFAE5093400FB1215A68A0C8B0DAE0C8B
:103A6300AF0DEE4F6027AC08AD09790012151012A7
:103A73003436E50BF0EE2508F8EF3509F98E828F21
:103A830083A3A3A3A3A3A3A3A3A31234FDEEFAEFDB
:103A9300FB0249E474F6120407EAFEEBFF120CF48E
:103AA300900D6FE0F8E9C3984009900345124BE984
:103AB300120CFAEE2402F8EF1251F9900347125058
:103AC300B3900347E004F0EEFAEFFB120D00850814
:103AD30082850983E00256AFC082C08379009003D8
:103AE30045800109124BE98A828B83E58245837005
:103AF300F202342F74F7120407EAFEEBFFEE4F6075
:103B03005690034512476F604E888289837A007B03
:103B130000EE65827003EF6583600FAA82AB8312A8
:103B23003B5DE5824583602F80E7900345123B6947
:103B3300687002EF698E828F8370081234F19003EC
:103B4300458003125FA51234FDEEFAEFFB121E52FD
:103B5300EEFAEFFB1215AC023467123B6122123E00
:103B6300DD8882898322123ED9EE22C082C08390EF
:103B7300034580048882898312476F600B8882899A
:103B830083124221EC4D70EC8A828B83E4F0A3F024
:103B9300E84960068882898380039003451234775D
:103BA30002342F74F712040790034580048A828B32
:103BB30083123BE64B60257E0080010E123BEB50E7
:103BC300ECEE75F006A4FCADF0EA2CFCEB3DFDEC4D
:103BD3002410F582ED123C3B70E180047A007B00F7
:103BE300023467125088EA22123C44EEC3982274CE
:103BF300F71204077D0080010D123C40EDC398507D
:103C030034ED75F006A4FEA8F0E8FFEA2EFEEB3FC4
:103C1300FFEE2410F582EF123C3B70DCED75F006ED
:103C2300A4FEE8FFEA2EFAEB3FFBEA2411F582EB50
:103C3300125B6B4CF0023467125B776922123C44CF
:103C4300221264B1EB3400F583E0F82274F6120417
:103C530007120E1A7A007B008025EAF8EBF9E87563
:103C6300F006A4F8ACF075F006E9A42C12505D122E
:103C73006372A3E4125153F0A31263781264EF90BA
:103C8300229A122B4D40D37A007B00801C8A088B2A
:103C93000974037808120A20124B11A374FEF0A3CF
:103CA30004124F33A3E41264EF9022A4123CEE40BB
:103CB300DC7A007B00801D8A088B09740378081264
:103CC3000A2074B41257E3740C12602A74FEF0A332
:103CD300041264EF9022AA123CEE40DB9022AEE481
:103CE30093900353F0123CF8023506E493F8C3EAC9
:103CF30098EB9400227CE87D037A107B009003C24A
:103D0300E0F91216602274F012040774F5120955D3
:103D13008A088B09890A8C0BE9A2E050147508FC08
:103D23007509FFA2E15005D2E4023DCBD2E3023D87
:103D3300CB1249D07003A3E06970057900023E9865
:103D4300AC0A7902AA08AB09120DF6E960EDE50A9F
:103D5300F50C780C1208C879027CFE7DFFAA08AB2B
:103D63000912474B1208D7E96003023E96E50AC2DF
:103D7300E5F50A9003B5E07051E50AA2E6404B74FD
:103D830003120B3DAC82AD83AA08AB09120BA4E965
:103D9300703212406C8A0C8B0DA80CA90DE8FEE959
:103DA300FFE8496025EE24020A0AEF12285D601A33
:103DB300EE2402FCEF3400FD7403120B3DAA82AB28
:103DC30083121CE4E50AD2E5F50A900348E0F50CFA
:103DD300900368E0F50EA3E0F50F780E1208C47D9A
:103DE300017C00900348E0F9AA0EAB0F120DAE74EC
:103DF300021208D7E9F8900348E004F0E8600302F0
:103E03003E96E50AA2E55004740E80027406C0E0F3
:103E13007401120B3DD0E01254C58A0E8B0FAE0E07
:103E2300AF0FEE4F6069123EB6123ECD8882898392
:103E33007401F07478550AA31264B7E50C1264B7E1
:103E4300A3E508F0E509123EA5E4F0E50AA2E55072
:103E53000F7403120B3DAC82AD83E82406123E9C23
:103E63008E828F83A3A374FDF0A374FFF0E50B6030
:103E7300159022B1E493F8E50BC3985009EE24138F
:103E8300125498E50BF0EEFAEFFB120C468006791C
:103E930010800279C7740B8049FAE93400FB121CC5
:103EA300E42288828983A3A3A3A3123EB1221252E0
:103EB3002CA322EE24171254A97401F0120F6AEEF8
:103EC300241A1254A9EAF0A3EB22F01264AB3400D3
:103ED300123ED722F583123EDD22E0F8A3E0F92259
:103EE300740D1208D77F0802066774F61204077A66
:103EF300007B101259B360089003D47401F0802939
:103F030090062CE06401900DB47006E0FC7901800A
:103F130004E0FC79037A007B00120D1890229812BA
:103F23003F2F7A007B10123F3D023506123F3322AA
:103F3300E493FC740193FD227B009003C2E0F91229
:103F4300165A2274EC1204078A088B098C0C8D0D07
:103F5300890E7414120B3D12492A7416120B3DE09C
:103F6300F510A3E0F511120FE2E960077AFF7BFF7A
:103F7300024069900DB3E06402600302405C790083
:103F8300AA08AB09120DFCA90E120DF08A128B13AD
:103F9300AE12AF13EE4F70030240448E828F83A3A1
:103FA300A3A3A3A3E064018E828F83A3A3706912EA
:103FB3004BE98E828F83A3A3A3A3A3A3E05418602A
:103FC300439022AFE4938E828F83A3A3A3A3F0EA4B
:103FD300650C7003EB650D6014EA650A7003EB650D
:103FE3000B600AEA65107003EB6511701F781012FD
:103FF30008C4AC0AAD0BAA0CAB0D1210DE7402128E
:1040030008D7800890036712599DA3F074FE6A7065
:104013000374FF6B601D804EA3A3A3E064036029B8
:104023008E828F83A3A3A3A3A3E0640470057AFE07
:10403300023F718E828F83A3A3A3A3A3E0640270C4
:10404300089003B4E06402701012406C8B0BEA45D5
:104053000B6006AA08AB09800DAA08AB09900349B7
:104063001239DE121EB1025F93900375124751128B
:1040730010A22274F7120407EAFEEBFF120BF8E911
:10408300700AEEFAEFFB120C04E96006EEFAEFFB9E
:1040930080047AFE7BFF02346774F01204078A0AF5
:1040A3008B0B8C0E8D0F8909750800120FE2E979CD
:1040B300006003024213AA0AAB0B120DFCA90912FA
:1040C3000DF08A0C8B0DAE0CAF0DEE4F60198E8286
:1040D3008F83A3A3A3A3A3E0640270559003B4E06A
:1040E30064027003024211AA0AAB0B90034F123908
:1040F300DE121EB1120C0A8A0C8B0DA80CA90DE856
:1041030049700302421188828983A3A3A3A3A3E076
:10411300A2E04003024211750C01A2E1506879014B
:10412300AC0AAD0BAA0EAB0F120D48E97064024244
:10413300118E828F83A3A3A3A3A3E06403700575E9
:104143000C0280528E828F83A3A3A3A3A3E06401F6
:1041530060030242119003751242218E828F8312F3
:1041630045768A0C8B0DA80CA90DE84960D19022E5
:10417300A8E493FA88828983E0C39A50C2A3E060DB
:104183000302421180B988828983A3A3A3A3A3D284
:10419300E1F0EE4F603A8E828F83A3A3A3A3A3A380
:1041A300E05418602B7508018E828F83A3A3120736
:1041B30034750CFE750DFF780C1208C47900AC0A37
:1041C300AD0BAA0EAB0F120E0E74041208D7803E6D
:1041D300900368E0650E7004A3E0650F70149022ED
:1041E300B0E493FCA909AA0AAB0B120D18750801D8
:1041F300801CA90CAC0AAD0BAA0EAB0F120D48E93B
:10420300700C750801A909AA0AAB0B120DA2A90823
:10421300023EE8E50C2415F582E50D1254AC124F6D
:10422300092274EA12040774F01209558A0C8B0DE3
:104233008C088D097426120B3DE0F514A3E0F515E7
:104243007512069003F512476F60239003751242AF
:1042530021AA08AB091210CC8A108B11EA45116010
:104263000D8A828B83A3E07005790002455EE50C1D
:10427300241DF50EE50D3400F50F850E8212475B04
:10428300F51388828983A3A3A3E0FA88828983A391
:10429300A3A3A3E0F9EA2400FEE439FFAA08AB09CB
:1042A300120DA8850E82850F83124599E029F50B1F
:1042B300E50AA2E5500375120E7487550A70177448
:1042C30018550A6418600FE50C2417F582E50D12E2
:1042D3005B6B651260077901121CCC808C530A78E2
:1042E300C3EE94F8EF94FF501D7900EEFAEFFB1242
:1042F3004568601288828983A3A3A3A3A3A3E05480
:1043030018600302426C78081208C47D0012458CC1
:104313001208D7E9F8740368700302426CE860037B
:104323000243D77418550A700302448CE50AD2E09D
:10433300F50AA2E45004D2E1F50AA90A124BE212EB
:104343004568605388828983A3A3A3A3A3A3E054EE
:1043530018604488828983A3A3A3A3A3E0640170A4
:1043630036E5104511603090037512422188828929
:10437300831245768A0E8B0FA80EA90FE8496017A2
:1043830088828983A3E0600F851082851183A3123D
:1043930056BA500302426CE50AF50E780E1208C8AD
:1043A30012457F1208D7E9702B7C007D00851482AB
:1043B30085158374FFF0A3F0850C82850D83A3A379
:1043C300A3A3A3A3A3A3E06003124216A90B124B5A
:1043D300E2121756851482851583E0F47003A3E077
:1043E300F460399003B4E06402700302426C124932
:1043F3001BE0FAA3E01239DA121EB1EA6508700372
:10440300EB6509600302426CEEFAEF1239DA121E11
:10441300B1851482851583EAF0A3EBF078081208BE
:10442300C47D0112458C1208D7A90AEEFAEFFB12DC
:104433000DFC8A088B09A808A909900368E0687035
:1044430003A3E069600302454FEEFAEFFB120C0A87
:104453008A088B09A808A909E849606E88828983BC
:10446300A3A3A3A3E06401600D88828983A3A3A30C
:10447300A3E064027054851882851983AC82AD83EE
:10448300EEFAEFFB120BA48055900361E0600FE599
:104493000AF50E780E1208C812457F1208D7E50AEE
:1044A300F50E780E1208C879027CFE7DFFEEFAEF56
:1044B300FB12474B1208D7E960030243D7851482E6
:1044C30085158374FFF0A302441E120F6AEAFCEB06
:1044D300FD851882851983AA82AB83121CE4850C9F
:1044E30082850D83A3A3A3A3A3A3A3A3E064017065
:1044F3000F1242167408120B3DAA82AB83121CE4FE
:104503001247251253314430F50878081208C8744D
:1045130001120B3D85820885830978081208C4744B
:104523000B120B3D85820885830978081208C4E5C0
:1045330013F50878081208C87900EEFCEFFD124B5A
:10454300E2120D4274061208D702426C124725127A
:10455300549B124599E50BF0120F8274101208D781
:104563007F0E020667120DF08A0E8B0FA80EA90F9D
:10457300E84922A3A31250881210CC227901AC0877
:10458300AD0912507D12474B22AC0BA91312507D7B
:10459300120DAE740222125339A3A3A3A32274F003
:1045A30012040774F01209558A0C8B0DECFAEDFB1B
:1045B300750F089003F512476F60141256B38A8281
:1045C3008B83E58245836007A3E0700302472012D3
:1045D3004725340012475BF50B8882898312472EE7
:1045E300E0FBEC2400FEE43BFF88828983A3A31253
:1045F300472EA3A3E0FBECF508E43BF50988828989
:1046030083A3A3A3A3A3A3A3E0F50EE50AA2E45007
:1046130003750F10A2E550067408250FF50F748F6C
:10462300550A700FE50C2417F582E50D125B6B65D7
:104633000F60087901121CCC024720530A707800DE
:10464300E50AA2E45022124725125B6B2408FCA35F
:10465300E03400FD7408120B3DAA82AB83121CE404
:104663007808E50AC2E4F50AE50AA2E550281247EC
:1046730025125B6B28F8A3E03400F9E82408FCE971
:104683003400FD851882851983AA82AB83121CE44A
:10469300E50AC2E5F50AAC0EA90BEEFAEFFB120D23
:1046A300B4E9F87403686075900368E06E7003A35F
:1046B300E06F605EE87054E50AF50F780F1208C8E2
:1046C30012473C1208D7E97054780A1208C87401DB
:1046D300120B3D85820C85830D780C1208C4740B74
:1046E300120B3D85820C85830D780C1208C4E50BF3
:1046F300F50A780A1208C8A90EAC08AD09EEFAEF5C
:10470300FB120D4274061208D78012740468700DF0
:1047130080B7780A1208C812473C1208D7741002EF
:104723003EE5E50C241DF582E50D22A3A3A3E0FCE1
:1047330088828983A3A3A3A3227901124922125455
:10474300AC12475112474B22120D6C740122E0FC4C
:10475300A3E0FDAA08AB0922F583123B61A3E0F5B0
:104763000A88828983A3A3E0229003391250E422AA
:1047730074E812040774F5120955EAFEEBFF8C087E
:104783008D0989147423120B3DE0F50F7424120B69
:104793003DE0F512A3E0F5137426120B3DE0F51688
:1047A300A3E0F5177428120B3DE0F50EA90F120DC7
:1047B300BA8A108B117401120B3D7408F0E50EA236
:1047C300E450037410F0E50EA2E55004E02408F071
:1047D300851882851983AA82AB83120FCA8A0C8B30
:1047E3000DEA450D7003024902EA2417F582EB1224
:1047F3004914120F6AE50C241AF582E50D12549B35
:104803001234777403120B3DAC82AD83AA10AB1143
:10481300120BA4E9601D12490C7403120B3DA8820C
:10482300A983E50C2418F582E50D12549BE8F0A347
:10483300E98024E50EA2E4501FE5106E7003E51134
:104843006F701512490CE50C2418F582E50D12540E
:104853009BE512F0A3E513F012491B12492A850ABE
:1048630082F5837402F0A3E50E124932E50FF0EEF0
:10487300850A82850B83A3A3A3F0EF850A82850BA8
:1048830083A3A3A3A3124932A3A3A3E508F0E509D5
:10489300850A82850B83A3A3A3A3A3A3F0AA10ABCA
:1048A30011120DA8E92514850A82850B83A3A3A3FE
:1048B300A3A3A3A3F0750800E50EA2E45011AC1264
:1048C300AD13E50A2408FAE50B123E9E750808E5C8
:1048D3000EA2E55014AC16AD17E50A2508F8E50B52
:1048E3003400F9E82408123E9C850C82850D83A3CD
:1048F300A3E510F0A3E511F0AA0CAB0D120C46745E
:104903000B1208D77F10020667E50C2416F582E523
:104913000D1254AC7401F0221249221254AC22E558
:104923000C1264B2E50D22E0F50AA3E0F50B22F0C8
:10493300850A82850B83A3A32274F21204078A08D3
:104943008B09ECFEEDFF890A79001249D07003A3AD
:10495300E069700479018073750B01900368E06569
:10496300087004A3E06509601F750B00780B12083B
:10497300C8A90AEEFCEFFDAA08AB0912101E7401C8
:104983001208D7E9F50B80417900EEFAEFFB120D1F
:10499300F0EA4B602B8A828B83A3A3A3A3A3A3E098
:1049A3005418601C7508FE7509FF78081208C48A3C
:1049B300828B83A3A31207341262C71208D780091C
:1049C3007901EEFAEFFB120CCAA90B8014120DFC4D
:1049D3008A0C8B0DA80CA90D900368E068221208BD
:1049E300D77F0602066774F41204077508FC75097D
:1049F3000A7A10125FCF8B0BEA450B7003123CF857
:104A0300900353E014F0700C9022AEE493900353A0
:104A1300F0120E087E007F00806C85088285098372
:104A2300A3A3A3A3E06059F46056E5082404F58228
:104A3300E5091259977049850882850983A3A3A3C1
:104A4300A3A3E064037019790285088285098312A0
:104A53004221850882850983A3A3124BE9120D48DD
:104A6300850882850983A3A3A3A3A3E0640160103F
:104A730085088285098374FEF0A304124B43E4F096
:104A8300123074122EC690229C12612B408C7E0031
:104A93007F008039120F108E088F09740378081273
:104AA3000A2074742508FC740C3509FD7A547B0DB7
:104AB300120EFEEA4B70DD8E088F0974037808121C
:104AC3000A20124B11126372E4F01230749022A484
:104AD300E493F8C3EE98EF9400501B8E088F09748B
:104AE300037808120A20124B19E82407F582E91209
:104AF300599770D680A17E007F00800A124B2460F4
:104B03000214F012307412612840F10236A7124BDE
:104B130019888289832274742508F8740C3509F97D
:104B230022EEF8EFF9E875F006A4F8AAF075F0069E
:104B3300E9A42AF9741428F582740C39F583E02268
:104B4300124B4AA3A3A322F0850882850983A3A35A
:104B53002274F712040774E1120955ECFEEDFF7598
:104B63000800EE4F60728A828B83E0241C1259C8BE
:104B730012476F60638A828B83124BE985188285A3
:104B83001983AC82AD83EA241BF582EB125899EAB0
:104B9300241CF582EB124BE5120F52740B120B3DE2
:104BA300124BED7003A3E069702E7402120B3DE00B
:104BB30064017024741D120B3D1239DEE064017030
:104BC30017741D120B3D1239E0A3A3E0F88E828FF8
:104BD30083E0687003750801A908741F0234641226
:104BE30049223400F5831250882212281BE06822E0
:104BF30074F4120407E97024790090034D1239DE2E
:104C0300121EB18A0A8B0BAE0AAF0B74FE6E7003D1
:104C130074FF6F701A9022ABE493601379019003D1
:104C23004D1239DE121EB18A0A8B0BAE0AAF0B127C
:104C33000F8E0231DC74F612040774F31209551255
:104C4300151C8A088B09AE08AF09900368E06E70E3
:104C530003A3E06F60E9120F76EA6E7002EB6F60F8
:104C6300DEEEFAEFFB120FE2E970D4EE4F60D0856F
:104C73001882851983E4F004120B3DEEF0A3EF12C2
:104C83004C9BE970BA74FE6E700374FF6F60B0EEF4
:104C9300FAEFFB740D023503123588120BBC22C0E8
:104CA30082C083120F8E02342F7F0A02066774F2CA
:104CB300120407EAFEEBFF8C0A8D0B8908740E12AF
:104CC3000B3DE0F50974FC6E700374FF6F7005799A
:104CD300000249E47900120DFC8A0C8B0DAE0CAF77
:104CE3000D900368E06E7003A3E06F7006E509A200
:104CF300E650DCA9091261B5706179007AFE7BFF89
:104D03001261B57056741855097003024DE87800A6
:104D130079008003122A1590229C122A0C40030268
:104D23004DE8E8FAE9FBEA75F007A4FAACF075F090
:104D330007EBA42CFB74022AF582740B3BF583E08A
:104D4300541870D0E875F007A4F8AAF075F007E9D5
:104D5300A42AF974FC28F8740A39F988828983A390
:104D6300A3A3A3A3A3E054186009741855097003FF
:104D7300024CD288828983EEF0A3EFF074FE650AB9
:104D8300700474FF650B6003124F0F88828983A33D
:104D9300A3A3A3A3A3E509F0A2E0500D888289830E
:104DA300A3A3A3A3A3A3D2E2F07401650888828915
:104DB30083A3A3A3A3A370387401124F33E0541841
:104DC30060289022AFE49388828983A3A3A3A312CC
:104DD3004EFD1210CC8B0DEA450D6003024CD278C8
:104DE30000790080397902024CD4900367E080D7C0
:104DF300E064017003024CD288828983A3A3A3A336
:104E0300A3A3E0541860079022AFE49380049003B7
:104E130066E0123EA5E508F0024CD2122A15902254
:104E2300A5E493FAC3E89AE994004003024CD27ACA
:104E3300007B00804BEAFCEBFDEC75F007A4FCAEB5
:104E4300F075F007EDA42EFD74FE2CF582740A3D77
:104E5300F5831254B4E8FCE9FDEC75F017A4FC8566
:104E6300F00975F017EDA42509FD748C2CF58274F7
:104E7300093DF583E06E7003A3E06F609E122F4936
:104E830090229C122ED640AD123F2FEC6A7002ED99
:104E93006B7088E875F017A4F8AAF075F017E9A409
:104EA3002AF9748C28FE740939FF7C177D00790078
:104EB300EEFAEFFB1215108E828F83124F159003BB
:104EC30075124EEFA3A3A3A3A3A3E8F0A3E9124E85
:104ED300F57401F0EE240E1254987401124F1D1252
:104EE30002B6EE240D125498E8024E1A123447A368
:104EF300A322F0EE240F1254A922F0124F06AA0A9D
:104F0300AB0B22900375E0FCA3E0FD22888289832A
:104F1300A3A3E50AF0A3E50BF022F0124F2222909F
:104F230022A8E4932401F8E43400F97A027B0022F6
:104F3300123EB1A32274ED1204078A088B09890E6D
:104F43001250664005790502503412179EAA08AB29
:104F53000912513890229A125037650A7003E96595
:104F63000B70077AFE7BFF12513890229AE412509D
:104F73003FE50A98E50B9940030250321250436013
:104F830012E50A75F006A4F875F006E50B12508ECB
:104F93001215ACE50E6018E50A75F006A4F8AAF040
:104FA30075F006E50B1250BA701A7901025034E518
:104FB3000A75F006A4F8AAF075F006E50B12509BEB
:104FC300E4F0A3F0E50A75F006A4F8AAF075F0067C
:104FD300E50B12505BA312534788828983A3AA82ED
:104FE300AB831250A98A828B83E0603F12504360E7
:104FF3003A8E108F1175120078101208C0E50EC397
:1050030033FCE433FDE50A75F006A4F50AA8F07550
:10501300F006E50BA428F50B7418250AF582740C29
:10502300350B124BE7122EE71208D779008002796D
:10503300070261CB122B6EE822902292125B52225E
:10504300E50A75F006A4F8AAF075F006E50B125010
:1050530096F8A3E0F9E84922A42A1251EF8882893D
:1050630083A322ECFEEDFF9022A6E493F8E9C39814
:1050730022F5831250881215AC22E50C1264B2E5B6
:105083000D3400F583E0FAA3E0FB22125096FAA355
:10509300E0FB2212509BE022A42AF9741828F5821F
:1050A300740C39F58322E50EF0900DB51250B3223E
:1050B300E088828983F022125213F50CE93400F55B
:1050C3000DE50EC333FAE433FB1215A6850C828576
:1050D3000D83EAF0A3EBF0850C82850D831250E477
:1050E30022123EDDE8492274F4120407ECFEEDFFC0
:1050F300740C120B3D1234F188088909125138AC33
:105103000AAD0BECF8EDF990229A1251405021E8C8
:1051130075F006A4F8AAF075F006E912505BE08E6C
:10512300828F831251531251491234FD7900800248
:1051330079040236A7120D7E8A0A8B0B22122EDF08
:10514300C3EC9AED9B22123ED985088285098322FE
:105153001252282274F61204077E007F008028EE84
:10516300F8EFF9E875F006A4F8ACF075F006E9A4D9
:105173002CF9741628F582740C125DD66A7003A399
:10518300E06B605712307412612840D312612370B0
:1051930002E96F704674FE6A700374FF6B703C7EA5
:1051A300007F008003123074126128502E124B24AA
:1051B30070F3EEF8EFF9E875F006A4F81251E51272
:1051C300521A6017125201F8E91251F988821250EB
:1051D30074850882850983E4F0A3F0EEFAEFFB02FD
:1051E300350675F006E91251ED22A42AF974142844
:1051F300F8740C39F9223400F98808890922EEF889
:10520300EFF9E875F006A4F875F006E912521322D7
:105213001251EDE8240422A3A374FE125225125066
:10522300E422F0A30412522C22F088828983A3A3E0
:10523300A3A32274F6120407EA241DF582EB12538A
:1052430031F9604BEA241DF582EB125B6B2402FCFF
:10525300A3E03400FD12506A400302532478008017
:10526300298C828D83E0F508A3E0FFE5082400E4A0
:105273003FF509E833FEE433FF745C2EF582740CCA
:105283003FF58312534712532708E8C39940D28A44
:10529300828B83A3A3A3A3A3A3A3A3A312422190BB
:1052A3000368E06C7003A3E06D700F7C5C7D0C12EF
:1052B3002784124BE5120D728067EA2411F582EB05
:1052C300125B6B605CFC74FF2CF0750801780812AC
:1052D30008C875085C75090C78081208C4E9F50854
:1052E30078081208C8EA2412F582EB125B6BF50802
:1052F30078081208C8EA2415F582EB12549B1207AA
:1053030034ECF912278412421E8A828B83A3A3A34F
:10531300A3A3A3A3A3A3124BE9120D8A7407120834
:10532300D7023506EC24020C0CED3400FD22125496
:10533300AC125339E022E0F8A3E0F5838882A3227C
:1053430088828983E508F0A3E509F02274EA120450
:105353000774FD1209558A148B158C0E8D0F890D58
:105363007419120B3D1254B4741B120B3DE0F5116A
:10537300741C120B3DE0F50C741D120B3D12492AEF
:10538300741F120B3DE0F5106008E50CC3332404D1
:1053930080027402C0E07401120B3DD0E01254C5C8
:1053A3008A088B09EA450970030254908A828B8329
:1053B300A3A3E514F0A3E515125FBEE50EF0A3E584
:1053C3000FF0EA2413F582EB12549BE50DF0EA2467
:1053D30014F582EB12549BE511F0EA2417F582EBE6
:1053E300125B6B64017040120F708A0E8B0FA80E54
:1053F300A90F850882850983A3A3A3A3E06870038B
:10540300A3E0696022EE4F6011E508241AF582E5F6
:105413000912549BEEF0A3EF800CE5082417F582E4
:10542300E50912549BE4F012549F1254B48E828FF8
:10543300837405F0A3E5107004E50C80487401251E
:105443000C1254BE7A008028850A82850B83E012F1
:1054530054BA850A82850B83A3E08E828F83F0E59D
:105463000A2402F50AE50B3400F50BA30EAF830AF9
:10547300EAC3950C40D2120F70EA1254BA120F709D
:10548300EB8E828F83F0AA08AB09120C46740302D9
:105493004560EE240CF582EF1254AC2212279512CC
:1054A30054AC22EE240BF582EF3400F583229003F3
:1054B30034E0FEA3E0FF228E828F83F0A3AE82AF9F
:1054C3008322123588120FCA22C082C083E9C333F4
:1054D300FCE433FDEA2CFAEB3DFBEA24FEF582EB18
:1054E30034FF124BE702342F74F212040789098A3E
:1054F3000A12506640047900804075080080020556
:1055030008E508C39509502AE508C333F8E433F9DD
:10551300EE28F582EF39F583C082C083120F708ABB
:105523000C8B0DD083D082E0650C7004A3E0650D75
:1055330070CDE50A650870BE79010249E474F01282
:10554300040774F31209558A088B098C0A8D0B8999
:105553000C750D00120FE2E979006003025642AAAE
:1055630008AB09120DFCA90C120DF08A0E8B0FAEBD
:105573000EAF0FEE4F70030256408E828F83A3A3AC
:10558300A3A3A3A3E0A2E24003025640120F70EAD2
:10559300650A7003EB650B7011780D1208C8E4F50A
:1055A3000EF50F780E1208C48044AA0AAB0B120B37
:1055B300FEE9640170688518828519837404F074A8
:1055C30001120B3D124F15851882851983AA82ABF0
:1055D30083120BBCE964017045750D01780D120847
:1055E300C8E4F50EF50F780E1208C4750D00780D9A
:1055F3001208C8780D1208C87408120B3D85820E74
:1056030085830F780E1208C49022B1E493F9AC0A93
:10561300AD0BAA08AB09120D8A74071208D78E8244
:105623008F83A3A3A3A3A3A3E0A2E1400D8E828F44
:1056330083A3A3A3A3A3A3C2E2F0750D01A90D0243
:105643003EE374F6120407E9FE7900120DFCEEF94D
:10565300120DF08A088B09A808A909E84960061207
:1056630064F9F98002790402350674F61204077EA0
:105673000790035CE070341256B38A088B09A808BC
:10568300A909E8496025900361E064018882898360
:10569300A3A3700B1256BA888289835001A3A3E097
:1056A300F91210EAE9FEEE70027E07EEF902350602
:1056B300124F061210CC22E0FA88828983A3E0C33A
:1056C3009A2274EE120407EAFEEBFF890A8C0C8D12
:1056D3000B7412120B3D12343B12578F12506D5044
:1056E30051890E750F007403780E120A20747A25FF
:1056F3000EF582740C350FF583E0F8E50CC3985072
:105703002DE50B602475110074037810120A2074C0
:10571300742510F8740C3511F988828983A3A3A327
:10572300A3A3A3E50C125799F07900024CAC7903BB
:1057330080F979007AFE7BFF12578FE4936510702E
:1057430004790280E6E50B60E0890E750F007403AF
:10575300780E120A207474250EF8740C350FF9882C
:10576300828983A3EEF0A3EF125799124F33E50C0E
:10577300123EAD74FF126378E50AF0900366E08889
:10578300828983A3A3A3A3A3A3A3809C120DEAE905
:10579300F5109022A4221264BBA3E508F0A3E50947
:1057A3002274F6120407ECFF120DEA9022A41250A1
:1057B3006D5027890875090074037808120A20744C
:1057C300791257E3740C12602AE0F8EFC39850067D
:1057D300EFF079008006790380027904023506EA46
:1057E3002508F5822274F4120407EAFEEBFF120D7A
:1057F300EAE9F50A9022A412506D5019750B007452
:1058030003780A120A207477250AF582740C350B83
:10581300124BE7801890034B12476F600CEEFAEFC0
:10582300FB1239E1121EB180047AFE7BFF0236A718
:1058330074F61204078A828B83A3A3A3A3A3E4F0C1
:10584300F88001089022AAE493F9E8C399501E88CE
:10585300081258918C828D83A3A3A3A3A3A3A3A30C
:10586300E06970DFECFAEDFB120F16801EE493681B
:1058730070198C828D83A3A3A3A3A3A3A3A3A3744F
:1058830006F07A008C828D831259BC02350674FCB3
:105893002508F582740C125B77F92274F41204075D
:1058A300EAFEEBFF8E828F83A3A3E0141259D3A3E6
:1058B300E0F9120EF28A088B09EA450970030259CE
:1058C300948E828F83A3A3E070358A828B83A3A3F4
:1058D300A3A3A3A3A3A3A3E064028A828B83A3A3AA
:1058E300A3A3A3A3A3A3A360107406F07AF085086F
:1058F300828B831259BC0259947406F00259948E18
:10590300828F83A3A3A3A3A3A3E060738E828F8359
:10591300A3A3A3A3E0607AEE2403F582EF125997C1
:10592300706F90035512599D1259D3E014125FB54D
:10593300E06403705C8E828F83A3A3A3A3E0700D46
:10594300AC08AD09EEFAEFFB120DC080448A828BDE
:1059530083A3A3A3A3A3A3A3A3A37404F012151C5B
:10596300EA540F04850882850983A3A3A3A3F0A3A4
:10597300E4F07A20FB1259B370171259A680128AE9
:10598300828B83A3A3A3A3A3A3A3A3A3E064036022
:10599300AF0236A7125B7714F022E08E828F83A3C7
:1059A300A3A3227A207B009003C2E0F912155E22A2
:1059B300125FD18B09EA450922E0240C1259C8E091
:1059C300F9120E3822F8A3E03400F9888289832281
:1059D3001259D8A3221234E3A3A3A32274F6120408
:1059E3000779007E0080258E087509007403780806
:1059F300120A2074B42508FA740C3509FB8A828BC9
:105A030083A3A3E06005120DC679010E9022AAE4D8
:105A130093F8EEC39840D0E9A2E07A407B0090036C
:105A2300C2E0F9501512166C8B09EA4509700E7C19
:105A3300647D007A40123CFE80031216660235062E
:105A430074F4120407ECFEEDFF7508B475090C7CC1
:105A5300008045850882850983A3A3A3A3A3A3A3E9
:105A6300E0F8EA2412F582EB125B6B68701F85087D
:105A7300828509831234F1125B6F687003A3E069B6
:105A8300700B850882850983A3A3E070200CE508C9
:105A93002408F8E5091251F99022AAE493F8ECC31B
:105AA3009840B0E4936C700579000236A7850882AC
:105AB300850983A3A3A3A3A3A3E07004790180EAC8
:105AC3001261C31210A28B0BEA450B600F8508828B
:105AD300850983A3A3A3A3A3A3E014F07C008001FF
:105AE3000C8C0A125B455020EC125B7D60F2123085
:105AF3008C6E7003A3E06F70E7850882850983A32A
:105B0300A3A3A3A3A3E014F09022A5E493F8902207
:105B130092E49328F8A3E4933400F9850882850975
:105B230083A3A3A3A3A3A3E0FAC3E89AE994005031
