:020000040000FA
:06000000020AD00201B368
:030013000201D611
:03002B00020924A3
:030033000206D3EF
:03003B0002022B93
:030053000200E4C4
:03006B000206ADDD
:100083000201480101FF01010503010F10FEFF5AA0
:10009300135A135A135A13161210125A13AB1F0082
:1000A3000000006F20000000000C0000000C0001A5
:1000B300FFFF0102005C05000000CF05640002029F
:1000C30000080000050207051E02051E020A0A03B6
:1000D300B80B02803E0102FFFF1496511800020282
:1000E30006C0E074F2120473A2AFE433FED2AFE5AC
:1000F300A7FFE5A1F5085F54106006121A7A75A1EF
:10010300EFE5085F54086008121A8075A1F7802B89
:10011300EFA2E0C0D0E508A2E092F0120A0D15812B
:1001230082F05017906198E0F89007A7E0C398A277
:10013300D265D0335002E8F075A1FEEEA2E092AF93
:100143007F0102052AC0E074F2120473A2AFE43304
:10015300FED2AF9061A4E0F8759B00E59158540876
:1001630060087591F7121AC8802AE59158541060F7
:10017300087591EF121ACE801BE8A2E0C0D0E5917A
:10018300A2E092F0120A0D158182F05007E0C2E05E
:10019300F0121C129061A3E0F8E5E9585404600ED4
:1001A300121BE875E9FB906193E0A2E640F2808BB5
:1001B300C0E074F2120473A2AFE433FED2AF9061D5
:1001C300A5E0F8E5BF585404600675BFFB121C2A6E
:1001D30002013EC0E0C0D0E8C0E0E9C0E0C082C098
:1001E30083E5C1C0E0900713E0F8749228F58274A8
:1001F300063400F583D0E0F0900712E0F8A3E0683E
:100203007006E595900715F0900713E004F0C3948A
:10021300804002E4F0A374C6F0D083D082D0E0F92A
:10022300D0E0F8D0D0D0E032C0E0C0D0E8C0E0C029
:1002330008C009C082C083900796E0F8A3E0687005
:1002430008539AFBA374018026C2E9900796E0F550
:100253000874012508F074162508F5827407340024
:10026300F583E0F5C1900796E0C394804002E4F083
:10027300D083D082D009D00880A6C3E498F8E4994B
:10028300F91202BE8026C3E49AFAE49BFBE920E755
:10029300E91202BEE498F8E499F922C3E498F8E479
:1002A30099F91202BEE498F8E499F9C3E49AFAE4DE
:1002B3009BFB22EB20E7CFE920E7E0B90010BB006E
:1002C30008E88AF084F8AAF022E4FBC8FA22EB706B
:1002D300227B10C833C8C933C9335007C39AC3DB61
:1002E300F280069A50012ADBEAC833F4C8C933F412
:1002F300C9FA2275F008E4C833C8C933C933C99AA7
:10030300C99B5004C92AC93BD5F0ECFBC833F4C8D8
:10031300E4C9FA22080808EAC0E0EBC0E086F0E787
:10032300A4FA180986F0E7A42AFA180986F0E7A4C4
:100333002AFA180986F0E7A42AFA1986F0E7A4FB3B
:10034300E5F02AFA190886F0E7A42BFBE5F03AFA60
:10035300190886F0E7A42BFBE5F03AFA181809868A
:10036300F0E7A4C5F02BFBE43AFA1908E7C5F0C699
:10037300A426F6E5F03BFBE43AFA1886F0E7A4F688
:10038300E5F00826F6E43B08F6E43A08F6D0E0FB8D
:10039300D0E0FA22E4CFC0E0E4CEC0E0E4CDC0E098
:1003A300E4CCC0E075F020C3E633F608E633F60884
:1003B300E633F608E633F6181818EC33FCED33FD94
:1003C300EE33FEEF33FFC3EC9709ED9709EE970980
:1003D300EF97191919400FFFEC97FC09ED97FD09E9
:1003E300EE97FE191906D5F0BEECF709EDF709EE05
:1003F300F709EFF7191919D0E0FCD0E0FDD0E0FEC2
:10040300D0E0FF222518C582C0E0E51934FFC5837B
:10041300C0E0E518C3958224F810AF0885831985D9
:1004230082188008858319858218D2AFCEF0A3E5A0
:1004330020F0A37808E608F0A3DEFAEFF0A3E58145
:1004430024FAF8E608F0A3E608F0A3E608F0A30808
:1004530008E608F0A3E608F0A315811581D0E0FEB5
:10046300D0E0F8158115811581E8C0E0EEC0E022E7
:10047300C0D02518C582C0E0E51934FFC583C0E0AC
:10048300E518C3958224F310AF0885831985821874
:100493008008858319858218D2AFC8F0A3E9F0A339
:1004A300EAF0A3EBF0A37908E709F0A3D8FAECF09C
:1004B300A3EDF0A3EEF0A3EFF0A3D0E0F0A3D0E020
:1004C300F0A3D0E0F0A3E520F0A3E5F0F0A322121F
:1004D3000B32B90003020514E4900301786E790B23
:1004E3008002F0A3D8FCD9FA900D6EAA82AB839058
:1004F3000086785F79018015E493A3AC82AD838A8B
:10050300828B83F0A3AA82AB838C828D83D8E9D9B3
:10051300E77582617583DA74031208837582B27595
:10052300831E7400120883851983851882E0C0E056
:10053300A3E0F9A3E0FAA3E0FBA37808E0F608A39D
:10054300DFFAE0FCA3E0FDA3E0FEA3E0FFA3E0C02D
:10055300E0A3E0C0E0A3E0F5D0A3E0F520A3E0A38F
:10056300F5F010AF088583198582188008858319F3
:10057300858218D2AFD082D083D0E0F8D0E0320E9B
:100583000075F0108E1A8F1B85821F85831E8518B8
:1005930082851983E0CEA3E0CF851F82851E83EB7E
:1005A300C9EAC8EDCBECCAC3E833C8E933C9EA33B7
:1005B300CAEB33CBC3EA9EF51DEB9FF51CB3500486
:1005C300AB1CAA1DEC33CCED33CDD5F0DAAE1AAFAC
:1005D3001B22D083D082ECC0E0EDC0E0E493A3FC07
:1005E300E493A3FDED4C600D1206F1EC24FFFCED4A
:1005F30034FFFD80EFE493A3FCE493A3FDED4C6093
:100603000D12078EEC24FFFCED34FFFD80EFD0E0EC
:10061300FDD0E0FCE493A3C0E0E493C0E022D083E8
:10062300D082E9C0E0E493A3C386F0C5F095F0F966
:1006330008E493A386F0C5F095F0700BE493A3C38D
:10064300994005E9048002A3E475F002A42582F52C
:1006530082E5F03583F583D0E0F9E493A3C0E0E4C9
:1006630093C0E022851983851882E0A3FEE0A3F5F9
:10067300207808E0A3F608DFFAE0A3FFE0A3C0E0D8
:10068300E0A3C0E0E0A3C0E0E0A3C0E0E0A3C0E0DB
:1006930010AF0885821885831980088582188583A1
:1006A30019D2AFD083D082020889C0E074F2120459
:1006B30073A2AFE433FED2AFE589A2E4500312196B
:1006C300BA758900C2C5EEA2E092AF7F0102052A86
:1006D300C0E074F2120473A2AFE433FED2AFE58B31
:1006E300A2E050031219BA758B00C2E880D8C0E0AB
:1006F300C3E49396087401939618400FE4936670CD
:100703000808740193661870007019A3A3C3E493D7
:1007130096087401939618A3A3400DD0E0D0E0D0BF
:10072300E0020611A3A3A3A3A3A3D0E02274048031
:100733000474028000CCC0E0EDC0E0E518C39CCC9B
:10074300AD1950011D10AF068C188D1980068C1839
:100753008D19D2AF120805D0E0FDD0E0FC2274025F
:100763008000CCC0E0EDC0E0E518C39CCCAD1950CF
:10077300011D10AF068C188D1980068C188D19D2A7
:10078300AF1207E3D0E0FDD0E0FC22C0E0C0F08868
:10079300F0E4936670080874019366187000A8F07B
:1007A300A3A3700BD0F0D0E0D0E0D0E0020611A3F9
:1007B300A3D0F0D0E022D083D082CCC0E0E493A3D6
:1007C30060061208451470FAE493A3600612096BDD
:1007D3001470FAD0E0FCE493A3C0E0E493C0E022F9
:1007E300CAC0E0E493A3C582CCC582C583CDC583CB
:1007F300F0A3C582CCC582C583CDC583DAE5D0E03D
:10080300CA22CAC0E0E0A3C582CCC582C583CDC5D8
:1008130083F0A3C582CCC582C583CDC583DAE6D078
:10082300E0CA227009080808226016181818C6C3FF
:1008330033C608C633C608C633C608C633C6D5E0B2
:10084300EA22C0E0E493A3D39C5010E493A3C39C97
:10085300400AD0E0D0E0D0E00207D6A3A3A3D0E0C3
:1008630022C008C3E096F50808A3E096420808A34F
:10087300E096420808A3E09645087001D3D0082209
:10088300C09FF59FE473D09F22D083D082C09FE4A2
:1008930093C0E0740193C0E0740293F59F2225187E
:1008A300F58210AF08F518400215198008F51840B5
:1008B300021519D2AF851983227404800A74038048
:1008C30006740280027401C0E0F4041208A1D0E0AF
:1008D300120B0D22C0D0251810AF08F518500205D1
:1008E300198008F51850020519D2AFD0D022BB01E8
:1008F30002E722C082C08389828A83BB0003E0802F
:1009030002E493D083D082226016080808C6C3137A
:10091300C618C613C618C613C618C613C6D5E0EA4A
:1009230022C0E0C0D0E8C0E0E5A8D2AFC2C7A2E7CA
:1009330092AFD0E0F8D0D0D0E032C3E0C696F6084C
:10094300A3E0C696F608A3E0C696F608A3E0C6960B
:10095300F622251810AF08F518400215198008F57E
:100963001840021519D2AF22C0E0E493A36C7009BA
:10097300D0E0D0E0D0E00207D6A3A3D0E022E06627
:10098300701008A3E066700A08A3E066700408A369
:10099300E06622E76670100809E766700A0809E74F
:1009A3006670040809E76622C3E09608A3E0960888
:1009B300A3E09608A3E096A2D265D03322C3E096C3
:1009C300F008A3E096F008A3E096F008A3E096F001
:1009D30022E026F008A3E036F008A3E036F008A3EF
:1009E300E036F022E627F60809E637F60809E63787
:1009F300F60809E637F622E026F608A3E036F608FD
:100A0300A3E036F608A3E036F622C0E0E8C0E0E54E
:100A13008124FCF8E6A2E7D0E0F8D0E022700422BB
:100A2300600D18C6C333C608C633C6D5E0F4182212
:100A3300E657F60809E657F60809E657F60809E601
:100A430057F622E056F608A3E056F608A3E056F65A
:100A530008A3E056F622E056F008A3E056F008A3F8
:100A6300E056F008A3E056F022E647F60809E64709
:100A7300F60809E647F60809E647F622E4C396F6C0
:100A830008E496F608E496F608E496F622C3E79699
:100A93000809E7960809E7960809E79622C6F4C607
:100AA30008C6F4C608C6F4C608C6F4C622600D0814
:100AB300C6A2E713C618C613C6D5E0F322C3E09651
:100AC30008A3E09608A3E09608A3E0962275D00059
:100AD300758140751801751903000204D2E0F60808
:100AE300A3E0F608A3E0F608A3E0F622600C08C62C
:100AF300C313C618C613C6D5E0F422E6F008A3E66E
:100B0300F008A3E6F008A3E6F022CAC0E0E6F0A3EB
:100B130008DAFAD0E0FA22E0FAA3E0FBA3E0FCA3B0
:100B2300E0FD22EAF0A3EBF0A3ECF0A3EDF022E565
:100B3300C754F84401F5C77901222518F582E43535
:100B430019F58322C2AF75D69F0200002212088CCA
:100B5300B9E00212088C0EE30212088C5BE4021265
:100B6300088CFEE40212088C45E60212088C63E648
:100B73000212088CBE220012088CD0220012088CAC
:100B830022230012088C83230012088C0D240012E8
:100B9300088CB1240012088C05250012088C1E2530
:100BA3000012088C44250012088C7F250012088C43
:100BB300C3250012088CEA250012088C3B2600127C
:100BC300088CEB260012088CA3270012088C6B28D4
:100BD3000012088C2B290012088C6F290012088C34
:100BE30094290012088CD7290012088C242A001299
:100BF300088C7C2B0012088C022C0012088C202CF1
:100C03000012088C4A2C0012088C642C0012088CE9
:100C1300732C0012088C7E2C0012088C3E2D0012BF
:100C2300088C972D0012088C592E0012088C612E07
:100C33000012088C252F0012088C912F0012088CAB
:100C4300BC300012088CE1300012088C57310012BE
:100C5300088CE9310012088CA9320012088CC832C2
:100C63000012088CD7330012088CE9330012088C69
:100C730059340012088C83340012088C1135001289
:100C8300088C4A350012088C96350012088CB2364F
:100C93000012088CFB380012088C06390012088CED
:100CA30011390012088C1C390012088C26390012E5
:100CB300088C31390012088C4B390012088C5539D5
:100CC3000012088C5F390012088C6A390012088CF4
:100CD30092390012088CED390012088CF739001292
:100CE300088C1B3A0012088C3F3A0012088C9D3A7C
:100CF3000012088CE13A0012088CFD3A0012088CAD
:100D0300743B0012088CAC3B0012088CF83B0012B9
:100D1300088C553C0012088C0F3D0012088CF33EE2
:100D23000012088C4C3F0012088C7C400012088C87
:100D3300A2400012088C2B420012088CA745001217
:100D4300088C79470012088C42490012088CEF493D
:100D53000012088C5A4B0012088CF94B0012088CB5
:100D63003E4C0012088CA84C0012088CB74C0012A1
:100D7300088C3E4F0012088CF0500012088C5D5115
:100D83000012088C3C520012088C55530012088C38
:100D9300D2540012088CF1540012088C46550012EC
:100DA300088C4B560012088C73560012088CCB56D5
:100DB3000012088CAA570012088CEE570012088CF8
:100DC30039580012088CA4580012088CE5590012F7
:100DD300088C495A0012088C975B0012088CF75D47
:100DE3000012088C285E0012088CE05F0012088C49
:100DF30035600012088C39610012088CD66100122C
:100E0300088C2F620012088CE2620012088C846343
:100E13000012088C24640012088CC9640012088C28
:100E23009D800112088CDC800112088C238301123F
:100E3300088C6D830112088C88840112088CF0845D
:100E43000112088C25850112088C99860112088CE1
:100E53001C890112088C458A0112088CDB8A011255
:100E6300088CE3930112088C78940112088C5F9725
:100E73000112088C52980112088CC0980112088C38
:100E8300069A0112088CE89A0112088CCD9C011273
:100E9300088CDE9E0112088C489F0112088C1AA050
:100EA3000112088C48A00112088C05A10112088CBC
:100EB300DCA10112088CA3A20112088C47A3011222
:100EC300088C70A30112088C92A30112088CE8A568
:100ED3000112088CC0A60112088C04A70112088C09
:100EE3006CA70112088C24A80112088C56A80112C1
:100EF300088C9AA80112088CD0A80112088C1CA98E
:100F03000112088C71A90112088C76A90112088CB0
:100F1300C9A90112088CEEA90112088CFDAA0112BD
:100F2300088C61AB0112088CD1AB0112088C5DAC4B
:100F33000112088C2AAF0112088C0EB00112088C22
:100F430091B10112088CC7B30112088C75B4011258
:100F5300088C25B50112088C66B70112088C09B8F4
:100F63000112088C50B80112088CFCB90112088CCC
:100F730010BA0112088C1ABA0112088C42BA011273
:100F8300088C4EBA0112088C6DBA0112088C8DBC04
:100F93000112088CDCBD0112088C20BE0112088CE2
:100FA300C8BE0112088CABBF0112088C56C00112D7
:100FB300088CA2C10112088CA0C20112088C46C37E
:100FC3000112088CD6C30112088CEDC30112088CE0
:100FD30024C40112088C2EC40112088C39C40112D6
:100FE300088C57C40112088C9BC40112088CF8C4E6
:100FF3000112088C1DC50112088C37C50112088C1B
:10100300C3C50112088CE0C60112088C4DC701123A
:10101300088C34C80112088C5BC80112088CCFC835
:101023000112088C4AC90112088C4ECA0112088C9D
:1010330044CB0112088CF3CB0112088C06CD0112AC
:10104300088CA2CD0112088C2FCE0112088C0DCF73
:101053000112088C45CF0112088C9DCF0112088C18
:1010630066D00112088C87D00112088C0ED10112B0
:10107300088C32D10112088C54D10112088C9DD1F5
:101083000112088CB3D30112088C9AD40112088C74
:101093004BD50112088C81D70112088CD1D70112CC
:1010A300088C11D80112088C53D80112088CAFD8C0
:1010B3000112088CDDD80112088C01D90112088CA9
:1010C30054D90112088C82D90112088CBBD90112A0
:1010D300088C10DA0112088C76DA0112088CCADB4C
:1010E3000112088CEDDD0112088C5ADE0112088C06
:1010F30083DE0112088C0EDF0112088C75DF0112EA
:10110300088CC0DF0112088CE4DF0112088C08E0B0
:101113000112088C63E00112088C7EE00112088C36
:1011230037E10112088CFFE70312088C3EE8031233
:10113300088C78800212088CBE800212088C9E8173
:101143000212088CA0820212088CA3830212088C5C
:101153002F850212088C8D850212088C4A86021292
:10116300088C68870212088CD9870212088C1588AC
:101173000212088C63880212088C6D880212088C94
:10118300B1880212088C0D890212088CA8890212F8
:10119300088C258A0212088CF48A0212088C8D8B23
:1011A3000212088CAD8B0212088CE38B0212088C9E
:1011B300148C0212088CD58C0212088CE58C021256
:1011C300088C398D0212088C548D0212088C668D9E
:1011D3000212088C6F8D0212088CC98D0212088CC2
:1011E300258E0212088C718E0212088C8C8E0212CC
:1011F300088CBD8E0212088CDA8E0212088CE68EE1
:101203000212088C5A900212088C73900212088CF6
:10121300DA900212088CED900212088CFB900212F5
:10122300088CAF910212088C93920212088C999346
:101233000212088C23940212088C2D940212088C3B
:101243009A940212088CB1940212088CE39402124D
:10125300088C1C950212088C46950212088CA795DF
:101263000212088CC7950212088CE5950212088CAD
:101273002B960212088C51970212088C9E97021229
:10128300088CCD970212088C43980212088C6B9835
:101293000212088CA4980212088CB2980212088CCD
:1012A3000A990212088C59990212088C9899021211
:1012B300088CC8990212088CF4990212088CFF99C1
:1012C3000212088C1D9A0212088CDF9A0212088CF3
:1012D300E99A0212088C2A9B0212088C7F9B021245
:1012E300088C939B0212088CA19C0212088CB49C5C
:1012F3000212088CC99C0212088C6B9D0212088C86
:10130300EE9D0212088CAC9E0212088CB79E02124C
:10131300088CE39F0212088CFF9F0212088C51A0D5
:101323000212088C90A00212088CA5A00212088C4D
:1013330007A10212088C96A10212088CE1A10212E5
:10134300088C32A40212088CB0A40212088C25A5C2
:101353000212088C47A70212088C5FA70212088C9E
:1013630062A70212088C6EA70212088C82A70212CF
:10137300088C8AA70212088CBDA70212088C6DA8DC
:101383000212088CE3A80212088C56A90212088CD8
:101393000AAA0212088CBFAA0212088CDEAA021241
:1013A300088C84AB0212088CAFAB0212088CB2AB70
:1013B3000212088C1CAC0212088C44AD0212088C79
:1013C3001CAE0212088CA7AE0212088CC0AF021228
:1013D300088C7DB00212088CB6B00212088CE7B0FC
:1013E3000212088CA5B10212088CD5B10212088C26
:1013F300B0B20212088C49B30212088CD4B30212A1
:10140300088C85B40212088C08B50212088C3AB510
:101413000212088C7BB50212088CFBF40112088CB3
:1014230060F50112088C9DF50112088CECF5011290
:10143300088C02F80112088CE5F90112088C4FFDA3
:101443000112088C8AFD0112088CACFD0112088C74
:10145300BDD70212088C43FE0112088C66FE0112EE
:10146300088C93FE0112088CEFFE0112088C278D65
:101473000312088CA58D0312088CDB8D0312088CD4
:10148300478E0312088CBA8F0312088CD68F03126F
:10149300088C1B900312088CA9900312088C0291EC
:1014A3000312088C2F920312088CD7DF0212088CC8
:1014B3009E930312088C0A940312088C6B940312F4
:1014C300088CAC940312088C59950312088C6B9604
:1014D3000312088C96960312088CE1960312088C6B
:1014E30028970312088CBA970312088C7598031275
:1014F300088C76CB0312088CF0CB0312088CFBCB41
:101503000312088C1CCC0312088C30A00312088C25
:101513007CA00312088CEAA00312088C0BA103120F
:10152300088CBBA10312088CC4A10312088C17A258
:101533000312088C40A20312088CA7A20312088C82
:1015430038A30312088C7AA30312088CC4A30312D2
:10155300088C23A40312088C4FA40312088CE0A464
:101563000312088C1FA50312088C5EA50312088CB6
:1015730093A50312088CA5A50312088CB7A5031223
:10158300088CD6A50312088CDFA50312088C95A638
:101593000312088CD5A60312088C45E40312088CA9
:1015A3002FD80312088C65D80312088CAED8031207
:1015B300088CFED90312088C71E10112088CB0E289
:1015C3000112088CECE20112088CABE40112088CC6
:1015D300D4E40112088C67E70112088CABE701120F
:1015E300088C34E90112088CCCE90112088C34EA26
:1015F3000112088CD5EA0112088C17EB0112088C32
:1016030057EB0112088CE2EC0112088C52EE011226
:10161300088C77F00112088CA5F00112088CCCF02D
:101623000112088CD5F00112088C5CF10112088CB0
:101633007AF40112088C17E90312088C2DE90312BE
:10164300088CB4E70312088C11C80312088C24C851
:101653000312088CC1C80312088CFCC80312088C3F
:1016630017C90312088C3CC90312088C81C90312E1
:10167300088CB2C90312088CE3C90312088C69CB26
:101683000312088C3BFF0112088C71FF0112088CB6
:101693008DFF0112088CCFFF0112088CDFFF0112AE
:1016A300088C2CB50312088CD8B50312088CB8B675
:1016B3000312088C66B70312088CBAB70312088C9E
:1016C300FEB70312088C79B80312088C008003124A
:1016D300088C55800312088C3E810312088CD78135
:1016E3000312088C21820312088C7E820312088C59
:1016F30092820312088CC4820312088CC2830312E1
:10170300088C06840312088C21840312088C7084CD
:101713000312088C86840312088C93840312088CAA
:10172300C7840312088CE0840312088CAA85031271
:10173300088C04860312088C52860312088C748664
:101743000312088CEB880312088C20890312088C7F
:10175300B0890312088C258A0312088C2A8A031283
:10176300088C668A0312088CBC8A0312088C808B4F
:101773000312088CA58B0312088CAF8B0312088C01
:10178300B28B0312088C3B8C0312088C568C031209
:10179300088C698C0312088CA48C0312088CA78C08
:1017A3000312088CB28C0312088CEE8C0312088C83
:1017B30067E70312088C7FE70312088CEC98031287
:1017C300088C3B990312088CDD9A0312088C999CB0
:1017D3000312088CE19C0312088CC99D0312088C28
:1017E300FA9E0312088C1C9F0312088C789F031225
:1017F300088CFC9F0312088C15650012088C366553
:101803000012088CB3650012088C38660012088C2D
:10181300B4660012088C1D670012088C69670012F9
:10182300088CE8670012088C7A680012088C066935
:101833000012088C48690012088C916D0012088C04
:10184300116F0012088CE76F0012088C16700012DB
:10185300088C01720012088C81740012088C3A758E
:101863000012088C57760012088CAE790012088C8F
:10187300BE790012088C1F7B0012088CAB7B001210
:10188300088CD47C0012088CC57D0012088C477E1E
:101893000012088C8AE60212088C44E70212088CB4
:1018A300B6E70212088C52E80212088CC2E8021250
:1018B300088C7BEB0212088C52EC0212088CBFECF2
:1018C3000212088C3CEE0212088C06EF0212088CFE
:1018D30076EF0212088C3FF10212088C52F20212C8
:1018E300088CEBF20212088CB1F30212088C6DBD66
:1018F3000312088CC1BD0312088C19BE0312088C95
:1019030064BE0312088CC6BE0312088C32BF0312D6
:10191300088CE5BF0312088C26C00312088C3CC058
:101923000312088C98C00312088CD6C00312088CCB
:1019330067DC0312088C98DC0312088C52DD031257
:10194300088CB8DD0312088CDBDA0312088C18E567
:101953000312088C29E50312088CC9E50312088CCD
:1019630041FE0212088C4FFE0212088CE9FF01129D
:10197300088C83E60312088C93E60312088CABE60B
:101983000312088C0CE70312088C43E30312088C40
:10199300C8E30312088C2CE40312088C41DE031203
:1019A300088C5DDE0312088CB4DE0312088CD4DECF
:1019B3000312088C11DF0312088C6CDF0312088CEE
:1019C30007C10312088C15C10312088C8FC10312BF
:1019D300088C73C20312088C2CC40312088CF5E81C
:1019E3000312088C37CE0312088C85CE0312088CA1
:1019F30022CF0312088CCDCF0312088CE5CF03123C
:101A0300088C61D00312088C77D00312088C8AD01B
:101A13000312088C98D00312088CBBAB0312088CFA
:101A230010AC0312088C0CAE0312088C3EAE0312EA
:101A3300088C60AE0312088C79AE0312088C92AE48
:101A43000312088C9CAF0312088C37B00312088C66
:101A5300A3DF0312088CC7DF0312088CE0DF031235
:101A6300088C13E00312088C44E00312088C72E024
:101A73000312088CD4E00312088CE3E00312088CF1
:101A8300EDE00312088CFAE00312088CDCD0031299
:101A9300088C02D10312088C3FD10312088C4ED15B
:101AA3000312088C6DD10312088CD5D10312088C54
:101AB300DED10312088C3DD20312088C61D20312CB
:101AC300088C20D30312088C2DD30312088C3ED329
:101AD3000312088C8CE80312088CA9E80312088C03
:101AE300AEB00312088C0CB20312088C19B20312A5
:101AF300088C2CB20312088C4BB20312088C61B20F
:101B03000312088C75B20312088CEAB20312088C14
:101B13004FB30312088CFFB30312088CD4B403121F
:101B2300088CE4B40312088CF3B40312088CEAE5BE
:101B33000312088C0EE60312088C36E60312088C97
:101B43005EE60312088C6CD30312088C93D3031242
:101B5300088CB4D30312088C19D40312088CD2D581
:101B63000312088CEBD50312088CF7D50312088CEB
:101B73000BD60312088C29D60312088C33D6031212
:101B8300088C3DD60312088C50D60312088CA3D6BA
:101B93000312088CDCD60312088C0BD70312088CB3
:101BA30059D70312088CA8D70312088CC3D7031282
:101BB300088CCDD70312088CDED70312088C24D8E7
:101BC3000312088C16E70312088C05F50212088C21
:101BD3002FF50212088C4BF50212088C5EF50212E7
:101BE300088C74F50212088CD1F50212088C04F6E5
:101BF3000212088C40FA0212088C66FB0212088C4F
:101C030099FB0212088CE5FB0212088C11FD0212EB
:101C1300088C39FD0212088C4EFD0212088C5EFD01
:101C23000212088CA2FD0212088C03FE0212088C19
:101C330013FE0212088C04E10312088C1FE1031245
:101C4300088C48E10312088C62E10312088C87E1D7
:101C53000312088CA6E10312088CBEE10312088C60
:101C6300ECE10312088C06E20312088C48E8031225
:101C7300088C91C40312088C98C40312088CA4C561
:101C83000312088CD4C50312088CFAC50312088CFE
:101C93001DC60312088C3FC60312088C79C60312B3
:101CA300088CDFC60312088C18C70312088C64C79C
:101CB3000312088C91C70312088CB1C70312088C56
:101CC30037E20312088C4FE20312088C3DE3031240
:101CD300088C40E30312088CDF7E0012088C517FCE
:101CE3000012088C8F7F0012088CD07F0012088CA2
:101CF300ACB90312088CCBB90312088C1ABA0312BD
:101D0300088C36BA0312088C67BA0312088C74BAAB
:101D13000312088C81BA0312088C6DBB0312088C62
:101D2300ABBB0312088CBBBC0312088CC6BC0312EA
:101D3300088CD8BC0312088CE1BC0312088CEBBCE2
:101D43000312088CFEA60312088C43AB0312088C03
:101D530051AB0312088CC8E80312088C86D6021212
:101D6300088CDAD50212088C20D40212088CD0D148
:101D73000212088C57D10212088CFED00212088C72
:101D83008ED00212088C65D00212088C45CE021246
:101D9300088C11CE0212088CDECD0212088CC2CD43
:101DA3000212088CDBCC0212088C93CC0212088C32
:101DB300DECA0212088C5ECA0212088C5BCA0212C7
:101DC300088C58C90212088C26C90212088C63C8F1
:101DD3000212088C8EC60212088C1FC60212088CCF
:101DE300BBDF0212088C3FDF0212088CF6DE021200
:101DF300088CAEDE0212088CFCDD0212088CF1C5E1
:101E03000212088CEEC50212088CDBC50212088C84
:101E130086C50212088C6EDD0212088C75C502128B
:101E2300088C67C40212088C31C40212088CDFC309
:101E33000212088C61DD0212088C41930312088C94
:101E430080C30212088C4FC30212088C17C00212FF
:101E5300088CD7BF0212088CCBBF0212088C2BBF91
:101E63000212088C6BBE0212088CEDBB0212088CA6
:101E73007EB90212088C3CB90212088C10B8021207
:101E8300088CC5B70212088C04B70212088CD7B6A7
:101E93000212088C1AB60212088CB0B50212088C12
:101EA300EAB50212088C5BDA0212088C0FFE0100FD
:101EB300000080FBE47300013636010100010201DA
:101EC30000010301000104010606050200000701E9
:101ED30000340801000F090401010D0100FF0E0881
:101EE300000017020000190100FF1A0100011B0185
:101EF30000FE1C0100081D0200001F01000120015B
:101F03000001210200002301000F2402000026012A
:101F1300000127010008280200FF2A0100072B0106
:101F230002402C0100002D0100012E0100012F01B0
:101F330000FF30010B1C310800003A0100083B018F
:101F4300000F2F0100000302710230016002110231
:101F530070020102020202028002100261023A00D0
:101F6300410063027302720262024302000213021F
:101F73003800000200020402120200020002000202
:101F8300000204020402370037003C02440200024C
:101F930039000002000265020002350281020002DC
:101FA3000502820283020002030071003001600017
:101FB3001100700031022003500480001000610002
:101FC300000014006300730072006200430000000D
:101FD30013000600000000000400120000000000CF
:101FE3000000000004000400370037003C024400F6
:101FF30000000000000000006500000035008100C3
:1020030000000500000083000000030471040204C3
:1020130060041104700402040204010402041004A5
:10202300610400041404630473047204620443042B
:10203300000413040604000400040404120400044E
:1020430000040004000451046400000400040004BC
:10205300440400040004000400046504000435047F
:102063008104640005040004830400040103710374
:10207300010301030103010301032203020301031B
:102083001003000300030003000300030003000325
:1020930042030003240306030003000304031203A3
:1020A300250323032503230304030403000300037D
:1020B300000344030003000323030003650321001B
:1020C300350381030003050300030003000301013B
:1020D300710101010101110101013101010101013D
:1020E3008001100161013B0014006301730172015F
:1020F300620143010001130106013D0135000401A2
:102103001201000100010001000104010401330177
:1021130033013C0144013201360000010001650135
:1021230000013500810100010501820183010001E5
:1021330036000100060000000F0000000000000050
:1021430000000000000003FFFF00000403FFFF0086
:1021530000FFFF0FF4010005C40403200001000089
:102163000B000000000000000003010F0000AC188A
:1021730013004C180100AC180200161803001C18B9
:10218300040022180500281806003418FFFF000079
:1021930001680E06980E08920E0BA40E10E40D02B1
:1021A3006E0E05860E07740E0C4A0E0D5C0EFF00B4
:1021B3000003EAF5E5D5D5C5B5A59595858575756E
:1021C300656555554545353525251515057012A009
:1021D3001276127C129A128E128812A612AC12B2C6
:1021E30012BE1282126A12641200160F00000B153F
:1021F3000B020002220F320000065A136C137213F3
:102203003A1278133412401274116E11AA11B011DC
:10221300A4115C11B413D213D813BA13C613C01389
:10222300303016181920231A1C1E300C0E020B0412
:102233000B0A0708000F00383C3E363B3B352B4367
:102243002C303017181921301B1D1F3000011916AF
:102253001816161523030000034948424D18172585
:102263000502A8137E13841390138A139412B812D1
:10227300CC13C412CA120204020101010109028033
:102283001186117A11B6110000000000008C119E16
:102293001100BE040A150004007F00E8030C0028A7
:1022A3000000000000090308100C0A0308090004D9
:1022B3000001FF1E1E0C05040F1008C082C0838A94
:1022C300828B83E0D2E7F012177A023435C082C0E2
:1022D30083790012278A1254A1C082C083900334E9
:1022E300124227D083D082C3E09CA3E09D500C12FE
:1022F3005B75FAA3E0122301600109023435FBEA9E
:1023030075F00BA4FAA8F075F00BEBA428FB90036F
:1023130036E02AF8A3E03B8882F583E0540F227469
:10232300F7120407890812278A122830ACF075F0D7
:102333000BE9A42CF9900336E028FEA3E039FF74DF
:1023430001650860067402650870208A828B831217
:10235300281C12350374026508701B1226DB122831
:102363006370138E828F83E4F0800BEA2403FCEB0B
:102373001227FE12280AEEFAEFFB120B7402346DD9
:1023830074F412040712649C79008E828F83E060D8
:1023930076890A890B8065E50A75F00BA4FAA8F023
:1023A30075F00BE50B12230E7046E50A75F00BA4CE
:1023B300F8AAF075F00BE50B1228428E828F83E0AA
:1023C300850882850983122924850882850983A3C8
:1023D300123503EE2403FCEF12280712343C124F8C
:1023E3001BAA08AB09120B7479019003341249300C
:1023F300E50A2401F50AE50B3400F50B1226E3E5A3
:102403000A9AE50B9B40900236AD74F5120407EA75
:10241300FEEBFF740B120B3D123441750A01EC4DB8
:10242300602BEC1264B8ED1254A11234FB79011243
:102433000B80E5084509606F850882850983A3122F
:1024430064A67902AA08AB09120B80805AE50845F5
:1024530009602B1254A5123B6F12343D12284D70A4
:102463000CEEFAEFFB120B86E9F50A80CBEE2403A0
:10247300FA12278570317903EEFAEFFB80CA8E8258
:102483008F83A3E064FE7003A3E0F4700BEE2403D8
:102493000A0A0A122785700CEEFAEFFB120B86E983
:1024A300F50A8003750A00A90A7F0302066774F719
:1024B30012040790033412347DEA4B602FEA75F05F
:1024C3000BA4FAA8F075F00BEBA428FBEAFEEBFFD4
:1024D3001215AC90033612347D90033612477560A3
:1024E30012EEFCEFFD79001215168007900336E417
:1024F300F0A3F002346D900334123EDFC3EE98EF85
:102503009922C082C083EC4D6005121CEA80097CCD
:10251300087D00790012151602343574F61204078B
:102523007900EA4B6018780088081257E8EB125BD1
:102533007160047901780808E8C3940840EA023519
:102543000C74F712040774F3120955ECFEEDFF85C2
:102553001882851983E4F004120B3DEAF0A3EB1211
:102563004CA17403120B3DAC82AD83EEFAEFFB1268
:102573000B98EEFAEFFB120B9E02346874F7120409
:102583000774F3120955ECFEEDFF85188285198354
:10259300E4F0EAFCEBFD7403120B3D12291D7401F8
:1025A300120B3D1234F78E828F8312350374FE684B
:1025B300700374FF69600479018002790002346852
:1025C30074F7120407EAFEEBFF1226217014122699
:1025D3002C8E828F83E0F4F88A828B83E058F0128A
:1025E3000B74A90802346D74F7120407EAFEEBFFBB
:1025F3007508008E828F83E06022122621701D12DF
:10260300262C8A828B83E08F838E82F8E058700CAD
:10261300E0F88A828B83E048F0120B7480C4120BBB
:102623007AE9F50874016508221264B1122834129C
:102633002776FAA3E039FB2274F41204078A088B85
:10264300097C007D001226DB12280A12279B1264E4
:10265300A37900850882850983A3E064FE7003A340
:10266300E0F460717E007F008062EEFAEF122301D6
:102673006057EEFAEFFBEA75F00BA4FAA8F075F0D9
:102683000BEBA428FB900336E02AF50AA3E03BF505
:102693000B850882850983A3124BEF850A82850B7C
:1026A30083A3E06A7003A3E06B701EE50A2403FAB8
:1026B300E50B122786700AE50A2403FCE50B1228B2
:1026C3000712278F79011254B712307A1226E3EEDC
:1026D3009AEF9B40950236ADEA24030A0A0AEB22DD
:1026E30090033412508EC32274F31204078A088BAA
:1026F300098A828B83A31264A612278A1264A375A4
:102703000C001226DB12278670547E007F0080495E
:10271300122768FAA3E0398A82F583E0540F603602
:10272300122768F50AA3E039F50BE50A2403FCE553
:102733000B1228113400FB121CE4E96401701785A5
:102743000A82850B83A312514FA312350312278FDD
:10275300750C011254B712307A1224F940B2A90C45
:102763007F05020667EEF8EFF9E875F00BA4F8129F
:10277300277622AAF075F00BE9A42AF9900336E034
:102783002822EF12285D221264B7EB2212279B1234
:1027930054B2EEF0A3EFF022E5081264B8E5092283
:1027A30074F5120407EAFEEBFF8E828F83A3126493
:1027B300A67C007D00EE24030A0A0AEF12280AEE23
:1027C300FAEFFB120B7AE9F50A7401650A70291214
:1027D30064B1122830AAF075F00BE912284285087B
:1027E30082F58312281C12284D700DE5082403FC82
:1027F300E5091227FE12280A0224AA3400FDEE245A
:1028030003FAEF221228113400FB120B9822340032
:10281300FDE5082403FAE50922A312282122122840
:102823002522E0F8A3E0F98E828F83A322122834B5
:10283300223400F583123EE3E875F00BA4F822126C
:10284300277CF508A3E039F50922E8F0A3E9F0E5D0
:10285300082403FAE50912285D2212286364012281
:102863003400FB120B9EE92274F312040774E61280
:10287300095512649C750C01750800750900750AE9
:1028830000750B00851882851983E4F0EE2403FCA0
:10289300EF3400FD7403120B3D12291DE96401702E
:1028A30023740B120B3D1234FB7401120B3D124BBC
:1028B300F37003A3E06960518518828519838582CB
:1028C30008858309740D120B3DE4122924740E123A
:1028D3000B3D123503740D120B3DAA82AB83120B11
:1028E300BCE96401700B740D120B3D85820A85836C
:1028F3000B780A1208C4AC08AD09EEFAEFFB120B11
:102903008C74021208D7E9F50CEEFAEFFB120BB642
:10291300A90C741A1208D7022763122BF0120BC2E8
:1029230022123478123EDF22C082C08378007900FD
:102933008003122A1B1226E3E89AE99B5029E8FA3E
:10294300E9FBEA75F00BA4FAACF075F00BEBA42CE1
:10295300FB900336E02AFCA3E03B8C82F583E05432
:102963000F70CF790080027901023435C082C083B1
:10297300902298123F35EC75F012A4FCA8F075F084
:1029830012EDA428FD79FF7A167B0812151602347E
:102993003574F7120407E9FEEAFF7A007B0078003A
:1029A30079008028E8FCE9FDEC75F012A4FC85F0C1
:1029B3000875F012EDA42508122E30C39E400AE0DC
:1029C300FCEFC39C4003122F4F122A1B122E2440EC
:1029D300D302346DC082C083780079008003122A49
:1029E3001B122A0F501F122E34F470F2E875F012E6
:1029F300A4F8AAF075F012E9A42AF9741628FA7457
:102A03000839FB80047A007B000234359022981247
:102A13002EE5C3E89AE99B22E8240108E93400F98A
:102A23002274F012040774F31209558A0A8B0B8C73
:102A33000C8D0D8908EC450D6016AA0CAB0D120C1C
:102A4300108A0E8B0FAE0EAF0FEE4F6003022AE219
:102A5300120BE68A0E8B0FA80EA90FE8FEE9FFE81A
:102A630049607C9022A6122B44602274036508609F
:102A7300067404650870167A047903120BE0902239
:102A8300A6122B5B40077A007B00022B419022A405
:102A9300122B44601B74016508600674026508709C
:102AA3000F7A027901120BE09022A4122B5B50D60D
:102AB3008518828519837401F0120B3D124F1BACEC
:102AC3000CAD0D7403120B3D122BE9740B120B3D6D
:102AD3001234491238E3E4124F031210B48004EEA7
:102AE3004F604A780074FF2508C3940450027804A9
:102AF3008E828F83124F1B8E828F83A3A3A3A3E5A2
:102B030008F0E88E828F83A3A3A3A3A3124F2312FB
:102B130002B6122EFC8E828F83A3A3A3A3A3A3A327
:102B2300F0122EF3120B1A12549B120B26122B497E
:102B33004005900D72E4F0120F8EEEFAEFFB023EA9
:102B4300E912503D49227A047900120BE090229851
:102B5300125B57EA98EB9922122B747583227582C4
:102B630098E493C398F8A3E49399F9C3EA98EB998B
:102B730022E493F8740193F92274F212040774F3B4
:102B83001209558A088B09ECFEEDFF750A00EEFA6F
:102B9300EFFB120C108A0C8B0DA80CA90DE84960F1
:102BA3003E88828983E065087004A3E06509602F8D
:102BB30088828983A3A3A3A3E0C39405502112535E
:102BC300498518828519837401F0120B3D12534D08
:102BD300EEFCEFFD7403120B3D122BE9750A01A9FC
:102BE3000A740D0249E7122BF0120BCE22AA82AB14
:102BF30083120B98851882851983AA82AB8322746A
:102C0300F6120407122C3E600FA3A3A3A3E014C380
:102C13009404500479018002790002350C74F61291
:102C23000407122C3E600FA3A3A3A3E014C39402D2
:102C3300500479018002790002350C120C0A8A8251
:102C43008B83E58245832274F6120407122C3E60BF
:102C53000BA3A3A3A3E070047901800279000235DA
:102C63000CC082C083EAFCEBFD7A007B00023432A5
:102C7300C082C0837C007D0002343274F4120407E6
:102C830074F3120955EAFEEBFF8C0A8D0BC3EC9427
:102C9300F8ED94FF4007EE4F7003022D37750800DF
:102CA300750900802E8518828519837401F012300E
:102CB300A2120B3D1230B060137403120B3DAC82B1
:102CC300AD83EEFAEFFB121CE4E97049E508240139
:102CD300122ED0902298E4125045E50898E5099900
:102CE3005052E50875F012A4F8AAF075F012E50940
:102CF300A42AF9125B8A60D4EE4F70A974FF650AA7
:102D0300700474FF650B60C4123092650A7004A3EB
:102D1300E0650B70B7E50875F012A4F508A8F07527
:102D2300F012E509A428F50974162508FA74083584
:102D330009FB80047A007B000236A874F4120407AE
:102D430074F3120955750800120C108A0A8B0BAE26
:102D53000AAF0BEE4F602A8518828519837401121E
:102D63003472F8A3E0F9740B120B3D123586120B83
:102D7300B07C127D0079FFEEFAEFFB121516750891
:102D830001122B495009900D727401F0120F8EA994
:102D9300080236A874F7120407E9FE74FE6A70038A
:102DA30074FF6B7800790070058052122A1B122E73
:102DB30024504AE8FCE9FDEC75F012A4FCAFF07571
:102DC300F012EDA42F122E30F460E0E8FCE9FDECE4
:102DD30075F012A4FC75F012EDA42FFD74162CF5FA
:102DE3008274083DF583E06A7003A3E06B70BC80D6
:102DF30009122E3414C394044017122A1B122A0FEB
:102E03005018EE70EC122E3464016005E064037018
:102E1300E9123083FAA3E0FB80047AFE7BFF0234DD
:102E23006D902298123F39C3E89CE99D22122F84AA
:102E330022E8FAE9FBEA75F012A4FAACF075F01295
:102E4300EBA42CFB741A2AF58274083BF583E02269
:102E5300120C22023435C082C083790180F274F0EF
:102E63001204078A0A8B0B7A047901120BE08A0C8D
:102E73008B0DEA450D603EEAC333FAEB33FB1215C3
:102E8300AC8A088B09AE08AF09EE4F60237AFE7B4C
:102E9300FF120C2874FE6A700374FF6B601B8508B5
:102EA3008285098312347DE5082402122ED080E145
:102EB300750C0080047E007F00850A82850B83E504
:102EC3000CF0EEFAEFFB023EEEE5082407F508E509
:102ED300093400F50922902298123F39C3EA9CEB8A
:102EE3009D22E493FA740193FB2212150A740322C0
:102EF3001254ACE4F090807222E88E828F83A3A3F5
:102F0300A3A3A3A3A3A3122F1E7401122F1EA3F026
:102F1300EE24101254AFE4F0A3F0221238EFA3A36F
:102F2300A322C082C0837A007B00800419122F4F32
:102F3300122ED95010122F6EC3940550F0E970EC85
:102F4300122F5880047A007B00023435EA24010AE8
:102F5300EB3400FB22EA75F012A4FA75F012EBA42D
:102F630028FB74162AFA74083BFB22EAFCEBFDECFF
:102F730075F012A4FCA8F075F012EDA428122F84AA
:102F830022FD741A2CF58274083DF583E02274F750
:102F930012040774F31209557E007F00023036E5F0
:102FA3000875F017A4F8A9F0125DEBFAA3E0FBEEA5
:102FB300F8EFF9E875F012A4F8ACF075F012E9A493
:102FC3002C1230916A7003A3E06B603FE50875F043
:102FD30017A4F8AAF0EA125DEAF8A3E0F974011263
:102FE3000B3DE0687003A3E0696020E50875F01706
:102FF300A4F8EAF9749228FC740939FD7403120BDE
:103003003DAA82AB83121CE4E96014E50875F0174E
:10301300A4F8A9F0749028FA740939FB1210C005BA
:10302300089022ABE493F8E508C3985003022FA25B
:1030330012307A9022981261315039EEF8EFF9127A
:103043003083F47003A3E0F460E685188285198366
:103053007401F0EEF8EFF9E875F012A4F875F012C8
:10306300E9A42AF91230A2120B3D1230B060C175E7
:10307300080080AD023468EE24010EEF3400FF2215
:10308300E875F012A4F8AAF075F012E9A42AF9126F
:10309300309622741628F582740839F583E0227479
:1030A3001828F582740839123EDD740B22E8F0A368
:1030B300E912358E120BC8E922C082C08390033D0A
:1030C3007480F0A3740EF090033F747AF0A3740E2F
:1030D300F0900343749AF0A3740CF002343574F740
:1030E300120407EAFEEBFF900377E06408601BE03D
:1030F300640460168E828F83E05403640170481267
:10310300343C1239E4E06406703D8E828F83A3A3BE
:10311300E064FE7003A3E0F4602D8E828F83A3A38B
:103123001234F7900368E0687003A3E069700BEE54
:103133002415F582EF125B716008120F2EE9F50872
:103143008008120F3480F67508C2EEFAEFFB1215F1
:10315300B20225E574F41204078A088B098A828B6C
:1031630083E0F8A3E0FAE82AFAE43400FB1215AC92
:103173008A0A8B0BAE0AAF0BEE4F6063850882851C
:103183000983E0FC7D0079001215168E828F83A3DC
:10319300A31264A6120F708E828F83A3A3A3A3121C
:1031A300347D850882850983E0F8EE28F8EF340042
:1031B3001234FF850882850983A3E0C0E0EE240D65
:1031C30012549ED0E0F0120F82EE240E12549EE9A8
:1031D300124B50E0C0E0EE241112549ED0E0F0EE0A
:1031E300FAEFFB0236AD74F612040774EB120955BD
:1031F300EAFEEBFF124772600302328D7A077B000F
:103203001215AC90033912347D12477260788E82A6
:103213008F83120B1A90033A1239E7120B261263AB
:103223006AC0E0123299D0E0F0EE2405FAEF3400E0
:10323300FB8A088B098A82F583E0C0E0123294D0BE
:10324300E01236A4E0C0E0123294A3D0E01234E9D5
:10325300120B1A851882851983120B26888289839B
:10326300E0C0E07405120B3DD0E0F08508828509CB
:1032730083E0C0E07404120B3DD0E0F07407120B3E
:103283003D1233CF8006791080027901741502351F
:1032930009123299A322900339E0FAA3E0F5838A55
:1032A30082A3A3A3A322C082C083124772600D909E
:1032B300033912507C900339E4F0A3F0120E9E12EE
:1032C300106002343574F012040774EB120955ECE4
:1032D300FEEDFF89087425120B3D780C120AE07489
:1032E30029120B3DE0F9742A120B3DE0FC742B12FA
:1032F3000B3DE0FD740F697005740F6C6012900D47
:10330300B7E06402700579C10233CAE9C39C40F691
:10331300900378780C120AFEE50890037EF0E9909A
:10332300037CF0ECA3F0ED90037FF074FF6A70036D
:1033330074FF6B701D900DC2E0F47003A3E0F47092
:1033430005121522800C900DC2123452E8F0A3E945
:103353008007900375EAF0A3EBF0EE4F6017EEFAE7
:10336300EFFB121120E96401700BEEFCEFFD7A898B
:103373007B03121CEA900368E4F0A3F090036BF064
:10338300A3F0900388F0900DB7E0640270089003F7
:103393007C740FF0A3F09003777405F014120B3DC7
:1033A300E4F0900378120B1A851882851983120BA7
:1033B3002690037EE0C0E07405120B3DD0E0F0746C
:1033C30007120B3D1233CF7415023EEBE412358E18
:1033D300121D1422C082C083900338E070031218B8
:1033E30046120C6A804CC082C083900338E0900D73
:1033F300717004E4F0802D7401F0900338E0F46000
:10340300237C41E0C394415002E0FCECF8E0C39814
:10341300F0EC75F0E8A4CCA8F075F003A428FD7ACD
:1034230080123F417A717B0D7941121D0280031294
:103433000C16D083D082020889EE1254AD22E0F537
:1034430008A3E0F5092212344D22122825A32212E3
:103453003EDF9003752274F7120407EB90037FF0AD
:10346300120E8C8005740D1208D77F0102066712B5
:103473003478A3E0221234E9A322EAF0A3EBF0228A
:1034830074F712040774F8120955EAFEEBFF79008A
:10349300900377E06408704485188285198374FD6E
:1034A300F0A374FFF0120F6A7402120B3D12347D05
:1034B3007405120B3DE4123478E0C0E07404120B7F
:1034C3003DD0E01234E4C0E07406120B3DD0E0F0CE
:1034D3007407120B3DE412358A120FAC74080234E0
:1034E3006A1234E9E022F08E828F8322F0851882FB
:1034F30085198322123EDF22E0F8A3E0F91254ACCF
:10350300E8F0A3E9F0221208D77F02020667C0821F
:10351300C083900349742AF0A3740DF09003EF74F1
:1035230006F0A37410F090034D7460F0A3740DF0D3
:1035330090034F742AF0A3740DF09003517466F056
:10354300A3740DF002343574F412040774F91209EC
:10355300558A088B098C0A8D0B8518828519837807
:1035630008120AFE7404120B3DE9F07405120B3DB8
:10357300E4F07406120B3DE412358A120C52740700
:103583000236AAE8F0A3E912358E221234EFAA829A
:10359300AB832274F41204078A088B098A828B8313
:1035A3001254BAEE4F70030236A2900312124775FB
:1035B30060158A828B83A3A3E0F9EEFAEFFB9003F5
:1035C300131239E7121EB78E828F83A3A3A3A3A37B
:1035D300A3A3A3A3E0640270748E828F83A3A3A327
:1035E300A3A3A3E0540270030236748508828509FD
:1035F30083A3A3E064E960798E828F83A3A3A3A34B
:10360300A3A3A3A3A3A3E07014900DBAE0048E8236
:103613008F83A3A3A3A3A3A3A3A3A3A3F08E828FA8
:1036230083A3A3A3A3A3A3A3A3A3A3E0141236A4D6
:10363300A3A3A37404F0900DBB124EF5E8F0A3E925
:10364300125FCE8B0BEA450B70031259AC8E828F3F
:1036530083A3A3A3A3A3A3A3A3A3E0640260128EE3
:10366300828F83A3A3A3A3A3A3A3A3A3E06406704E
:103673002E8E828F83A3A3A3A3A3A3E0A2E0501F54
:10368300850882850983A3A3E0F9EEFAEFFB121DF7
:10369300988E828F83A3A3A3A3A3A3E054FEF080F9
:1036A300091238EB22740D1208D77F0402066774DF
:1036B300EC12040774DD120955EAFEEBFF8C088D4A
:1036C300097437120B3D780C120AE0750A00740571
:1036D300120B3DAC82AD83120B507412120B3DE002
:1036E30070087415120B3DE060207405120B3DE069
:1036F300A2E6501E8E828F83A3A3A3A3A3A3A3A397
:10370300A3124BEF120FE2E960087903121CD202F5
:1037130038D17405120B3DE0540C64047005750B2D
:10372300018003750B00E0A2E55035750A01E50B36
:10373300A2E0402C120F708A108B11A810A911124D
:10374300343CE0687003A3E06960157405120B3D17
:103753001264AD124BEB121DA4E96004790480AC32
:103763007405120B3DE0A2E650227406120B3DE0F5
:10377300540370187405120B3DE0540C640C600C78
:10378300E0540C6408600575100180037510007423
:1037930005120B3DE05403F8740268700C1264AD1B
:1037A300124BEB120B620238D1740168703AE510C8
:1037B300A2E050031238D97405120B3DA882A983E5
:1037C3007403120B3DE8F0A3E9123ED385188285FA
:1037D30019831238E3E0C0E07402120B3DD0E0120B
:1037E300358A121E880238D1E860030238D190036B
:1037F3005FE0640170108E828F83A3A3A3A3A3A3AE
:10380300E0700302375F7422120B3D7402123ED341
:10381300741A120B3D123503E510A2E0500874052B
:10382300120B3D1238D9E50BA2E0506AEE240FF5D6
:1038330082EF125B71C0E07417120B3DD0E0F09081
:10384300031412477570030238D1120F708A128B5A
:1038530013A812A913741A120B3DE0687003A3E0B6
:1038630069706B780C1208BC780A1208C8780812C1
:1038730008C4A910740C120B3DAC82AD83742112E1
:103883000B3DAA82AB839003141239E4121EB77462
:10389300071208D78038780C1208BC780A1208C8B7
:1038A30078081208C4900375120734EE2412F582C7
:1038B300EF12589F7423120B3DAC82AD83740E122A
:1038C3000B3DAA82AB83121D8C74091208D7742393
:1038D3001208D7025F991264AD12508A120B562256
:1038E300E8F0A3E91238EB221238EF22F08E828F30
:1038F30083A3A3A3A3A3A32274F71204071217326B
:1039030002346D74F712040712173802346D74F71A
:1039130012040712174402346DC082C08312173E8B
:1039230002343574F712040712174A02346D74F720
:103933001204077409120B3DE0F50878081208C851
:10394300121756740102346AC082C08312176202CE
:103953003435C082C08312176802343574F71204F9
:103963000712176E02346D74F7120407EAFEEBFFB9
:1039730089087401650870147900120DA29022B6AB
:10398300E493FC7900EEFAEFFB120D1802346D7428
:10399300F412040774F9120955E9FE8A088B098C9D
:1039A3000A8D0B7413120B3D124BEF90058F1247C8
:1039B300756027EE851882851983F07401120B3D1B
:1039C3007808120AFEEAF8EBF97405120B3D12357A
:1039D3008690058F1239E4121EB7023581FB9003DE
:1039E3004BE0F8A3E0F583888222C082C0831217DC
:1039F3009E02343574F7120407900D74E0F97E00CB
:103A0300800B125B5D540D64017001190E123BF1C2
:103A13005003E970ED02346D74F7120407900D75CD
:103A2300E0F97E00800B125B5D548D648170011997
:103A33000E123BF15003E970ED02346D74F212047F
:103A430007890BE975F006A4240CF508E5F0122E9E
:103A5300D48A0CE508250CFAE5093400FB1215ACF1
:103A63008A0C8B0DAE0CAF0DEE4F6027AC08AD0981
:103A7300790012151612343CE50BF0EE2508F8EF29
:103A83003509F98E828F83A3A3A3A3A3A3A3A3A31F
:103A9300123503EEFAEFFB0249EA74F6120407EA61
:103AA300FEEBFF120CF4900D73E0F8E9C3984009A4
:103AB300900345124BEF120CFAEE2402F8EF125169
:103AC300FF9003471250B9900347E004F0EEFAEF7A
:103AD300FB120D00850882850983E00256B5C0827A
:103AE300C0837900900345800109124BEF8A828BD2
:103AF30083E582458370F202343574F7120407EAD2
:103B0300FEEBFFEE4F6056900345124775604E88FB
:103B13008289837A007B00EE65827003EF658360A0
:103B23000FAA82AB83123B63E5824583602F80E754
:103B3300900345123B6F687002EF698E828F83702A
:103B4300081234F79003458003125FAB123503EE7E
:103B5300FAEFFB121E58EEFAEFFB1215B202346DA8
:103B6300123B6722123EE38882898322123EDFEEF4
:103B730022C082C0839003458004888289831247D0
:103B830075600B88828983124227EC4D70EC8A8220
:103B93008B83E4F0A3F0E84960068882898380037D
:103BA30090034512347D02343574F71204079003F1
:103BB3004580048A828B83123BEC4B60257E008018
:103BC300010E123BF150ECEE75F006A4FCADF0EAE9
:103BD3002CFCEB3DFDEC2410F582ED123C4170E131
:103BE30080047A007B0002346D12508EEA22123C6C
:103BF3004AEEC3982274F71204077D0080010D1268
:103C03003C46EDC3985034ED75F006A4FEA8F0E8E9
:103C1300FFEA2EFEEB3FFFEE2410F582EF123C414C
:103C230070DCED75F006A4FEE8FFEA2EFAEB3FFB2D
:103C3300EA2411F582EB125B714CF002346D125BD6
:103C43007D6922123C4A221264B7EB3400F583E00B
:103C5300F82274F6120407120E1A7A007B008025EC
:103C6300EAF8EBF9E875F006A4F8ACF075F006E9AC
:103C7300A42C125063126378A3E4125159F0A312D7
:103C8300637E1264F59022A0122B5340D37A007BFB
:103C930000801C8A088B0974037808120A20124BCF
:103CA30017A374FEF0A304124F39A3E41264F59032
:103CB30022AA123CF440DC7A007B00801D8A088B28
:103CC3000974037808120A2074B81257E9740C12A5
:103CD300603074FEF0A3041264F59022B0123CF439
:103CE30040DB9022B4E493900353F0123CFE023580
:103CF3000CE493F8C3EA98EB9400227CE87D037A02
:103D0300107B009003C2E0F91216662274F01204CD
:103D13000774F51209558A088B09890A8C0BE9A2E5
:103D2300E050147508FC7509FFA2E15005D2E402C6
:103D33003DD1D2E3023DD11249D67003A3E06970AD
:103D4300057900023E9EAC0A7902AA08AB09120D5E
:103D5300F6E960EDE50AF50C780C1208C879027CE7
:103D6300FE7DFFAA08AB091247511208D7E9600389
:103D7300023E9CE50AC2E5F50A9003B5E07051E501
:103D83000AA2E6404B7403120B3DAC82AD83AA0832
:103D9300AB09120BA4E970321240728A0C8B0DA886
:103DA3000CA90DE8FEE9FFE8496025EE24020A0AA2
:103DB300EF122863601AEE2402FCEF3400FD740353
:103DC300120B3DAA82AB83121CEAE50AD2E5F50A7F
:103DD300900348E0F50C900368E0F50EA3E0F50FBF
:103DE300780E1208C47D017C00900348E0F9AA0E06
:103DF300AB0F120DAE74021208D7E9F8900348E036
:103E030004F0E86003023E9CE50AA2E55004740E48
:103E130080027406C0E07401120B3DD0E01254CB53
:103E23008A0E8B0FAE0EAF0FEE4F6069123EBC12BF
:103E33003ED3888289837401F07478550AA312648F
:103E4300BDE50C1264BDA3E508F0E509123EABE441
:103E5300F0E50AA2E5500F7403120B3DAC82AD836B
:103E6300E82406123EA28E828F83A3A374FDF0A3DF
:103E730074FFF0E50B60159022B7E493F8E50BC3EC
:103E8300985009EE241312549EE50BF0EEFAEFFB63
:103E9300120C4680067910800279C7740B8049FAA8
:103EA300E93400FB121CEA2288828983A3A3A3A31B
:103EB300123EB722125232A322EE24171254AF74C9
:103EC30001F0120F6AEE241A1254AFEAF0A3EB22A8
:103ED300F01264B13400123EDD22F583123EE32278
:103EE300E0F8A3E0F922740D1208D77F08020667F1
:103EF30074F61204077A007B101259B96008900314
:103F0300D47401F08029900630E06401900DB870FC
:103F130006E0FC79018004E0FC79037A007B00125F
:103F23000D1890229E123F357A007B10123F4302F8
:103F3300350C123F3922E493FC740193FD227B007C
:103F43009003C2E0F91216602274EC1204078A0887
:103F53008B098C0C8D0D890E7414120B3D12493094
:103F63007416120B3DE0F510A3E0F511120FE2E910
:103F730060077AFF7BFF02406F900DB7E064026039
:103F8300030240627900AA08AB09120DFCA90E12C4
:103F93000DF08A128B13AE12AF13EE4F7003024073
:103FA3004A8E828F83A3A3A3A3A3E064018E828F8F
:103FB30083A3A37069124BEF8E828F83A3A3A3A362
:103FC300A3A3E0541860439022B5E4938E828F83B9
:103FD300A3A3A3A3F0EA650C7003EB650D6014EAD9
:103FE300650A7003EB650B600AEA65107003EB6505
:103FF30011701F78101208C4AC0AAD0BAA0CAB0DDC
:104003001210DE74021208D780089003671259A3B6
:10401300A3F074FE6A700374FF6B601D804EA3A34C
:10402300A3E0640360298E828F83A3A3A3A3A3E0E9
:10403300640470057AFE023F778E828F83A3A3A365
:10404300A3A3E0640270089003B4E064027010124A
:1040530040728B0BEA450B6006AA08AB09800DAAD8
:1040630008AB099003491239E4121EB7025F999015
:1040730003751247571210A22274F7120407EAFEBF
:10408300EBFF120BF8E9700AEEFAEFFB120C04E9EE
:104093006006EEFAEFFB80047AFE7BFF02346D7458
:1040A300F01204078A0A8B0B8C0E8D0F8909750891
:1040B30000120FE2E979006003024219AA0AAB0B6E
:1040C300120DFCA909120DF08A0C8B0DAE0CAF0D6D
:1040D300EE4F60198E828F83A3A3A3A3A3E0640290
:1040E30070559003B4E064027003024217AA0AAB4E
:1040F3000B90034F1239E4121EB7120C0A8A0C8B71
:104103000DA80CA90DE84970030242178882898320
:10411300A3A3A3A3A3E0A2E04003024217750C01EB
:10412300A2E150687901AC0AAD0BAA0EAB0F120DD8
:1041330048E970640242178E828F83A3A3A3A3A3CB
:10414300E064037005750C0280528E828F83A3A3F3
:10415300A3A3A3E064016003024217900375124214
:10416300278E828F8312457C8A0C8B0DA80CA90D98
:10417300E84960D19022AEE493FA88828983E0C350
:104183009A50C2A3E0600302421780B988828983F0
:10419300A3A3A3A3A3D2E1F0EE4F603A8E828F8351
:1041A300A3A3A3A3A3A3E05418602B7508018E82D5
:1041B3008F83A3A3120734750CFE750DFF780C12C1
:1041C30008C47900AC0AAD0BAA0EAB0F120E0E7425
:1041D300041208D7803E900368E0650E7004A3E0E4
:1041E300650F70149022B6E493FCA909AA0AAB0BDD
:1041F300120D18750801801CA90CAC0AAD0BAA0E90
:10420300AB0F120D48E9700C750801A909AA0AAB96
:104213000B120DA2A908023EEEE50C2415F582E56A
:104223000D1254B2124F0F2274EA12040774F012E3
:1042330009558A0C8B0D8C088D097426120B3DE0F1
:10424300F514A3E0F5157512069003F51247756092
:1042530023900375124227AA08AB091210CC8A10C7
:104263008B11EA4511600D8A828B83A3E070057977
:1042730000024564E50C241DF50EE50D3400F50F31
:10428300850E82124761F51388828983A3A3A3E075
:10429300FA88828983A3A3A3A3E0F9EA2400FEE4B6
:1042A30039FFAA08AB09120DA8850E82850F831268
:1042B300459FE029F50BE50AA2E5500375120E743C
:1042C30087550A70177418550A6418600FE50C2493
:1042D30017F582E50D125B71651260077901121CF7
:1042E300D2808C530A78C3EE94F8EF94FF501D7973
:1042F30000EEFAEFFB12456E601288828983A3A356
:10430300A3A3A3A3E054186003024272780812081F
:10431300C47D001245921208D7E9F874036870034C
:10432300024272E860030243DD7418550A70030207
:104333004492E50AD2E0F50AA2E45004D2E1F50A78
:10434300A90A124BE812456E605388828983A3A39E
:10435300A3A3A3A3E05418604488828983A3A3A3DF
:10436300A3A3E064017036E5104511603090037536
:104373001242278882898312457C8A0E8B0FA80EEE
:10438300A90FE849601788828983A3E0600F85102D
:1043930082851183A31256C05003024272E50AF5C7
:1043A3000E780E1208C81245851208D7E9702B7CC7
:1043B300007D0085148285158374FFF0A3F0850CBE
:1043C30082850D83A3A3A3A3A3A3A3A3E0600312E6
:1043D300421CA90B124BE812175C851482851583C6
:1043E300E0F47003A3E0F460399003B4E064027076
:1043F30003024272124921E0FAA3E01239E0121ECD
:10440300B7EA65087003EB65096003024272EEFACE
:10441300EF1239E0121EB7851482851583EAF0A3E3
:10442300EBF078081208C47D011245921208D7A94F
:104433000AEEFAEFFB120DFC8A088B09A808A909FA
:10444300900368E0687003A3E0696003024555EEDA
:10445300FAEFFB120C0A8A088B09A808A909E84994
:10446300606E88828983A3A3A3A3E06401600D889F
:10447300828983A3A3A3A3E0640270548518828571
:104483001983AC82AD83EEFAEFFB120BA480559037
:104493000361E0600FE50AF50E780E1208C81245B5
:1044A300851208D7E50AF50E780E1208C879027C42
:1044B300FE7DFFEEFAEFFB1247511208D7E96003C6
:1044C3000243DD85148285158374FFF0A30244241F
:1044D300120F6AEAFCEBFD851882851983AA82AB69
:1044E30083121CEA850C82850D83A3A3A3A3A3A334
:1044F300A3A3E06401700F12421C7408120B3DAABF
:1045030082AB83121CEA12472B1253374430F5084F
:1045130078081208C87401120B3D85820885830947
:1045230078081208C4740B120B3D85820885830931
:1045330078081208C4E513F50878081208C879004A
:10454300EEFCEFFD124BE8120D4274061208D7027F
:10455300427212472B1254A112459FE50BF0120F22
:104563008274101208D77F0E020667120DF08A0EAE
:104573008B0FA80EA90FE84922A3A312508E121085
:10458300CC227901AC08AD0912508312475122ACF9
:104593000BA913125083120DAE74022212533FA3C0
:1045A300A3A3A32274F012040774F01209558A0C12
:1045B3008B0DECFAEDFB750F089003F51247756050
:1045C300141256B98A828B83E58245836007A3E080
:1045D300700302472612472B3400124761F50B88FC
:1045E300828983124734E0FBEC2400FEE43BFF881E
:1045F300828983A3A3124734A3A3E0FBECF508E469
:104603003BF50988828983A3A3A3A3A3A3A3E0F50E
:104613000EE50AA2E45003750F10A2E550067408D4
:10462300250FF50F748F550A700FE50C2417F582CB
:10463300E50D125B71650F60087901121CD2024708
:1046430026530A707800E50AA2E4502212472B127F
:104653005B712408FCA3E03400FD7408120B3DAA2F
:1046630082AB83121CEA7808E50AC2E4F50AE50A7C
:10467300A2E5502812472B125B7128F8A3E03400FF
:10468300F9E82408FCE93400FD851882851983AA1A
:1046930082AB83121CEAE50AC2E5F50AAC0EA90B4C
:1046A300EEFAEFFB120DB4E9F8740368607590033A
:1046B30068E06E7003A3E06F605EE87054E50AF58E
:1046C3000F780F1208C81247421208D7E9705478BE
:1046D3000A1208C87401120B3D85820C85830D787C
:1046E3000C1208C4740B120B3D85820C85830D7864
:1046F3000C1208C4E50BF50A780A1208C8A90EAC17
:1047030008AD09EEFAEFFB120D4274061208D780CA
:1047130012740468700D80B7780A1208C8124742F1
:104723001208D77410023EEBE50C241DF582E50D4B
:1047330022A3A3A3E0FC88828983A3A3A3A3227952
:10474300011249281254B212475712475122120D2F
:104753006C740122E0FCA3E0FDAA08AB0922F583F7
:10476300123B67A3E0F50A88828983A3A3E0229022
:1047730003391250EA2274E812040774F51209553A
:10478300EAFEEBFF8C088D0989147423120B3DE0BC
:10479300F50F7424120B3DE0F512A3E0F513742614
:1047A300120B3DE0F516A3E0F5177428120B3DE05C
:1047B300F50EA90F120DBA8A108B117401120B3D5D
:1047C3007408F0E50EA2E450037410F0E50EA2E5C0
:1047D3005004E02408F0851882851983AA82AB83EC
:1047E300120FCA8A0C8B0DEA450D7003024908EAC1
:1047F3002417F582EB12491A120F6AE50C241AF5F5
:1048030082E50D1254A112347D7403120B3DAC8268
:10481300AD83AA10AB11120BA4E9601D12491274E7
:1048230003120B3DA882A983E50C2418F582E50D3C
:104833001254A1E8F0A3E98024E50EA2E4501FE599
:10484300106E7003E5116F7015124912E50C2418F0
:10485300F582E50D1254A1E512F0A3E513F0124918
:1048630021124930850A82F5837402F0A3E50E1202
:104873004938E50FF0EE850A82850B83A3A3A3F0E5
:10488300EF850A82850B83A3A3A3A3124938A3A3AD
:10489300A3E508F0E509850A82850B83A3A3A3A3F7
:1048A300A3A3F0AA10AB11120DA8E92514850A825F
:1048B300850B83A3A3A3A3A3A3A3F0750800E50E0D
:1048C300A2E45011AC12AD13E50A2408FAE50B1269
:1048D3003EA4750808E50EA2E55014AC16AD17E525
:1048E3000A2508F8E50B3400F9E82408123EA285EE
:1048F3000C82850D83A3A3E510F0A3E511F0AA0CA8
:10490300AB0D120C46740B1208D77F10020667E535
:104913000C2416F582E50D1254B27401F0221249EB
:10492300281254B222E50C1264B8E50D22E0F50A10
:10493300A3E0F50B22F0850A82850B83A3A32274DF
:10494300F21204078A088B09ECFEEDFF890A79004D
:104953001249D67003A3E069700479018073750B63
:1049630001900368E065087004A3E06509601F75A2
:104973000B00780B1208C8A90AEEFCEFFDAA08ABDE
:104983000912101E74011208D7E9F50B8041790052
:10499300EEFAEFFB120DF0EA4B602B8A828B83A3B6
:1049A300A3A3A3A3A3E05418601C7508FE7509FF15
:1049B30078081208C48A828B83A3A3120734126275
:1049C300CD1208D780097901EEFAEFFB120CCAA9C0
:1049D3000B8014120DFC8A0C8B0DA80CA90D9003EF
:1049E30068E068221208D77F0602066774F412048F
:1049F3000775080075090B7A10125FD58B0BEA4512
:104A03000B7003123CFE900353E014F0700C9022E1
:104A1300B4E493900353F0120E087E007F00806C81
:104A2300850882850983A3A3A3A3E06059F4605694
:104A3300E5082404F582E50912599D704985088229
:104A4300850983A3A3A3A3A3E06403701979028553
:104A53000882850983124227850882850983A3A3D7
:104A6300124BEF120D48850882850983A3A3A3A3E4
:104A7300A3E06401601085088285098374FEF0A3B6
:104A830004124B49E4F012307A122ECC9022A21277
:104A93006131408C7E007F008039120F108E088FA9
:104AA3000974037808120A2074782508FC740C35FD
:104AB30009FD7A547B0D120EFEEA4B70DD8E088FD2
:104AC3000974037808120A20124B17126378E4F072
:104AD30012307A9022AAE493F8C3EE98EF94005030
:104AE3001B8E088F0974037808120A20124B1FE8E3
:104AF3002407F582E912599D70D680A17E007F00BC
:104B0300800A124B2A600214F012307A12612E408E
:104B1300F10236AD124B1F888289832274782508EF
:104B2300F8740C3509F922EEF8EFF9E875F006A4EC
:104B3300F8AAF075F006E9A42AF9741828F5827426
:104B43000C39F583E022124B50A3A3A322F085086E
:104B530082850983A3A32274F712040774E112095F
:104B630055ECFEEDFF750800EE4F60728A828B8371
:104B7300E0241C1259CE12477560638A828B83121C
:104B83004BEF851882851983AC82AD83EA241BF52C
:104B930082EB12589FEA241CF582EB124BEB120FA7
:104BA30052740B120B3D124BF37003A3E069702E8A
:104BB3007402120B3DE064017024741D120B3D124C
:104BC30039E4E064017017741D120B3D1239E6A33A
:104BD300A3E0F88E828F83E0687003750801A9084B
:104BE300741F02346A1249283400F58312508E224E
:104BF300122821E0682274F4120407E97024790072
:104C030090034D1239E4121EB78A0A8B0BAE0AAF1A
:104C13000B74FE6E700374FF6F701A9022B1E493ED
:104C23006013790190034D1239E4121EB78A0A8B7F
:104C33000BAE0AAF0B120F8E0231E274F6120407A9
:104C430074F31209551215228A088B09AE08AF09AD
:104C5300900368E06E7003A3E06F60E9120F76EAD9
:104C63006E7002EB6F60DEEEFAEFFB120FE2E9709B
:104C7300D4EE4F60D0851882851983E4F004120BBB
:104C83003DEEF0A3EF124CA1E970BA74FE6E70030F
:104C930074FF6F60B0EEFAEFFB740D023509123545
:104CA3008E120BBC22C082C083120F8E0234357F5A
:104CB3000A02066774F2120407EAFEEBFF8C0A8D00
:104CC3000B8908740E120B3DE0F50974FC6E70033A
:104CD30074FF6F700579000249EA7900120DFC8AAE
:104CE3000C8B0DAE0CAF0D900368E06E7003A3E068
:104CF3006F7006E509A2E650DCA9091261BB706179
:104D030079007AFE7BFF1261BB70567418550970E7
:104D130003024DEE780079008003122A1B9022A231
:104D2300122A124003024DEEE8FAE9FBEA75F00796
:104D3300A4FAACF075F007EBA42CFB74062AF582F9
:104D4300740B3BF583E0541870D0E875F007A4F8B2
:104D5300AAF075F007E9A42AF9740028F8740B394E
:104D6300F988828983A3A3A3A3A3A3E054186009AA
:104D7300741855097003024CD888828983EEF0A316
:104D8300EFF074FE650A700474FF650B6003124F45
:104D93001588828983A3A3A3A3A3A3E509F0A2E0B3
:104DA300500D88828983A3A3A3A3A3A3D2E2F074A3
:104DB30001650888828983A3A3A3A3A37038740120
:104DC300124F39E0541860289022B5E49388828901
:104DD30083A3A3A3A3124F031210CC8B0DEA450D9B
:104DE3006003024CD87800790080397902024CDAEA
:104DF300900367E080D7E064017003024CD8888297
:104E03008983A3A3A3A3A3A3E0541860079022B5A7
:104E1300E4938004900366E0123EABE508F0024C95
:104E2300D8122A1B9022ABE493FAC3E89AE99400C0
:104E33004003024CD87A007B00804BEAFCEBFDEC8C
:104E430075F007A4FCAEF075F007EDA42EFD740217
:104E53002CF582740B3DF5831254BAE8FCE9FDECA2
:104E630075F017A4FC85F00975F017EDA42509FD6D
:104E730074902CF58274093DF583E06E7003A3E012
:104E83006F609E122F4F9022A2122EDC40AD123F74
:104E930035EC6A7002ED6B7088E875F017A4F8AA18
:104EA300F075F017E9A42AF9749028FE740939FF04
:104EB3007C177D007900EEFAEFFB1215168E828FB8
:104EC30083124F1B900375124EF5A3A3A3A3A3A3B1
:104ED300E8F0A3E9124EFB7401F0EE240E12549E87
:104EE3007401124F231202B6EE240D12549EE802EF
:104EF3004E2012344DA3A322F0EE240F1254AF22FE
:104F0300F0124F0CAA0AAB0B22900375E0FCA3E04E
:104F1300FD2288828983A3A3E50AF0A3E50BF0228F
:104F2300F0124F28229022AEE4932401F8E43400D7
:104F3300F97A027B0022123EB7A32274ED12040712
:104F43008A088B09890E12506C4005790502503A84
:104F53001217A4AA08AB0912513E9022A012503D89
:104F6300650A7003E9650B70077AFE7BFF12513EF9
:104F73009022A0E4125045E50A98E50B99400302FC
:104F830050381250496012E50A75F006A4F875F01E
:104F930006E50B1250941215B2E50E6018E50A757A
:104FA300F006A4F8AAF075F006E50B1250C0701ACB
:104FB300790102503AE50A75F006A4F8AAF075F0F3
:104FC30006E50B1250A1E4F0A3F0E50A75F006A480
:104FD300F8AAF075F006E50B125061A312534D8841
:104FE300828983A3AA82AB831250AF8A828B83E028
:104FF300603F125049603A8E108F1175120078107D
:105003001208C0E50EC333FCE433FDE50A75F00670
:10501300A4F50AA8F075F006E50BA428F50B741C9B
:10502300250AF582740C350B124BED122EED120886
:10503300D77900800279070261D1122B74E822909C
:105043002298125B5822E50A75F006A4F8AAF075B7
:10505300F006E50B12509CF8A3E0F9E84922A42AD4
:105063001251F588828983A322ECFEEDFF9022ACD6
:10507300E493F8E9C39822F58312508E1215B222F5
:10508300E50C1264B8E50D3400F583E0FAA3E0FB08
:105093002212509CFAA3E0FB221250A1E022A42A80
:1050A300F9741C28F582740C39F58322E50EF0900F
:1050B3000DB91250B922E088828983F02212521965
:1050C300F50CE93400F50DE50EC333FAE433FB12B6
:1050D30015AC850C82850D83EAF0A3EBF0850C8279
:1050E300850D831250EA22123EE3E8492274F4123A
:1050F3000407ECFEEDFF740C120B3D1234F7880825
:10510300890912513EAC0AAD0BECF8EDF99022A0DF
:105113001251465021E875F006A4F8AAF075F0067E
:10512300E9125061E08E828F8312515912514F124E
:1051330035037900800279040236AD120D7E8A0AA6
:105143008B0B22122EE5C3EC9AED9B22123EDF85D8
:1051530008828509832212522E2274F61204077ED6
:10516300007F008028EEF8EFF9E875F006A4F8ACAC
:10517300F075F006E9A42CF9741A28F582740C1260
:105183005DDC6A7003A3E06B605712307A12612E04
:1051930040D31261297002E96F704674FE6A70038E
:1051A30074FF6B703C7E007F00800312307A1261C3
:1051B3002E502E124B2A70F3EEF8EFF9E875F00635
:1051C300A4F81251EB1252206017125207F8E91299
:1051D30051FF888212507A850882850983E4F0A3FF
:1051E300F0EEFAEFFB02350C75F006E91251F322EB
:1051F300A42AF9741828F8740C39F9223400F988B0
:1052030008890922EEF8EFF9E875F006A4F875F0BD
:1052130006E9125219221251F3E8240422A3A374BB
:10522300FE12522B1250EA22F0A30412523222F041
:1052330088828983A3A3A3A32274F6120407EA2412
:105243001DF582EB125337F9604BEA241DF582EB0F
:10525300125B712402FCA3E03400FD125070400382
:1052630002532A780080298C828D83E0F508A3E01D
:10527300FFE5082400E43FF509E833FEE433FF7457
:10528300602EF582740C3FF58312534D12532D0893
:10529300E8C39940D28A828B83A3A3A3A3A3A3A326
:1052A300A3A3124227900368E06C7003A3E06D7020
:1052B3000F7C607D0C12278A124BEB120D728067F4
:1052C300EA2411F582EB125B71605CFC74FF2CF035
:1052D30075080178081208C875086075090C780804
:1052E3001208C4E9F50878081208C8EA2412F582FE
:1052F300EB125B71F50878081208C8EA2415F582E9
:10530300EB1254A1120734ECF912278A1242248AB1
:10531300828B83A3A3A3A3A3A3A3A3A3124BEF12E1
:105323000D8A74071208D702350CEC24020C0CED1D
:105333003400FD221254B212533FE022E0F8A3E0FE
:10534300F5838882A32288828983E508F0A3E5098F
:10535300F02274EA12040774FD1209558A148B159E
:105363008C0E8D0F890D7419120B3D1254BA741BD8
:10537300120B3DE0F511741C120B3DE0F50C741D8E
:10538300120B3D124930741F120B3DE0F5106008FB
:10539300E50CC333240480027402C0E07401120BD1
:1053A3003DD0E01254CB8A088B09EA450970030209
:1053B30054968A828B83A3A3E514F0A3E515125FA9
:1053C300C4E50EF0A3E50FF0EA2413F582EB1254C3
:1053D300A1E50DF0EA2414F582EB1254A1E511F0D6
:1053E300EA2417F582EB125B7164017040120F70AF
:1053F3008A0E8B0FA80EA90F850882850983A3A3A4
:10540300A3A3E0687003A3E0696022EE4F6011E597
:1054130008241AF582E5091254A1EEF0A3EF800CDB
:10542300E5082417F582E5091254A1E4F01254A506
:105433001254BA8E828F837405F0A3E5107004E5CD
:105443000C80487401250C1254C47A008028850A04
:1054530082850B83E01254C0850A82850B83A3E007
:105463008E828F83F0E50A2402F50AE50B3400F5FA
:105473000BA30EAF830AEAC3950C40D2120F70EA56
:105483001254C0120F70EB8E828F83F0AA08AB09FF
:10549300120C467403024566EE240CF582EF125497
:1054A300B22212279B1254B222EE240BF582EF3460
:1054B30000F58322900334E0FEA3E0FF228E828F67
:1054C30083F0A3AE82AF832212358E120FCA22C09D
:1054D30082C083E9C333FCE433FDEA2CFAEB3DFBE2
:1054E300EA24FEF582EB34FF124BED02343574F2FD
:1054F30012040789098A0A12506C4004790080401B
:1055030075080080020508E508C39509502AE508D7
:10551300C333F8E433F9EE28F582EF39F583C0821B
:10552300C083120F708A0C8B0DD083D082E0650C80
:105533007004A3E0650D70CDE50A650870BE7901BE
:105543000249EA74F012040774F31209558A088BAE
:10555300098C0A8D0B890C750D00120FE2E9790095
:105563006003025648AA08AB09120DFCA90C120DE0
:10557300F08A0E8B0FAE0EAF0FEE4F70030256463E
:105583008E828F83A3A3A3A3A3A3E0A2E24003027B
:105593005646120F70EA650A7003EB650B701178BB
:1055A3000D1208C8E4F50EF50F780E1208C48044F6
:1055B300AA0AAB0B120BFEE9640170688518828599
:1055C30019837404F07401120B3D124F1B8518826A
:1055D300851983AA82AB83120BBCE96401704575FC
:1055E3000D01780D1208C8E4F50EF50F780E1208B8
:1055F300C4750D00780D1208C8780D1208C8740818
:10560300120B3D85820E85830F780E1208C49022FB
:10561300B7E493F9AC0AAD0BAA08AB09120D8A746F
:10562300071208D78E828F83A3A3A3A3A3A3E0A209
:10563300E1400D8E828F83A3A3A3A3A3A3C2E2F0B1
:10564300750D01A90D023EE974F6120407E9FE790E
:1056530000120DFCEEF9120DF08A088B09A808A9B7
:1056630009E84960061264FFF98002790402350CE7
:1056730074F61204077E0790035CE070341256B987
:105683008A088B09A808A909E8496025900361E005
:10569300640188828983A3A3700B1256C088828910
:1056A300835001A3A3E0F91210EAE9FEEE70027E33
:1056B30007EEF902350C124F0C1210CC22E0FA88D7
:1056C300828983A3E0C39A2274EE120407EAFEEBF5
:1056D300FF890A8C0C8D0B7412120B3D123441128C
:1056E30057951250735051890E750F007403780E3D
:1056F300120A20747E250EF582740C350FF583E0B3
:10570300F8E50CC398502DE50B6024751100740364
:105713007810120A2074782510F8740C3511F98862
:10572300828983A3A3A3A3A3A3E50C12579FF079B4
:1057330000024CB2790380F979007AFE7BFF12579D
:1057430095E49365107004790280E6E50B60E089C7
:105753000E750F007403780E120A207478250EF864
:10576300740C350FF988828983A3EEF0A3EF1257E7
:105773009F124F39E50C123EB374FF12637EE50AA4
:10578300F0900366E088828983A3A3A3A3A3A3A3C2
:10579300809C120DEAE9F5109022AA221264C1A39B
:1057A300E508F0A3E5092274F6120407ECFF120DD5
:1057B300EA9022AA125073502789087509007403CE
:1057C3007808120A20747D1257E9740C126030E0D5
:1057D300F8EFC3985006EFF0790080067903800252
:1057E300790402350CEA2508F5822274F4120407C1
:1057F300EAFEEBFF120DEAE9F50A9022AA125073B2
:105803005019750B007403780A120A20747B250A59
:10581300F582740C350B124BED801890034B124735
:1058230075600CEEFAEFFB1239E7121EB780047AAB
:10583300FE7BFF0236AD74F61204078A828B83A3C4
:10584300A3A3A3A3E4F0F88001089022B0E493F9A2
:10585300E8C399501E88081258978C828D83A3A39E
:10586300A3A3A3A3A3A3E06970DFECFAEDFB120FDC
:1058730016801EE4936870198C828D83A3A3A3A35F
:10588300A3A3A3A3A37406F07A008C828D83125979
:10589300C202350C74002508F582740D125B7DF984
:1058A3002274F4120407EAFEEBFF8E828F83A3A314
:1058B300E0141259D9A3E0F9120EF28A088B09EA0F
:1058C3004509700302599A8E828F83A3A3E0703532
:1058D3008A828B83A3A3A3A3A3A3A3A3A3E06402AA
:1058E3008A828B83A3A3A3A3A3A3A3A3A3601074FC
:1058F30006F07AF08508828B831259C202599A7492
:1059030006F002599A8E828F83A3A3A3A3A3A3E0D5
:1059130060738E828F83A3A3A3A3E0607AEE240334
:10592300F582EF12599D706F9003551259A31259C6
:10593300D9E014125FBBE06403705C8E828F83A393
:10594300A3A3A3E0700DAC08AD09EEFAEFFB120DB3
:10595300C080448A828B83A3A3A3A3A3A3A3A3A3EB
:105963007404F0121522EA540F0485088285098312
:10597300A3A3A3A3F0A3E4F07A20FB1259B97017F1
:105983001259AC80128A828B83A3A3A3A3A3A3A3DC
:10599300A3A3E0640360AF0236AD125B7D14F02273
:1059A300E08E828F83A3A3A3227A207B009003C27D
:1059B300E0F912156422125FD78B09EA450922E048
:1059C300240C1259CEE0F9120E3822F8A3E0340069
:1059D300F988828983221259DEA3221234E9A3A310
:1059E300A32274F612040779007E0080258E0875C1
:1059F300090074037808120A2074B82508FA740C95
:105A03003509FB8A828B83A3A3E06005120DC67957
:105A1300010E9022B0E493F8EEC39840D0E9A2E0DF
:105A23007A407B009003C2E0F950151216728B097D
:105A3300EA4509700E7C647D007A40123D048003C0
:105A430012166C02350C74F4120407ECFEEDFF75AC
:105A530008B875090C7C008045850882850983A3F5
:105A6300A3A3A3A3A3A3E0F8EA2412F582EB125B9A
:105A73007168701F8508828509831234F7125B757C
:105A8300687003A3E069700B850882850983A3A36B
:105A9300E070200CE5082408F8E5091251FF902274
:105AA300B0E493F8ECC39840B0E4936C70057900CC
:105AB3000236AD850882850983A3A3A3A3A3A3E02C
:105AC3007004790180EA1261C91210A28B0BEA45B6
:105AD3000B600F850882850983A3A3A3A3A3A3E077
:105AE30014F07C0080010C8C0A125B4B5020EC12EA
:105AF3005B8360F21230926E7003A3E06F70E785F0
:105B03000882850983A3A3A3A3A3A3E014F090228F
:105B1300ABE493F8902298E49328F8A3E493340039
:105B2300F9850882850983A3A3A3A3A3A3E0FAC3EA
